{
    "contractName": "ModuleFactory",
    "abi": [
        {
            "inputs": [
                {
                    "internalType": "address",
                    "name": "owner",
                    "type": "address"
                }
            ],
            "stateMutability": "nonpayable",
            "type": "constructor"
        },
        {
            "anonymous": false,
            "inputs": [
                {
                    "indexed": true,
                    "internalType": "address",
                    "name": "user",
                    "type": "address"
                },
                {
                    "indexed": true,
                    "internalType": "address",
                    "name": "newOwner",
                    "type": "address"
                }
            ],
            "name": "OwnerUpdated",
            "type": "event"
        },
        {
            "inputs": [
                {
                    "internalType": "address",
                    "name": "_implementation",
                    "type": "address"
                },
                {
                    "internalType": "bool",
                    "name": "_rebalancing",
                    "type": "bool"
                },
                {
                    "internalType": "bool",
                    "name": "_morphism",
                    "type": "bool"
                }
            ],
            "name": "addImplementation",
            "outputs": [
                {
                    "internalType": "uint256",
                    "name": "index",
                    "type": "uint256"
                }
            ],
            "stateMutability": "nonpayable",
            "type": "function"
        },
        {
            "inputs": [
                {
                    "internalType": "uint256",
                    "name": "",
                    "type": "uint256"
                }
            ],
            "name": "allImplementations",
            "outputs": [
                {
                    "internalType": "address",
                    "name": "",
                    "type": "address"
                }
            ],
            "stateMutability": "view",
            "type": "function"
        },
        {
            "inputs": [
                {
                    "internalType": "uint256",
                    "name": "",
                    "type": "uint256"
                }
            ],
            "name": "allModules",
            "outputs": [
                {
                    "internalType": "address",
                    "name": "",
                    "type": "address"
                }
            ],
            "stateMutability": "view",
            "type": "function"
        },
        {
            "inputs": [],
            "name": "allowPublicImplementations",
            "outputs": [
                {
                    "internalType": "bool",
                    "name": "",
                    "type": "bool"
                }
            ],
            "stateMutability": "view",
            "type": "function"
        },
        {
            "inputs": [],
            "name": "allowPublicStrategies",
            "outputs": [
                {
                    "internalType": "bool",
                    "name": "",
                    "type": "bool"
                }
            ],
            "stateMutability": "view",
            "type": "function"
        },
        {
            "inputs": [
                {
                    "internalType": "address[]",
                    "name": "path",
                    "type": "address[]"
                }
            ],
            "name": "createStrategy",
            "outputs": [],
            "stateMutability": "nonpayable",
            "type": "function"
        },
        {
            "inputs": [
                {
                    "internalType": "uint256",
                    "name": "implementationIndex",
                    "type": "uint256"
                },
                {
                    "internalType": "address",
                    "name": "asset",
                    "type": "address"
                },
                {
                    "internalType": "address",
                    "name": "product",
                    "type": "address"
                },
                {
                    "internalType": "address",
                    "name": "source",
                    "type": "address"
                }
            ],
            "name": "deployModule",
            "outputs": [
                {
                    "internalType": "address",
                    "name": "module",
                    "type": "address"
                }
            ],
            "stateMutability": "nonpayable",
            "type": "function"
        },
        {
            "inputs": [
                {
                    "internalType": "address",
                    "name": "_module",
                    "type": "address"
                },
                {
                    "internalType": "address",
                    "name": "_target",
                    "type": "address"
                }
            ],
            "name": "initializeStrategy",
            "outputs": [],
            "stateMutability": "nonpayable",
            "type": "function"
        },
        {
            "inputs": [
                {
                    "internalType": "address",
                    "name": "",
                    "type": "address"
                },
                {
                    "internalType": "address",
                    "name": "",
                    "type": "address"
                }
            ],
            "name": "isPegged",
            "outputs": [
                {
                    "internalType": "bool",
                    "name": "",
                    "type": "bool"
                }
            ],
            "stateMutability": "view",
            "type": "function"
        },
        {
            "inputs": [],
            "name": "owner",
            "outputs": [
                {
                    "internalType": "address",
                    "name": "",
                    "type": "address"
                }
            ],
            "stateMutability": "view",
            "type": "function"
        },
        {
            "inputs": [
                {
                    "internalType": "address",
                    "name": "newOwner",
                    "type": "address"
                }
            ],
            "name": "setOwner",
            "outputs": [],
            "stateMutability": "nonpayable",
            "type": "function"
        },
        {
            "inputs": [
                {
                    "internalType": "address",
                    "name": "asset1",
                    "type": "address"
                },
                {
                    "internalType": "address",
                    "name": "asset2",
                    "type": "address"
                },
                {
                    "internalType": "bool",
                    "name": "pegged",
                    "type": "bool"
                }
            ],
            "name": "setPeggedAssets",
            "outputs": [],
            "stateMutability": "nonpayable",
            "type": "function"
        }
    ],
    "bytecode": "608060405234801561001057600080fd5b50604051610b9c380380610b9c83398101604081905261002f9161007e565b600080546001600160a01b0319166001600160a01b03831690811782556040518392907f8292fce18fa69edf4db7b94ea2e58241df0ae57f97e0a6c9b29067028bf92d76908290a350506100ae565b60006020828403121561009057600080fd5b81516001600160a01b03811681146100a757600080fd5b9392505050565b610adf806100bd6000396000f3fe608060405234801561001057600080fd5b50600436106100b45760003560e01c80639f2ebdf4116100715780639f2ebdf414610162578063a2c4ad5b14610174578063c2dd3d68146101a2578063d2f05a42146101b5578063d8d82b43146101c7578063d9f828b8146101da57600080fd5b8063065bb47c146100b957806313af4035146100db5780634d352ab2146100f05780636fd3e07114610103578063832f42d1146101245780638da5cb5b1461014f575b600080fd5b6003546100c69060ff1681565b60405190151581526020015b60405180910390f35b6100ee6100e93660046108bb565b6101ed565b005b6100ee6100fe3660046108dd565b610286565b610116610111366004610920565b6102e5565b6040519081526020016100d2565b610137610132366004610963565b6104d4565b6040516001600160a01b0390911681526020016100d2565b600054610137906001600160a01b031681565b6003546100c690610100900460ff1681565b6100c66101823660046108dd565b600660209081526000928352604080842090915290825290205460ff1681565b6101376101b03660046109b0565b610730565b6100ee6101c33660046109c9565b5050565b6101376101d53660046109b0565b61075a565b6100ee6101e8366004610a3e565b61076a565b6000546001600160a01b0316331461023b5760405162461bcd60e51b815260206004820152600c60248201526b15539055551213d49256915160a21b60448201526064015b60405180910390fd5b600080546001600160a01b0319166001600160a01b0383169081178255604051909133917f8292fce18fa69edf4db7b94ea2e58241df0ae57f97e0a6c9b29067028bf92d769190a350565b60405163678cbcb560e01b81526001600160a01b03828116600483015283169063678cbcb590602401600060405180830381600087803b1580156102c957600080fd5b505af11580156102dd573d6000803e3d6000fd5b505050505050565b600080546001600160a01b0316331480610301575060035460ff165b61033b5760405162461bcd60e51b815260206004820152600b60248201526a08585d5d1a1bdc9a5e995960aa1b6044820152606401610232565b60408051608081018252841515815283151560208083019182526001838501818152600254606086019081526001600160a01b038b16600090815260059094529590922084518154945193511515620100000262ff0000199415156101000261ff0019921580159390931661ffff19909716969096179590951793909316939093178355935191909301559061047a57846001600160a01b03166316d1d9166040518163ffffffff1660e01b8152600401602060405180830381865afa158015610409573d6000803e3d6000fd5b505050506040513d601f19601f8201168201806040525081019061042d9190610a6a565b6001600160801b031660000361047a5760405162461bcd60e51b8152602060048201526012602482015271085c9958985b185b98d9525b9d195c9d985b60721b6044820152606401610232565b600280546001810182556000919091527f405787fa12a823e0f2b7631cc41b3ba8828b3321ca811111fa75cd3aa3bb5ace0180546001600160a01b0387166001600160a01b03199091161790556060015190509392505050565b600080600286815481106104ea576104ea610a93565b60009182526020808320909101546001600160a01b0316808352600582526040928390208351608081018552815460ff808216151583526101008204811615159583019590955262010000900490931615159383019390935260019290920154606082018190529192509087146105955760405162461bcd60e51b815260206004820152600f60248201526e10b4b6b83632b6b2b73a30ba34b7b760891b6044820152606401610232565b80604001516105d05760405162461bcd60e51b81526020600482015260076024820152662161637469766560c81b6044820152606401610232565b806020015115610639576001600160a01b0380871660009081526006602090815260408083209389168352929052205460ff166106395760405162461bcd60e51b8152602060048201526007602482015266085c1959d9d95960ca1b6044820152606401610232565b61064282610807565b92506001600160a01b0383166106845760405162461bcd60e51b8152602060048201526007602482015266216d6f64756c6560c81b6044820152606401610232565b604051637c643b2f60e11b81526001600160a01b03878116600483015286811660248301528581166044830152838116606483015284169063f8c8765e90608401600060405180830381600087803b1580156106df57600080fd5b505af11580156106f3573d6000803e3d6000fd5b5050506001600160a01b0380851660009081526004602052604090208054919094166001600160a01b031990911617909255509095945050505050565b6002818154811061074057600080fd5b6000918252602090912001546001600160a01b0316905081565b6001818154811061074057600080fd5b6000546001600160a01b031633146107b35760405162461bcd60e51b815260206004820152600c60248201526b15539055551213d49256915160a21b6044820152606401610232565b6001600160a01b039283166000818152600660208181526040808420969097168352948552858220805460ff1990811695151595861790915590855285822092825291909352929091208054909216179055565b6000604051733d602d80600a3d3981f3363d3d373d3d3d363d7360601b81528260601b60148201526e5af43d82803e903d91602b57fd5bf360881b60288201526037816000f09150506001600160a01b03811661089f5760405162461bcd60e51b8152602060048201526016602482015275115490cc4c4d8dce8818dc99585d194819985a5b195960521b6044820152606401610232565b919050565b80356001600160a01b038116811461089f57600080fd5b6000602082840312156108cd57600080fd5b6108d6826108a4565b9392505050565b600080604083850312156108f057600080fd5b6108f9836108a4565b9150610907602084016108a4565b90509250929050565b8035801515811461089f57600080fd5b60008060006060848603121561093557600080fd5b61093e846108a4565b925061094c60208501610910565b915061095a60408501610910565b90509250925092565b6000806000806080858703121561097957600080fd5b84359350610989602086016108a4565b9250610997604086016108a4565b91506109a5606086016108a4565b905092959194509250565b6000602082840312156109c257600080fd5b5035919050565b600080602083850312156109dc57600080fd5b823567ffffffffffffffff808211156109f457600080fd5b818501915085601f830112610a0857600080fd5b813581811115610a1757600080fd5b8660208260051b8501011115610a2c57600080fd5b60209290920196919550909350505050565b600080600060608486031215610a5357600080fd5b610a5c846108a4565b925061094c602085016108a4565b600060208284031215610a7c57600080fd5b81516001600160801b03811681146108d657600080fd5b634e487b7160e01b600052603260045260246000fdfea2646970667358221220a23a309e050f47b0bfc4843f28f91ed2d0e55ca31576f06c0c33e5f01b6f30db64736f6c634300080d0033",
    "sourcePath": "/Users/misha/Library/Mobile Documents/com~apple~CloudDocs/Dev/construct-finance/construct_V0/src/ModuleFactory.sol",
    "compiler": {
        "name": "solc",
        "version": "0.8.13+commit.abaa5c0e"
    },
    "functionHashes": {
        "addImplementation(address,bool,bool)": "6fd3e071",
        "allImplementations(uint256)": "c2dd3d68",
        "allModules(uint256)": "d8d82b43",
        "allowPublicImplementations()": "065bb47c",
        "allowPublicStrategies()": "9f2ebdf4",
        "createStrategy(address[])": "d2f05a42",
        "deployModule(uint256,address,address,address)": "832f42d1",
        "initializeStrategy(address,address)": "4d352ab2",
        "isPegged(address,address)": "a2c4ad5b",
        "owner()": "8da5cb5b",
        "setOwner(address)": "13af4035",
        "setPeggedAssets(address,address,bool)": "d9f828b8"
    },
    "gasEstimates": {
        "creation": {
            "codeDepositCost": "556600",
            "executionCost": "infinite",
            "totalCost": "infinite"
        },
        "external": {
            "addImplementation(address,bool,bool)": "infinite",
            "allImplementations(uint256)": "4658",
            "allModules(uint256)": "4702",
            "allowPublicImplementations()": "2300",
            "allowPublicStrategies()": "2310",
            "createStrategy(address[])": "463",
            "deployModule(uint256,address,address,address)": "infinite",
            "initializeStrategy(address,address)": "infinite",
            "isPegged(address,address)": "infinite",
            "owner()": "2448",
            "setOwner(address)": "28253",
            "setPeggedAssets(address,address,bool)": "infinite"
        }
    }
}