{
    "contractName": "ModuleFactory",
    "abi": [
        {
            "inputs": [
                {
                    "internalType": "address",
                    "name": "owner",
                    "type": "address"
                }
            ],
            "stateMutability": "nonpayable",
            "type": "constructor"
        },
        {
            "anonymous": false,
            "inputs": [
                {
                    "indexed": true,
                    "internalType": "address",
                    "name": "user",
                    "type": "address"
                },
                {
                    "indexed": true,
                    "internalType": "address",
                    "name": "newOwner",
                    "type": "address"
                }
            ],
            "name": "OwnerUpdated",
            "type": "event"
        },
        {
            "inputs": [
                {
                    "internalType": "address",
                    "name": "_implementation",
                    "type": "address"
                },
                {
                    "internalType": "bool",
                    "name": "_rebalancing",
                    "type": "bool"
                },
                {
                    "internalType": "bool",
                    "name": "_morphism",
                    "type": "bool"
                }
            ],
            "name": "addImplementation",
            "outputs": [
                {
                    "internalType": "uint256",
                    "name": "index",
                    "type": "uint256"
                }
            ],
            "stateMutability": "nonpayable",
            "type": "function"
        },
        {
            "inputs": [
                {
                    "internalType": "uint256",
                    "name": "",
                    "type": "uint256"
                }
            ],
            "name": "allModuleImplementations",
            "outputs": [
                {
                    "internalType": "address",
                    "name": "",
                    "type": "address"
                }
            ],
            "stateMutability": "view",
            "type": "function"
        },
        {
            "inputs": [
                {
                    "internalType": "uint256",
                    "name": "",
                    "type": "uint256"
                }
            ],
            "name": "allModules",
            "outputs": [
                {
                    "internalType": "address",
                    "name": "",
                    "type": "address"
                }
            ],
            "stateMutability": "view",
            "type": "function"
        },
        {
            "inputs": [],
            "name": "allowPublicImplementations",
            "outputs": [
                {
                    "internalType": "bool",
                    "name": "",
                    "type": "bool"
                }
            ],
            "stateMutability": "view",
            "type": "function"
        },
        {
            "inputs": [],
            "name": "allowPublicStrategies",
            "outputs": [
                {
                    "internalType": "bool",
                    "name": "",
                    "type": "bool"
                }
            ],
            "stateMutability": "view",
            "type": "function"
        },
        {
            "inputs": [
                {
                    "internalType": "address[]",
                    "name": "_path",
                    "type": "address[]"
                }
            ],
            "name": "createStrategy",
            "outputs": [
                {
                    "internalType": "address",
                    "name": "strategy",
                    "type": "address"
                }
            ],
            "stateMutability": "nonpayable",
            "type": "function"
        },
        {
            "inputs": [
                {
                    "internalType": "address",
                    "name": "implementation",
                    "type": "address"
                },
                {
                    "internalType": "address",
                    "name": "asset",
                    "type": "address"
                },
                {
                    "internalType": "address",
                    "name": "product",
                    "type": "address"
                },
                {
                    "internalType": "address",
                    "name": "source",
                    "type": "address"
                }
            ],
            "name": "deployModule",
            "outputs": [
                {
                    "internalType": "address",
                    "name": "module",
                    "type": "address"
                }
            ],
            "stateMutability": "nonpayable",
            "type": "function"
        },
        {
            "inputs": [
                {
                    "internalType": "address",
                    "name": "",
                    "type": "address"
                },
                {
                    "internalType": "address",
                    "name": "",
                    "type": "address"
                }
            ],
            "name": "isPegged",
            "outputs": [
                {
                    "internalType": "bool",
                    "name": "",
                    "type": "bool"
                }
            ],
            "stateMutability": "view",
            "type": "function"
        },
        {
            "inputs": [],
            "name": "owner",
            "outputs": [
                {
                    "internalType": "address",
                    "name": "",
                    "type": "address"
                }
            ],
            "stateMutability": "view",
            "type": "function"
        },
        {
            "inputs": [
                {
                    "internalType": "address",
                    "name": "newOwner",
                    "type": "address"
                }
            ],
            "name": "setOwner",
            "outputs": [],
            "stateMutability": "nonpayable",
            "type": "function"
        },
        {
            "inputs": [
                {
                    "internalType": "address",
                    "name": "asset1",
                    "type": "address"
                },
                {
                    "internalType": "address",
                    "name": "asset2",
                    "type": "address"
                },
                {
                    "internalType": "bool",
                    "name": "pegged",
                    "type": "bool"
                }
            ],
            "name": "setPeggedAssets",
            "outputs": [],
            "stateMutability": "nonpayable",
            "type": "function"
        },
        {
            "inputs": [
                {
                    "internalType": "address",
                    "name": "_implementation",
                    "type": "address"
                }
            ],
            "name": "setStrategyImplementation",
            "outputs": [],
            "stateMutability": "nonpayable",
            "type": "function"
        },
        {
            "inputs": [],
            "name": "strategyImplementation",
            "outputs": [
                {
                    "internalType": "address",
                    "name": "",
                    "type": "address"
                }
            ],
            "stateMutability": "view",
            "type": "function"
        }
    ],
    "bytecode": "608060405234801561001057600080fd5b506040516110f23803806110f283398101604081905261002f9161007e565b600080546001600160a01b0319166001600160a01b03831690811782556040518392907f8292fce18fa69edf4db7b94ea2e58241df0ae57f97e0a6c9b29067028bf92d76908290a350506100ae565b60006020828403121561009057600080fd5b81516001600160a01b03811681146100a757600080fd5b9392505050565b611035806100bd6000396000f3fe608060405234801561001057600080fd5b50600436106100cf5760003560e01c8063ac66016d1161008c578063d2f05a4211610066578063d2f05a42146101d0578063d8d82b43146101e3578063d9f828b8146101f6578063f518b0f71461020957600080fd5b8063ac66016d14610197578063bd922b1c146101aa578063c3dad250146101bd57600080fd5b8063065bb47c146100d457806313af4035146100f65780636fd3e0711461010b5780638da5cb5b1461012c5780639f2ebdf414610157578063a2c4ad5b14610169575b600080fd5b6004546100e19060ff1681565b60405190151581526020015b60405180910390f35b610109610104366004610cbf565b61021c565b005b61011e610119366004610cf1565b61029a565b6040519081526020016100ed565b60005461013f906001600160a01b031681565b6040516001600160a01b0390911681526020016100ed565b6004546100e190610100900460ff1681565b6100e1610177366004610d34565b600860209081526000928352604080842090915290825290205460ff1681565b6101096101a5366004610cbf565b610489565b60015461013f906001600160a01b031681565b61013f6101cb366004610d67565b6104d5565b61013f6101de366004610dbb565b6106c1565b61013f6101f1366004610e30565b610aad565b610109610204366004610e49565b610ad7565b61013f610217366004610e30565b610b55565b6000546001600160a01b0316331461024f5760405162461bcd60e51b815260040161024690610e75565b60405180910390fd5b600080546001600160a01b0319166001600160a01b0383169081178255604051909133917f8292fce18fa69edf4db7b94ea2e58241df0ae57f97e0a6c9b29067028bf92d769190a350565b600080546001600160a01b03163314806102b6575060045460ff165b6102f05760405162461bcd60e51b815260206004820152600b60248201526a08585d5d1a1bdc9a5e995960aa1b6044820152606401610246565b60408051608081018252841515815283151560208083019182526001838501818152600354606086019081526001600160a01b038b16600090815260079094529590922084518154945193511515620100000262ff0000199415156101000261ff0019921580159390931661ffff19909716969096179590951793909316939093178355935191909301559061042f57846001600160a01b03166316d1d9166040518163ffffffff1660e01b8152600401602060405180830381865afa1580156103be573d6000803e3d6000fd5b505050506040513d601f19601f820116820180604052508101906103e29190610e9b565b6001600160801b031660000361042f5760405162461bcd60e51b8152602060048201526012602482015271085c9958985b185b98d9525b9d195c9d985b60721b6044820152606401610246565b600380546001810182556000919091527fc2575a0e9e593c00f959f8c92f12db2869c3395a3b0502d05e2516446f71f85b0180546001600160a01b0387166001600160a01b03199091161790556060015190509392505050565b6000546001600160a01b031633146104b35760405162461bcd60e51b815260040161024690610e75565b600180546001600160a01b0319166001600160a01b0392909216919091179055565b6001600160a01b03841660009081526007602090815260408083208151608081018352815460ff808216151583526101008204811615159583019590955262010000900490931615159183018290526001015460608301526105635760405162461bcd60e51b81526020600482015260076024820152662161637469766560c81b6044820152606401610246565b8060200151156105cc576001600160a01b0380861660009081526008602090815260408083209388168352929052205460ff166105cc5760405162461bcd60e51b8152602060048201526007602482015266085c1959d9d95960ca1b6044820152606401610246565b6105d586610b65565b91506001600160a01b0382166106175760405162461bcd60e51b8152602060048201526007602482015266216d6f64756c6560c81b6044820152606401610246565b604051637c643b2f60e11b81526001600160a01b03868116600483015285811660248301528481166044830152878116606483015283169063f8c8765e90608401600060405180830381600087803b15801561067257600080fd5b505af1158015610686573d6000803e3d6000fd5b5050506001600160a01b0380841660009081526005602052604090208054919098166001600160a01b03199091161790965550949350505050565b600080546001600160a01b03163314806106e25750600454610100900460ff165b61071c5760405162461bcd60e51b815260206004820152600b60248201526a08585d5d1a1bdc9a5e995960aa1b6044820152606401610246565b6001546001600160a01b03166107745760405162461bcd60e51b815260206004820152601760248201527f217374726174656779496d706c656d656e746174696f6e0000000000000000006044820152606401610246565b60008383604051602001610789929190610ec4565b60408051601f198184030181529190528051602090910120600154909150600090610817906001600160a01b03168330604051733d602d80600a3d3981f3363d3d373d3d3d363d7360601b8152606093841b60148201526f5af43d82803e903d91602b57fd5bf3ff60801b6028820152921b6038830152604c8201526037808220606c830152605591012090565b6001600160a01b03811660009081526006602052604090205490915060ff16156108775760405162461bcd60e51b8152602060048201526011602482015270085cdd1c985d1959de51195c1b1bde5959607a1b6044820152606401610246565b60015461088d906001600160a01b031683610c02565b6001600160a01b0381166000908152600660205260408120805460ff191660011790559093506108be600286610f26565b67ffffffffffffffff8111156108d6576108d6610f48565b6040519080825280602002602001820160405280156108ff578160200160208202803683370190505b5090508360015b610911600188610f5e565b811015610a1b57600088888381811061092c5761092c610f75565b90506020020160208101906109419190610cbf565b905060008989610952600186610f5e565b81811061096157610961610f75565b90506020020160208101906109769190610cbf565b905060008a8a610987866001610f8b565b81811061099657610996610f75565b90506020020160208101906109ab9190610cbf565b90506109b9838383886104d5565b9450848660026109ca600188610f5e565b6109d49190610f26565b815181106109e4576109e4610f75565b60200260200101906001600160a01b031690816001600160a01b031681525050505050600281610a149190610f8b565b9050610906565b50846001600160a01b031663946d920488886000818110610a3e57610a3e610f75565b9050602002016020810190610a539190610cbf565b846040518363ffffffff1660e01b8152600401610a71929190610fa3565b600060405180830381600087803b158015610a8b57600080fd5b505af1158015610a9f573d6000803e3d6000fd5b505050505050505092915050565b60028181548110610abd57600080fd5b6000918252602090912001546001600160a01b0316905081565b6000546001600160a01b03163314610b015760405162461bcd60e51b815260040161024690610e75565b6001600160a01b039283166000818152600860208181526040808420969097168352948552858220805460ff1990811695151595861790915590855285822092825291909352929091208054909216179055565b60038181548110610abd57600080fd5b6000604051733d602d80600a3d3981f3363d3d373d3d3d363d7360601b81528260601b60148201526e5af43d82803e903d91602b57fd5bf360881b60288201526037816000f09150506001600160a01b038116610bfd5760405162461bcd60e51b8152602060048201526016602482015275115490cc4c4d8dce8818dc99585d194819985a5b195960521b6044820152606401610246565b919050565b6000604051733d602d80600a3d3981f3363d3d373d3d3d363d7360601b81528360601b60148201526e5af43d82803e903d91602b57fd5bf360881b6028820152826037826000f59150506001600160a01b038116610ca25760405162461bcd60e51b815260206004820152601760248201527f455243313136373a2063726561746532206661696c65640000000000000000006044820152606401610246565b92915050565b80356001600160a01b0381168114610bfd57600080fd5b600060208284031215610cd157600080fd5b610cda82610ca8565b9392505050565b80358015158114610bfd57600080fd5b600080600060608486031215610d0657600080fd5b610d0f84610ca8565b9250610d1d60208501610ce1565b9150610d2b60408501610ce1565b90509250925092565b60008060408385031215610d4757600080fd5b610d5083610ca8565b9150610d5e60208401610ca8565b90509250929050565b60008060008060808587031215610d7d57600080fd5b610d8685610ca8565b9350610d9460208601610ca8565b9250610da260408601610ca8565b9150610db060608601610ca8565b905092959194509250565b60008060208385031215610dce57600080fd5b823567ffffffffffffffff80821115610de657600080fd5b818501915085601f830112610dfa57600080fd5b813581811115610e0957600080fd5b8660208260051b8501011115610e1e57600080fd5b60209290920196919550909350505050565b600060208284031215610e4257600080fd5b5035919050565b600080600060608486031215610e5e57600080fd5b610e6784610ca8565b9250610d1d60208501610ca8565b6020808252600c908201526b15539055551213d49256915160a21b604082015260600190565b600060208284031215610ead57600080fd5b81516001600160801b0381168114610cda57600080fd5b60208082528181018390526000908460408401835b86811015610f05576001600160a01b03610ef284610ca8565b1682529183019190830190600101610ed9565b509695505050505050565b634e487b7160e01b600052601160045260246000fd5b600082610f4357634e487b7160e01b600052601260045260246000fd5b500490565b634e487b7160e01b600052604160045260246000fd5b600082821015610f7057610f70610f10565b500390565b634e487b7160e01b600052603260045260246000fd5b60008219821115610f9e57610f9e610f10565b500190565b6001600160a01b038381168252604060208084018290528451918401829052600092858201929091906060860190855b81811015610ff1578551851683529483019491830191600101610fd3565b50909897505050505050505056fea26469706673582212203db8ba7d31e9cacc09efbea93b2d42cd9f4086a09e6971aa7c93648e099dab4d64736f6c634300080d0033",
    "sourcePath": "/Users/misha/Library/Mobile Documents/com~apple~CloudDocs/Dev/construct-finance/construct_V0/src/ModuleFactory.sol",
    "compiler": {
        "name": "solc",
        "version": "0.8.13+commit.abaa5c0e"
    },
    "functionHashes": {
        "addImplementation(address,bool,bool)": "6fd3e071",
        "allModuleImplementations(uint256)": "f518b0f7",
        "allModules(uint256)": "d8d82b43",
        "allowPublicImplementations()": "065bb47c",
        "allowPublicStrategies()": "9f2ebdf4",
        "createStrategy(address[])": "d2f05a42",
        "deployModule(address,address,address,address)": "c3dad250",
        "isPegged(address,address)": "a2c4ad5b",
        "owner()": "8da5cb5b",
        "setOwner(address)": "13af4035",
        "setPeggedAssets(address,address,bool)": "d9f828b8",
        "setStrategyImplementation(address)": "ac66016d",
        "strategyImplementation()": "bd922b1c"
    },
    "gasEstimates": {
        "creation": {
            "codeDepositCost": "829800",
            "executionCost": "infinite",
            "totalCost": "infinite"
        },
        "external": {
            "addImplementation(address,bool,bool)": "infinite",
            "allModuleImplementations(uint256)": "4702",
            "allModules(uint256)": "4658",
            "allowPublicImplementations()": "2300",
            "allowPublicStrategies()": "2399",
            "createStrategy(address[])": "infinite",
            "deployModule(address,address,address,address)": "infinite",
            "isPegged(address,address)": "infinite",
            "owner()": "2404",
            "setOwner(address)": "28253",
            "setPeggedAssets(address,address,bool)": "infinite",
            "setStrategyImplementation(address)": "26734",
            "strategyImplementation()": "2382"
        }
    }
}