{
    "contractName": "ConstructOracle",
    "abi": [
        {
            "inputs": [
                {
                    "internalType": "address",
                    "name": "_owner",
                    "type": "address"
                },
                {
                    "internalType": "address",
                    "name": "_fallbackOracle",
                    "type": "address"
                }
            ],
            "stateMutability": "nonpayable",
            "type": "constructor"
        },
        {
            "anonymous": false,
            "inputs": [
                {
                    "indexed": true,
                    "internalType": "address",
                    "name": "user",
                    "type": "address"
                },
                {
                    "indexed": true,
                    "internalType": "address",
                    "name": "newOwner",
                    "type": "address"
                }
            ],
            "name": "OwnerUpdated",
            "type": "event"
        },
        {
            "inputs": [
                {
                    "internalType": "address",
                    "name": "asset",
                    "type": "address"
                }
            ],
            "name": "getAssetPrice",
            "outputs": [
                {
                    "internalType": "uint256",
                    "name": "",
                    "type": "uint256"
                }
            ],
            "stateMutability": "view",
            "type": "function"
        },
        {
            "inputs": [
                {
                    "internalType": "address",
                    "name": "asset",
                    "type": "address"
                }
            ],
            "name": "getSourceOfAsset",
            "outputs": [
                {
                    "internalType": "address",
                    "name": "source",
                    "type": "address"
                }
            ],
            "stateMutability": "view",
            "type": "function"
        },
        {
            "inputs": [],
            "name": "owner",
            "outputs": [
                {
                    "internalType": "address",
                    "name": "",
                    "type": "address"
                }
            ],
            "stateMutability": "view",
            "type": "function"
        },
        {
            "inputs": [
                {
                    "internalType": "address[]",
                    "name": "assets",
                    "type": "address[]"
                },
                {
                    "internalType": "address[]",
                    "name": "sources",
                    "type": "address[]"
                }
            ],
            "name": "setAssetSource",
            "outputs": [],
            "stateMutability": "nonpayable",
            "type": "function"
        },
        {
            "inputs": [
                {
                    "internalType": "address",
                    "name": "_fallbackOracle",
                    "type": "address"
                }
            ],
            "name": "setFallBackOracle",
            "outputs": [],
            "stateMutability": "nonpayable",
            "type": "function"
        },
        {
            "inputs": [
                {
                    "internalType": "address",
                    "name": "newOwner",
                    "type": "address"
                }
            ],
            "name": "setOwner",
            "outputs": [],
            "stateMutability": "nonpayable",
            "type": "function"
        }
    ],
    "bytecode": "608060405234801561001057600080fd5b506040516107a13803806107a183398101604081905261002f916100ba565b600080546001600160a01b0319166001600160a01b03841690811782556040518492907f8292fce18fa69edf4db7b94ea2e58241df0ae57f97e0a6c9b29067028bf92d76908290a350600180546001600160a01b0319166001600160a01b0392909216919091179055506100ed565b80516001600160a01b03811681146100b557600080fd5b919050565b600080604083850312156100cd57600080fd5b6100d68361009e565b91506100e46020840161009e565b90509250929050565b6106a5806100fc6000396000f3fe608060405234801561001057600080fd5b50600436106100625760003560e01c806313af4035146100675780634139242e1461007c5780637528282b1461008f5780638da5cb5b146100a257806392bf2be0146100d2578063b3596f07146100fe575b600080fd5b61007a610075366004610485565b61011f565b005b61007a61008a366004610485565b61019d565b61007a61009d3660046104fa565b6101e9565b6000546100b5906001600160a01b031681565b6040516001600160a01b0390911681526020015b60405180910390f35b6100b56100e0366004610485565b6001600160a01b039081166000908152600260205260409020541690565b61011161010c366004610485565b6102f3565b6040519081526020016100c9565b6000546001600160a01b031633146101525760405162461bcd60e51b815260040161014990610566565b60405180910390fd5b600080546001600160a01b0319166001600160a01b0383169081178255604051909133917f8292fce18fa69edf4db7b94ea2e58241df0ae57f97e0a6c9b29067028bf92d769190a350565b6000546001600160a01b031633146101c75760405162461bcd60e51b815260040161014990610566565b600180546001600160a01b0319166001600160a01b0392909216919091179055565b6000546001600160a01b031633146102135760405162461bcd60e51b815260040161014990610566565b82811461024c5760405162461bcd60e51b815260206004820152600760248201526621706172616d7360c81b6044820152606401610149565b60005b838110156102ec578282828181106102695761026961058c565b905060200201602081019061027e9190610485565b600260008787858181106102945761029461058c565b90506020020160208101906102a99190610485565b6001600160a01b039081168252602082019290925260400160002080546001600160a01b03191692909116919091179055806102e4816105b8565b91505061024f565b5050505050565b6001600160a01b038082166000908152600260205260408120549091168061038a5760015460405163b3596f0760e01b81526001600160a01b0385811660048301529091169063b3596f0790602401602060405180830381865afa15801561035f573d6000803e3d6000fd5b505050506040513d601f19601f8201168201806040525081019061038391906105d1565b9392505050565b6000816001600160a01b03166350d25bcd6040518163ffffffff1660e01b8152600401602060405180830381865afa1580156103ca573d6000803e3d6000fd5b505050506040513d601f19601f820116820180604052508101906103ee91906105d1565b6103fd906402540be4006105ea565b9050600081131561040f579392505050565b60015460405163b3596f0760e01b81526001600160a01b0386811660048301529091169063b3596f0790602401602060405180830381865afa158015610459573d6000803e3d6000fd5b505050506040513d601f19601f8201168201806040525081019061047d91906105d1565b949350505050565b60006020828403121561049757600080fd5b81356001600160a01b038116811461038357600080fd5b60008083601f8401126104c057600080fd5b50813567ffffffffffffffff8111156104d857600080fd5b6020830191508360208260051b85010111156104f357600080fd5b9250929050565b6000806000806040858703121561051057600080fd5b843567ffffffffffffffff8082111561052857600080fd5b610534888389016104ae565b9096509450602087013591508082111561054d57600080fd5b5061055a878288016104ae565b95989497509550505050565b6020808252600c908201526b15539055551213d49256915160a21b604082015260600190565b634e487b7160e01b600052603260045260246000fd5b634e487b7160e01b600052601160045260246000fd5b6000600182016105ca576105ca6105a2565b5060010190565b6000602082840312156105e357600080fd5b5051919050565b60006001600160ff1b0381841382841380821686840486111615610610576106106105a2565b600160ff1b600087128281168783058912161561062f5761062f6105a2565b6000871292508782058712848416161561064b5761064b6105a2565b87850587128184161615610661576106616105a2565b50505092909302939250505056fea264697066735822122084a28ebcd3dff69a8159fba3e13c5c0c4d0e8edd04b7f76f36e1b245bd18296b64736f6c634300080d0033",
    "sourcePath": "/Users/misha/Library/Mobile Documents/com~apple~CloudDocs/Dev/construct-finance/construct_V0/src/oracles/ConstructOracle.sol",
    "compiler": {
        "name": "solc",
        "version": "0.8.13+commit.abaa5c0e"
    },
    "functionHashes": {
        "getAssetPrice(address)": "b3596f07",
        "getSourceOfAsset(address)": "92bf2be0",
        "owner()": "8da5cb5b",
        "setAssetSource(address[],address[])": "7528282b",
        "setFallBackOracle(address)": "4139242e",
        "setOwner(address)": "13af4035"
    },
    "gasEstimates": {
        "creation": {
            "codeDepositCost": "340200",
            "executionCost": "infinite",
            "totalCost": "infinite"
        },
        "external": {
            "getAssetPrice(address)": "infinite",
            "getSourceOfAsset(address)": "2587",
            "owner()": "2370",
            "setAssetSource(address[],address[])": "infinite",
            "setFallBackOracle(address)": "26676",
            "setOwner(address)": "28173"
        }
    }
}