{
    "contractName": "CurveOracle",
    "abi": [
        {
            "inputs": [
                {
                    "internalType": "address",
                    "name": "asset",
                    "type": "address"
                }
            ],
            "name": "getAssetPrice",
            "outputs": [
                {
                    "internalType": "uint256",
                    "name": "",
                    "type": "uint256"
                }
            ],
            "stateMutability": "view",
            "type": "function"
        }
    ],
    "bytecode": "608060405234801561001057600080fd5b50610131806100206000396000f3fe6080604052348015600f57600080fd5b506004361060285760003560e01c8063b3596f0714602d575b600080fd5b603c603836600460b5565b604e565b60405190815260200160405180910390f35b6000816001600160a01b031663bb7b8b806040518163ffffffff1660e01b8152600401602060405180830381865afa158015608d573d6000803e3d6000fd5b505050506040513d601f19601f8201168201806040525081019060af919060e3565b92915050565b60006020828403121560c657600080fd5b81356001600160a01b038116811460dc57600080fd5b9392505050565b60006020828403121560f457600080fd5b505191905056fea26469706673582212205f1d5a831f35a59617a48c0f36f34e8f558e85dfe9e3d355250a1ee25330b90664736f6c634300080d0033",
    "sourcePath": "/Users/misha/Library/Mobile Documents/com~apple~CloudDocs/Dev/construct-finance/construct_V0/src/oracles/CurveOracle.sol",
    "compiler": {
        "name": "solc",
        "version": "0.8.13+commit.abaa5c0e"
    },
    "functionHashes": {
        "getAssetPrice(address)": "b3596f07"
    },
    "gasEstimates": {
        "creation": {
            "codeDepositCost": "61000",
            "executionCost": "111",
            "totalCost": "61111"
        },
        "external": {
            "getAssetPrice(address)": "infinite"
        }
    }
}