{
    "contractName": "UniswapV3Oracle",
    "abi": [
        {
            "inputs": [
                {
                    "internalType": "address",
                    "name": "_weth",
                    "type": "address"
                },
                {
                    "internalType": "address",
                    "name": "_usdc",
                    "type": "address"
                },
                {
                    "internalType": "address",
                    "name": "_factory",
                    "type": "address"
                },
                {
                    "internalType": "address",
                    "name": "_owner",
                    "type": "address"
                }
            ],
            "stateMutability": "nonpayable",
            "type": "constructor"
        },
        {
            "anonymous": false,
            "inputs": [
                {
                    "indexed": true,
                    "internalType": "address",
                    "name": "user",
                    "type": "address"
                },
                {
                    "indexed": true,
                    "internalType": "address",
                    "name": "newOwner",
                    "type": "address"
                }
            ],
            "name": "OwnerUpdated",
            "type": "event"
        },
        {
            "inputs": [],
            "name": "factory",
            "outputs": [
                {
                    "internalType": "address",
                    "name": "",
                    "type": "address"
                }
            ],
            "stateMutability": "view",
            "type": "function"
        },
        {
            "inputs": [
                {
                    "internalType": "address",
                    "name": "asset",
                    "type": "address"
                }
            ],
            "name": "getAssetPrice",
            "outputs": [
                {
                    "internalType": "uint256",
                    "name": "",
                    "type": "uint256"
                }
            ],
            "stateMutability": "view",
            "type": "function"
        },
        {
            "inputs": [],
            "name": "owner",
            "outputs": [
                {
                    "internalType": "address",
                    "name": "",
                    "type": "address"
                }
            ],
            "stateMutability": "view",
            "type": "function"
        },
        {
            "inputs": [
                {
                    "internalType": "address",
                    "name": "newOwner",
                    "type": "address"
                }
            ],
            "name": "setOwner",
            "outputs": [],
            "stateMutability": "nonpayable",
            "type": "function"
        },
        {
            "inputs": [
                {
                    "internalType": "uint32",
                    "name": "interval",
                    "type": "uint32"
                }
            ],
            "name": "setTwapInterval",
            "outputs": [],
            "stateMutability": "nonpayable",
            "type": "function"
        },
        {
            "inputs": [],
            "name": "twapInterval",
            "outputs": [
                {
                    "internalType": "uint32",
                    "name": "",
                    "type": "uint32"
                }
            ],
            "stateMutability": "view",
            "type": "function"
        },
        {
            "inputs": [],
            "name": "usdc",
            "outputs": [
                {
                    "internalType": "address",
                    "name": "",
                    "type": "address"
                }
            ],
            "stateMutability": "view",
            "type": "function"
        },
        {
            "inputs": [],
            "name": "weth",
            "outputs": [
                {
                    "internalType": "address",
                    "name": "",
                    "type": "address"
                }
            ],
            "stateMutability": "view",
            "type": "function"
        },
        {
            "inputs": [],
            "name": "wethUsdcPool",
            "outputs": [
                {
                    "internalType": "address",
                    "name": "",
                    "type": "address"
                }
            ],
            "stateMutability": "view",
            "type": "function"
        }
    ],
    "bytecode": "6101006040523480156200001257600080fd5b506040516200121838038062001218833981016040819052620000359162000144565b600080546001600160a01b0319166001600160a01b03831690811782556040518392907f8292fce18fa69edf4db7b94ea2e58241df0ae57f97e0a6c9b29067028bf92d76908290a3506001600160a01b03848116608081905284821660a081905291841660c0819052604051630b4c774160e11b8152600481019290925260248201929092526101f46044820152631698ee8290606401602060405180830381865afa158015620000ea573d6000803e3d6000fd5b505050506040513d601f19601f82011682018060405250810190620001109190620001a1565b6001600160a01b031660e05250620001c692505050565b80516001600160a01b03811681146200013f57600080fd5b919050565b600080600080608085870312156200015b57600080fd5b620001668562000127565b9350620001766020860162000127565b9250620001866040860162000127565b9150620001966060860162000127565b905092959194509250565b600060208284031215620001b457600080fd5b620001bf8262000127565b9392505050565b60805160a05160c05160e051610ffd6200021b6000396000818161015c01526103590152600081816101b7015261040e01526000818160f601526102e501526000818161013501526103a10152610ffd6000f3fe608060405234801561001057600080fd5b50600436106100935760003560e01c80633fc8cef3116100665780633fc8cef314610130578063646d6ec2146101575780638da5cb5b1461017e578063b3596f0714610191578063c45a0155146101b257600080fd5b806313af4035146100985780631d27050f146100ad5780633c1d5df0146100c05780633e413bee146100f1575b600080fd5b6100ab6100a6366004610b4a565b6101d9565b005b6100ab6100bb366004610b67565b610272565b6000546100d790600160a01b900463ffffffff1681565b60405163ffffffff90911681526020015b60405180910390f35b6101187f000000000000000000000000000000000000000000000000000000000000000081565b6040516001600160a01b0390911681526020016100e8565b6101187f000000000000000000000000000000000000000000000000000000000000000081565b6101187f000000000000000000000000000000000000000000000000000000000000000081565b600054610118906001600160a01b031681565b6101a461019f366004610b4a565b6102e1565b6040519081526020016100e8565b6101187f000000000000000000000000000000000000000000000000000000000000000081565b6000546001600160a01b031633146102275760405162461bcd60e51b815260206004820152600c60248201526b15539055551213d49256915160a21b60448201526064015b60405180910390fd5b600080546001600160a01b0319166001600160a01b0383169081178255604051909133917f8292fce18fa69edf4db7b94ea2e58241df0ae57f97e0a6c9b29067028bf92d769190a350565b6000546001600160a01b031633146102bb5760405162461bcd60e51b815260206004820152600c60248201526b15539055551213d49256915160a21b604482015260640161021e565b6000805463ffffffff909216600160a01b0263ffffffff60a01b19909216919091179055565b60007f00000000000000000000000000000000000000000000000000000000000000006001600160a01b03808216908416036103205750600192915050565b600061032a610355565b905060006103378561039d565b905061034c8183670de0b6b3a76400006104ce565b95945050505050565b60007f0000000000000000000000000000000000000000000000000000000000000000610397610384826104ed565b670de0b6b3a7640000600160601b6104ce565b91505090565b60007f00000000000000000000000000000000000000000000000000000000000000006001600160a01b03808216908416036103dc5750600192915050565b604051630b4c774160e11b81526001600160a01b0384811660048301528281166024830152610bb860448301526000917f000000000000000000000000000000000000000000000000000000000000000090911690631698ee8290606401602060405180830381865afa158015610457573d6000803e3d6000fd5b505050506040513d601f19601f8201168201806040525081019061047b9190610b8d565b9050816001600160a01b0316846001600160a01b0316106104ba576104b5600160601b670de0b6b3a76400006104b0846104ed565b6104ce565b6104c6565b6104c6610384826104ed565b949350505050565b8282028115158415858304851417166104e657600080fd5b0492915050565b600080548190600160a01b900463ffffffff16810361059557826001600160a01b0316633850c7bd6040518163ffffffff1660e01b815260040160e060405180830381865afa158015610544573d6000803e3d6000fd5b505050506040513d601f19601f820116820180604052508101906105689190610bc1565b50506001600160a01b03909416945061058e9350849250829150600160601b90506104ce565b9392505050565b6040805160028082526060820183526000926020830190803683375050600080548351939450600160a01b900463ffffffff16928492506105d8576105d8610c7b565b602002602001019063ffffffff16908163ffffffff168152505060008160018151811061060757610607610c7b565b63ffffffff9092166020928302919091019091015260405163883bdbfd60e01b81526000906001600160a01b0386169063883bdbfd9061064b908590600401610c91565b600060405180830381865afa158015610668573d6000803e3d6000fd5b505050506040513d6000823e601f3d908101601f191682016040526106909190810190610da4565b5090506106fe600060149054906101000a900463ffffffff1663ffffffff16826000815181106106c2576106c2610c7b565b6020026020010151836001815181106106dd576106dd610c7b565b60200260200101516106ef9190610e86565b6106f99190610eec565b610718565b6001600160a01b0316925061034c8384600160601b6104ce565b60008060008360020b1261072f578260020b61073c565b8260020b61073c90610f2a565b905061074b620d89e719610f46565b62ffffff168111156107835760405162461bcd60e51b81526020600482015260016024820152601560fa1b604482015260640161021e565b60008160011660000361079a57600160801b6107ac565b6ffffcb933bd6fad37aa2d162d1a5940015b70ffffffffffffffffffffffffffffffffff16905060028216156107eb5760806107e6826ffff97272373d413259a46990580e213a610f68565b901c90505b6004821615610815576080610810826ffff2e50f5f656932ef12357cf3c7fdcc610f68565b901c90505b600882161561083f57608061083a826fffe5caca7e10e4e61c3624eaa0941cd0610f68565b901c90505b6010821615610869576080610864826fffcb9843d60f6159c9db58835c926644610f68565b901c90505b602082161561089357608061088e826fff973b41fa98c081472e6896dfb254c0610f68565b901c90505b60408216156108bd5760806108b8826fff2ea16466c96a3843ec78b326b52861610f68565b901c90505b60808216156108e75760806108e2826ffe5dee046a99a2a811c461f1969c3053610f68565b901c90505b61010082161561091257608061090d826ffcbe86c7900a88aedcffc83b479aa3a4610f68565b901c90505b61020082161561093d576080610938826ff987a7253ac413176f2b074cf7815e54610f68565b901c90505b610400821615610968576080610963826ff3392b0822b70005940c7a398e4b70f3610f68565b901c90505b61080082161561099357608061098e826fe7159475a2c29b7443b29c7fa6e889d9610f68565b901c90505b6110008216156109be5760806109b9826fd097f3bdfd2022b8845ad8f792aa5825610f68565b901c90505b6120008216156109e95760806109e4826fa9f746462d870fdf8a65dc1f90e061e5610f68565b901c90505b614000821615610a14576080610a0f826f70d869a156d2a1b890bb3df62baf32f7610f68565b901c90505b618000821615610a3f576080610a3a826f31be135f97d08fd981231505542fcfa6610f68565b901c90505b62010000821615610a6b576080610a66826f09aa508b5b7a84e1c677de54f3e99bc9610f68565b901c90505b62020000821615610a96576080610a91826e5d6af8dedb81196699c329225ee604610f68565b901c90505b62040000821615610ac0576080610abb826d2216e584f5fa1ea926041bedfe98610f68565b901c90505b62080000821615610ae8576080610ae3826b048a170391f7dc42444e8fa2610f68565b901c90505b60008460020b1315610b0357610b0081600019610f87565b90505b610b1264010000000082610f9b565b15610b1e576001610b21565b60005b6104c69060ff16602083901c610faf565b6001600160a01b0381168114610b4757600080fd5b50565b600060208284031215610b5c57600080fd5b813561058e81610b32565b600060208284031215610b7957600080fd5b813563ffffffff8116811461058e57600080fd5b600060208284031215610b9f57600080fd5b815161058e81610b32565b805161ffff81168114610bbc57600080fd5b919050565b600080600080600080600060e0888a031215610bdc57600080fd5b8751610be781610b32565b8097505060208801518060020b8114610bff57600080fd5b9550610c0d60408901610baa565b9450610c1b60608901610baa565b9350610c2960808901610baa565b925060a088015160ff81168114610c3f57600080fd5b60c08901519092508015158114610c5557600080fd5b8091505092959891949750929550565b634e487b7160e01b600052604160045260246000fd5b634e487b7160e01b600052603260045260246000fd5b6020808252825182820181905260009190848201906040850190845b81811015610ccf57835163ffffffff1683529284019291840191600101610cad565b50909695505050505050565b604051601f8201601f1916810167ffffffffffffffff81118282101715610d0457610d04610c65565b604052919050565b600067ffffffffffffffff821115610d2657610d26610c65565b5060051b60200190565b600082601f830112610d4157600080fd5b81516020610d56610d5183610d0c565b610cdb565b82815260059290921b84018101918181019086841115610d7557600080fd5b8286015b84811015610d99578051610d8c81610b32565b8352918301918301610d79565b509695505050505050565b60008060408385031215610db757600080fd5b825167ffffffffffffffff80821115610dcf57600080fd5b818501915085601f830112610de357600080fd5b81516020610df3610d5183610d0c565b82815260059290921b84018101918181019089841115610e1257600080fd5b948201945b83861015610e405785518060060b8114610e315760008081fd5b82529482019490820190610e17565b91880151919650909350505080821115610e5957600080fd5b50610e6685828601610d30565b9150509250929050565b634e487b7160e01b600052601160045260246000fd5b60008160060b8360060b6000811281667fffffffffffff1901831281151615610eb157610eb1610e70565b81667fffffffffffff018313811615610ecc57610ecc610e70565b5090039392505050565b634e487b7160e01b600052601260045260246000fd5b60008160060b8360060b80610f0357610f03610ed6565b667fffffffffffff19821460001982141615610f2157610f21610e70565b90059392505050565b6000600160ff1b8201610f3f57610f3f610e70565b5060000390565b60008160020b627fffff198103610f5f57610f5f610e70565b60000392915050565b6000816000190483118215151615610f8257610f82610e70565b500290565b600082610f9657610f96610ed6565b500490565b600082610faa57610faa610ed6565b500690565b60008219821115610fc257610fc2610e70565b50019056fea2646970667358221220e580b2762be906ca8e15a899a18389f763982a67cf9a39ff5b34f3a14281821664736f6c634300080d0033",
    "sourcePath": "/Users/misha/Library/Mobile Documents/com~apple~CloudDocs/Dev/construct-finance/construct_V0/src/oracles/UniswapV3Oracle.sol",
    "compiler": {
        "name": "solc",
        "version": "0.8.13+commit.abaa5c0e"
    },
    "functionHashes": {
        "factory()": "c45a0155",
        "getAssetPrice(address)": "b3596f07",
        "owner()": "8da5cb5b",
        "setOwner(address)": "13af4035",
        "setTwapInterval(uint32)": "1d27050f",
        "twapInterval()": "3c1d5df0",
        "usdc()": "3e413bee",
        "weth()": "3fc8cef3",
        "wethUsdcPool()": "646d6ec2"
    },
    "gasEstimates": {
        "creation": {
            "codeDepositCost": "818600",
            "executionCost": "infinite",
            "totalCost": "infinite"
        },
        "external": {
            "factory()": "infinite",
            "getAssetPrice(address)": "infinite",
            "owner()": "2381",
            "setOwner(address)": "28225",
            "setTwapInterval(uint32)": "26686",
            "twapInterval()": "2364",
            "usdc()": "infinite",
            "weth()": "infinite",
            "wethUsdcPool()": "infinite"
        },
        "internal": {
            "getAssetETHPrice(address)": "infinite",
            "getETHPrice()": "infinite",
            "getPriceX96(address)": "infinite"
        }
    }
}