{
    "contractName": "ConstructStrategy",
    "abi": [
        {
            "anonymous": false,
            "inputs": [
                {
                    "indexed": true,
                    "internalType": "address",
                    "name": "owner",
                    "type": "address"
                },
                {
                    "indexed": true,
                    "internalType": "address",
                    "name": "spender",
                    "type": "address"
                },
                {
                    "indexed": false,
                    "internalType": "uint256",
                    "name": "amount",
                    "type": "uint256"
                }
            ],
            "name": "Approval",
            "type": "event"
        },
        {
            "anonymous": false,
            "inputs": [
                {
                    "indexed": true,
                    "internalType": "address",
                    "name": "caller",
                    "type": "address"
                },
                {
                    "indexed": true,
                    "internalType": "address",
                    "name": "owner",
                    "type": "address"
                },
                {
                    "indexed": false,
                    "internalType": "uint256",
                    "name": "assets",
                    "type": "uint256"
                },
                {
                    "indexed": false,
                    "internalType": "uint256",
                    "name": "shares",
                    "type": "uint256"
                }
            ],
            "name": "Deposit",
            "type": "event"
        },
        {
            "anonymous": false,
            "inputs": [
                {
                    "indexed": false,
                    "internalType": "uint8",
                    "name": "version",
                    "type": "uint8"
                }
            ],
            "name": "Initialized",
            "type": "event"
        },
        {
            "anonymous": false,
            "inputs": [
                {
                    "indexed": true,
                    "internalType": "address",
                    "name": "from",
                    "type": "address"
                },
                {
                    "indexed": true,
                    "internalType": "address",
                    "name": "to",
                    "type": "address"
                },
                {
                    "indexed": false,
                    "internalType": "uint256",
                    "name": "amount",
                    "type": "uint256"
                }
            ],
            "name": "Transfer",
            "type": "event"
        },
        {
            "anonymous": false,
            "inputs": [
                {
                    "indexed": true,
                    "internalType": "address",
                    "name": "caller",
                    "type": "address"
                },
                {
                    "indexed": true,
                    "internalType": "address",
                    "name": "receiver",
                    "type": "address"
                },
                {
                    "indexed": true,
                    "internalType": "address",
                    "name": "owner",
                    "type": "address"
                },
                {
                    "indexed": false,
                    "internalType": "uint256",
                    "name": "assets",
                    "type": "uint256"
                },
                {
                    "indexed": false,
                    "internalType": "uint256",
                    "name": "shares",
                    "type": "uint256"
                }
            ],
            "name": "Withdraw",
            "type": "event"
        },
        {
            "inputs": [],
            "name": "DOMAIN_SEPARATOR",
            "outputs": [
                {
                    "internalType": "bytes32",
                    "name": "",
                    "type": "bytes32"
                }
            ],
            "stateMutability": "view",
            "type": "function"
        },
        {
            "inputs": [
                {
                    "internalType": "address",
                    "name": "",
                    "type": "address"
                },
                {
                    "internalType": "address",
                    "name": "",
                    "type": "address"
                }
            ],
            "name": "allowance",
            "outputs": [
                {
                    "internalType": "uint256",
                    "name": "",
                    "type": "uint256"
                }
            ],
            "stateMutability": "view",
            "type": "function"
        },
        {
            "inputs": [
                {
                    "internalType": "address",
                    "name": "spender",
                    "type": "address"
                },
                {
                    "internalType": "uint256",
                    "name": "amount",
                    "type": "uint256"
                }
            ],
            "name": "approve",
            "outputs": [
                {
                    "internalType": "bool",
                    "name": "",
                    "type": "bool"
                }
            ],
            "stateMutability": "nonpayable",
            "type": "function"
        },
        {
            "inputs": [],
            "name": "asset",
            "outputs": [
                {
                    "internalType": "contract ERC20",
                    "name": "",
                    "type": "address"
                }
            ],
            "stateMutability": "view",
            "type": "function"
        },
        {
            "inputs": [
                {
                    "internalType": "address",
                    "name": "",
                    "type": "address"
                }
            ],
            "name": "balanceOf",
            "outputs": [
                {
                    "internalType": "uint256",
                    "name": "",
                    "type": "uint256"
                }
            ],
            "stateMutability": "view",
            "type": "function"
        },
        {
            "inputs": [
                {
                    "internalType": "uint256",
                    "name": "shares",
                    "type": "uint256"
                }
            ],
            "name": "convertToAssets",
            "outputs": [
                {
                    "internalType": "uint256",
                    "name": "",
                    "type": "uint256"
                }
            ],
            "stateMutability": "view",
            "type": "function"
        },
        {
            "inputs": [
                {
                    "internalType": "uint256",
                    "name": "assets",
                    "type": "uint256"
                }
            ],
            "name": "convertToShares",
            "outputs": [
                {
                    "internalType": "uint256",
                    "name": "",
                    "type": "uint256"
                }
            ],
            "stateMutability": "view",
            "type": "function"
        },
        {
            "inputs": [],
            "name": "decimals",
            "outputs": [
                {
                    "internalType": "uint8",
                    "name": "",
                    "type": "uint8"
                }
            ],
            "stateMutability": "view",
            "type": "function"
        },
        {
            "inputs": [
                {
                    "internalType": "uint256",
                    "name": "assets",
                    "type": "uint256"
                },
                {
                    "internalType": "address",
                    "name": "receiver",
                    "type": "address"
                }
            ],
            "name": "deposit",
            "outputs": [
                {
                    "internalType": "uint256",
                    "name": "shares",
                    "type": "uint256"
                }
            ],
            "stateMutability": "nonpayable",
            "type": "function"
        },
        {
            "inputs": [
                {
                    "internalType": "address",
                    "name": "_asset",
                    "type": "address"
                },
                {
                    "internalType": "address[]",
                    "name": "_path",
                    "type": "address[]"
                }
            ],
            "name": "initialize",
            "outputs": [],
            "stateMutability": "nonpayable",
            "type": "function"
        },
        {
            "inputs": [
                {
                    "internalType": "address",
                    "name": "",
                    "type": "address"
                }
            ],
            "name": "maxDeposit",
            "outputs": [
                {
                    "internalType": "uint256",
                    "name": "",
                    "type": "uint256"
                }
            ],
            "stateMutability": "view",
            "type": "function"
        },
        {
            "inputs": [
                {
                    "internalType": "address",
                    "name": "",
                    "type": "address"
                }
            ],
            "name": "maxMint",
            "outputs": [
                {
                    "internalType": "uint256",
                    "name": "",
                    "type": "uint256"
                }
            ],
            "stateMutability": "view",
            "type": "function"
        },
        {
            "inputs": [
                {
                    "internalType": "address",
                    "name": "owner",
                    "type": "address"
                }
            ],
            "name": "maxRedeem",
            "outputs": [
                {
                    "internalType": "uint256",
                    "name": "",
                    "type": "uint256"
                }
            ],
            "stateMutability": "view",
            "type": "function"
        },
        {
            "inputs": [
                {
                    "internalType": "address",
                    "name": "owner",
                    "type": "address"
                }
            ],
            "name": "maxWithdraw",
            "outputs": [
                {
                    "internalType": "uint256",
                    "name": "",
                    "type": "uint256"
                }
            ],
            "stateMutability": "view",
            "type": "function"
        },
        {
            "inputs": [
                {
                    "internalType": "uint256",
                    "name": "shares",
                    "type": "uint256"
                },
                {
                    "internalType": "address",
                    "name": "receiver",
                    "type": "address"
                }
            ],
            "name": "mint",
            "outputs": [
                {
                    "internalType": "uint256",
                    "name": "assets",
                    "type": "uint256"
                }
            ],
            "stateMutability": "nonpayable",
            "type": "function"
        },
        {
            "inputs": [],
            "name": "name",
            "outputs": [
                {
                    "internalType": "string",
                    "name": "",
                    "type": "string"
                }
            ],
            "stateMutability": "view",
            "type": "function"
        },
        {
            "inputs": [
                {
                    "internalType": "address",
                    "name": "",
                    "type": "address"
                }
            ],
            "name": "nonces",
            "outputs": [
                {
                    "internalType": "uint256",
                    "name": "",
                    "type": "uint256"
                }
            ],
            "stateMutability": "view",
            "type": "function"
        },
        {
            "inputs": [
                {
                    "internalType": "address",
                    "name": "owner",
                    "type": "address"
                },
                {
                    "internalType": "address",
                    "name": "spender",
                    "type": "address"
                },
                {
                    "internalType": "uint256",
                    "name": "value",
                    "type": "uint256"
                },
                {
                    "internalType": "uint256",
                    "name": "deadline",
                    "type": "uint256"
                },
                {
                    "internalType": "uint8",
                    "name": "v",
                    "type": "uint8"
                },
                {
                    "internalType": "bytes32",
                    "name": "r",
                    "type": "bytes32"
                },
                {
                    "internalType": "bytes32",
                    "name": "s",
                    "type": "bytes32"
                }
            ],
            "name": "permit",
            "outputs": [],
            "stateMutability": "nonpayable",
            "type": "function"
        },
        {
            "inputs": [
                {
                    "internalType": "uint256",
                    "name": "assets",
                    "type": "uint256"
                }
            ],
            "name": "previewDeposit",
            "outputs": [
                {
                    "internalType": "uint256",
                    "name": "",
                    "type": "uint256"
                }
            ],
            "stateMutability": "view",
            "type": "function"
        },
        {
            "inputs": [
                {
                    "internalType": "uint256",
                    "name": "shares",
                    "type": "uint256"
                }
            ],
            "name": "previewMint",
            "outputs": [
                {
                    "internalType": "uint256",
                    "name": "",
                    "type": "uint256"
                }
            ],
            "stateMutability": "view",
            "type": "function"
        },
        {
            "inputs": [
                {
                    "internalType": "uint256",
                    "name": "shares",
                    "type": "uint256"
                }
            ],
            "name": "previewRedeem",
            "outputs": [
                {
                    "internalType": "uint256",
                    "name": "",
                    "type": "uint256"
                }
            ],
            "stateMutability": "view",
            "type": "function"
        },
        {
            "inputs": [
                {
                    "internalType": "uint256",
                    "name": "assets",
                    "type": "uint256"
                }
            ],
            "name": "previewWithdraw",
            "outputs": [
                {
                    "internalType": "uint256",
                    "name": "",
                    "type": "uint256"
                }
            ],
            "stateMutability": "view",
            "type": "function"
        },
        {
            "inputs": [
                {
                    "internalType": "uint256",
                    "name": "shares",
                    "type": "uint256"
                },
                {
                    "internalType": "address",
                    "name": "receiver",
                    "type": "address"
                },
                {
                    "internalType": "address",
                    "name": "owner",
                    "type": "address"
                }
            ],
            "name": "redeem",
            "outputs": [
                {
                    "internalType": "uint256",
                    "name": "assets",
                    "type": "uint256"
                }
            ],
            "stateMutability": "nonpayable",
            "type": "function"
        },
        {
            "inputs": [
                {
                    "internalType": "uint256",
                    "name": "",
                    "type": "uint256"
                }
            ],
            "name": "strategyPath",
            "outputs": [
                {
                    "internalType": "address",
                    "name": "",
                    "type": "address"
                }
            ],
            "stateMutability": "view",
            "type": "function"
        },
        {
            "inputs": [],
            "name": "symbol",
            "outputs": [
                {
                    "internalType": "string",
                    "name": "",
                    "type": "string"
                }
            ],
            "stateMutability": "view",
            "type": "function"
        },
        {
            "inputs": [],
            "name": "totalAssets",
            "outputs": [
                {
                    "internalType": "uint256",
                    "name": "",
                    "type": "uint256"
                }
            ],
            "stateMutability": "view",
            "type": "function"
        },
        {
            "inputs": [],
            "name": "totalSupply",
            "outputs": [
                {
                    "internalType": "uint256",
                    "name": "",
                    "type": "uint256"
                }
            ],
            "stateMutability": "view",
            "type": "function"
        },
        {
            "inputs": [
                {
                    "internalType": "address",
                    "name": "to",
                    "type": "address"
                },
                {
                    "internalType": "uint256",
                    "name": "amount",
                    "type": "uint256"
                }
            ],
            "name": "transfer",
            "outputs": [
                {
                    "internalType": "bool",
                    "name": "",
                    "type": "bool"
                }
            ],
            "stateMutability": "nonpayable",
            "type": "function"
        },
        {
            "inputs": [
                {
                    "internalType": "address",
                    "name": "from",
                    "type": "address"
                },
                {
                    "internalType": "address",
                    "name": "to",
                    "type": "address"
                },
                {
                    "internalType": "uint256",
                    "name": "amount",
                    "type": "uint256"
                }
            ],
            "name": "transferFrom",
            "outputs": [
                {
                    "internalType": "bool",
                    "name": "",
                    "type": "bool"
                }
            ],
            "stateMutability": "nonpayable",
            "type": "function"
        },
        {
            "inputs": [
                {
                    "internalType": "uint256",
                    "name": "assets",
                    "type": "uint256"
                },
                {
                    "internalType": "address",
                    "name": "receiver",
                    "type": "address"
                },
                {
                    "internalType": "address",
                    "name": "owner",
                    "type": "address"
                }
            ],
            "name": "withdraw",
            "outputs": [
                {
                    "internalType": "uint256",
                    "name": "shares",
                    "type": "uint256"
                }
            ],
            "stateMutability": "nonpayable",
            "type": "function"
        }
    ],
    "bytecode": "608060405234801561001057600080fd5b50611a5b806100206000396000f3fe608060405234801561001057600080fd5b50600436106101da5760003560e01c8063946d920411610104578063ba087652116100a2578063d505accf11610071578063d505accf146103f6578063d905777e14610409578063dd62ed3e14610432578063ef8b30f71461045d57600080fd5b8063ba087652146103bd578063c63d75b6146102c6578063c6e6f592146103d0578063ce96cb77146103e357600080fd5b8063a6c1919c116100de578063a6c1919c14610371578063a9059cbb14610384578063b3d7f6b914610397578063b460af94146103aa57600080fd5b8063946d92041461034157806394bf804d1461035657806395d89b411461036957600080fd5b8063313ce5671161017c5780634cdad5061161014b5780634cdad506146102db5780636e553f65146102ee57806370a08231146103015780637ecebe001461032157600080fd5b8063313ce567146102745780633644e5151461029357806338d52e0f1461029b578063402d267d146102c657600080fd5b8063095ea7b3116101b8578063095ea7b3146102225780630a28a4771461024557806318160ddd1461025857806323b872dd1461026157600080fd5b806301e1d114146101df57806306fdde03146101fa57806307a2d13a1461020f575b600080fd5b6101e7610470565b6040519081526020015b60405180910390f35b610202610501565b6040516101f191906114a3565b6101e761021d3660046114d6565b61058f565b61023561023036600461150b565b6105bc565b60405190151581526020016101f1565b6101e76102533660046114d6565b610629565b6101e760045481565b61023561026f366004611535565b610649565b6003546102819060ff1681565b60405160ff90911681526020016101f1565b6101e7610729565b600a546102ae906001600160a01b031681565b6040516001600160a01b0390911681526020016101f1565b6101e76102d4366004611571565b5060001990565b6101e76102e93660046114d6565b610748565b6101e76102fc36600461158c565b610753565b6101e761030f366004611571565b60056020526000908152604090205481565b6101e761032f366004611571565b60096020526000908152604090205481565b61035461034f3660046115b8565b610811565b005b6101e761036436600461158c565b6109ea565b610202610a5d565b6102ae61037f3660046114d6565b610a6a565b61023561039236600461150b565b610a94565b6101e76103a53660046114d6565b610afa565b6101e76103b836600461163e565b610b19565b6101e76103cb36600461163e565b610c00565b6101e76103de3660046114d6565b610d25565b6101e76103f1366004611571565b610d45565b61035461040436600461168c565b610d67565b6101e7610417366004611571565b6001600160a01b031660009081526005602052604090205490565b6101e76104403660046116f9565b600660209081526000928352604080842090915290825290205481565b6101e761046b3660046114d6565b610fab565b600080600b60008154811061048757610487611723565b60009182526020918290200154604080516278744560e21b815290516001600160a01b03909216935083926301e1d114926004808401938290030181865afa1580156104d7573d6000803e3d6000fd5b505050506040513d601f19601f820116820180604052508101906104fb9190611739565b91505090565b6001805461050e90611752565b80601f016020809104026020016040519081016040528092919081815260200182805461053a90611752565b80156105875780601f1061055c57610100808354040283529160200191610587565b820191906000526020600020905b81548152906001019060200180831161056a57829003601f168201915b505050505081565b60045460009080156105b3576105ae6105a6610470565b849083610fb6565b6105b5565b825b9392505050565b3360008181526006602090815260408083206001600160a01b038716808552925280832085905551919290917f8c5be1e5ebec7d5bd14f71427d1e84f3dd0314c0f7b2291e5b200ac8c7c3b925906106179086815260200190565b60405180910390a35060015b92915050565b60045460009080156105b3576105ae81610641610470565b859190610fd5565b6001600160a01b038316600090815260066020908152604080832033845290915281205460001981146106a55761068083826117a2565b6001600160a01b03861660009081526006602090815260408083203384529091529020555b6001600160a01b038516600090815260056020526040812080548592906106cd9084906117a2565b90915550506001600160a01b0380851660008181526005602052604090819020805487019055519091871690600080516020611a06833981519152906107169087815260200190565b60405180910390a3506001949350505050565b600060075446146107415761073c611003565b905090565b5060085490565b60006106238261058f565b600061075e83610fab565b9050806000036107a35760405162461bcd60e51b815260206004820152600b60248201526a5a45524f5f53484152455360a81b60448201526064015b60405180910390fd5b600a546107bb906001600160a01b031633308661109d565b6107c58282611127565b60408051848152602081018390526001600160a01b0384169133917fdcbc1c05240f31ff3ad067ef1ee35ce4997762752e3a095284754544f4c709d791015b60405180910390a3610623565b600054610100900460ff16158080156108315750600054600160ff909116105b8061084b5750303b15801561084b575060005460ff166001145b6108ae5760405162461bcd60e51b815260206004820152602e60248201527f496e697469616c697a61626c653a20636f6e747261637420697320616c72656160448201526d191e481a5b9a5d1a585b1a5e995960921b606482015260840161079a565b6000805460ff1916600117905580156108d1576000805461ff0019166101001790555b6000846001600160a01b03166395d89b416040518163ffffffff1660e01b8152600401600060405180830381865afa158015610911573d6000803e3d6000fd5b505050506040513d6000823e601f3d908101601f1916820160405261093991908101906117cf565b905060008160405160200161094e919061187c565b604051602081830303815290604052905060008260405160200161097291906118b8565b604051602081830303815290604052905061098e878383611181565b61099a600b878761138b565b5050505080156109e4576000805461ff0019169055604051600181527f7f26b83ff96e1f2b6a682f133852f6798a09c465da95921460cefb38474024989060200160405180910390a15b50505050565b60006109f583610afa565b600a54909150610a10906001600160a01b031633308461109d565b610a1a8284611127565b60408051828152602081018590526001600160a01b0384169133917fdcbc1c05240f31ff3ad067ef1ee35ce4997762752e3a095284754544f4c709d79101610804565b6002805461050e90611752565b600b8181548110610a7a57600080fd5b6000918252602090912001546001600160a01b0316905081565b33600090815260056020526040812080548391908390610ab59084906117a2565b90915550506001600160a01b03831660008181526005602052604090819020805485019055513390600080516020611a06833981519152906106179086815260200190565b60045460009080156105b3576105ae610b11610470565b849083610fd5565b6000610b2484610629565b9050336001600160a01b03831614610b94576001600160a01b03821660009081526006602090815260408083203384529091529020546000198114610b9257610b6d82826117a2565b6001600160a01b03841660009081526006602090815260408083203384529091529020555b505b610b9e828261123f565b60408051858152602081018390526001600160a01b03808516929086169133917ffbde797d201c681b91056529119e0b02407c7bb96a4a2c75c01fc9667232c8db910160405180910390a4600a546105b5906001600160a01b031684866112a1565b6000336001600160a01b03831614610c70576001600160a01b03821660009081526006602090815260408083203384529091529020546000198114610c6e57610c4985826117a2565b6001600160a01b03841660009081526006602090815260408083203384529091529020555b505b610c7984610748565b905080600003610cb95760405162461bcd60e51b815260206004820152600b60248201526a5a45524f5f41535345545360a81b604482015260640161079a565b610cc3828561123f565b60408051828152602081018690526001600160a01b03808516929086169133917ffbde797d201c681b91056529119e0b02407c7bb96a4a2c75c01fc9667232c8db910160405180910390a4600a546105b5906001600160a01b031684836112a1565b60045460009080156105b3576105ae81610d3d610470565b859190610fb6565b6001600160a01b0381166000908152600560205260408120546106239061058f565b42841015610db75760405162461bcd60e51b815260206004820152601760248201527f5045524d49545f444541444c494e455f45585049524544000000000000000000604482015260640161079a565b60006001610dc3610729565b6001600160a01b038a811660008181526009602090815260409182902080546001810190915582517f6e71edae12b1b97f4d1f60370fef10105fa2faae0126114a169c64845d6126c98184015280840194909452938d166060840152608083018c905260a083019390935260c08083018b90528151808403909101815260e08301909152805192019190912061190160f01b6101008301526101028201929092526101228101919091526101420160408051601f198184030181528282528051602091820120600084529083018083525260ff871690820152606081018590526080810184905260a0016020604051602081039080840390855afa158015610ecf573d6000803e3d6000fd5b5050604051601f1901519150506001600160a01b03811615801590610f055750876001600160a01b0316816001600160a01b0316145b610f425760405162461bcd60e51b815260206004820152600e60248201526d24a72b20a624a22fa9a4a3a722a960911b604482015260640161079a565b6001600160a01b0390811660009081526006602090815260408083208a8516808552908352928190208990555188815291928a16917f8c5be1e5ebec7d5bd14f71427d1e84f3dd0314c0f7b2291e5b200ac8c7c3b925910160405180910390a350505050505050565b600061062382610d25565b828202811515841585830485141716610fce57600080fd5b0492915050565b828202811515841585830485141716610fed57600080fd5b6001826001830304018115150290509392505050565b60007f8b73c3c69bb8fe3d512ecc4cf759cc79239f7b179b0ffacaa9a75d522b39400f600160405161103591906118ea565b6040805191829003822060208301939093528101919091527fc89efdaa54c0f20c7adf612882df0950f5a951637e0307cdcb4c672f298b8bc660608201524660808201523060a082015260c00160405160208183030381529060405280519060200120905090565b60006040516323b872dd60e01b81528460048201528360248201528260448201526020600060648360008a5af13d15601f3d11600160005114161716915050806111205760405162461bcd60e51b81526020600482015260146024820152731514905394d1915497d19493d357d1905253115160621b604482015260640161079a565b5050505050565b80600460008282546111399190611985565b90915550506001600160a01b038216600081815260056020908152604080832080548601905551848152600080516020611a0683398151915291015b60405180910390a35050565b600054610100900460ff166111a85760405162461bcd60e51b815260040161079a9061199d565b6000836001600160a01b031663313ce5676040518163ffffffff1660e01b8152600401602060405180830381865afa1580156111e8573d6000803e3d6000fd5b505050506040513d601f19601f8201168201806040525081019061120c91906119e8565b9050611219838383611319565b5050600a80546001600160a01b0319166001600160a01b03939093169290921790915550565b6001600160a01b038216600090815260056020526040812080548392906112679084906117a2565b90915550506004805482900390556040518181526000906001600160a01b03841690600080516020611a0683398151915290602001611175565b600060405163a9059cbb60e01b8152836004820152826024820152602060006044836000895af13d15601f3d11600160005114161716915050806109e45760405162461bcd60e51b815260206004820152600f60248201526e1514905394d1915497d19052531151608a1b604482015260640161079a565b600054610100900460ff166113405760405162461bcd60e51b815260040161079a9061199d565b82516113539060019060208601906113ee565b5081516113679060029060208501906113ee565b506003805460ff191660ff831617905546600755611383611003565b600855505050565b8280548282559060005260206000209081019282156113de579160200282015b828111156113de5781546001600160a01b0319166001600160a01b038435161782556020909201916001909101906113ab565b506113ea929150611462565b5090565b8280546113fa90611752565b90600052602060002090601f01602090048101928261141c57600085556113de565b82601f1061143557805160ff19168380011785556113de565b828001600101855582156113de579182015b828111156113de578251825591602001919060010190611447565b5b808211156113ea5760008155600101611463565b60005b8381101561149257818101518382015260200161147a565b838111156109e45750506000910152565b60208152600082518060208401526114c2816040850160208701611477565b601f01601f19169190910160400192915050565b6000602082840312156114e857600080fd5b5035919050565b80356001600160a01b038116811461150657600080fd5b919050565b6000806040838503121561151e57600080fd5b611527836114ef565b946020939093013593505050565b60008060006060848603121561154a57600080fd5b611553846114ef565b9250611561602085016114ef565b9150604084013590509250925092565b60006020828403121561158357600080fd5b6105b5826114ef565b6000806040838503121561159f57600080fd5b823591506115af602084016114ef565b90509250929050565b6000806000604084860312156115cd57600080fd5b6115d6846114ef565b9250602084013567ffffffffffffffff808211156115f357600080fd5b818601915086601f83011261160757600080fd5b81358181111561161657600080fd5b8760208260051b850101111561162b57600080fd5b6020830194508093505050509250925092565b60008060006060848603121561165357600080fd5b83359250611663602085016114ef565b9150611671604085016114ef565b90509250925092565b60ff8116811461168957600080fd5b50565b600080600080600080600060e0888a0312156116a757600080fd5b6116b0886114ef565b96506116be602089016114ef565b9550604088013594506060880135935060808801356116dc8161167a565b9699959850939692959460a0840135945060c09093013592915050565b6000806040838503121561170c57600080fd5b611715836114ef565b91506115af602084016114ef565b634e487b7160e01b600052603260045260246000fd5b60006020828403121561174b57600080fd5b5051919050565b600181811c9082168061176657607f821691505b60208210810361178657634e487b7160e01b600052602260045260246000fd5b50919050565b634e487b7160e01b600052601160045260246000fd5b6000828210156117b4576117b461178c565b500390565b634e487b7160e01b600052604160045260246000fd5b6000602082840312156117e157600080fd5b815167ffffffffffffffff808211156117f957600080fd5b818401915084601f83011261180d57600080fd5b81518181111561181f5761181f6117b9565b604051601f8201601f19908116603f01168101908382118183101715611847576118476117b9565b8160405282815287602084870101111561186057600080fd5b611871836020830160208801611477565b979650505050505050565b73021b7b739ba393ab1ba1029ba3930ba32b3bc9d160651b8152600082516118ab816014850160208701611477565b9190910160140192915050565b696353747261746567792d60b01b8152600082516118dd81600a850160208701611477565b91909101600a0192915050565b600080835481600182811c91508083168061190657607f831692505b6020808410820361192557634e487b7160e01b86526022600452602486fd5b818015611939576001811461194a57611977565b60ff19861689528489019650611977565b60008a81526020902060005b8681101561196f5781548b820152908501908301611956565b505084890196505b509498975050505050505050565b600082198211156119985761199861178c565b500190565b6020808252602b908201527f496e697469616c697a61626c653a20636f6e7472616374206973206e6f74206960408201526a6e697469616c697a696e6760a81b606082015260800190565b6000602082840312156119fa57600080fd5b81516105b58161167a56feddf252ad1be2c89b69c2b068fc378daa952ba7f163c4a11628f55a4df523b3efa2646970667358221220c27f79d5118042fa9651a37661c07756acc6380d653b7682ed65069a3a9f65eb64736f6c634300080d0033",
    "sourcePath": "/Users/misha/Library/Mobile Documents/com~apple~CloudDocs/Dev/construct-finance/construct_V0/src/impl/ConstructStrategy.sol",
    "compiler": {
        "name": "solc",
        "version": "0.8.13+commit.abaa5c0e"
    },
    "functionHashes": {
        "DOMAIN_SEPARATOR()": "3644e515",
        "allowance(address,address)": "dd62ed3e",
        "approve(address,uint256)": "095ea7b3",
        "asset()": "38d52e0f",
        "balanceOf(address)": "70a08231",
        "convertToAssets(uint256)": "07a2d13a",
        "convertToShares(uint256)": "c6e6f592",
        "decimals()": "313ce567",
        "deposit(uint256,address)": "6e553f65",
        "initialize(address,address[])": "946d9204",
        "maxDeposit(address)": "402d267d",
        "maxMint(address)": "c63d75b6",
        "maxRedeem(address)": "d905777e",
        "maxWithdraw(address)": "ce96cb77",
        "mint(uint256,address)": "94bf804d",
        "name()": "06fdde03",
        "nonces(address)": "7ecebe00",
        "permit(address,address,uint256,uint256,uint8,bytes32,bytes32)": "d505accf",
        "previewDeposit(uint256)": "ef8b30f7",
        "previewMint(uint256)": "b3d7f6b9",
        "previewRedeem(uint256)": "4cdad506",
        "previewWithdraw(uint256)": "0a28a477",
        "redeem(uint256,address,address)": "ba087652",
        "strategyPath(uint256)": "a6c1919c",
        "symbol()": "95d89b41",
        "totalAssets()": "01e1d114",
        "totalSupply()": "18160ddd",
        "transfer(address,uint256)": "a9059cbb",
        "transferFrom(address,address,uint256)": "23b872dd",
        "withdraw(uint256,address,address)": "b460af94"
    },
    "gasEstimates": {
        "creation": {
            "codeDepositCost": "1349400",
            "executionCost": "1403",
            "totalCost": "1350803"
        },
        "external": {
            "DOMAIN_SEPARATOR()": "infinite",
            "allowance(address,address)": "infinite",
            "approve(address,uint256)": "24546",
            "asset()": "2427",
            "balanceOf(address)": "2597",
            "convertToAssets(uint256)": "infinite",
            "convertToShares(uint256)": "infinite",
            "decimals()": "2359",
            "deposit(uint256,address)": "infinite",
            "initialize(address,address[])": "infinite",
            "maxDeposit(address)": "459",
            "maxMint(address)": "414",
            "maxRedeem(address)": "2592",
            "maxWithdraw(address)": "infinite",
            "mint(uint256,address)": "infinite",
            "name()": "infinite",
            "nonces(address)": "2619",
            "permit(address,address,uint256,uint256,uint8,bytes32,bytes32)": "infinite",
            "previewDeposit(uint256)": "infinite",
            "previewMint(uint256)": "infinite",
            "previewRedeem(uint256)": "infinite",
            "previewWithdraw(uint256)": "infinite",
            "redeem(uint256,address,address)": "infinite",
            "strategyPath(uint256)": "4659",
            "symbol()": "infinite",
            "totalAssets()": "infinite",
            "totalSupply()": "2374",
            "transfer(address,uint256)": "infinite",
            "transferFrom(address,address,uint256)": "infinite",
            "withdraw(uint256,address,address)": "infinite"
        }
    }
}