{
    "contractName": "ConstructStrategy",
    "abi": [
        {
            "anonymous": false,
            "inputs": [
                {
                    "indexed": true,
                    "internalType": "address",
                    "name": "owner",
                    "type": "address"
                },
                {
                    "indexed": true,
                    "internalType": "address",
                    "name": "spender",
                    "type": "address"
                },
                {
                    "indexed": false,
                    "internalType": "uint256",
                    "name": "amount",
                    "type": "uint256"
                }
            ],
            "name": "Approval",
            "type": "event"
        },
        {
            "anonymous": false,
            "inputs": [
                {
                    "indexed": true,
                    "internalType": "address",
                    "name": "caller",
                    "type": "address"
                },
                {
                    "indexed": true,
                    "internalType": "address",
                    "name": "owner",
                    "type": "address"
                },
                {
                    "indexed": false,
                    "internalType": "uint256",
                    "name": "assets",
                    "type": "uint256"
                },
                {
                    "indexed": false,
                    "internalType": "uint256",
                    "name": "shares",
                    "type": "uint256"
                }
            ],
            "name": "Deposit",
            "type": "event"
        },
        {
            "anonymous": false,
            "inputs": [
                {
                    "indexed": false,
                    "internalType": "uint8",
                    "name": "version",
                    "type": "uint8"
                }
            ],
            "name": "Initialized",
            "type": "event"
        },
        {
            "anonymous": false,
            "inputs": [
                {
                    "indexed": true,
                    "internalType": "address",
                    "name": "from",
                    "type": "address"
                },
                {
                    "indexed": true,
                    "internalType": "address",
                    "name": "to",
                    "type": "address"
                },
                {
                    "indexed": false,
                    "internalType": "uint256",
                    "name": "amount",
                    "type": "uint256"
                }
            ],
            "name": "Transfer",
            "type": "event"
        },
        {
            "anonymous": false,
            "inputs": [
                {
                    "indexed": true,
                    "internalType": "address",
                    "name": "caller",
                    "type": "address"
                },
                {
                    "indexed": true,
                    "internalType": "address",
                    "name": "receiver",
                    "type": "address"
                },
                {
                    "indexed": true,
                    "internalType": "address",
                    "name": "owner",
                    "type": "address"
                },
                {
                    "indexed": false,
                    "internalType": "uint256",
                    "name": "assets",
                    "type": "uint256"
                },
                {
                    "indexed": false,
                    "internalType": "uint256",
                    "name": "shares",
                    "type": "uint256"
                }
            ],
            "name": "Withdraw",
            "type": "event"
        },
        {
            "inputs": [],
            "name": "DOMAIN_SEPARATOR",
            "outputs": [
                {
                    "internalType": "bytes32",
                    "name": "",
                    "type": "bytes32"
                }
            ],
            "stateMutability": "view",
            "type": "function"
        },
        {
            "inputs": [],
            "name": "active",
            "outputs": [
                {
                    "internalType": "bool",
                    "name": "",
                    "type": "bool"
                }
            ],
            "stateMutability": "view",
            "type": "function"
        },
        {
            "inputs": [
                {
                    "internalType": "address",
                    "name": "",
                    "type": "address"
                },
                {
                    "internalType": "address",
                    "name": "",
                    "type": "address"
                }
            ],
            "name": "allowance",
            "outputs": [
                {
                    "internalType": "uint256",
                    "name": "",
                    "type": "uint256"
                }
            ],
            "stateMutability": "view",
            "type": "function"
        },
        {
            "inputs": [
                {
                    "internalType": "address",
                    "name": "spender",
                    "type": "address"
                },
                {
                    "internalType": "uint256",
                    "name": "amount",
                    "type": "uint256"
                }
            ],
            "name": "approve",
            "outputs": [
                {
                    "internalType": "bool",
                    "name": "",
                    "type": "bool"
                }
            ],
            "stateMutability": "nonpayable",
            "type": "function"
        },
        {
            "inputs": [],
            "name": "asset",
            "outputs": [
                {
                    "internalType": "contract ERC20",
                    "name": "",
                    "type": "address"
                }
            ],
            "stateMutability": "view",
            "type": "function"
        },
        {
            "inputs": [
                {
                    "internalType": "address",
                    "name": "",
                    "type": "address"
                }
            ],
            "name": "balanceOf",
            "outputs": [
                {
                    "internalType": "uint256",
                    "name": "",
                    "type": "uint256"
                }
            ],
            "stateMutability": "view",
            "type": "function"
        },
        {
            "inputs": [
                {
                    "internalType": "uint256",
                    "name": "shares",
                    "type": "uint256"
                }
            ],
            "name": "convertToAssets",
            "outputs": [
                {
                    "internalType": "uint256",
                    "name": "",
                    "type": "uint256"
                }
            ],
            "stateMutability": "view",
            "type": "function"
        },
        {
            "inputs": [
                {
                    "internalType": "uint256",
                    "name": "assets",
                    "type": "uint256"
                }
            ],
            "name": "convertToShares",
            "outputs": [
                {
                    "internalType": "uint256",
                    "name": "",
                    "type": "uint256"
                }
            ],
            "stateMutability": "view",
            "type": "function"
        },
        {
            "inputs": [],
            "name": "decimals",
            "outputs": [
                {
                    "internalType": "uint8",
                    "name": "",
                    "type": "uint8"
                }
            ],
            "stateMutability": "view",
            "type": "function"
        },
        {
            "inputs": [],
            "name": "deployed",
            "outputs": [
                {
                    "internalType": "bool",
                    "name": "",
                    "type": "bool"
                }
            ],
            "stateMutability": "view",
            "type": "function"
        },
        {
            "inputs": [
                {
                    "internalType": "uint256",
                    "name": "assets",
                    "type": "uint256"
                },
                {
                    "internalType": "address",
                    "name": "receiver",
                    "type": "address"
                }
            ],
            "name": "deposit",
            "outputs": [
                {
                    "internalType": "uint256",
                    "name": "shares",
                    "type": "uint256"
                }
            ],
            "stateMutability": "nonpayable",
            "type": "function"
        },
        {
            "inputs": [],
            "name": "getStrategyApr",
            "outputs": [
                {
                    "internalType": "int256",
                    "name": "",
                    "type": "int256"
                }
            ],
            "stateMutability": "view",
            "type": "function"
        },
        {
            "inputs": [
                {
                    "internalType": "address",
                    "name": "_asset",
                    "type": "address"
                },
                {
                    "internalType": "address[]",
                    "name": "_modulePath",
                    "type": "address[]"
                }
            ],
            "name": "initialize",
            "outputs": [],
            "stateMutability": "nonpayable",
            "type": "function"
        },
        {
            "inputs": [
                {
                    "internalType": "address",
                    "name": "",
                    "type": "address"
                }
            ],
            "name": "maxDeposit",
            "outputs": [
                {
                    "internalType": "uint256",
                    "name": "",
                    "type": "uint256"
                }
            ],
            "stateMutability": "view",
            "type": "function"
        },
        {
            "inputs": [
                {
                    "internalType": "address",
                    "name": "",
                    "type": "address"
                }
            ],
            "name": "maxMint",
            "outputs": [
                {
                    "internalType": "uint256",
                    "name": "",
                    "type": "uint256"
                }
            ],
            "stateMutability": "view",
            "type": "function"
        },
        {
            "inputs": [
                {
                    "internalType": "address",
                    "name": "owner",
                    "type": "address"
                }
            ],
            "name": "maxRedeem",
            "outputs": [
                {
                    "internalType": "uint256",
                    "name": "",
                    "type": "uint256"
                }
            ],
            "stateMutability": "view",
            "type": "function"
        },
        {
            "inputs": [
                {
                    "internalType": "address",
                    "name": "owner",
                    "type": "address"
                }
            ],
            "name": "maxWithdraw",
            "outputs": [
                {
                    "internalType": "uint256",
                    "name": "",
                    "type": "uint256"
                }
            ],
            "stateMutability": "view",
            "type": "function"
        },
        {
            "inputs": [
                {
                    "internalType": "uint256",
                    "name": "shares",
                    "type": "uint256"
                },
                {
                    "internalType": "address",
                    "name": "receiver",
                    "type": "address"
                }
            ],
            "name": "mint",
            "outputs": [
                {
                    "internalType": "uint256",
                    "name": "assets",
                    "type": "uint256"
                }
            ],
            "stateMutability": "nonpayable",
            "type": "function"
        },
        {
            "inputs": [
                {
                    "internalType": "uint256",
                    "name": "",
                    "type": "uint256"
                }
            ],
            "name": "modulePath",
            "outputs": [
                {
                    "internalType": "address",
                    "name": "",
                    "type": "address"
                }
            ],
            "stateMutability": "view",
            "type": "function"
        },
        {
            "inputs": [],
            "name": "name",
            "outputs": [
                {
                    "internalType": "string",
                    "name": "",
                    "type": "string"
                }
            ],
            "stateMutability": "view",
            "type": "function"
        },
        {
            "inputs": [
                {
                    "internalType": "address",
                    "name": "",
                    "type": "address"
                }
            ],
            "name": "nonces",
            "outputs": [
                {
                    "internalType": "uint256",
                    "name": "",
                    "type": "uint256"
                }
            ],
            "stateMutability": "view",
            "type": "function"
        },
        {
            "inputs": [
                {
                    "internalType": "address",
                    "name": "owner",
                    "type": "address"
                },
                {
                    "internalType": "address",
                    "name": "spender",
                    "type": "address"
                },
                {
                    "internalType": "uint256",
                    "name": "value",
                    "type": "uint256"
                },
                {
                    "internalType": "uint256",
                    "name": "deadline",
                    "type": "uint256"
                },
                {
                    "internalType": "uint8",
                    "name": "v",
                    "type": "uint8"
                },
                {
                    "internalType": "bytes32",
                    "name": "r",
                    "type": "bytes32"
                },
                {
                    "internalType": "bytes32",
                    "name": "s",
                    "type": "bytes32"
                }
            ],
            "name": "permit",
            "outputs": [],
            "stateMutability": "nonpayable",
            "type": "function"
        },
        {
            "inputs": [
                {
                    "internalType": "uint256",
                    "name": "assets",
                    "type": "uint256"
                }
            ],
            "name": "previewDeposit",
            "outputs": [
                {
                    "internalType": "uint256",
                    "name": "",
                    "type": "uint256"
                }
            ],
            "stateMutability": "view",
            "type": "function"
        },
        {
            "inputs": [
                {
                    "internalType": "uint256",
                    "name": "shares",
                    "type": "uint256"
                }
            ],
            "name": "previewMint",
            "outputs": [
                {
                    "internalType": "uint256",
                    "name": "",
                    "type": "uint256"
                }
            ],
            "stateMutability": "view",
            "type": "function"
        },
        {
            "inputs": [
                {
                    "internalType": "uint256",
                    "name": "shares",
                    "type": "uint256"
                }
            ],
            "name": "previewRedeem",
            "outputs": [
                {
                    "internalType": "uint256",
                    "name": "",
                    "type": "uint256"
                }
            ],
            "stateMutability": "view",
            "type": "function"
        },
        {
            "inputs": [
                {
                    "internalType": "uint256",
                    "name": "assets",
                    "type": "uint256"
                }
            ],
            "name": "previewWithdraw",
            "outputs": [
                {
                    "internalType": "uint256",
                    "name": "",
                    "type": "uint256"
                }
            ],
            "stateMutability": "view",
            "type": "function"
        },
        {
            "inputs": [
                {
                    "internalType": "uint256",
                    "name": "shares",
                    "type": "uint256"
                },
                {
                    "internalType": "address",
                    "name": "receiver",
                    "type": "address"
                },
                {
                    "internalType": "address",
                    "name": "owner",
                    "type": "address"
                }
            ],
            "name": "redeem",
            "outputs": [
                {
                    "internalType": "uint256",
                    "name": "assets",
                    "type": "uint256"
                }
            ],
            "stateMutability": "nonpayable",
            "type": "function"
        },
        {
            "inputs": [],
            "name": "symbol",
            "outputs": [
                {
                    "internalType": "string",
                    "name": "",
                    "type": "string"
                }
            ],
            "stateMutability": "view",
            "type": "function"
        },
        {
            "inputs": [],
            "name": "totalAssets",
            "outputs": [
                {
                    "internalType": "uint256",
                    "name": "",
                    "type": "uint256"
                }
            ],
            "stateMutability": "view",
            "type": "function"
        },
        {
            "inputs": [],
            "name": "totalSupply",
            "outputs": [
                {
                    "internalType": "uint256",
                    "name": "",
                    "type": "uint256"
                }
            ],
            "stateMutability": "view",
            "type": "function"
        },
        {
            "inputs": [
                {
                    "internalType": "address",
                    "name": "to",
                    "type": "address"
                },
                {
                    "internalType": "uint256",
                    "name": "amount",
                    "type": "uint256"
                }
            ],
            "name": "transfer",
            "outputs": [
                {
                    "internalType": "bool",
                    "name": "",
                    "type": "bool"
                }
            ],
            "stateMutability": "nonpayable",
            "type": "function"
        },
        {
            "inputs": [
                {
                    "internalType": "address",
                    "name": "from",
                    "type": "address"
                },
                {
                    "internalType": "address",
                    "name": "to",
                    "type": "address"
                },
                {
                    "internalType": "uint256",
                    "name": "amount",
                    "type": "uint256"
                }
            ],
            "name": "transferFrom",
            "outputs": [
                {
                    "internalType": "bool",
                    "name": "",
                    "type": "bool"
                }
            ],
            "stateMutability": "nonpayable",
            "type": "function"
        },
        {
            "inputs": [
                {
                    "internalType": "uint256",
                    "name": "assets",
                    "type": "uint256"
                },
                {
                    "internalType": "address",
                    "name": "receiver",
                    "type": "address"
                },
                {
                    "internalType": "address",
                    "name": "owner",
                    "type": "address"
                }
            ],
            "name": "withdraw",
            "outputs": [
                {
                    "internalType": "uint256",
                    "name": "shares",
                    "type": "uint256"
                }
            ],
            "stateMutability": "nonpayable",
            "type": "function"
        }
    ],
    "bytecode": "608060405234801561001057600080fd5b50611de8806100206000396000f3fe608060405234801561001057600080fd5b50600436106101fb5760003560e01c806370a082311161011a578063ba087652116100ad578063d505accf1161007c578063d505accf14610433578063d905777e14610446578063dd62ed3e1461046f578063ef8b30f71461049a578063f905c15a146104ad57600080fd5b8063ba087652146103fa578063c63d75b614610316578063c6e6f5921461040d578063ce96cb771461042057600080fd5b806395d89b41116100e957806395d89b41146103b9578063a9059cbb146103c1578063b3d7f6b9146103d4578063b460af94146103e757600080fd5b806370a08231146103515780637ecebe0014610371578063946d92041461039157806394bf804d146103a657600080fd5b806323b872dd1161019257806338d52e0f1161016157806338d52e0f14610303578063402d267d146103165780634cdad5061461032b5780636e553f651461033e57600080fd5b806323b872dd146102c15780632fb448df146102d4578063313ce567146102dc5780633644e515146102fb57600080fd5b806307a2d13a116101ce57806307a2d13a1461027f578063095ea7b3146102925780630a28a477146102a557806318160ddd146102b857600080fd5b806301e1d1141461020057806302fb0c5e1461021b578063067c69641461023f57806306fdde031461026a575b600080fd5b6102086104c1565b6040519081526020015b60405180910390f35b600a5461022f90600160a01b900460ff1681565b6040519015158152602001610212565b61025261024d36600461176b565b610552565b6040516001600160a01b039091168152602001610212565b61027261057c565b60405161021291906117b0565b61020861028d36600461176b565b61060a565b61022f6102a03660046117ff565b610637565b6102086102b336600461176b565b6106a4565b61020860045481565b61022f6102cf366004611829565b6106c4565b6102086107a4565b6003546102e99060ff1681565b60405160ff9091168152602001610212565b61020861095f565b600a54610252906001600160a01b031681565b610208610324366004611865565b5060001990565b61020861033936600461176b565b61097e565b61020861034c366004611880565b610989565b61020861035f366004611865565b60056020526000908152604090205481565b61020861037f366004611865565b60096020526000908152604090205481565b6103a461039f3660046118ac565b610a47565b005b6102086103b4366004611880565b610d08565b610272610d7b565b61022f6103cf3660046117ff565b610d88565b6102086103e236600461176b565b610dee565b6102086103f5366004611932565b610e0d565b610208610408366004611932565b610ef4565b61020861041b36600461176b565b611019565b61020861042e366004611865565b611039565b6103a4610441366004611980565b61105b565b610208610454366004611865565b6001600160a01b031660009081526005602052604090205490565b61020861047d3660046119ed565b600660209081526000928352604080842090915290825290205481565b6102086104a836600461176b565b61129f565b600a5461022f90600160a81b900460ff1681565b600080600b6000815481106104d8576104d8611a17565b60009182526020918290200154604080516278744560e21b815290516001600160a01b03909216935083926301e1d114926004808401938290030181865afa158015610528573d6000803e3d6000fd5b505050506040513d601f19601f8201168201806040525081019061054c9190611a2d565b91505090565b600b818154811061056257600080fd5b6000918252602090912001546001600160a01b0316905081565b6001805461058990611a46565b80601f01602080910402602001604051908101604052809291908181526020018280546105b590611a46565b80156106025780601f106105d757610100808354040283529160200191610602565b820191906000526020600020905b8154815290600101906020018083116105e557829003601f168201915b505050505081565b600454600090801561062e576106296106216104c1565b8490836112aa565b610630565b825b9392505050565b3360008181526006602090815260408083206001600160a01b038716808552925280832085905551919290917f8c5be1e5ebec7d5bd14f71427d1e84f3dd0314c0f7b2291e5b200ac8c7c3b925906106929086815260200190565b60405180910390a35060015b92915050565b600454600090801561062e57610629816106bc6104c1565b8591906112c9565b6001600160a01b03831660009081526006602090815260408083203384529091528120546000198114610720576106fb8382611a96565b6001600160a01b03861660009081526006602090815260408083203384529091529020555b6001600160a01b03851660009081526005602052604081208054859290610748908490611a96565b90915550506001600160a01b0380851660008181526005602052604090819020805487019055519091871690600080516020611d93833981519152906107919087815260200190565b60405180910390a3506001949350505050565b600080600b8054806020026020016040519081016040528092919081815260200182805480156107fd57602002820191906000526020600020905b81546001600160a01b031681526001909101906020018083116107df575b50505050509050600080600090505b825181101561095857600083828151811061082957610829611a17565b602002602001015190506000816001600160a01b0316637f240fbf6040518163ffffffff1660e01b8152600401602060405180830381865afa158015610873573d6000803e3d6000fd5b505050506040513d601f19601f820116820180604052508101906108979190611a2d565b90506000826001600160a01b031663bdde8a486040518163ffffffff1660e01b8152600401602060405180830381865afa1580156108d9573d6000803e3d6000fd5b505050506040513d601f19601f820116820180604052508101906108fd9190611a2d565b90506000821315610927576109168282620f42406112aa565b6109209086611aad565b9450610942565b6109358282620f42406112aa565b61093f9086611aee565b94505b505050808061095090611b2d565b91505061080c565b5092915050565b60006007544614610977576109726112f7565b905090565b5060085490565b600061069e8261060a565b60006109948361129f565b9050806000036109d95760405162461bcd60e51b815260206004820152600b60248201526a5a45524f5f53484152455360a81b60448201526064015b60405180910390fd5b600a546109f1906001600160a01b0316333086611391565b6109fb828261141b565b60408051848152602081018390526001600160a01b0384169133917fdcbc1c05240f31ff3ad067ef1ee35ce4997762752e3a095284754544f4c709d791015b60405180910390a361069e565b600054610100900460ff1615808015610a675750600054600160ff909116105b80610a815750303b158015610a81575060005460ff166001145b610ae45760405162461bcd60e51b815260206004820152602e60248201527f496e697469616c697a61626c653a20636f6e747261637420697320616c72656160448201526d191e481a5b9a5d1a585b1a5e995960921b60648201526084016109d0565b6000805460ff191660011790558015610b07576000805461ff0019166101001790555b6000846001600160a01b03166395d89b416040518163ffffffff1660e01b8152600401600060405180830381865afa158015610b47573d6000803e3d6000fd5b505050506040513d6000823e601f3d908101601f19168201604052610b6f9190810190611b5c565b9050600081604051602001610b849190611c09565b6040516020818303038152906040529050600082604051602001610ba89190611c45565b6040516020818303038152906040529050610bc4878383611475565b610bd0600b878761167f565b5060005b610bdf600187611a96565b811015610cb857868682818110610bf857610bf8611a17565b9050602002016020810190610c0d9190611865565b6001600160a01b031663776d1a018888610c28856001611c77565b818110610c3757610c37611a17565b9050602002016020810190610c4c9190611865565b6040516001600160e01b031960e084901b1681526001600160a01b039091166004820152602401600060405180830381600087803b158015610c8d57600080fd5b505af1158015610ca1573d6000803e3d6000fd5b505050508080610cb090611b2d565b915050610bd4565b505050508015610d02576000805461ff0019169055604051600181527f7f26b83ff96e1f2b6a682f133852f6798a09c465da95921460cefb38474024989060200160405180910390a15b50505050565b6000610d1383610dee565b600a54909150610d2e906001600160a01b0316333084611391565b610d38828461141b565b60408051828152602081018590526001600160a01b0384169133917fdcbc1c05240f31ff3ad067ef1ee35ce4997762752e3a095284754544f4c709d79101610a3a565b6002805461058990611a46565b33600090815260056020526040812080548391908390610da9908490611a96565b90915550506001600160a01b03831660008181526005602052604090819020805485019055513390600080516020611d93833981519152906106929086815260200190565b600454600090801561062e57610629610e056104c1565b8490836112c9565b6000610e18846106a4565b9050336001600160a01b03831614610e88576001600160a01b03821660009081526006602090815260408083203384529091529020546000198114610e8657610e618282611a96565b6001600160a01b03841660009081526006602090815260408083203384529091529020555b505b610e928282611533565b60408051858152602081018390526001600160a01b03808516929086169133917ffbde797d201c681b91056529119e0b02407c7bb96a4a2c75c01fc9667232c8db910160405180910390a4600a54610630906001600160a01b03168486611595565b6000336001600160a01b03831614610f64576001600160a01b03821660009081526006602090815260408083203384529091529020546000198114610f6257610f3d8582611a96565b6001600160a01b03841660009081526006602090815260408083203384529091529020555b505b610f6d8461097e565b905080600003610fad5760405162461bcd60e51b815260206004820152600b60248201526a5a45524f5f41535345545360a81b60448201526064016109d0565b610fb78285611533565b60408051828152602081018690526001600160a01b03808516929086169133917ffbde797d201c681b91056529119e0b02407c7bb96a4a2c75c01fc9667232c8db910160405180910390a4600a54610630906001600160a01b03168483611595565b600454600090801561062e57610629816110316104c1565b8591906112aa565b6001600160a01b03811660009081526005602052604081205461069e9061060a565b428410156110ab5760405162461bcd60e51b815260206004820152601760248201527f5045524d49545f444541444c494e455f4558504952454400000000000000000060448201526064016109d0565b600060016110b761095f565b6001600160a01b038a811660008181526009602090815260409182902080546001810190915582517f6e71edae12b1b97f4d1f60370fef10105fa2faae0126114a169c64845d6126c98184015280840194909452938d166060840152608083018c905260a083019390935260c08083018b90528151808403909101815260e08301909152805192019190912061190160f01b6101008301526101028201929092526101228101919091526101420160408051601f198184030181528282528051602091820120600084529083018083525260ff871690820152606081018590526080810184905260a0016020604051602081039080840390855afa1580156111c3573d6000803e3d6000fd5b5050604051601f1901519150506001600160a01b038116158015906111f95750876001600160a01b0316816001600160a01b0316145b6112365760405162461bcd60e51b815260206004820152600e60248201526d24a72b20a624a22fa9a4a3a722a960911b60448201526064016109d0565b6001600160a01b0390811660009081526006602090815260408083208a8516808552908352928190208990555188815291928a16917f8c5be1e5ebec7d5bd14f71427d1e84f3dd0314c0f7b2291e5b200ac8c7c3b925910160405180910390a350505050505050565b600061069e82611019565b8282028115158415858304851417166112c257600080fd5b0492915050565b8282028115158415858304851417166112e157600080fd5b6001826001830304018115150290509392505050565b60007f8b73c3c69bb8fe3d512ecc4cf759cc79239f7b179b0ffacaa9a75d522b39400f60016040516113299190611c8f565b6040805191829003822060208301939093528101919091527fc89efdaa54c0f20c7adf612882df0950f5a951637e0307cdcb4c672f298b8bc660608201524660808201523060a082015260c00160405160208183030381529060405280519060200120905090565b60006040516323b872dd60e01b81528460048201528360248201528260448201526020600060648360008a5af13d15601f3d11600160005114161716915050806114145760405162461bcd60e51b81526020600482015260146024820152731514905394d1915497d19493d357d1905253115160621b60448201526064016109d0565b5050505050565b806004600082825461142d9190611c77565b90915550506001600160a01b038216600081815260056020908152604080832080548601905551848152600080516020611d9383398151915291015b60405180910390a35050565b600054610100900460ff1661149c5760405162461bcd60e51b81526004016109d090611d2a565b6000836001600160a01b031663313ce5676040518163ffffffff1660e01b8152600401602060405180830381865afa1580156114dc573d6000803e3d6000fd5b505050506040513d601f19601f820116820180604052508101906115009190611d75565b905061150d83838361160d565b5050600a80546001600160a01b0319166001600160a01b03939093169290921790915550565b6001600160a01b0382166000908152600560205260408120805483929061155b908490611a96565b90915550506004805482900390556040518181526000906001600160a01b03841690600080516020611d9383398151915290602001611469565b600060405163a9059cbb60e01b8152836004820152826024820152602060006044836000895af13d15601f3d1160016000511416171691505080610d025760405162461bcd60e51b815260206004820152600f60248201526e1514905394d1915497d19052531151608a1b60448201526064016109d0565b600054610100900460ff166116345760405162461bcd60e51b81526004016109d090611d2a565b82516116479060019060208601906116e2565b50815161165b9060029060208501906116e2565b506003805460ff191660ff8316179055466007556116776112f7565b600855505050565b8280548282559060005260206000209081019282156116d2579160200282015b828111156116d25781546001600160a01b0319166001600160a01b0384351617825560209092019160019091019061169f565b506116de929150611756565b5090565b8280546116ee90611a46565b90600052602060002090601f01602090048101928261171057600085556116d2565b82601f1061172957805160ff19168380011785556116d2565b828001600101855582156116d2579182015b828111156116d257825182559160200191906001019061173b565b5b808211156116de5760008155600101611757565b60006020828403121561177d57600080fd5b5035919050565b60005b8381101561179f578181015183820152602001611787565b83811115610d025750506000910152565b60208152600082518060208401526117cf816040850160208701611784565b601f01601f19169190910160400192915050565b80356001600160a01b03811681146117fa57600080fd5b919050565b6000806040838503121561181257600080fd5b61181b836117e3565b946020939093013593505050565b60008060006060848603121561183e57600080fd5b611847846117e3565b9250611855602085016117e3565b9150604084013590509250925092565b60006020828403121561187757600080fd5b610630826117e3565b6000806040838503121561189357600080fd5b823591506118a3602084016117e3565b90509250929050565b6000806000604084860312156118c157600080fd5b6118ca846117e3565b9250602084013567ffffffffffffffff808211156118e757600080fd5b818601915086601f8301126118fb57600080fd5b81358181111561190a57600080fd5b8760208260051b850101111561191f57600080fd5b6020830194508093505050509250925092565b60008060006060848603121561194757600080fd5b83359250611957602085016117e3565b9150611965604085016117e3565b90509250925092565b60ff8116811461197d57600080fd5b50565b600080600080600080600060e0888a03121561199b57600080fd5b6119a4886117e3565b96506119b2602089016117e3565b9550604088013594506060880135935060808801356119d08161196e565b9699959850939692959460a0840135945060c09093013592915050565b60008060408385031215611a0057600080fd5b611a09836117e3565b91506118a3602084016117e3565b634e487b7160e01b600052603260045260246000fd5b600060208284031215611a3f57600080fd5b5051919050565b600181811c90821680611a5a57607f821691505b602082108103611a7a57634e487b7160e01b600052602260045260246000fd5b50919050565b634e487b7160e01b600052601160045260246000fd5b600082821015611aa857611aa8611a80565b500390565b600080821280156001600160ff1b0384900385131615611acf57611acf611a80565b600160ff1b8390038412811615611ae857611ae8611a80565b50500190565b60008083128015600160ff1b850184121615611b0c57611b0c611a80565b6001600160ff1b0384018313811615611b2757611b27611a80565b50500390565b600060018201611b3f57611b3f611a80565b5060010190565b634e487b7160e01b600052604160045260246000fd5b600060208284031215611b6e57600080fd5b815167ffffffffffffffff80821115611b8657600080fd5b818401915084601f830112611b9a57600080fd5b815181811115611bac57611bac611b46565b604051601f8201601f19908116603f01168101908382118183101715611bd457611bd4611b46565b81604052828152876020848701011115611bed57600080fd5b611bfe836020830160208801611784565b979650505050505050565b73021b7b739ba393ab1ba1029ba3930ba32b3bc9d160651b815260008251611c38816014850160208701611784565b9190910160140192915050565b696353747261746567792d60b01b815260008251611c6a81600a850160208701611784565b91909101600a0192915050565b60008219821115611c8a57611c8a611a80565b500190565b600080835481600182811c915080831680611cab57607f831692505b60208084108203611cca57634e487b7160e01b86526022600452602486fd5b818015611cde5760018114611cef57611d1c565b60ff19861689528489019650611d1c565b60008a81526020902060005b86811015611d145781548b820152908501908301611cfb565b505084890196505b509498975050505050505050565b6020808252602b908201527f496e697469616c697a61626c653a20636f6e7472616374206973206e6f74206960408201526a6e697469616c697a696e6760a81b606082015260800190565b600060208284031215611d8757600080fd5b81516106308161196e56feddf252ad1be2c89b69c2b068fc378daa952ba7f163c4a11628f55a4df523b3efa2646970667358221220a5018c6be26e2cf9637c8ec0a83e32aa6e3983fa95505a9f472452e9079bdeed64736f6c634300080d0033",
    "sourcePath": "/Users/misha/Library/Mobile Documents/com~apple~CloudDocs/Dev/construct-finance/construct_V0/src/impl/ConstructStrategy.sol",
    "compiler": {
        "name": "solc",
        "version": "0.8.13+commit.abaa5c0e"
    },
    "functionHashes": {
        "DOMAIN_SEPARATOR()": "3644e515",
        "active()": "02fb0c5e",
        "allowance(address,address)": "dd62ed3e",
        "approve(address,uint256)": "095ea7b3",
        "asset()": "38d52e0f",
        "balanceOf(address)": "70a08231",
        "convertToAssets(uint256)": "07a2d13a",
        "convertToShares(uint256)": "c6e6f592",
        "decimals()": "313ce567",
        "deployed()": "f905c15a",
        "deposit(uint256,address)": "6e553f65",
        "getStrategyApr()": "2fb448df",
        "initialize(address,address[])": "946d9204",
        "maxDeposit(address)": "402d267d",
        "maxMint(address)": "c63d75b6",
        "maxRedeem(address)": "d905777e",
        "maxWithdraw(address)": "ce96cb77",
        "mint(uint256,address)": "94bf804d",
        "modulePath(uint256)": "067c6964",
        "name()": "06fdde03",
        "nonces(address)": "7ecebe00",
        "permit(address,address,uint256,uint256,uint8,bytes32,bytes32)": "d505accf",
        "previewDeposit(uint256)": "ef8b30f7",
        "previewMint(uint256)": "b3d7f6b9",
        "previewRedeem(uint256)": "4cdad506",
        "previewWithdraw(uint256)": "0a28a477",
        "redeem(uint256,address,address)": "ba087652",
        "symbol()": "95d89b41",
        "totalAssets()": "01e1d114",
        "totalSupply()": "18160ddd",
        "transfer(address,uint256)": "a9059cbb",
        "transferFrom(address,address,uint256)": "23b872dd",
        "withdraw(uint256,address,address)": "b460af94"
    },
    "gasEstimates": {
        "creation": {
            "codeDepositCost": "1531200",
            "executionCost": "1603",
            "totalCost": "1532803"
        },
        "external": {
            "DOMAIN_SEPARATOR()": "infinite",
            "active()": "2396",
            "allowance(address,address)": "infinite",
            "approve(address,uint256)": "24568",
            "asset()": "2382",
            "balanceOf(address)": "2554",
            "convertToAssets(uint256)": "infinite",
            "convertToShares(uint256)": "infinite",
            "decimals()": "2403",
            "deployed()": "2459",
            "deposit(uint256,address)": "infinite",
            "getStrategyApr()": "infinite",
            "initialize(address,address[])": "infinite",
            "maxDeposit(address)": "414",
            "maxMint(address)": "414",
            "maxRedeem(address)": "2592",
            "maxWithdraw(address)": "infinite",
            "mint(uint256,address)": "infinite",
            "modulePath(uint256)": "4705",
            "name()": "infinite",
            "nonces(address)": "2576",
            "permit(address,address,uint256,uint256,uint8,bytes32,bytes32)": "infinite",
            "previewDeposit(uint256)": "infinite",
            "previewMint(uint256)": "infinite",
            "previewRedeem(uint256)": "infinite",
            "previewWithdraw(uint256)": "infinite",
            "redeem(uint256,address,address)": "infinite",
            "symbol()": "infinite",
            "totalAssets()": "infinite",
            "totalSupply()": "2396",
            "transfer(address,uint256)": "infinite",
            "transferFrom(address,address,uint256)": "infinite",
            "withdraw(uint256,address,address)": "infinite"
        },
        "internal": {
            "_initializeModule(address,address)": "infinite"
        }
    }
}