{
    "contractName": "ConstructVault",
    "abi": [
        {
            "anonymous": false,
            "inputs": [
                {
                    "indexed": true,
                    "internalType": "address",
                    "name": "owner",
                    "type": "address"
                },
                {
                    "indexed": true,
                    "internalType": "address",
                    "name": "spender",
                    "type": "address"
                },
                {
                    "indexed": false,
                    "internalType": "uint256",
                    "name": "amount",
                    "type": "uint256"
                }
            ],
            "name": "Approval",
            "type": "event"
        },
        {
            "anonymous": false,
            "inputs": [
                {
                    "indexed": true,
                    "internalType": "address",
                    "name": "caller",
                    "type": "address"
                },
                {
                    "indexed": true,
                    "internalType": "address",
                    "name": "owner",
                    "type": "address"
                },
                {
                    "indexed": false,
                    "internalType": "uint256",
                    "name": "assets",
                    "type": "uint256"
                },
                {
                    "indexed": false,
                    "internalType": "uint256",
                    "name": "shares",
                    "type": "uint256"
                }
            ],
            "name": "Deposit",
            "type": "event"
        },
        {
            "anonymous": false,
            "inputs": [
                {
                    "indexed": false,
                    "internalType": "uint8",
                    "name": "version",
                    "type": "uint8"
                }
            ],
            "name": "Initialized",
            "type": "event"
        },
        {
            "anonymous": false,
            "inputs": [
                {
                    "indexed": true,
                    "internalType": "address",
                    "name": "from",
                    "type": "address"
                },
                {
                    "indexed": true,
                    "internalType": "address",
                    "name": "to",
                    "type": "address"
                },
                {
                    "indexed": false,
                    "internalType": "uint256",
                    "name": "amount",
                    "type": "uint256"
                }
            ],
            "name": "Transfer",
            "type": "event"
        },
        {
            "anonymous": false,
            "inputs": [
                {
                    "indexed": true,
                    "internalType": "address",
                    "name": "caller",
                    "type": "address"
                },
                {
                    "indexed": true,
                    "internalType": "address",
                    "name": "receiver",
                    "type": "address"
                },
                {
                    "indexed": true,
                    "internalType": "address",
                    "name": "owner",
                    "type": "address"
                },
                {
                    "indexed": false,
                    "internalType": "uint256",
                    "name": "assets",
                    "type": "uint256"
                },
                {
                    "indexed": false,
                    "internalType": "uint256",
                    "name": "shares",
                    "type": "uint256"
                }
            ],
            "name": "Withdraw",
            "type": "event"
        },
        {
            "inputs": [],
            "name": "DOMAIN_SEPARATOR",
            "outputs": [
                {
                    "internalType": "bytes32",
                    "name": "",
                    "type": "bytes32"
                }
            ],
            "stateMutability": "view",
            "type": "function"
        },
        {
            "inputs": [],
            "name": "acceptOwner",
            "outputs": [],
            "stateMutability": "nonpayable",
            "type": "function"
        },
        {
            "inputs": [],
            "name": "activeStrategy",
            "outputs": [
                {
                    "internalType": "contract ERC4626",
                    "name": "",
                    "type": "address"
                }
            ],
            "stateMutability": "view",
            "type": "function"
        },
        {
            "inputs": [
                {
                    "internalType": "address",
                    "name": "",
                    "type": "address"
                },
                {
                    "internalType": "address",
                    "name": "",
                    "type": "address"
                }
            ],
            "name": "allowance",
            "outputs": [
                {
                    "internalType": "uint256",
                    "name": "",
                    "type": "uint256"
                }
            ],
            "stateMutability": "view",
            "type": "function"
        },
        {
            "inputs": [
                {
                    "internalType": "address",
                    "name": "spender",
                    "type": "address"
                },
                {
                    "internalType": "uint256",
                    "name": "amount",
                    "type": "uint256"
                }
            ],
            "name": "approve",
            "outputs": [
                {
                    "internalType": "bool",
                    "name": "",
                    "type": "bool"
                }
            ],
            "stateMutability": "nonpayable",
            "type": "function"
        },
        {
            "inputs": [],
            "name": "asset",
            "outputs": [
                {
                    "internalType": "contract ERC20",
                    "name": "",
                    "type": "address"
                }
            ],
            "stateMutability": "view",
            "type": "function"
        },
        {
            "inputs": [
                {
                    "internalType": "address",
                    "name": "",
                    "type": "address"
                }
            ],
            "name": "balanceOf",
            "outputs": [
                {
                    "internalType": "uint256",
                    "name": "",
                    "type": "uint256"
                }
            ],
            "stateMutability": "view",
            "type": "function"
        },
        {
            "inputs": [
                {
                    "internalType": "uint256",
                    "name": "shares",
                    "type": "uint256"
                }
            ],
            "name": "convertToAssets",
            "outputs": [
                {
                    "internalType": "uint256",
                    "name": "",
                    "type": "uint256"
                }
            ],
            "stateMutability": "view",
            "type": "function"
        },
        {
            "inputs": [
                {
                    "internalType": "uint256",
                    "name": "assets",
                    "type": "uint256"
                }
            ],
            "name": "convertToShares",
            "outputs": [
                {
                    "internalType": "uint256",
                    "name": "",
                    "type": "uint256"
                }
            ],
            "stateMutability": "view",
            "type": "function"
        },
        {
            "inputs": [],
            "name": "decimals",
            "outputs": [
                {
                    "internalType": "uint8",
                    "name": "",
                    "type": "uint8"
                }
            ],
            "stateMutability": "view",
            "type": "function"
        },
        {
            "inputs": [
                {
                    "internalType": "uint256",
                    "name": "assets",
                    "type": "uint256"
                },
                {
                    "internalType": "address",
                    "name": "receiver",
                    "type": "address"
                }
            ],
            "name": "deposit",
            "outputs": [
                {
                    "internalType": "uint256",
                    "name": "shares",
                    "type": "uint256"
                }
            ],
            "stateMutability": "nonpayable",
            "type": "function"
        },
        {
            "inputs": [
                {
                    "internalType": "address",
                    "name": "_asset",
                    "type": "address"
                }
            ],
            "name": "initialize",
            "outputs": [],
            "stateMutability": "nonpayable",
            "type": "function"
        },
        {
            "inputs": [
                {
                    "internalType": "address",
                    "name": "",
                    "type": "address"
                }
            ],
            "name": "maxDeposit",
            "outputs": [
                {
                    "internalType": "uint256",
                    "name": "",
                    "type": "uint256"
                }
            ],
            "stateMutability": "view",
            "type": "function"
        },
        {
            "inputs": [
                {
                    "internalType": "address",
                    "name": "",
                    "type": "address"
                }
            ],
            "name": "maxMint",
            "outputs": [
                {
                    "internalType": "uint256",
                    "name": "",
                    "type": "uint256"
                }
            ],
            "stateMutability": "view",
            "type": "function"
        },
        {
            "inputs": [
                {
                    "internalType": "address",
                    "name": "owner",
                    "type": "address"
                }
            ],
            "name": "maxRedeem",
            "outputs": [
                {
                    "internalType": "uint256",
                    "name": "",
                    "type": "uint256"
                }
            ],
            "stateMutability": "view",
            "type": "function"
        },
        {
            "inputs": [
                {
                    "internalType": "address",
                    "name": "owner",
                    "type": "address"
                }
            ],
            "name": "maxWithdraw",
            "outputs": [
                {
                    "internalType": "uint256",
                    "name": "",
                    "type": "uint256"
                }
            ],
            "stateMutability": "view",
            "type": "function"
        },
        {
            "inputs": [
                {
                    "internalType": "uint256",
                    "name": "shares",
                    "type": "uint256"
                },
                {
                    "internalType": "address",
                    "name": "receiver",
                    "type": "address"
                }
            ],
            "name": "mint",
            "outputs": [
                {
                    "internalType": "uint256",
                    "name": "assets",
                    "type": "uint256"
                }
            ],
            "stateMutability": "nonpayable",
            "type": "function"
        },
        {
            "inputs": [],
            "name": "name",
            "outputs": [
                {
                    "internalType": "string",
                    "name": "",
                    "type": "string"
                }
            ],
            "stateMutability": "view",
            "type": "function"
        },
        {
            "inputs": [
                {
                    "internalType": "address",
                    "name": "",
                    "type": "address"
                }
            ],
            "name": "nonces",
            "outputs": [
                {
                    "internalType": "uint256",
                    "name": "",
                    "type": "uint256"
                }
            ],
            "stateMutability": "view",
            "type": "function"
        },
        {
            "inputs": [],
            "name": "owner",
            "outputs": [
                {
                    "internalType": "address",
                    "name": "",
                    "type": "address"
                }
            ],
            "stateMutability": "view",
            "type": "function"
        },
        {
            "inputs": [],
            "name": "pendingOwner",
            "outputs": [
                {
                    "internalType": "address",
                    "name": "",
                    "type": "address"
                }
            ],
            "stateMutability": "view",
            "type": "function"
        },
        {
            "inputs": [
                {
                    "internalType": "address",
                    "name": "owner",
                    "type": "address"
                },
                {
                    "internalType": "address",
                    "name": "spender",
                    "type": "address"
                },
                {
                    "internalType": "uint256",
                    "name": "value",
                    "type": "uint256"
                },
                {
                    "internalType": "uint256",
                    "name": "deadline",
                    "type": "uint256"
                },
                {
                    "internalType": "uint8",
                    "name": "v",
                    "type": "uint8"
                },
                {
                    "internalType": "bytes32",
                    "name": "r",
                    "type": "bytes32"
                },
                {
                    "internalType": "bytes32",
                    "name": "s",
                    "type": "bytes32"
                }
            ],
            "name": "permit",
            "outputs": [],
            "stateMutability": "nonpayable",
            "type": "function"
        },
        {
            "inputs": [
                {
                    "internalType": "uint256",
                    "name": "assets",
                    "type": "uint256"
                }
            ],
            "name": "previewDeposit",
            "outputs": [
                {
                    "internalType": "uint256",
                    "name": "",
                    "type": "uint256"
                }
            ],
            "stateMutability": "view",
            "type": "function"
        },
        {
            "inputs": [
                {
                    "internalType": "uint256",
                    "name": "shares",
                    "type": "uint256"
                }
            ],
            "name": "previewMint",
            "outputs": [
                {
                    "internalType": "uint256",
                    "name": "",
                    "type": "uint256"
                }
            ],
            "stateMutability": "view",
            "type": "function"
        },
        {
            "inputs": [
                {
                    "internalType": "uint256",
                    "name": "shares",
                    "type": "uint256"
                }
            ],
            "name": "previewRedeem",
            "outputs": [
                {
                    "internalType": "uint256",
                    "name": "",
                    "type": "uint256"
                }
            ],
            "stateMutability": "view",
            "type": "function"
        },
        {
            "inputs": [
                {
                    "internalType": "uint256",
                    "name": "assets",
                    "type": "uint256"
                }
            ],
            "name": "previewWithdraw",
            "outputs": [
                {
                    "internalType": "uint256",
                    "name": "",
                    "type": "uint256"
                }
            ],
            "stateMutability": "view",
            "type": "function"
        },
        {
            "inputs": [
                {
                    "internalType": "uint256",
                    "name": "shares",
                    "type": "uint256"
                },
                {
                    "internalType": "address",
                    "name": "receiver",
                    "type": "address"
                },
                {
                    "internalType": "address",
                    "name": "owner",
                    "type": "address"
                }
            ],
            "name": "redeem",
            "outputs": [
                {
                    "internalType": "uint256",
                    "name": "assets",
                    "type": "uint256"
                }
            ],
            "stateMutability": "nonpayable",
            "type": "function"
        },
        {
            "inputs": [
                {
                    "internalType": "address",
                    "name": "_owner",
                    "type": "address"
                }
            ],
            "name": "setOwner",
            "outputs": [],
            "stateMutability": "nonpayable",
            "type": "function"
        },
        {
            "inputs": [
                {
                    "internalType": "uint256",
                    "name": "",
                    "type": "uint256"
                }
            ],
            "name": "strategies",
            "outputs": [
                {
                    "internalType": "address",
                    "name": "",
                    "type": "address"
                }
            ],
            "stateMutability": "view",
            "type": "function"
        },
        {
            "inputs": [],
            "name": "symbol",
            "outputs": [
                {
                    "internalType": "string",
                    "name": "",
                    "type": "string"
                }
            ],
            "stateMutability": "view",
            "type": "function"
        },
        {
            "inputs": [],
            "name": "totalAssets",
            "outputs": [
                {
                    "internalType": "uint256",
                    "name": "",
                    "type": "uint256"
                }
            ],
            "stateMutability": "view",
            "type": "function"
        },
        {
            "inputs": [],
            "name": "totalSupply",
            "outputs": [
                {
                    "internalType": "uint256",
                    "name": "",
                    "type": "uint256"
                }
            ],
            "stateMutability": "view",
            "type": "function"
        },
        {
            "inputs": [
                {
                    "internalType": "address",
                    "name": "to",
                    "type": "address"
                },
                {
                    "internalType": "uint256",
                    "name": "amount",
                    "type": "uint256"
                }
            ],
            "name": "transfer",
            "outputs": [
                {
                    "internalType": "bool",
                    "name": "",
                    "type": "bool"
                }
            ],
            "stateMutability": "nonpayable",
            "type": "function"
        },
        {
            "inputs": [
                {
                    "internalType": "address",
                    "name": "from",
                    "type": "address"
                },
                {
                    "internalType": "address",
                    "name": "to",
                    "type": "address"
                },
                {
                    "internalType": "uint256",
                    "name": "amount",
                    "type": "uint256"
                }
            ],
            "name": "transferFrom",
            "outputs": [
                {
                    "internalType": "bool",
                    "name": "",
                    "type": "bool"
                }
            ],
            "stateMutability": "nonpayable",
            "type": "function"
        },
        {
            "inputs": [
                {
                    "internalType": "uint256",
                    "name": "assets",
                    "type": "uint256"
                },
                {
                    "internalType": "address",
                    "name": "receiver",
                    "type": "address"
                },
                {
                    "internalType": "address",
                    "name": "owner",
                    "type": "address"
                }
            ],
            "name": "withdraw",
            "outputs": [
                {
                    "internalType": "uint256",
                    "name": "shares",
                    "type": "uint256"
                }
            ],
            "stateMutability": "nonpayable",
            "type": "function"
        }
    ],
    "bytecode": "608060405234801561001057600080fd5b50611ace806100206000396000f3fe608060405234801561001057600080fd5b50600436106102115760003560e01c806394bf804d11610125578063cd3c4255116100ad578063d905777e1161007c578063d905777e14610479578063dd62ed3e146104a2578063e30c3978146104cd578063ebbc4965146104e0578063ef8b30f7146104e857600080fd5b8063cd3c42551461042d578063ce96cb7714610440578063d505accf14610453578063d574ea3d1461046657600080fd5b8063b460af94116100f4578063b460af94146103e1578063ba087652146103f4578063c4d66de814610407578063c63d75b614610312578063c6e6f5921461041a57600080fd5b806394bf804d146103a057806395d89b41146103b3578063a9059cbb146103bb578063b3d7f6b9146103ce57600080fd5b8063313ce567116101a85780634cdad506116101775780634cdad506146103275780636e553f651461033a57806370a082311461034d5780637ecebe001461036d5780638da5cb5b1461038d57600080fd5b8063313ce567146102c05780633644e515146102df57806338d52e0f146102e7578063402d267d1461031257600080fd5b80630a28a477116101e45780630a28a4771461027c57806313af40351461028f57806318160ddd146102a457806323b872dd146102ad57600080fd5b806301e1d1141461021657806306fdde031461023157806307a2d13a14610246578063095ea7b314610259575b600080fd5b61021e6104fb565b6040519081526020015b60405180910390f35b61023961058c565b60405161022891906115a2565b61021e6102543660046115d5565b61061a565b61026c61026736600461160a565b610647565b6040519015158152602001610228565b61021e61028a3660046115d5565b6106b4565b6102a261029d366004611634565b6106d4565b005b61021e60045481565b61026c6102bb36600461164f565b610742565b6003546102cd9060ff1681565b60405160ff9091168152602001610228565b61021e610822565b600a546102fa906001600160a01b031681565b6040516001600160a01b039091168152602001610228565b61021e610320366004611634565b5060001990565b61021e6103353660046115d5565b610841565b61021e61034836600461168b565b61084c565b61021e61035b366004611634565b60056020526000908152604090205481565b61021e61037b366004611634565b60096020526000908152604090205481565b600b546102fa906001600160a01b031681565b61021e6103ae36600461168b565b610905565b610239610978565b61026c6103c936600461160a565b610985565b61021e6103dc3660046115d5565b6109eb565b61021e6103ef3660046116b7565b610a0a565b61021e6104023660046116b7565b610af1565b6102a2610415366004611634565b610c16565b61021e6104283660046115d5565b610de0565b600e546102fa906001600160a01b031681565b61021e61044e366004611634565b610e00565b6102a2610461366004611705565b610e22565b6102fa6104743660046115d5565b611066565b61021e610487366004611634565b6001600160a01b031660009081526005602052604090205490565b61021e6104b0366004611772565b600660209081526000928352604080842090915290825290205481565b600c546102fa906001600160a01b031681565b6102a2611090565b61021e6104f63660046115d5565b6110f7565b600080600d6000815481106105125761051261179c565b60009182526020918290200154604080516278744560e21b815290516001600160a01b03909216935083926301e1d114926004808401938290030181865afa158015610562573d6000803e3d6000fd5b505050506040513d601f19601f8201168201806040525081019061058691906117b2565b91505090565b60018054610599906117cb565b80601f01602080910402602001604051908101604052809291908181526020018280546105c5906117cb565b80156106125780601f106105e757610100808354040283529160200191610612565b820191906000526020600020905b8154815290600101906020018083116105f557829003601f168201915b505050505081565b600454600090801561063e576106396106316104fb565b849083611102565b610640565b825b9392505050565b3360008181526006602090815260408083206001600160a01b038716808552925280832085905551919290917f8c5be1e5ebec7d5bd14f71427d1e84f3dd0314c0f7b2291e5b200ac8c7c3b925906106a29086815260200190565b60405180910390a35060015b92915050565b600454600090801561063e57610639816106cc6104fb565b859190611121565b600b546001600160a01b031633146107205760405162461bcd60e51b815260206004820152600a60248201526908585d5d1bdc9a5e995960b21b60448201526064015b60405180910390fd5b600c80546001600160a01b0319166001600160a01b0392909216919091179055565b6001600160a01b0383166000908152600660209081526040808320338452909152812054600019811461079e57610779838261181b565b6001600160a01b03861660009081526006602090815260408083203384529091529020555b6001600160a01b038516600090815260056020526040812080548592906107c690849061181b565b90915550506001600160a01b0380851660008181526005602052604090819020805487019055519091871690600080516020611a798339815191529061080f9087815260200190565b60405180910390a3506001949350505050565b6000600754461461083a5761083561114f565b905090565b5060085490565b60006106ae8261061a565b6000610857836110f7565b9050806000036108975760405162461bcd60e51b815260206004820152600b60248201526a5a45524f5f53484152455360a81b6044820152606401610717565b600a546108af906001600160a01b03163330866111e9565b6108b98282611273565b60408051848152602081018390526001600160a01b0384169133917fdcbc1c05240f31ff3ad067ef1ee35ce4997762752e3a095284754544f4c709d791015b60405180910390a36106ae565b6000610910836109eb565b600a5490915061092b906001600160a01b03163330846111e9565b6109358284611273565b60408051828152602081018590526001600160a01b0384169133917fdcbc1c05240f31ff3ad067ef1ee35ce4997762752e3a095284754544f4c709d791016108f8565b60028054610599906117cb565b336000908152600560205260408120805483919083906109a690849061181b565b90915550506001600160a01b03831660008181526005602052604090819020805485019055513390600080516020611a79833981519152906106a29086815260200190565b600454600090801561063e57610639610a026104fb565b849083611121565b6000610a15846106b4565b9050336001600160a01b03831614610a85576001600160a01b03821660009081526006602090815260408083203384529091529020546000198114610a8357610a5e828261181b565b6001600160a01b03841660009081526006602090815260408083203384529091529020555b505b610a8f82826112cd565b60408051858152602081018390526001600160a01b03808516929086169133917ffbde797d201c681b91056529119e0b02407c7bb96a4a2c75c01fc9667232c8db910160405180910390a4600a54610640906001600160a01b0316848661132f565b6000336001600160a01b03831614610b61576001600160a01b03821660009081526006602090815260408083203384529091529020546000198114610b5f57610b3a858261181b565b6001600160a01b03841660009081526006602090815260408083203384529091529020555b505b610b6a84610841565b905080600003610baa5760405162461bcd60e51b815260206004820152600b60248201526a5a45524f5f41535345545360a81b6044820152606401610717565b610bb482856112cd565b60408051828152602081018690526001600160a01b03808516929086169133917ffbde797d201c681b91056529119e0b02407c7bb96a4a2c75c01fc9667232c8db910160405180910390a4600a54610640906001600160a01b0316848361132f565b600054610100900460ff1615808015610c365750600054600160ff909116105b80610c505750303b158015610c50575060005460ff166001145b610cb35760405162461bcd60e51b815260206004820152602e60248201527f496e697469616c697a61626c653a20636f6e747261637420697320616c72656160448201526d191e481a5b9a5d1a585b1a5e995960921b6064820152608401610717565b6000805460ff191660011790558015610cd6576000805461ff0019166101001790555b6000826001600160a01b03166395d89b416040518163ffffffff1660e01b8152600401600060405180830381865afa158015610d16573d6000803e3d6000fd5b505050506040513d6000823e601f3d908101601f19168201604052610d3e9190810190611848565b9050600081604051602001610d5391906118f5565b6040516020818303038152906040529050600082604051602001610d77919061192e565b6040516020818303038152906040529050610d938583836113ad565b5050508015610ddc576000805461ff0019169055604051600181527f7f26b83ff96e1f2b6a682f133852f6798a09c465da95921460cefb38474024989060200160405180910390a15b5050565b600454600090801561063e5761063981610df86104fb565b859190611102565b6001600160a01b0381166000908152600560205260408120546106ae9061061a565b42841015610e725760405162461bcd60e51b815260206004820152601760248201527f5045524d49545f444541444c494e455f455850495245440000000000000000006044820152606401610717565b60006001610e7e610822565b6001600160a01b038a811660008181526009602090815260409182902080546001810190915582517f6e71edae12b1b97f4d1f60370fef10105fa2faae0126114a169c64845d6126c98184015280840194909452938d166060840152608083018c905260a083019390935260c08083018b90528151808403909101815260e08301909152805192019190912061190160f01b6101008301526101028201929092526101228101919091526101420160408051601f198184030181528282528051602091820120600084529083018083525260ff871690820152606081018590526080810184905260a0016020604051602081039080840390855afa158015610f8a573d6000803e3d6000fd5b5050604051601f1901519150506001600160a01b03811615801590610fc05750876001600160a01b0316816001600160a01b0316145b610ffd5760405162461bcd60e51b815260206004820152600e60248201526d24a72b20a624a22fa9a4a3a722a960911b6044820152606401610717565b6001600160a01b0390811660009081526006602090815260408083208a8516808552908352928190208990555188815291928a16917f8c5be1e5ebec7d5bd14f71427d1e84f3dd0314c0f7b2291e5b200ac8c7c3b925910160405180910390a350505050505050565b600d818154811061107657600080fd5b6000918252602090912001546001600160a01b0316905081565b600c546001600160a01b031633146110d75760405162461bcd60e51b815260206004820152600a60248201526908585d5d1bdc9a5e995960b21b6044820152606401610717565b600b80546001600160a01b03199081163317909155600c80549091169055565b60006106ae82610de0565b82820281151584158583048514171661111a57600080fd5b0492915050565b82820281151584158583048514171661113957600080fd5b6001826001830304018115150290509392505050565b60007f8b73c3c69bb8fe3d512ecc4cf759cc79239f7b179b0ffacaa9a75d522b39400f6001604051611181919061195d565b6040805191829003822060208301939093528101919091527fc89efdaa54c0f20c7adf612882df0950f5a951637e0307cdcb4c672f298b8bc660608201524660808201523060a082015260c00160405160208183030381529060405280519060200120905090565b60006040516323b872dd60e01b81528460048201528360248201528260448201526020600060648360008a5af13d15601f3d116001600051141617169150508061126c5760405162461bcd60e51b81526020600482015260146024820152731514905394d1915497d19493d357d1905253115160621b6044820152606401610717565b5050505050565b806004600082825461128591906119f8565b90915550506001600160a01b038216600081815260056020908152604080832080548601905551848152600080516020611a7983398151915291015b60405180910390a35050565b6001600160a01b038216600090815260056020526040812080548392906112f590849061181b565b90915550506004805482900390556040518181526000906001600160a01b03841690600080516020611a79833981519152906020016112c1565b600060405163a9059cbb60e01b8152836004820152826024820152602060006044836000895af13d15601f3d11600160005114161716915050806113a75760405162461bcd60e51b815260206004820152600f60248201526e1514905394d1915497d19052531151608a1b6044820152606401610717565b50505050565b600054610100900460ff166113d45760405162461bcd60e51b815260040161071790611a10565b6000836001600160a01b031663313ce5676040518163ffffffff1660e01b8152600401602060405180830381865afa158015611414573d6000803e3d6000fd5b505050506040513d601f19601f820116820180604052508101906114389190611a5b565b905061144583838361146b565b5050600a80546001600160a01b0319166001600160a01b03939093169290921790915550565b600054610100900460ff166114925760405162461bcd60e51b815260040161071790611a10565b82516114a59060019060208601906114dd565b5081516114b99060029060208501906114dd565b506003805460ff191660ff8316179055466007556114d561114f565b600855505050565b8280546114e9906117cb565b90600052602060002090601f01602090048101928261150b5760008555611551565b82601f1061152457805160ff1916838001178555611551565b82800160010185558215611551579182015b82811115611551578251825591602001919060010190611536565b5061155d929150611561565b5090565b5b8082111561155d5760008155600101611562565b60005b83811015611591578181015183820152602001611579565b838111156113a75750506000910152565b60208152600082518060208401526115c1816040850160208701611576565b601f01601f19169190910160400192915050565b6000602082840312156115e757600080fd5b5035919050565b80356001600160a01b038116811461160557600080fd5b919050565b6000806040838503121561161d57600080fd5b611626836115ee565b946020939093013593505050565b60006020828403121561164657600080fd5b610640826115ee565b60008060006060848603121561166457600080fd5b61166d846115ee565b925061167b602085016115ee565b9150604084013590509250925092565b6000806040838503121561169e57600080fd5b823591506116ae602084016115ee565b90509250929050565b6000806000606084860312156116cc57600080fd5b833592506116dc602085016115ee565b91506116ea604085016115ee565b90509250925092565b60ff8116811461170257600080fd5b50565b600080600080600080600060e0888a03121561172057600080fd5b611729886115ee565b9650611737602089016115ee565b955060408801359450606088013593506080880135611755816116f3565b9699959850939692959460a0840135945060c09093013592915050565b6000806040838503121561178557600080fd5b61178e836115ee565b91506116ae602084016115ee565b634e487b7160e01b600052603260045260246000fd5b6000602082840312156117c457600080fd5b5051919050565b600181811c908216806117df57607f821691505b6020821081036117ff57634e487b7160e01b600052602260045260246000fd5b50919050565b634e487b7160e01b600052601160045260246000fd5b60008282101561182d5761182d611805565b500390565b634e487b7160e01b600052604160045260246000fd5b60006020828403121561185a57600080fd5b815167ffffffffffffffff8082111561187257600080fd5b818401915084601f83011261188657600080fd5b81518181111561189857611898611832565b604051601f8201601f19908116603f011681019083821181831017156118c0576118c0611832565b816040528281528760208487010111156118d957600080fd5b6118ea836020830160208801611576565b979650505050505050565b70021b7b739ba393ab1ba102b30bab63a1d1607d1b815260008251611921816011850160208701611576565b9190910160110192915050565b66635661756c742d60c81b815260008251611950816007850160208701611576565b9190910160070192915050565b600080835481600182811c91508083168061197957607f831692505b6020808410820361199857634e487b7160e01b86526022600452602486fd5b8180156119ac57600181146119bd576119ea565b60ff198616895284890196506119ea565b60008a81526020902060005b868110156119e25781548b8201529085019083016119c9565b505084890196505b509498975050505050505050565b60008219821115611a0b57611a0b611805565b500190565b6020808252602b908201527f496e697469616c697a61626c653a20636f6e7472616374206973206e6f74206960408201526a6e697469616c697a696e6760a81b606082015260800190565b600060208284031215611a6d57600080fd5b8151610640816116f356feddf252ad1be2c89b69c2b068fc378daa952ba7f163c4a11628f55a4df523b3efa26469706673582212209ebd0e96d14d393165ffa1a17979e773a6c9e9e66f2a121f067327af6c8080d364736f6c634300080d0033",
    "sourcePath": "/Users/misha/Library/Mobile Documents/com~apple~CloudDocs/Dev/construct-finance/construct_V0/src/impl/ConstructVault.sol",
    "compiler": {
        "name": "solc",
        "version": "0.8.13+commit.abaa5c0e"
    },
    "functionHashes": {
        "DOMAIN_SEPARATOR()": "3644e515",
        "acceptOwner()": "ebbc4965",
        "activeStrategy()": "cd3c4255",
        "allowance(address,address)": "dd62ed3e",
        "approve(address,uint256)": "095ea7b3",
        "asset()": "38d52e0f",
        "balanceOf(address)": "70a08231",
        "convertToAssets(uint256)": "07a2d13a",
        "convertToShares(uint256)": "c6e6f592",
        "decimals()": "313ce567",
        "deposit(uint256,address)": "6e553f65",
        "initialize(address)": "c4d66de8",
        "maxDeposit(address)": "402d267d",
        "maxMint(address)": "c63d75b6",
        "maxRedeem(address)": "d905777e",
        "maxWithdraw(address)": "ce96cb77",
        "mint(uint256,address)": "94bf804d",
        "name()": "06fdde03",
        "nonces(address)": "7ecebe00",
        "owner()": "8da5cb5b",
        "pendingOwner()": "e30c3978",
        "permit(address,address,uint256,uint256,uint8,bytes32,bytes32)": "d505accf",
        "previewDeposit(uint256)": "ef8b30f7",
        "previewMint(uint256)": "b3d7f6b9",
        "previewRedeem(uint256)": "4cdad506",
        "previewWithdraw(uint256)": "0a28a477",
        "redeem(uint256,address,address)": "ba087652",
        "setOwner(address)": "13af4035",
        "strategies(uint256)": "d574ea3d",
        "symbol()": "95d89b41",
        "totalAssets()": "01e1d114",
        "totalSupply()": "18160ddd",
        "transfer(address,uint256)": "a9059cbb",
        "transferFrom(address,address,uint256)": "23b872dd",
        "withdraw(uint256,address,address)": "b460af94"
    },
    "gasEstimates": {
        "creation": {
            "codeDepositCost": "1372400",
            "executionCost": "1431",
            "totalCost": "1373831"
        },
        "external": {
            "DOMAIN_SEPARATOR()": "infinite",
            "acceptOwner()": "50856",
            "activeStrategy()": "2382",
            "allowance(address,address)": "infinite",
            "approve(address,uint256)": "24613",
            "asset()": "2427",
            "balanceOf(address)": "2597",
            "convertToAssets(uint256)": "infinite",
            "convertToShares(uint256)": "infinite",
            "decimals()": "2359",
            "deposit(uint256,address)": "infinite",
            "initialize(address)": "infinite",
            "maxDeposit(address)": "459",
            "maxMint(address)": "458",
            "maxRedeem(address)": "2570",
            "maxWithdraw(address)": "infinite",
            "mint(uint256,address)": "infinite",
            "name()": "infinite",
            "nonces(address)": "2619",
            "owner()": "2470",
            "pendingOwner()": "2425",
            "permit(address,address,uint256,uint256,uint8,bytes32,bytes32)": "infinite",
            "previewDeposit(uint256)": "infinite",
            "previewMint(uint256)": "infinite",
            "previewRedeem(uint256)": "infinite",
            "previewWithdraw(uint256)": "infinite",
            "redeem(uint256,address,address)": "infinite",
            "setOwner(address)": "26779",
            "strategies(uint256)": "4725",
            "symbol()": "infinite",
            "totalAssets()": "infinite",
            "totalSupply()": "2374",
            "transfer(address,uint256)": "infinite",
            "transferFrom(address,address,uint256)": "infinite",
            "withdraw(uint256,address,address)": "infinite"
        }
    }
}