{
    "contractName": "AaveBiassetModule",
    "abi": [
        {
            "inputs": [
                {
                    "internalType": "address",
                    "name": "_owner",
                    "type": "address"
                },
                {
                    "internalType": "string",
                    "name": "_name",
                    "type": "string"
                },
                {
                    "internalType": "string",
                    "name": "_symbol",
                    "type": "string"
                },
                {
                    "internalType": "address",
                    "name": "_aaveLendingPool",
                    "type": "address"
                },
                {
                    "internalType": "address",
                    "name": "_aaveDataProvider",
                    "type": "address"
                },
                {
                    "internalType": "address",
                    "name": "_aaveOracle",
                    "type": "address"
                },
                {
                    "internalType": "uint64",
                    "name": "_targetLtv",
                    "type": "uint64"
                },
                {
                    "internalType": "uint64",
                    "name": "_lowerBoundLtv",
                    "type": "uint64"
                },
                {
                    "internalType": "uint64",
                    "name": "_upperBoundLtv",
                    "type": "uint64"
                },
                {
                    "internalType": "uint64",
                    "name": "_rebalanceInterval",
                    "type": "uint64"
                },
                {
                    "internalType": "uint64",
                    "name": "_recenteringSpeed",
                    "type": "uint64"
                }
            ],
            "stateMutability": "nonpayable",
            "type": "constructor"
        },
        {
            "anonymous": false,
            "inputs": [
                {
                    "indexed": true,
                    "internalType": "address",
                    "name": "owner",
                    "type": "address"
                },
                {
                    "indexed": true,
                    "internalType": "address",
                    "name": "spender",
                    "type": "address"
                },
                {
                    "indexed": false,
                    "internalType": "uint256",
                    "name": "amount",
                    "type": "uint256"
                }
            ],
            "name": "Approval",
            "type": "event"
        },
        {
            "anonymous": false,
            "inputs": [
                {
                    "indexed": true,
                    "internalType": "address",
                    "name": "caller",
                    "type": "address"
                },
                {
                    "indexed": true,
                    "internalType": "address",
                    "name": "owner",
                    "type": "address"
                },
                {
                    "indexed": false,
                    "internalType": "uint256",
                    "name": "assets",
                    "type": "uint256"
                },
                {
                    "indexed": false,
                    "internalType": "uint256",
                    "name": "shares",
                    "type": "uint256"
                }
            ],
            "name": "Deposit",
            "type": "event"
        },
        {
            "anonymous": false,
            "inputs": [
                {
                    "indexed": false,
                    "internalType": "uint8",
                    "name": "version",
                    "type": "uint8"
                }
            ],
            "name": "Initialized",
            "type": "event"
        },
        {
            "anonymous": false,
            "inputs": [
                {
                    "indexed": true,
                    "internalType": "address",
                    "name": "caller",
                    "type": "address"
                },
                {
                    "indexed": false,
                    "internalType": "uint256",
                    "name": "reward",
                    "type": "uint256"
                },
                {
                    "indexed": false,
                    "internalType": "uint128",
                    "name": "timestamp",
                    "type": "uint128"
                }
            ],
            "name": "Rebalance",
            "type": "event"
        },
        {
            "anonymous": false,
            "inputs": [
                {
                    "indexed": true,
                    "internalType": "address",
                    "name": "from",
                    "type": "address"
                },
                {
                    "indexed": true,
                    "internalType": "address",
                    "name": "to",
                    "type": "address"
                },
                {
                    "indexed": false,
                    "internalType": "uint256",
                    "name": "amount",
                    "type": "uint256"
                }
            ],
            "name": "Transfer",
            "type": "event"
        },
        {
            "anonymous": false,
            "inputs": [
                {
                    "indexed": true,
                    "internalType": "address",
                    "name": "caller",
                    "type": "address"
                },
                {
                    "indexed": true,
                    "internalType": "address",
                    "name": "receiver",
                    "type": "address"
                },
                {
                    "indexed": true,
                    "internalType": "address",
                    "name": "owner",
                    "type": "address"
                },
                {
                    "indexed": false,
                    "internalType": "uint256",
                    "name": "assets",
                    "type": "uint256"
                },
                {
                    "indexed": false,
                    "internalType": "uint256",
                    "name": "shares",
                    "type": "uint256"
                }
            ],
            "name": "Withdraw",
            "type": "event"
        },
        {
            "inputs": [],
            "name": "DOMAIN_SEPARATOR",
            "outputs": [
                {
                    "internalType": "bytes32",
                    "name": "",
                    "type": "bytes32"
                }
            ],
            "stateMutability": "view",
            "type": "function"
        },
        {
            "inputs": [],
            "name": "aToken",
            "outputs": [
                {
                    "internalType": "address",
                    "name": "",
                    "type": "address"
                }
            ],
            "stateMutability": "view",
            "type": "function"
        },
        {
            "inputs": [],
            "name": "acceptOwner",
            "outputs": [],
            "stateMutability": "nonpayable",
            "type": "function"
        },
        {
            "inputs": [
                {
                    "internalType": "address",
                    "name": "",
                    "type": "address"
                },
                {
                    "internalType": "address",
                    "name": "",
                    "type": "address"
                }
            ],
            "name": "allowance",
            "outputs": [
                {
                    "internalType": "uint256",
                    "name": "",
                    "type": "uint256"
                }
            ],
            "stateMutability": "view",
            "type": "function"
        },
        {
            "inputs": [
                {
                    "internalType": "address",
                    "name": "spender",
                    "type": "address"
                },
                {
                    "internalType": "uint256",
                    "name": "amount",
                    "type": "uint256"
                }
            ],
            "name": "approve",
            "outputs": [
                {
                    "internalType": "bool",
                    "name": "",
                    "type": "bool"
                }
            ],
            "stateMutability": "nonpayable",
            "type": "function"
        },
        {
            "inputs": [],
            "name": "asset",
            "outputs": [
                {
                    "internalType": "contract ERC20",
                    "name": "",
                    "type": "address"
                }
            ],
            "stateMutability": "view",
            "type": "function"
        },
        {
            "inputs": [
                {
                    "internalType": "address",
                    "name": "",
                    "type": "address"
                }
            ],
            "name": "balanceOf",
            "outputs": [
                {
                    "internalType": "uint256",
                    "name": "",
                    "type": "uint256"
                }
            ],
            "stateMutability": "view",
            "type": "function"
        },
        {
            "inputs": [
                {
                    "internalType": "uint256",
                    "name": "shares",
                    "type": "uint256"
                }
            ],
            "name": "convertToAssets",
            "outputs": [
                {
                    "internalType": "uint256",
                    "name": "",
                    "type": "uint256"
                }
            ],
            "stateMutability": "view",
            "type": "function"
        },
        {
            "inputs": [
                {
                    "internalType": "uint256",
                    "name": "assets",
                    "type": "uint256"
                }
            ],
            "name": "convertToShares",
            "outputs": [
                {
                    "internalType": "uint256",
                    "name": "",
                    "type": "uint256"
                }
            ],
            "stateMutability": "view",
            "type": "function"
        },
        {
            "inputs": [],
            "name": "dataProvider",
            "outputs": [
                {
                    "internalType": "contract IAaveProtocolDataProvider",
                    "name": "",
                    "type": "address"
                }
            ],
            "stateMutability": "view",
            "type": "function"
        },
        {
            "inputs": [],
            "name": "debtToken",
            "outputs": [
                {
                    "internalType": "address",
                    "name": "",
                    "type": "address"
                }
            ],
            "stateMutability": "view",
            "type": "function"
        },
        {
            "inputs": [],
            "name": "decimals",
            "outputs": [
                {
                    "internalType": "uint8",
                    "name": "",
                    "type": "uint8"
                }
            ],
            "stateMutability": "view",
            "type": "function"
        },
        {
            "inputs": [
                {
                    "internalType": "uint256",
                    "name": "assets",
                    "type": "uint256"
                },
                {
                    "internalType": "address",
                    "name": "receiver",
                    "type": "address"
                }
            ],
            "name": "deposit",
            "outputs": [
                {
                    "internalType": "uint256",
                    "name": "shares",
                    "type": "uint256"
                }
            ],
            "stateMutability": "nonpayable",
            "type": "function"
        },
        {
            "inputs": [],
            "name": "factory",
            "outputs": [
                {
                    "internalType": "address",
                    "name": "",
                    "type": "address"
                }
            ],
            "stateMutability": "view",
            "type": "function"
        },
        {
            "inputs": [],
            "name": "getAsset",
            "outputs": [
                {
                    "internalType": "address",
                    "name": "",
                    "type": "address"
                }
            ],
            "stateMutability": "view",
            "type": "function"
        },
        {
            "inputs": [],
            "name": "getCapitalUtilization",
            "outputs": [
                {
                    "internalType": "uint256",
                    "name": "",
                    "type": "uint256"
                }
            ],
            "stateMutability": "view",
            "type": "function"
        },
        {
            "inputs": [],
            "name": "getCollateralETH",
            "outputs": [
                {
                    "internalType": "uint256",
                    "name": "",
                    "type": "uint256"
                }
            ],
            "stateMutability": "view",
            "type": "function"
        },
        {
            "inputs": [],
            "name": "getCurrentLtv",
            "outputs": [
                {
                    "internalType": "uint256",
                    "name": "",
                    "type": "uint256"
                }
            ],
            "stateMutability": "view",
            "type": "function"
        },
        {
            "inputs": [],
            "name": "getDebtETH",
            "outputs": [
                {
                    "internalType": "uint256",
                    "name": "",
                    "type": "uint256"
                }
            ],
            "stateMutability": "view",
            "type": "function"
        },
        {
            "inputs": [],
            "name": "getModuleApr",
            "outputs": [
                {
                    "internalType": "int256",
                    "name": "",
                    "type": "int256"
                }
            ],
            "stateMutability": "view",
            "type": "function"
        },
        {
            "inputs": [],
            "name": "getProduct",
            "outputs": [
                {
                    "internalType": "address",
                    "name": "",
                    "type": "address"
                }
            ],
            "stateMutability": "view",
            "type": "function"
        },
        {
            "inputs": [],
            "name": "getReward",
            "outputs": [
                {
                    "internalType": "uint256",
                    "name": "",
                    "type": "uint256"
                }
            ],
            "stateMutability": "view",
            "type": "function"
        },
        {
            "inputs": [],
            "name": "getSource",
            "outputs": [
                {
                    "internalType": "address",
                    "name": "",
                    "type": "address"
                }
            ],
            "stateMutability": "view",
            "type": "function"
        },
        {
            "inputs": [],
            "name": "getTarget",
            "outputs": [
                {
                    "internalType": "address",
                    "name": "",
                    "type": "address"
                }
            ],
            "stateMutability": "view",
            "type": "function"
        },
        {
            "inputs": [],
            "name": "implementation",
            "outputs": [
                {
                    "internalType": "address",
                    "name": "",
                    "type": "address"
                }
            ],
            "stateMutability": "view",
            "type": "function"
        },
        {
            "inputs": [
                {
                    "internalType": "address",
                    "name": "_asset",
                    "type": "address"
                },
                {
                    "internalType": "address",
                    "name": "_product",
                    "type": "address"
                },
                {
                    "internalType": "address",
                    "name": "_source",
                    "type": "address"
                },
                {
                    "internalType": "address",
                    "name": "_implementation",
                    "type": "address"
                }
            ],
            "name": "initialize",
            "outputs": [],
            "stateMutability": "nonpayable",
            "type": "function"
        },
        {
            "inputs": [],
            "name": "lendingPool",
            "outputs": [
                {
                    "internalType": "contract IAaveLendingPool",
                    "name": "",
                    "type": "address"
                }
            ],
            "stateMutability": "view",
            "type": "function"
        },
        {
            "inputs": [],
            "name": "lowerBoundLtv",
            "outputs": [
                {
                    "internalType": "uint64",
                    "name": "",
                    "type": "uint64"
                }
            ],
            "stateMutability": "view",
            "type": "function"
        },
        {
            "inputs": [
                {
                    "internalType": "address",
                    "name": "",
                    "type": "address"
                }
            ],
            "name": "maxDeposit",
            "outputs": [
                {
                    "internalType": "uint256",
                    "name": "",
                    "type": "uint256"
                }
            ],
            "stateMutability": "view",
            "type": "function"
        },
        {
            "inputs": [
                {
                    "internalType": "address",
                    "name": "",
                    "type": "address"
                }
            ],
            "name": "maxMint",
            "outputs": [
                {
                    "internalType": "uint256",
                    "name": "",
                    "type": "uint256"
                }
            ],
            "stateMutability": "view",
            "type": "function"
        },
        {
            "inputs": [
                {
                    "internalType": "address",
                    "name": "owner",
                    "type": "address"
                }
            ],
            "name": "maxRedeem",
            "outputs": [
                {
                    "internalType": "uint256",
                    "name": "",
                    "type": "uint256"
                }
            ],
            "stateMutability": "view",
            "type": "function"
        },
        {
            "inputs": [
                {
                    "internalType": "address",
                    "name": "owner",
                    "type": "address"
                }
            ],
            "name": "maxWithdraw",
            "outputs": [
                {
                    "internalType": "uint256",
                    "name": "",
                    "type": "uint256"
                }
            ],
            "stateMutability": "view",
            "type": "function"
        },
        {
            "inputs": [
                {
                    "internalType": "uint256",
                    "name": "shares",
                    "type": "uint256"
                },
                {
                    "internalType": "address",
                    "name": "receiver",
                    "type": "address"
                }
            ],
            "name": "mint",
            "outputs": [
                {
                    "internalType": "uint256",
                    "name": "assets",
                    "type": "uint256"
                }
            ],
            "stateMutability": "nonpayable",
            "type": "function"
        },
        {
            "inputs": [],
            "name": "name",
            "outputs": [
                {
                    "internalType": "string",
                    "name": "",
                    "type": "string"
                }
            ],
            "stateMutability": "view",
            "type": "function"
        },
        {
            "inputs": [
                {
                    "internalType": "address",
                    "name": "",
                    "type": "address"
                }
            ],
            "name": "nonces",
            "outputs": [
                {
                    "internalType": "uint256",
                    "name": "",
                    "type": "uint256"
                }
            ],
            "stateMutability": "view",
            "type": "function"
        },
        {
            "inputs": [],
            "name": "oracle",
            "outputs": [
                {
                    "internalType": "contract IPriceOracleGetter",
                    "name": "",
                    "type": "address"
                }
            ],
            "stateMutability": "view",
            "type": "function"
        },
        {
            "inputs": [],
            "name": "owner",
            "outputs": [
                {
                    "internalType": "address",
                    "name": "",
                    "type": "address"
                }
            ],
            "stateMutability": "view",
            "type": "function"
        },
        {
            "inputs": [],
            "name": "pendingOwner",
            "outputs": [
                {
                    "internalType": "address",
                    "name": "",
                    "type": "address"
                }
            ],
            "stateMutability": "view",
            "type": "function"
        },
        {
            "inputs": [
                {
                    "internalType": "address",
                    "name": "owner",
                    "type": "address"
                },
                {
                    "internalType": "address",
                    "name": "spender",
                    "type": "address"
                },
                {
                    "internalType": "uint256",
                    "name": "value",
                    "type": "uint256"
                },
                {
                    "internalType": "uint256",
                    "name": "deadline",
                    "type": "uint256"
                },
                {
                    "internalType": "uint8",
                    "name": "v",
                    "type": "uint8"
                },
                {
                    "internalType": "bytes32",
                    "name": "r",
                    "type": "bytes32"
                },
                {
                    "internalType": "bytes32",
                    "name": "s",
                    "type": "bytes32"
                }
            ],
            "name": "permit",
            "outputs": [],
            "stateMutability": "nonpayable",
            "type": "function"
        },
        {
            "inputs": [
                {
                    "internalType": "uint256",
                    "name": "assets",
                    "type": "uint256"
                }
            ],
            "name": "previewDeposit",
            "outputs": [
                {
                    "internalType": "uint256",
                    "name": "",
                    "type": "uint256"
                }
            ],
            "stateMutability": "view",
            "type": "function"
        },
        {
            "inputs": [
                {
                    "internalType": "uint256",
                    "name": "shares",
                    "type": "uint256"
                }
            ],
            "name": "previewMint",
            "outputs": [
                {
                    "internalType": "uint256",
                    "name": "",
                    "type": "uint256"
                }
            ],
            "stateMutability": "view",
            "type": "function"
        },
        {
            "inputs": [
                {
                    "internalType": "uint256",
                    "name": "shares",
                    "type": "uint256"
                }
            ],
            "name": "previewRedeem",
            "outputs": [
                {
                    "internalType": "uint256",
                    "name": "",
                    "type": "uint256"
                }
            ],
            "stateMutability": "view",
            "type": "function"
        },
        {
            "inputs": [
                {
                    "internalType": "uint256",
                    "name": "assets",
                    "type": "uint256"
                }
            ],
            "name": "previewWithdraw",
            "outputs": [
                {
                    "internalType": "uint256",
                    "name": "",
                    "type": "uint256"
                }
            ],
            "stateMutability": "view",
            "type": "function"
        },
        {
            "inputs": [],
            "name": "product",
            "outputs": [
                {
                    "internalType": "contract ERC20",
                    "name": "",
                    "type": "address"
                }
            ],
            "stateMutability": "view",
            "type": "function"
        },
        {
            "inputs": [],
            "name": "rebalance",
            "outputs": [],
            "stateMutability": "nonpayable",
            "type": "function"
        },
        {
            "inputs": [],
            "name": "rebalanceInterval",
            "outputs": [
                {
                    "internalType": "uint128",
                    "name": "",
                    "type": "uint128"
                }
            ],
            "stateMutability": "view",
            "type": "function"
        },
        {
            "inputs": [],
            "name": "rebalanceRequired",
            "outputs": [
                {
                    "internalType": "bool",
                    "name": "",
                    "type": "bool"
                }
            ],
            "stateMutability": "view",
            "type": "function"
        },
        {
            "inputs": [],
            "name": "rebalanceTimestamp",
            "outputs": [
                {
                    "internalType": "uint128",
                    "name": "",
                    "type": "uint128"
                }
            ],
            "stateMutability": "view",
            "type": "function"
        },
        {
            "inputs": [],
            "name": "recenteringSpeed",
            "outputs": [
                {
                    "internalType": "uint64",
                    "name": "",
                    "type": "uint64"
                }
            ],
            "stateMutability": "view",
            "type": "function"
        },
        {
            "inputs": [
                {
                    "internalType": "uint256",
                    "name": "shares",
                    "type": "uint256"
                },
                {
                    "internalType": "address",
                    "name": "receiver",
                    "type": "address"
                },
                {
                    "internalType": "address",
                    "name": "owner",
                    "type": "address"
                }
            ],
            "name": "redeem",
            "outputs": [
                {
                    "internalType": "uint256",
                    "name": "assets",
                    "type": "uint256"
                }
            ],
            "stateMutability": "nonpayable",
            "type": "function"
        },
        {
            "inputs": [
                {
                    "internalType": "address",
                    "name": "_owner",
                    "type": "address"
                }
            ],
            "name": "setOwner",
            "outputs": [],
            "stateMutability": "nonpayable",
            "type": "function"
        },
        {
            "inputs": [
                {
                    "internalType": "address",
                    "name": "_target",
                    "type": "address"
                }
            ],
            "name": "setTarget",
            "outputs": [],
            "stateMutability": "nonpayable",
            "type": "function"
        },
        {
            "inputs": [],
            "name": "source",
            "outputs": [
                {
                    "internalType": "contract ERC4626",
                    "name": "",
                    "type": "address"
                }
            ],
            "stateMutability": "view",
            "type": "function"
        },
        {
            "inputs": [],
            "name": "strategy",
            "outputs": [
                {
                    "internalType": "contract ERC4626",
                    "name": "",
                    "type": "address"
                }
            ],
            "stateMutability": "view",
            "type": "function"
        },
        {
            "inputs": [],
            "name": "symbol",
            "outputs": [
                {
                    "internalType": "string",
                    "name": "",
                    "type": "string"
                }
            ],
            "stateMutability": "view",
            "type": "function"
        },
        {
            "inputs": [],
            "name": "target",
            "outputs": [
                {
                    "internalType": "contract ERC4626",
                    "name": "",
                    "type": "address"
                }
            ],
            "stateMutability": "view",
            "type": "function"
        },
        {
            "inputs": [],
            "name": "targetLtv",
            "outputs": [
                {
                    "internalType": "uint64",
                    "name": "",
                    "type": "uint64"
                }
            ],
            "stateMutability": "view",
            "type": "function"
        },
        {
            "inputs": [],
            "name": "totalAssets",
            "outputs": [
                {
                    "internalType": "uint256",
                    "name": "",
                    "type": "uint256"
                }
            ],
            "stateMutability": "view",
            "type": "function"
        },
        {
            "inputs": [],
            "name": "totalSupply",
            "outputs": [
                {
                    "internalType": "uint256",
                    "name": "",
                    "type": "uint256"
                }
            ],
            "stateMutability": "view",
            "type": "function"
        },
        {
            "inputs": [],
            "name": "totalTargetBalance",
            "outputs": [
                {
                    "internalType": "uint256",
                    "name": "",
                    "type": "uint256"
                }
            ],
            "stateMutability": "view",
            "type": "function"
        },
        {
            "inputs": [
                {
                    "internalType": "address",
                    "name": "to",
                    "type": "address"
                },
                {
                    "internalType": "uint256",
                    "name": "amount",
                    "type": "uint256"
                }
            ],
            "name": "transfer",
            "outputs": [
                {
                    "internalType": "bool",
                    "name": "",
                    "type": "bool"
                }
            ],
            "stateMutability": "nonpayable",
            "type": "function"
        },
        {
            "inputs": [
                {
                    "internalType": "address",
                    "name": "from",
                    "type": "address"
                },
                {
                    "internalType": "address",
                    "name": "to",
                    "type": "address"
                },
                {
                    "internalType": "uint256",
                    "name": "amount",
                    "type": "uint256"
                }
            ],
            "name": "transferFrom",
            "outputs": [
                {
                    "internalType": "bool",
                    "name": "",
                    "type": "bool"
                }
            ],
            "stateMutability": "nonpayable",
            "type": "function"
        },
        {
            "inputs": [],
            "name": "upperBoundLtv",
            "outputs": [
                {
                    "internalType": "uint64",
                    "name": "",
                    "type": "uint64"
                }
            ],
            "stateMutability": "view",
            "type": "function"
        },
        {
            "inputs": [
                {
                    "internalType": "uint256",
                    "name": "assets",
                    "type": "uint256"
                },
                {
                    "internalType": "address",
                    "name": "receiver",
                    "type": "address"
                },
                {
                    "internalType": "address",
                    "name": "owner",
                    "type": "address"
                }
            ],
            "name": "withdraw",
            "outputs": [
                {
                    "internalType": "uint256",
                    "name": "shares",
                    "type": "uint256"
                }
            ],
            "stateMutability": "nonpayable",
            "type": "function"
        }
    ],
    "bytecode": "6101806040523480156200001257600080fd5b506040516200424f3803806200424f8339810160408190526200003591620004a0565b601180546001600160a01b0319166001600160a01b038d1617905589516001600160401b038316908c908c908c9062000076906001906020850190620002f8565b5080516200008c906002906020840190620002f8565b505050506001600160801b03166080526001600160401b0384811690861611620000eb5760405162461bcd60e51b8152600401620000e29060208082526004908201526310a62a2b60e11b604082015260600190565b60405180910390fd5b6000846001600160401b0316116200012f5760405162461bcd60e51b8152600401620000e29060208082526004908201526310a62a2b60e11b604082015260600190565b846001600160401b0316836001600160401b0316116200017b5760405162461bcd60e51b8152600401620000e29060208082526004908201526310a62a2b60e11b604082015260600190565b620f4240836001600160401b031610620001c15760405162461bcd60e51b8152600401620000e29060208082526004908201526310a62a2b60e11b604082015260600190565b6000826001600160401b031611620002115760405162461bcd60e51b8152602060048201526012602482015271085c9958985b185b98d9525b9d195c9d985b60721b6044820152606401620000e2565b6000816001600160401b031611620002605760405162461bcd60e51b8152602060048201526011602482015270085c9958d95b9d195c9a5b99d4dc195959607a1b6044820152606401620000e2565b620f4240816001600160401b031610620002b15760405162461bcd60e51b8152602060048201526011602482015270085c9958d95b9d195c9a5b99d4dc195959607a1b6044820152606401620000e2565b6001600160a01b0397881661012052958716610140525092909416610160526001600160401b0390811660c05292831660e0528216610100521660a05250620005f8915050565b8280546200030690620005bc565b90600052602060002090601f0160209004810192826200032a576000855562000375565b82601f106200034557805160ff191683800117855562000375565b8280016001018555821562000375579182015b828111156200037557825182559160200191906001019062000358565b506200038392915062000387565b5090565b5b8082111562000383576000815560010162000388565b80516001600160a01b0381168114620003b657600080fd5b919050565b634e487b7160e01b600052604160045260246000fd5b600082601f830112620003e357600080fd5b81516001600160401b0380821115620004005762000400620003bb565b604051601f8301601f19908116603f011681019082821181831017156200042b576200042b620003bb565b816040528381526020925086838588010111156200044857600080fd5b600091505b838210156200046c57858201830151818301840152908201906200044d565b838211156200047e5760008385830101525b9695505050505050565b80516001600160401b0381168114620003b657600080fd5b60008060008060008060008060008060006101608c8e031215620004c357600080fd5b620004ce8c6200039e565b60208d0151909b506001600160401b03811115620004eb57600080fd5b620004f98e828f01620003d1565b60408e0151909b5090506001600160401b038111156200051857600080fd5b620005268e828f01620003d1565b9950506200053760608d016200039e565b97506200054760808d016200039e565b96506200055760a08d016200039e565b95506200056760c08d0162000488565b94506200057760e08d0162000488565b9350620005886101008d0162000488565b9250620005996101208d0162000488565b9150620005aa6101408d0162000488565b90509295989b509295989b9093969950565b600181811c90821680620005d157607f821691505b602082108103620005f257634e487b7160e01b600052602260045260246000fd5b50919050565b60805160a05160c05160e05161010051610120516101405161016051613b26620007296000396000818161065a01526126d001526000818161078a015281816111b60152818161124701528181611d7f01528181611f360152818161205c01526120fc01526000818161071101528181610b9201528181610ed5015281816113a50152818161149f0152818161164a0152818161186201528181611c3e01528181612190015281816121c901528181612536015281816127aa01528181612a3b015261302d0152600081816106a901528181610d4801528181611eb2015261265c0152600081816104b001528181610d0e015261262e0152600081816108d301526125d80152600081816105ae015261250a01526000818161046801528181610cc70152610da50152613b266000f3fe608060405234801561001057600080fd5b50600436106103d05760003560e01c80638da5cb5b116101ff578063c45a01551161011a578063e30c3978116100ad578063f00e6a2a1161007c578063f00e6a2a14610908578063f4afdebd14610919578063f8c8765e14610921578063f8d898981461093457600080fd5b8063e30c3978146108b3578063ebbc4965146108c6578063ec921dc1146108ce578063ef8b30f7146108f557600080fd5b8063d4b83992116100e9578063d4b8399214610839578063d505accf1461084c578063d905777e1461085f578063dd62ed3e1461088857600080fd5b8063c45a015514610800578063c63d75b614610570578063c6e6f59214610813578063ce96cb771461082657600080fd5b8063afa293d411610192578063b460af9411610161578063b460af94146107bf578063ba087652146107d2578063bdde8a48146107e5578063bf9ce952146107ed57600080fd5b8063afa293d41461076c578063b01db0781461077d578063b334ed8614610785578063b3d7f6b9146107ac57600080fd5b8063a59a9973116101ce578063a59a99731461070c578063a8c62e7614610733578063a9059cbb14610746578063adbd0f8f1461075957600080fd5b80638da5cb5b146106cb57806394bf804d146106de57806395d89b41146106f1578063a0c1f15e146106f957600080fd5b80633d18b912116102ef5780636e553f65116102825780637dc0d1d0116102515780637dc0d1d0146106555780637ecebe001461067c5780637f240fbf1461069c5780638469415f146106a457600080fd5b80636e553f651461060757806370a082311461061a578063776d1a011461063a5780637d7c2a1c1461064d57600080fd5b806350297d8c116102be57806350297d8c146105a95780635c222bad146105d05780635c60da1b146105e157806367e828bf146105f457600080fd5b80633d18b91214610568578063402d267d146105705780634ba20050146105855780634cdad5061461059657600080fd5b8063203222aa11610367578063313ce56711610336578063313ce5671461050e5780633644e5151461052d57806338d52e0f146105355780633a7942461461056057600080fd5b8063203222aa146104ab57806321342b38146104eb57806323b872dd146104f35780632bf8eb1d1461050657600080fd5b80630a28a477116103a35780630a28a4771461043b57806313af40351461044e57806316d1d9161461046357806318160ddd146104a257600080fd5b806301e1d114146103d557806306fdde03146103f057806307a2d13a14610405578063095ea7b314610418575b600080fd5b6103dd610947565b6040519081526020015b60405180910390f35b6103f86109b9565b6040516103e791906132b2565b6103dd6104133660046132e5565b610a47565b61042b610426366004613316565b610a74565b60405190151581526020016103e7565b6103dd6104493660046132e5565b610ae0565b61046161045c366004613342565b610b00565b005b61048a7f000000000000000000000000000000000000000000000000000000000000000081565b6040516001600160801b0390911681526020016103e7565b6103dd60045481565b6104d27f000000000000000000000000000000000000000000000000000000000000000081565b60405167ffffffffffffffff90911681526020016103e7565b6103dd610b6e565b61042b61050136600461335f565b610c22565b6103dd610c2f565b60035461051b9060ff1681565b60405160ff90911681526020016103e7565b6103dd610c9d565b600a54610548906001600160a01b031681565b6040516001600160a01b0390911681526020016103e7565b61042b610cb7565b6103dd610d88565b6103dd61057e366004613342565b5060001990565b600b546001600160a01b0316610548565b6103dd6105a43660046132e5565b610dec565b6104d27f000000000000000000000000000000000000000000000000000000000000000081565b600a546001600160a01b0316610548565b601054610548906001600160a01b031681565b600c54610548906001600160a01b031681565b6103dd6106153660046133b4565b610dfd565b6103dd610628366004613342565b60056020526000908152604090205481565b610461610648366004613342565b610fa0565b6104616110c0565b6105487f000000000000000000000000000000000000000000000000000000000000000081565b6103dd61068a366004613342565b60096020526000908152604090205481565b6103dd61118f565b6104d27f000000000000000000000000000000000000000000000000000000000000000081565b601154610548906001600160a01b031681565b6103dd6106ec3660046133b4565b611306565b6103f8611464565b601454610548906001600160a01b031681565b6105487f000000000000000000000000000000000000000000000000000000000000000081565b600e54610548906001600160a01b031681565b61042b610754366004613316565b611471565b60135461048a906001600160801b031681565b600c546001600160a01b0316610548565b6103dd61147d565b6105487f000000000000000000000000000000000000000000000000000000000000000081565b6103dd6107ba3660046132e5565b611516565b6103dd6107cd3660046133e4565b611535565b6103dd6107e03660046133e4565b61170f565b6103dd61191a565b600b54610548906001600160a01b031681565b600f54610548906001600160a01b031681565b6103dd6108213660046132e5565b611924565b6103dd610834366004613342565b611944565b600d54610548906001600160a01b031681565b61046161085a366004613435565b611966565b6103dd61086d366004613342565b6001600160a01b031660009081526005602052604090205490565b6103dd6108963660046134a6565b600660209081526000928352604080842090915290825290205481565b601254610548906001600160a01b031681565b610461611baa565b6104d27f000000000000000000000000000000000000000000000000000000000000000081565b6103dd6109033660046132e5565b611c11565b600d546001600160a01b0316610548565b6103dd611c1c565b61046161092f3660046134d4565b611cb5565b601554610548906001600160a01b031681565b6014546040516370a0823160e01b81523060048201526000916001600160a01b0316906370a0823190602401602060405180830381865afa158015610990573d6000803e3d6000fd5b505050506040513d601f19601f820116820180604052508101906109b49190613530565b905090565b600180546109c690613549565b80601f01602080910402602001604051908101604052809291908181526020018280546109f290613549565b8015610a3f5780601f10610a1457610100808354040283529160200191610a3f565b820191906000526020600020905b815481529060010190602001808311610a2257829003601f168201915b505050505081565b6004546000908015610a6b57610a66610a5e610947565b849083612242565b610a6d565b825b9392505050565b3360008181526006602090815260408083206001600160a01b038716808552925280832085905551919290917f8c5be1e5ebec7d5bd14f71427d1e84f3dd0314c0f7b2291e5b200ac8c7c3b92590610acf9086815260200190565b60405180910390a350600192915050565b6004546000908015610a6b57610a6681610af8610947565b859190612261565b6011546001600160a01b03163314610b4c5760405162461bcd60e51b815260206004820152600a60248201526908585d5d1bdc9a5e995960b21b60448201526064015b60405180910390fd5b601280546001600160a01b0319166001600160a01b0392909216919091179055565b604051632fe4a15f60e21b8152306004820152600090819081906001600160a01b037f0000000000000000000000000000000000000000000000000000000000000000169063bf92857c9060240160c060405180830381865afa158015610bd9573d6000803e3d6000fd5b505050506040513d601f19601f82011682018060405250810190610bfd9190613583565b5093955091935060009250610c1a9150839050620f424085612261565b949350505050565b6000610c1a84848461228f565b600d546000906001600160a01b0316610c4a576109b4610947565b600d60009054906101000a90046001600160a01b03166001600160a01b03166301e1d1146040518163ffffffff1660e01b8152600401602060405180830381865afa158015610990573d6000803e3d6000fd5b60006007544614610cb0576109b461236f565b5060085490565b6013546000906001600160801b037f0000000000000000000000000000000000000000000000000000000000000000811691610cf49116426135e3565b1115610d005750600190565b6000610d0a610b6e565b90507f000000000000000000000000000000000000000000000000000000000000000067ffffffffffffffff16811015610d4657600191505090565b7f000000000000000000000000000000000000000000000000000000000000000067ffffffffffffffff16811115610d8057600191505090565b600091505090565b60045460009066470de4df82000082610dcf826001600160801b037f0000000000000000000000000000000000000000000000000000000000000000166301e13380612242565b9050610de48382670de0b6b3a7640000612242565b935050505090565b6000610df782610a47565b92915050565b600c5460009082906001600160a01b0316338114610e2d5760405162461bcd60e51b8152600401610b43906135fa565b806001600160a01b0316826001600160a01b031614610e5e5760405162461bcd60e51b8152600401610b43906135fa565b610e6785611c11565b925082600003610ea35760405162461bcd60e51b81526020600482015260076024820152662173686172657360c81b6044820152606401610b43565b600a54610ebb906001600160a01b0316333088612409565b600a5460405163e8eda9df60e01b81526001600160a01b037f000000000000000000000000000000000000000000000000000000000000000081169263e8eda9df92610f159291909116908990309060009060040161361b565b600060405180830381600087803b158015610f2f57600080fd5b505af1158015610f43573d6000803e3d6000fd5b50505050610f51848461248c565b60408051868152602081018590526001600160a01b0386169133917fdcbc1c05240f31ff3ad067ef1ee35ce4997762752e3a095284754544f4c709d791015b60405180910390a3505092915050565b600d546001600160a01b031615610fe85760405162461bcd60e51b815260206004820152600c60248201526b085a5b9a5d1a585b1a5e995960a21b6044820152606401610b43565b600f546001600160a01b0316331461102d5760405162461bcd60e51b815260206004820152600860248201526721666163746f727960c01b6044820152606401610b43565b600d80546001600160a01b0319166001600160a01b03838116918217909255600b5460405163095ea7b360e01b8152600481019290925260001960248301529091169063095ea7b3906044016020604051808303816000875af1158015611098573d6000803e3d6000fd5b505050506040513d601f19601f820116820180604052508101906110bc919061365d565b5050565b6110c8610cb7565b61110c5760405162461bcd60e51b8152602060048201526015602482015274085c9958985b185b98d9539bdd14995c5d5a5c9959605a1b6044820152606401610b43565b6111146124e6565b601380546fffffffffffffffffffffffffffffffff1916426001600160801b0316179055611140612ab3565b337f9d87982806b4b9230ca8e2416e1584fbff27a9eebcfadf57dbb57ea87ec8ef2361116a610d88565b601354604080519283526001600160801b0390911660208301520160405180910390a2565b600a546040516335ea6a7560e01b81526001600160a01b03918216600482015260009182917f0000000000000000000000000000000000000000000000000000000000000000909116906335ea6a759060240161014060405180830381865afa158015611200573d6000803e3d6000fd5b505050506040513d601f19601f820116820180604052508101906112249190613678565b5050600b546040516335ea6a7560e01b8152959950600098506001600160a01b037f0000000000000000000000000000000000000000000000000000000000000000811698506335ea6a759750611286969116945060040192506133a0915050565b61014060405180830381865afa1580156112a4573d6000803e3d6000fd5b505050506040513d601f19601f820116820180604052508101906112c89190613678565b50929850600097506112e19650610b6e95505050505050565b905060006112f38383620f4240612261565b6112fd9085613701565b95945050505050565b600c5460009082906001600160a01b03163381146113365760405162461bcd60e51b8152600401610b43906135fa565b806001600160a01b0316826001600160a01b0316146113675760405162461bcd60e51b8152600401610b43906135fa565b61137085611516565b600a5490935061138b906001600160a01b0316333086612409565b600a5460405163e8eda9df60e01b81526001600160a01b037f000000000000000000000000000000000000000000000000000000000000000081169263e8eda9df926113e59291909116908790309060009060040161361b565b600060405180830381600087803b1580156113ff57600080fd5b505af1158015611413573d6000803e3d6000fd5b50505050611421848661248c565b60408051848152602081018790526001600160a01b0386169133917fdcbc1c05240f31ff3ad067ef1ee35ce4997762752e3a095284754544f4c709d79101610f90565b600280546109c690613549565b6000610a6d8383612ac6565b604051632fe4a15f60e21b815230600482015260009081906001600160a01b037f0000000000000000000000000000000000000000000000000000000000000000169063bf92857c9060240160c060405180830381865afa1580156114e6573d6000803e3d6000fd5b505050506040513d601f19601f8201168201806040525081019061150a9190613583565b50939695505050505050565b6004546000908015610a6b57610a6661152d610947565b849083612261565b600c5460009083906001600160a01b03163381146115655760405162461bcd60e51b8152600401610b43906135fa565b806001600160a01b0316826001600160a01b0316146115965760405162461bcd60e51b8152600401610b43906135fa565b61159f86610ae0565b9250336001600160a01b0385161461160f576001600160a01b0384166000908152600660209081526040808320338452909152902054600019811461160d576115e884826135e3565b6001600160a01b03861660009081526006602090815260408083203384529091529020555b505b6116198484612b2c565b600a54604051631a4ca37b60e21b81526001600160a01b0391821660048201526024810188905286821660448201527f0000000000000000000000000000000000000000000000000000000000000000909116906369328dec906064016020604051808303816000875af1158015611695573d6000803e3d6000fd5b505050506040513d601f19601f820116820180604052508101906116b99190613530565b5060408051878152602081018590526001600160a01b03808716929088169133917ffbde797d201c681b91056529119e0b02407c7bb96a4a2c75c01fc9667232c8db91015b60405180910390a450509392505050565b600c5460009083906001600160a01b031633811461173f5760405162461bcd60e51b8152600401610b43906135fa565b806001600160a01b0316826001600160a01b0316146117705760405162461bcd60e51b8152600401610b43906135fa565b336001600160a01b038516146117de576001600160a01b038416600090815260066020908152604080832033845290915290205460001981146117dc576117b787826135e3565b6001600160a01b03861660009081526006602090815260408083203384529091529020555b505b6117e786610dec565b9250826000036118275760405162461bcd60e51b815260206004820152600b60248201526a5a45524f5f41535345545360a81b6044820152606401610b43565b6118318487612b2c565b600a54604051631a4ca37b60e21b81526001600160a01b0391821660048201526024810185905286821660448201527f0000000000000000000000000000000000000000000000000000000000000000909116906369328dec906064016020604051808303816000875af11580156118ad573d6000803e3d6000fd5b505050506040513d601f19601f820116820180604052508101906118d19190613530565b5060408051848152602081018890526001600160a01b03808716929088169133917ffbde797d201c681b91056529119e0b02407c7bb96a4a2c75c01fc9667232c8db91016116fe565b60006109b4610b6e565b6004546000908015610a6b57610a668161193c610947565b859190612242565b6001600160a01b038116600090815260056020526040812054610df790610a47565b428410156119b65760405162461bcd60e51b815260206004820152601760248201527f5045524d49545f444541444c494e455f455850495245440000000000000000006044820152606401610b43565b600060016119c2610c9d565b6001600160a01b038a811660008181526009602090815260409182902080546001810190915582517f6e71edae12b1b97f4d1f60370fef10105fa2faae0126114a169c64845d6126c98184015280840194909452938d166060840152608083018c905260a083019390935260c08083018b90528151808403909101815260e08301909152805192019190912061190160f01b6101008301526101028201929092526101228101919091526101420160408051601f198184030181528282528051602091820120600084529083018083525260ff871690820152606081018590526080810184905260a0016020604051602081039080840390855afa158015611ace573d6000803e3d6000fd5b5050604051601f1901519150506001600160a01b03811615801590611b045750876001600160a01b0316816001600160a01b0316145b611b415760405162461bcd60e51b815260206004820152600e60248201526d24a72b20a624a22fa9a4a3a722a960911b6044820152606401610b43565b6001600160a01b0390811660009081526006602090815260408083208a8516808552908352928190208990555188815291928a16917f8c5be1e5ebec7d5bd14f71427d1e84f3dd0314c0f7b2291e5b200ac8c7c3b925910160405180910390a350505050505050565b6012546001600160a01b03163314611bf15760405162461bcd60e51b815260206004820152600a60248201526908585d5d1bdc9a5e995960b21b6044820152606401610b43565b601180546001600160a01b03199081163317909155601280549091169055565b6000610df782611924565b604051632fe4a15f60e21b815230600482015260009081906001600160a01b037f0000000000000000000000000000000000000000000000000000000000000000169063bf92857c9060240160c060405180830381865afa158015611c85573d6000803e3d6000fd5b505050506040513d601f19601f82011682018060405250810190611ca99190613583565b50929695505050505050565b600054610100900460ff1615808015611cd55750600054600160ff909116105b80611cef5750303b158015611cef575060005460ff166001145b611d525760405162461bcd60e51b815260206004820152602e60248201527f496e697469616c697a61626c653a20636f6e747261637420697320616c72656160448201526d191e481a5b9a5d1a585b1a5e995960921b6064820152608401610b43565b6000805460ff191660011790558015611d75576000805461ff0019166101001790555b60008060008060007f00000000000000000000000000000000000000000000000000000000000000006001600160a01b0316633e1501418b6040518263ffffffff1660e01b8152600401611dd891906001600160a01b0391909116815260200190565b61014060405180830381865afa158015611df6573d6000803e3d6000fd5b505050506040513d601f19601f82011682018060405250810190611e1a9190613740565b509c50919a509496508a9550611e679450505050505760405162461bcd60e51b815260206004820152600c60248201526b21617373657441637469766560a01b6044820152606401610b43565b83611ea75760405162461bcd60e51b815260206004820152601060248201526f08585cdcd95d10dbdb1b185d195c985b60821b6044820152606401610b43565b67ffffffffffffffff7f000000000000000000000000000000000000000000000000000000000000000016611edd8260646137d7565b1015611f175760405162461bcd60e51b815260206004820152600960248201526810b0b9b9b2ba262a2b60b91b6044820152606401610b43565b604051633e15014160e01b81526001600160a01b038a811660048301527f00000000000000000000000000000000000000000000000000000000000000001690633e1501419060240161014060405180830381865afa158015611f7e573d6000803e3d6000fd5b505050506040513d601f19601f82011682018060405250810190611fa29190613740565b509a50909850899650611fef955050505050505760405162461bcd60e51b815260206004820152600e60248201526d2170726f6475637441637469766560901b6044820152606401610b43565b816120315760405162461bcd60e51b81526020600482015260126024820152712170726f64756374426f72726f7761626c6560701b6044820152606401610b43565b61203d8a8a8a8a612b8e565b6040516334924edb60e21b81526001600160a01b038b811660048301527f0000000000000000000000000000000000000000000000000000000000000000169063d2493b6c90602401606060405180830381865afa1580156120a3573d6000803e3d6000fd5b505050506040513d601f19601f820116820180604052508101906120c791906137f6565b5050601480546001600160a01b0319166001600160a01b039283161790556040516334924edb60e21b81528a821660048201527f00000000000000000000000000000000000000000000000000000000000000009091169063d2493b6c90602401606060405180830381865afa158015612145573d6000803e3d6000fd5b505050506040513d601f19601f8201168201806040525081019061216991906137f6565b601580546001600160a01b0319166001600160a01b039283161790556121b792508c1690507f0000000000000000000000000000000000000000000000000000000000000000600019612e0f565b6014546121f0906001600160a01b03167f0000000000000000000000000000000000000000000000000000000000000000600019612e0f565b5050505050801561223b576000805461ff0019169055604051600181527f7f26b83ff96e1f2b6a682f133852f6798a09c465da95921460cefb38474024989060200160405180910390a15b5050505050565b82820281151584158583048514171661225a57600080fd5b0492915050565b82820281151584158583048514171661227957600080fd5b6001826001830304018115150290509392505050565b6001600160a01b038316600090815260066020908152604080832033845290915281205460001981146122eb576122c683826135e3565b6001600160a01b03861660009081526006602090815260408083203384529091529020555b6001600160a01b038516600090815260056020526040812080548592906123139084906135e3565b90915550506001600160a01b0380851660008181526005602052604090819020805487019055519091871690600080516020613ad18339815191529061235c9087815260200190565b60405180910390a3506001949350505050565b60007f8b73c3c69bb8fe3d512ecc4cf759cc79239f7b179b0ffacaa9a75d522b39400f60016040516123a19190613838565b6040805191829003822060208301939093528101919091527fc89efdaa54c0f20c7adf612882df0950f5a951637e0307cdcb4c672f298b8bc660608201524660808201523060a082015260c00160405160208183030381529060405280519060200120905090565b60006040516323b872dd60e01b81528460048201528360248201528260448201526020600060648360008a5af13d15601f3d116001600051141617169150508061223b5760405162461bcd60e51b81526020600482015260146024820152731514905394d1915497d19493d357d1905253115160621b6044820152606401610b43565b806004600082825461249e91906138d3565b90915550506001600160a01b038216600081815260056020908152604080832080548601905551848152600080516020613ad183398151915291015b60405180910390a35050565b6124ee612e8c565b604051632fe4a15f60e21b8152306004820152600090819081907f000000000000000000000000000000000000000000000000000000000000000067ffffffffffffffff16907f00000000000000000000000000000000000000000000000000000000000000006001600160a01b03169063bf92857c9060240160c060405180830381865afa158015612585573d6000803e3d6000fd5b505050506040513d601f19601f820116820180604052508101906125a99190613583565b50939750919550600092506125c69150859050620f424087612261565b9050600061260267ffffffffffffffff7f00000000000000000000000000000000000000000000000000000000000000001684620f4240612242565b61261d61261285620f42406135e3565b8490620f4240612242565b61262791906138d3565b90506126907f000000000000000000000000000000000000000000000000000000000000000067ffffffffffffffff1661268b7f000000000000000000000000000000000000000000000000000000000000000067ffffffffffffffff1684613097565b6130ad565b9350600092506126a8915085905083620f4240612242565b600b5460405163b3596f0760e01b81526001600160a01b0391821660048201529192506000917f00000000000000000000000000000000000000000000000000000000000000009091169063b3596f0790602401602060405180830381865afa158015612719573d6000803e3d6000fd5b505050506040513d601f19601f8201168201806040525081019061273d9190613530565b9050838211156128f457600061275385846135e3565b9050600061276a82670de0b6b3a764000085612242565b600b5460405163a415bcad60e01b81526001600160a01b0391821660048201526024810183905260026044820152600060648201523060848201529192507f0000000000000000000000000000000000000000000000000000000000000000169063a415bcad9060a401600060405180830381600087803b1580156127ee57600080fd5b505af1158015612802573d6000803e3d6000fd5b5050600b546040516370a0823160e01b8152306004820152600093506001600160a01b0390911691506370a0823190602401602060405180830381865afa158015612851573d6000803e3d6000fd5b505050506040513d601f19601f820116820180604052508101906128759190613530565b600d54604051636e553f6560e01b8152600481018390523060248201529192506001600160a01b031690636e553f65906044016020604051808303816000875af11580156128c7573d6000803e3d6000fd5b505050506040513d601f19601f820116820180604052508101906128eb9190613530565b5050505061223b565b600061290083866135e3565b9050600061291782670de0b6b3a764000085612242565b600d54604051635d043b2960e11b815260048101839052306024820181905260448201529192506001600160a01b03169063ba087652906064016020604051808303816000875af1158015612970573d6000803e3d6000fd5b505050506040513d601f19601f820116820180604052508101906129949190613530565b50600b546040516370a0823160e01b81523060048201526000916001600160a01b0316906370a0823190602401602060405180830381865afa1580156129de573d6000803e3d6000fd5b505050506040513d601f19601f82011682018060405250810190612a029190613530565b600b5460405163573ade8160e01b81526001600160a01b03918216600482015260248101839052600260448201523060648201529192507f0000000000000000000000000000000000000000000000000000000000000000169063573ade81906084016020604051808303816000875af1158015612a84573d6000803e3d6000fd5b505050506040513d601f19601f82011682018060405250810190612aa89190613530565b505050505050505050565b612ac433612abf610d88565b61248c565b565b33600090815260056020526040812080548391908390612ae79084906135e3565b90915550506001600160a01b03831660008181526005602052604090819020805485019055513390600080516020613ad183398151915290610acf9086815260200190565b6001600160a01b03821660009081526005602052604081208054839290612b549084906135e3565b90915550506004805482900390556040518181526000906001600160a01b03841690600080516020613ad1833981519152906020016124da565b600054610100900460ff16612bb55760405162461bcd60e51b8152600401610b43906138eb565b6000846001600160a01b03166395d89b416040518163ffffffff1660e01b8152600401600060405180830381865afa158015612bf5573d6000803e3d6000fd5b505050506040513d6000823e601f3d908101601f19168201604052612c1d919081019061394c565b90506000846001600160a01b03166395d89b416040518163ffffffff1660e01b8152600401600060405180830381865afa158015612c5f573d6000803e3d6000fd5b505050506040513d6000823e601f3d908101601f19168201604052612c87919081019061394c565b90506000836001600160a01b03166306fdde036040518163ffffffff1660e01b8152600401600060405180830381865afa158015612cc9573d6000803e3d6000fd5b505050506040513d6000823e601f3d908101601f19168201604052612cf1919081019061394c565b8383604051602001612d05939291906139f9565b60405160208183030381529060405290506000846001600160a01b03166395d89b416040518163ffffffff1660e01b8152600401600060405180830381865afa158015612d56573d6000803e3d6000fd5b505050506040513d6000823e601f3d908101601f19168201604052612d7e919081019061394c565b8484604051602001612d9293929190613a59565b6040516020818303038152906040529050612dae8883836130bd565b600b80546001600160a01b03808a166001600160a01b031992831617909255600c80548984169083168117909155600f805483163317905560108054898516931692909217909155612e05918a1690600019612e0f565b5050505050505050565b600060405163095ea7b360e01b8152836004820152826024820152602060006044836000895af13d15601f3d1160016000511416171691505080612e865760405162461bcd60e51b815260206004820152600e60248201526d1054141493d59157d1905253115160921b6044820152606401610b43565b50505050565b6000612e96610c2f565b6015546040516370a0823160e01b81523060048201529192506000916001600160a01b03909116906370a0823190602401602060405180830381865afa158015612ee4573d6000803e3d6000fd5b505050506040513d601f19601f82011682018060405250810190612f089190613530565b9050808211156110bc57600a546001600160a01b03166000612f2a83856135e3565b600d54604051632d182be560e21b815260048101839052306024820181905260448201529192506001600160a01b03169063b460af94906064016020604051808303816000875af1158015612f83573d6000803e3d6000fd5b505050506040513d601f19601f82011682018060405250810190612fa79190613530565b506040516370a0823160e01b81523060048201526000906001600160a01b038416906370a0823190602401602060405180830381865afa158015612fef573d6000803e3d6000fd5b505050506040513d601f19601f820116820180604052508101906130139190613530565b60405163e8eda9df60e01b81529091506001600160a01b037f0000000000000000000000000000000000000000000000000000000000000000169063e8eda9df906130699086908590309060009060040161361b565b600060405180830381600087803b15801561308357600080fd5b505af1158015612aa8573d6000803e3d6000fd5b60008183106130a65781610a6d565b5090919050565b6000818310156130a65781610a6d565b600054610100900460ff166130e45760405162461bcd60e51b8152600401610b43906138eb565b6000836001600160a01b031663313ce5676040518163ffffffff1660e01b8152600401602060405180830381865afa158015613124573d6000803e3d6000fd5b505050506040513d601f19601f820116820180604052508101906131489190613ab3565b905061315583838361317b565b5050600a80546001600160a01b0319166001600160a01b03939093169290921790915550565b600054610100900460ff166131a25760405162461bcd60e51b8152600401610b43906138eb565b82516131b59060019060208601906131ed565b5081516131c99060029060208501906131ed565b506003805460ff191660ff8316179055466007556131e561236f565b600855505050565b8280546131f990613549565b90600052602060002090601f01602090048101928261321b5760008555613261565b82601f1061323457805160ff1916838001178555613261565b82800160010185558215613261579182015b82811115613261578251825591602001919060010190613246565b5061326d929150613271565b5090565b5b8082111561326d5760008155600101613272565b60005b838110156132a1578181015183820152602001613289565b83811115612e865750506000910152565b60208152600082518060208401526132d1816040850160208701613286565b601f01601f19169190910160400192915050565b6000602082840312156132f757600080fd5b5035919050565b6001600160a01b038116811461331357600080fd5b50565b6000806040838503121561332957600080fd5b8235613334816132fe565b946020939093013593505050565b60006020828403121561335457600080fd5b8135610a6d816132fe565b60008060006060848603121561337457600080fd5b833561337f816132fe565b9250602084013561338f816132fe565b929592945050506040919091013590565b6001600160a01b0391909116815260200190565b600080604083850312156133c757600080fd5b8235915060208301356133d9816132fe565b809150509250929050565b6000806000606084860312156133f957600080fd5b83359250602084013561340b816132fe565b9150604084013561341b816132fe565b809150509250925092565b60ff8116811461331357600080fd5b600080600080600080600060e0888a03121561345057600080fd5b873561345b816132fe565b9650602088013561346b816132fe565b95506040880135945060608801359350608088013561348981613426565b9699959850939692959460a0840135945060c09093013592915050565b600080604083850312156134b957600080fd5b82356134c4816132fe565b915060208301356133d9816132fe565b600080600080608085870312156134ea57600080fd5b84356134f5816132fe565b93506020850135613505816132fe565b92506040850135613515816132fe565b91506060850135613525816132fe565b939692955090935050565b60006020828403121561354257600080fd5b5051919050565b600181811c9082168061355d57607f821691505b60208210810361357d57634e487b7160e01b600052602260045260246000fd5b50919050565b60008060008060008060c0878903121561359c57600080fd5b865195506020870151945060408701519350606087015192506080870151915060a087015190509295509295509295565b634e487b7160e01b600052601160045260246000fd5b6000828210156135f5576135f56135cd565b500390565b60208082526007908201526621736f7572636560c81b604082015260600190565b6001600160a01b03948516815260208101939093529216604082015261ffff909116606082015260800190565b8051801515811461365857600080fd5b919050565b60006020828403121561366f57600080fd5b610a6d82613648565b6000806000806000806000806000806101408b8d03121561369857600080fd5b8a51995060208b0151985060408b0151975060608b0151965060808b0151955060a08b0151945060c08b0151935060e08b015192506101008b015191506101208b015164ffffffffff811681146136ee57600080fd5b809150509295989b9194979a5092959850565b60008083128015600160ff1b85018412161561371f5761371f6135cd565b6001600160ff1b038401831381161561373a5761373a6135cd565b50500390565b6000806000806000806000806000806101408b8d03121561376057600080fd5b8a51995060208b0151985060408b0151975060608b0151965060808b0151955061378c60a08c01613648565b945061379a60c08c01613648565b93506137a860e08c01613648565b92506137b76101008c01613648565b91506137c66101208c01613648565b90509295989b9194979a5092959850565b60008160001904831182151516156137f1576137f16135cd565b500290565b60008060006060848603121561380b57600080fd5b8351613816816132fe565b6020850151909350613827816132fe565b604085015190925061341b816132fe565b600080835481600182811c91508083168061385457607f831692505b6020808410820361387357634e487b7160e01b86526022600452602486fd5b8180156138875760018114613898576138c5565b60ff198616895284890196506138c5565b60008a81526020902060005b868110156138bd5781548b8201529085019083016138a4565b505084890196505b509498975050505050505050565b600082198211156138e6576138e66135cd565b500190565b6020808252602b908201527f496e697469616c697a61626c653a20636f6e7472616374206973206e6f74206960408201526a6e697469616c697a696e6760a81b606082015260800190565b634e487b7160e01b600052604160045260246000fd5b60006020828403121561395e57600080fd5b815167ffffffffffffffff8082111561397657600080fd5b818401915084601f83011261398a57600080fd5b81518181111561399c5761399c613936565b604051601f8201601f19908116603f011681019083821181831017156139c4576139c4613936565b816040528281528760208487010111156139dd57600080fd5b6139ee836020830160208801613286565b979650505050505050565b60008451613a0b818460208901613286565b6101d160f51b9083019081528451613a2a816002840160208901613286565b602d60f81b600292909101918201528351613a4c816003840160208801613286565b0160030195945050505050565b60008451613a6b818460208901613286565b8083019050602d60f81b8082528551613a8b816001850160208a01613286565b60019201918201528351613aa6816002840160208801613286565b0160020195945050505050565b600060208284031215613ac557600080fd5b8151610a6d8161342656feddf252ad1be2c89b69c2b068fc378daa952ba7f163c4a11628f55a4df523b3efa26469706673582212200b80775d88b05246d2587f3f30ec66b2762be47b6c04e0b4d4dead78e7596dba64736f6c634300080d0033",
    "sourcePath": "/Users/misha/Library/Mobile Documents/com~apple~CloudDocs/Dev/construct-finance/construct_V0/src/modules/AaveBiassetModule.sol",
    "compiler": {
        "name": "solc",
        "version": "0.8.13+commit.abaa5c0e"
    },
    "functionHashes": {
        "DOMAIN_SEPARATOR()": "3644e515",
        "aToken()": "a0c1f15e",
        "acceptOwner()": "ebbc4965",
        "allowance(address,address)": "dd62ed3e",
        "approve(address,uint256)": "095ea7b3",
        "asset()": "38d52e0f",
        "balanceOf(address)": "70a08231",
        "convertToAssets(uint256)": "07a2d13a",
        "convertToShares(uint256)": "c6e6f592",
        "dataProvider()": "b334ed86",
        "debtToken()": "f8d89898",
        "decimals()": "313ce567",
        "deposit(uint256,address)": "6e553f65",
        "factory()": "c45a0155",
        "getAsset()": "5c222bad",
        "getCapitalUtilization()": "bdde8a48",
        "getCollateralETH()": "b01db078",
        "getCurrentLtv()": "21342b38",
        "getDebtETH()": "f4afdebd",
        "getModuleApr()": "7f240fbf",
        "getProduct()": "4ba20050",
        "getReward()": "3d18b912",
        "getSource()": "afa293d4",
        "getTarget()": "f00e6a2a",
        "implementation()": "5c60da1b",
        "initialize(address,address,address,address)": "f8c8765e",
        "lendingPool()": "a59a9973",
        "lowerBoundLtv()": "203222aa",
        "maxDeposit(address)": "402d267d",
        "maxMint(address)": "c63d75b6",
        "maxRedeem(address)": "d905777e",
        "maxWithdraw(address)": "ce96cb77",
        "mint(uint256,address)": "94bf804d",
        "name()": "06fdde03",
        "nonces(address)": "7ecebe00",
        "oracle()": "7dc0d1d0",
        "owner()": "8da5cb5b",
        "pendingOwner()": "e30c3978",
        "permit(address,address,uint256,uint256,uint8,bytes32,bytes32)": "d505accf",
        "previewDeposit(uint256)": "ef8b30f7",
        "previewMint(uint256)": "b3d7f6b9",
        "previewRedeem(uint256)": "4cdad506",
        "previewWithdraw(uint256)": "0a28a477",
        "product()": "bf9ce952",
        "rebalance()": "7d7c2a1c",
        "rebalanceInterval()": "16d1d916",
        "rebalanceRequired()": "3a794246",
        "rebalanceTimestamp()": "adbd0f8f",
        "recenteringSpeed()": "50297d8c",
        "redeem(uint256,address,address)": "ba087652",
        "setOwner(address)": "13af4035",
        "setTarget(address)": "776d1a01",
        "source()": "67e828bf",
        "strategy()": "a8c62e76",
        "symbol()": "95d89b41",
        "target()": "d4b83992",
        "targetLtv()": "ec921dc1",
        "totalAssets()": "01e1d114",
        "totalSupply()": "18160ddd",
        "totalTargetBalance()": "2bf8eb1d",
        "transfer(address,uint256)": "a9059cbb",
        "transferFrom(address,address,uint256)": "23b872dd",
        "upperBoundLtv()": "8469415f",
        "withdraw(uint256,address,address)": "b460af94"
    },
    "gasEstimates": {
        "creation": {
            "codeDepositCost": "3028400",
            "executionCost": "infinite",
            "totalCost": "infinite"
        },
        "external": {
            "DOMAIN_SEPARATOR()": "infinite",
            "aToken()": "2472",
            "acceptOwner()": "50835",
            "allowance(address,address)": "infinite",
            "approve(address,uint256)": "24629",
            "asset()": "2449",
            "balanceOf(address)": "2592",
            "convertToAssets(uint256)": "infinite",
            "convertToShares(uint256)": "infinite",
            "dataProvider()": "infinite",
            "debtToken()": "2469",
            "decimals()": "2381",
            "deposit(uint256,address)": "infinite",
            "factory()": "2405",
            "getAsset()": "2421",
            "getCapitalUtilization()": "infinite",
            "getCollateralETH()": "infinite",
            "getCurrentLtv()": "infinite",
            "getDebtETH()": "infinite",
            "getModuleApr()": "infinite",
            "getProduct()": "2444",
            "getReward()": "infinite",
            "getSource()": "2399",
            "getTarget()": "2397",
            "implementation()": "2449",
            "initialize(address,address,address,address)": "infinite",
            "lendingPool()": "infinite",
            "lowerBoundLtv()": "infinite",
            "maxDeposit(address)": "432",
            "maxMint(address)": "431",
            "maxRedeem(address)": "2631",
            "maxWithdraw(address)": "infinite",
            "mint(uint256,address)": "infinite",
            "name()": "infinite",
            "nonces(address)": "2591",
            "oracle()": "infinite",
            "owner()": "2406",
            "pendingOwner()": "2404",
            "permit(address,address,uint256,uint256,uint8,bytes32,bytes32)": "infinite",
            "previewDeposit(uint256)": "infinite",
            "previewMint(uint256)": "infinite",
            "previewRedeem(uint256)": "infinite",
            "previewWithdraw(uint256)": "infinite",
            "product()": "2470",
            "rebalance()": "infinite",
            "rebalanceInterval()": "infinite",
            "rebalanceRequired()": "infinite",
            "rebalanceTimestamp()": "2471",
            "recenteringSpeed()": "infinite",
            "redeem(uint256,address,address)": "infinite",
            "setOwner(address)": "26796",
            "setTarget(address)": "infinite",
            "source()": "2471",
            "strategy()": "2427",
            "symbol()": "infinite",
            "target()": "2404",
            "targetLtv()": "infinite",
            "totalAssets()": "infinite",
            "totalSupply()": "2419",
            "totalTargetBalance()": "infinite",
            "transfer(address,uint256)": "infinite",
            "transferFrom(address,address,uint256)": "infinite",
            "upperBoundLtv()": "infinite",
            "withdraw(uint256,address,address)": "infinite"
        },
        "internal": {
            "_harvest()": "infinite",
            "_rebalance()": "infinite",
            "_rewardPayout()": "infinite"
        }
    }
}