{
    "contractName": "AaveBiassetModule",
    "abi": [
        {
            "inputs": [
                {
                    "internalType": "address",
                    "name": "_owner",
                    "type": "address"
                },
                {
                    "internalType": "string",
                    "name": "_name",
                    "type": "string"
                },
                {
                    "internalType": "string",
                    "name": "_symbol",
                    "type": "string"
                },
                {
                    "internalType": "address",
                    "name": "_aaveLendingPool",
                    "type": "address"
                },
                {
                    "internalType": "address",
                    "name": "_aaveDataProvider",
                    "type": "address"
                },
                {
                    "internalType": "address",
                    "name": "_aaveOracle",
                    "type": "address"
                },
                {
                    "internalType": "uint64",
                    "name": "_targetLtv",
                    "type": "uint64"
                },
                {
                    "internalType": "uint64",
                    "name": "_lowerBoundLtv",
                    "type": "uint64"
                },
                {
                    "internalType": "uint64",
                    "name": "_upperBoundLtv",
                    "type": "uint64"
                },
                {
                    "internalType": "uint64",
                    "name": "_rebalanceInterval",
                    "type": "uint64"
                },
                {
                    "internalType": "uint64",
                    "name": "_recenteringSpeed",
                    "type": "uint64"
                }
            ],
            "stateMutability": "nonpayable",
            "type": "constructor"
        },
        {
            "anonymous": false,
            "inputs": [
                {
                    "indexed": true,
                    "internalType": "address",
                    "name": "owner",
                    "type": "address"
                },
                {
                    "indexed": true,
                    "internalType": "address",
                    "name": "spender",
                    "type": "address"
                },
                {
                    "indexed": false,
                    "internalType": "uint256",
                    "name": "amount",
                    "type": "uint256"
                }
            ],
            "name": "Approval",
            "type": "event"
        },
        {
            "anonymous": false,
            "inputs": [
                {
                    "indexed": true,
                    "internalType": "address",
                    "name": "caller",
                    "type": "address"
                },
                {
                    "indexed": true,
                    "internalType": "address",
                    "name": "owner",
                    "type": "address"
                },
                {
                    "indexed": false,
                    "internalType": "uint256",
                    "name": "assets",
                    "type": "uint256"
                },
                {
                    "indexed": false,
                    "internalType": "uint256",
                    "name": "shares",
                    "type": "uint256"
                }
            ],
            "name": "Deposit",
            "type": "event"
        },
        {
            "anonymous": false,
            "inputs": [
                {
                    "indexed": false,
                    "internalType": "uint8",
                    "name": "version",
                    "type": "uint8"
                }
            ],
            "name": "Initialized",
            "type": "event"
        },
        {
            "anonymous": false,
            "inputs": [
                {
                    "indexed": true,
                    "internalType": "address",
                    "name": "caller",
                    "type": "address"
                },
                {
                    "indexed": false,
                    "internalType": "uint256",
                    "name": "reward",
                    "type": "uint256"
                },
                {
                    "indexed": false,
                    "internalType": "uint128",
                    "name": "timestamp",
                    "type": "uint128"
                }
            ],
            "name": "Rebalance",
            "type": "event"
        },
        {
            "anonymous": false,
            "inputs": [
                {
                    "indexed": true,
                    "internalType": "address",
                    "name": "from",
                    "type": "address"
                },
                {
                    "indexed": true,
                    "internalType": "address",
                    "name": "to",
                    "type": "address"
                },
                {
                    "indexed": false,
                    "internalType": "uint256",
                    "name": "amount",
                    "type": "uint256"
                }
            ],
            "name": "Transfer",
            "type": "event"
        },
        {
            "anonymous": false,
            "inputs": [
                {
                    "indexed": true,
                    "internalType": "address",
                    "name": "caller",
                    "type": "address"
                },
                {
                    "indexed": true,
                    "internalType": "address",
                    "name": "receiver",
                    "type": "address"
                },
                {
                    "indexed": true,
                    "internalType": "address",
                    "name": "owner",
                    "type": "address"
                },
                {
                    "indexed": false,
                    "internalType": "uint256",
                    "name": "assets",
                    "type": "uint256"
                },
                {
                    "indexed": false,
                    "internalType": "uint256",
                    "name": "shares",
                    "type": "uint256"
                }
            ],
            "name": "Withdraw",
            "type": "event"
        },
        {
            "inputs": [],
            "name": "DOMAIN_SEPARATOR",
            "outputs": [
                {
                    "internalType": "bytes32",
                    "name": "",
                    "type": "bytes32"
                }
            ],
            "stateMutability": "view",
            "type": "function"
        },
        {
            "inputs": [],
            "name": "aToken",
            "outputs": [
                {
                    "internalType": "address",
                    "name": "",
                    "type": "address"
                }
            ],
            "stateMutability": "view",
            "type": "function"
        },
        {
            "inputs": [],
            "name": "acceptOwner",
            "outputs": [],
            "stateMutability": "nonpayable",
            "type": "function"
        },
        {
            "inputs": [
                {
                    "internalType": "address",
                    "name": "",
                    "type": "address"
                },
                {
                    "internalType": "address",
                    "name": "",
                    "type": "address"
                }
            ],
            "name": "allowance",
            "outputs": [
                {
                    "internalType": "uint256",
                    "name": "",
                    "type": "uint256"
                }
            ],
            "stateMutability": "view",
            "type": "function"
        },
        {
            "inputs": [
                {
                    "internalType": "address",
                    "name": "spender",
                    "type": "address"
                },
                {
                    "internalType": "uint256",
                    "name": "amount",
                    "type": "uint256"
                }
            ],
            "name": "approve",
            "outputs": [
                {
                    "internalType": "bool",
                    "name": "",
                    "type": "bool"
                }
            ],
            "stateMutability": "nonpayable",
            "type": "function"
        },
        {
            "inputs": [],
            "name": "asset",
            "outputs": [
                {
                    "internalType": "contract ERC20",
                    "name": "",
                    "type": "address"
                }
            ],
            "stateMutability": "view",
            "type": "function"
        },
        {
            "inputs": [
                {
                    "internalType": "address",
                    "name": "",
                    "type": "address"
                }
            ],
            "name": "balanceOf",
            "outputs": [
                {
                    "internalType": "uint256",
                    "name": "",
                    "type": "uint256"
                }
            ],
            "stateMutability": "view",
            "type": "function"
        },
        {
            "inputs": [
                {
                    "internalType": "uint256",
                    "name": "shares",
                    "type": "uint256"
                }
            ],
            "name": "convertToAssets",
            "outputs": [
                {
                    "internalType": "uint256",
                    "name": "",
                    "type": "uint256"
                }
            ],
            "stateMutability": "view",
            "type": "function"
        },
        {
            "inputs": [
                {
                    "internalType": "uint256",
                    "name": "assets",
                    "type": "uint256"
                }
            ],
            "name": "convertToShares",
            "outputs": [
                {
                    "internalType": "uint256",
                    "name": "",
                    "type": "uint256"
                }
            ],
            "stateMutability": "view",
            "type": "function"
        },
        {
            "inputs": [],
            "name": "dataProvider",
            "outputs": [
                {
                    "internalType": "contract IAaveProtocolDataProvider",
                    "name": "",
                    "type": "address"
                }
            ],
            "stateMutability": "view",
            "type": "function"
        },
        {
            "inputs": [],
            "name": "debtToken",
            "outputs": [
                {
                    "internalType": "address",
                    "name": "",
                    "type": "address"
                }
            ],
            "stateMutability": "view",
            "type": "function"
        },
        {
            "inputs": [],
            "name": "decimals",
            "outputs": [
                {
                    "internalType": "uint8",
                    "name": "",
                    "type": "uint8"
                }
            ],
            "stateMutability": "view",
            "type": "function"
        },
        {
            "inputs": [
                {
                    "internalType": "uint256",
                    "name": "assets",
                    "type": "uint256"
                },
                {
                    "internalType": "address",
                    "name": "receiver",
                    "type": "address"
                }
            ],
            "name": "deposit",
            "outputs": [
                {
                    "internalType": "uint256",
                    "name": "shares",
                    "type": "uint256"
                }
            ],
            "stateMutability": "nonpayable",
            "type": "function"
        },
        {
            "inputs": [],
            "name": "factory",
            "outputs": [
                {
                    "internalType": "address",
                    "name": "",
                    "type": "address"
                }
            ],
            "stateMutability": "view",
            "type": "function"
        },
        {
            "inputs": [],
            "name": "getCapitalUtilization",
            "outputs": [
                {
                    "internalType": "uint256",
                    "name": "",
                    "type": "uint256"
                }
            ],
            "stateMutability": "view",
            "type": "function"
        },
        {
            "inputs": [],
            "name": "getCollateralETH",
            "outputs": [
                {
                    "internalType": "uint256",
                    "name": "",
                    "type": "uint256"
                }
            ],
            "stateMutability": "view",
            "type": "function"
        },
        {
            "inputs": [],
            "name": "getCurrentLtv",
            "outputs": [
                {
                    "internalType": "uint256",
                    "name": "",
                    "type": "uint256"
                }
            ],
            "stateMutability": "view",
            "type": "function"
        },
        {
            "inputs": [],
            "name": "getDebtETH",
            "outputs": [
                {
                    "internalType": "uint256",
                    "name": "",
                    "type": "uint256"
                }
            ],
            "stateMutability": "view",
            "type": "function"
        },
        {
            "inputs": [],
            "name": "getModuleApr",
            "outputs": [
                {
                    "internalType": "int256",
                    "name": "",
                    "type": "int256"
                }
            ],
            "stateMutability": "view",
            "type": "function"
        },
        {
            "inputs": [],
            "name": "getProduct",
            "outputs": [
                {
                    "internalType": "address",
                    "name": "",
                    "type": "address"
                }
            ],
            "stateMutability": "view",
            "type": "function"
        },
        {
            "inputs": [],
            "name": "getReward",
            "outputs": [
                {
                    "internalType": "uint256",
                    "name": "",
                    "type": "uint256"
                }
            ],
            "stateMutability": "view",
            "type": "function"
        },
        {
            "inputs": [],
            "name": "getSource",
            "outputs": [
                {
                    "internalType": "address",
                    "name": "",
                    "type": "address"
                }
            ],
            "stateMutability": "view",
            "type": "function"
        },
        {
            "inputs": [],
            "name": "getTarget",
            "outputs": [
                {
                    "internalType": "address",
                    "name": "",
                    "type": "address"
                }
            ],
            "stateMutability": "view",
            "type": "function"
        },
        {
            "inputs": [],
            "name": "implementation",
            "outputs": [
                {
                    "internalType": "address",
                    "name": "",
                    "type": "address"
                }
            ],
            "stateMutability": "view",
            "type": "function"
        },
        {
            "inputs": [
                {
                    "internalType": "address",
                    "name": "_asset",
                    "type": "address"
                },
                {
                    "internalType": "address",
                    "name": "_product",
                    "type": "address"
                },
                {
                    "internalType": "address",
                    "name": "_source",
                    "type": "address"
                },
                {
                    "internalType": "address",
                    "name": "_implementation",
                    "type": "address"
                }
            ],
            "name": "initialize",
            "outputs": [],
            "stateMutability": "nonpayable",
            "type": "function"
        },
        {
            "inputs": [
                {
                    "internalType": "address",
                    "name": "_target",
                    "type": "address"
                }
            ],
            "name": "initializeStrategy",
            "outputs": [],
            "stateMutability": "nonpayable",
            "type": "function"
        },
        {
            "inputs": [],
            "name": "lendingPool",
            "outputs": [
                {
                    "internalType": "contract IAaveLendingPool",
                    "name": "",
                    "type": "address"
                }
            ],
            "stateMutability": "view",
            "type": "function"
        },
        {
            "inputs": [],
            "name": "lowerBoundLtv",
            "outputs": [
                {
                    "internalType": "uint64",
                    "name": "",
                    "type": "uint64"
                }
            ],
            "stateMutability": "view",
            "type": "function"
        },
        {
            "inputs": [
                {
                    "internalType": "address",
                    "name": "",
                    "type": "address"
                }
            ],
            "name": "maxDeposit",
            "outputs": [
                {
                    "internalType": "uint256",
                    "name": "",
                    "type": "uint256"
                }
            ],
            "stateMutability": "view",
            "type": "function"
        },
        {
            "inputs": [
                {
                    "internalType": "address",
                    "name": "",
                    "type": "address"
                }
            ],
            "name": "maxMint",
            "outputs": [
                {
                    "internalType": "uint256",
                    "name": "",
                    "type": "uint256"
                }
            ],
            "stateMutability": "view",
            "type": "function"
        },
        {
            "inputs": [
                {
                    "internalType": "address",
                    "name": "owner",
                    "type": "address"
                }
            ],
            "name": "maxRedeem",
            "outputs": [
                {
                    "internalType": "uint256",
                    "name": "",
                    "type": "uint256"
                }
            ],
            "stateMutability": "view",
            "type": "function"
        },
        {
            "inputs": [
                {
                    "internalType": "address",
                    "name": "owner",
                    "type": "address"
                }
            ],
            "name": "maxWithdraw",
            "outputs": [
                {
                    "internalType": "uint256",
                    "name": "",
                    "type": "uint256"
                }
            ],
            "stateMutability": "view",
            "type": "function"
        },
        {
            "inputs": [
                {
                    "internalType": "uint256",
                    "name": "shares",
                    "type": "uint256"
                },
                {
                    "internalType": "address",
                    "name": "receiver",
                    "type": "address"
                }
            ],
            "name": "mint",
            "outputs": [
                {
                    "internalType": "uint256",
                    "name": "assets",
                    "type": "uint256"
                }
            ],
            "stateMutability": "nonpayable",
            "type": "function"
        },
        {
            "inputs": [],
            "name": "name",
            "outputs": [
                {
                    "internalType": "string",
                    "name": "",
                    "type": "string"
                }
            ],
            "stateMutability": "view",
            "type": "function"
        },
        {
            "inputs": [
                {
                    "internalType": "address",
                    "name": "",
                    "type": "address"
                }
            ],
            "name": "nonces",
            "outputs": [
                {
                    "internalType": "uint256",
                    "name": "",
                    "type": "uint256"
                }
            ],
            "stateMutability": "view",
            "type": "function"
        },
        {
            "inputs": [],
            "name": "oracle",
            "outputs": [
                {
                    "internalType": "contract IPriceOracleGetter",
                    "name": "",
                    "type": "address"
                }
            ],
            "stateMutability": "view",
            "type": "function"
        },
        {
            "inputs": [],
            "name": "owner",
            "outputs": [
                {
                    "internalType": "address",
                    "name": "",
                    "type": "address"
                }
            ],
            "stateMutability": "view",
            "type": "function"
        },
        {
            "inputs": [],
            "name": "pendingOwner",
            "outputs": [
                {
                    "internalType": "address",
                    "name": "",
                    "type": "address"
                }
            ],
            "stateMutability": "view",
            "type": "function"
        },
        {
            "inputs": [
                {
                    "internalType": "address",
                    "name": "owner",
                    "type": "address"
                },
                {
                    "internalType": "address",
                    "name": "spender",
                    "type": "address"
                },
                {
                    "internalType": "uint256",
                    "name": "value",
                    "type": "uint256"
                },
                {
                    "internalType": "uint256",
                    "name": "deadline",
                    "type": "uint256"
                },
                {
                    "internalType": "uint8",
                    "name": "v",
                    "type": "uint8"
                },
                {
                    "internalType": "bytes32",
                    "name": "r",
                    "type": "bytes32"
                },
                {
                    "internalType": "bytes32",
                    "name": "s",
                    "type": "bytes32"
                }
            ],
            "name": "permit",
            "outputs": [],
            "stateMutability": "nonpayable",
            "type": "function"
        },
        {
            "inputs": [
                {
                    "internalType": "uint256",
                    "name": "assets",
                    "type": "uint256"
                }
            ],
            "name": "previewDeposit",
            "outputs": [
                {
                    "internalType": "uint256",
                    "name": "",
                    "type": "uint256"
                }
            ],
            "stateMutability": "view",
            "type": "function"
        },
        {
            "inputs": [
                {
                    "internalType": "uint256",
                    "name": "shares",
                    "type": "uint256"
                }
            ],
            "name": "previewMint",
            "outputs": [
                {
                    "internalType": "uint256",
                    "name": "",
                    "type": "uint256"
                }
            ],
            "stateMutability": "view",
            "type": "function"
        },
        {
            "inputs": [
                {
                    "internalType": "uint256",
                    "name": "shares",
                    "type": "uint256"
                }
            ],
            "name": "previewRedeem",
            "outputs": [
                {
                    "internalType": "uint256",
                    "name": "",
                    "type": "uint256"
                }
            ],
            "stateMutability": "view",
            "type": "function"
        },
        {
            "inputs": [
                {
                    "internalType": "uint256",
                    "name": "assets",
                    "type": "uint256"
                }
            ],
            "name": "previewWithdraw",
            "outputs": [
                {
                    "internalType": "uint256",
                    "name": "",
                    "type": "uint256"
                }
            ],
            "stateMutability": "view",
            "type": "function"
        },
        {
            "inputs": [],
            "name": "product",
            "outputs": [
                {
                    "internalType": "contract ERC20",
                    "name": "",
                    "type": "address"
                }
            ],
            "stateMutability": "view",
            "type": "function"
        },
        {
            "inputs": [],
            "name": "rebalance",
            "outputs": [],
            "stateMutability": "nonpayable",
            "type": "function"
        },
        {
            "inputs": [],
            "name": "rebalanceInterval",
            "outputs": [
                {
                    "internalType": "uint128",
                    "name": "",
                    "type": "uint128"
                }
            ],
            "stateMutability": "view",
            "type": "function"
        },
        {
            "inputs": [],
            "name": "rebalanceRequired",
            "outputs": [
                {
                    "internalType": "bool",
                    "name": "",
                    "type": "bool"
                }
            ],
            "stateMutability": "view",
            "type": "function"
        },
        {
            "inputs": [],
            "name": "rebalanceTimestamp",
            "outputs": [
                {
                    "internalType": "uint128",
                    "name": "",
                    "type": "uint128"
                }
            ],
            "stateMutability": "view",
            "type": "function"
        },
        {
            "inputs": [],
            "name": "recenteringSpeed",
            "outputs": [
                {
                    "internalType": "uint64",
                    "name": "",
                    "type": "uint64"
                }
            ],
            "stateMutability": "view",
            "type": "function"
        },
        {
            "inputs": [
                {
                    "internalType": "uint256",
                    "name": "shares",
                    "type": "uint256"
                },
                {
                    "internalType": "address",
                    "name": "receiver",
                    "type": "address"
                },
                {
                    "internalType": "address",
                    "name": "owner",
                    "type": "address"
                }
            ],
            "name": "redeem",
            "outputs": [
                {
                    "internalType": "uint256",
                    "name": "assets",
                    "type": "uint256"
                }
            ],
            "stateMutability": "nonpayable",
            "type": "function"
        },
        {
            "inputs": [
                {
                    "internalType": "address",
                    "name": "_owner",
                    "type": "address"
                }
            ],
            "name": "setOwner",
            "outputs": [],
            "stateMutability": "nonpayable",
            "type": "function"
        },
        {
            "inputs": [],
            "name": "source",
            "outputs": [
                {
                    "internalType": "contract ERC4626",
                    "name": "",
                    "type": "address"
                }
            ],
            "stateMutability": "view",
            "type": "function"
        },
        {
            "inputs": [],
            "name": "symbol",
            "outputs": [
                {
                    "internalType": "string",
                    "name": "",
                    "type": "string"
                }
            ],
            "stateMutability": "view",
            "type": "function"
        },
        {
            "inputs": [],
            "name": "target",
            "outputs": [
                {
                    "internalType": "contract ERC4626",
                    "name": "",
                    "type": "address"
                }
            ],
            "stateMutability": "view",
            "type": "function"
        },
        {
            "inputs": [],
            "name": "targetLtv",
            "outputs": [
                {
                    "internalType": "uint64",
                    "name": "",
                    "type": "uint64"
                }
            ],
            "stateMutability": "view",
            "type": "function"
        },
        {
            "inputs": [],
            "name": "totalAssets",
            "outputs": [
                {
                    "internalType": "uint256",
                    "name": "",
                    "type": "uint256"
                }
            ],
            "stateMutability": "view",
            "type": "function"
        },
        {
            "inputs": [],
            "name": "totalSupply",
            "outputs": [
                {
                    "internalType": "uint256",
                    "name": "",
                    "type": "uint256"
                }
            ],
            "stateMutability": "view",
            "type": "function"
        },
        {
            "inputs": [],
            "name": "totalTargetBalance",
            "outputs": [
                {
                    "internalType": "uint256",
                    "name": "",
                    "type": "uint256"
                }
            ],
            "stateMutability": "view",
            "type": "function"
        },
        {
            "inputs": [
                {
                    "internalType": "address",
                    "name": "to",
                    "type": "address"
                },
                {
                    "internalType": "uint256",
                    "name": "amount",
                    "type": "uint256"
                }
            ],
            "name": "transfer",
            "outputs": [
                {
                    "internalType": "bool",
                    "name": "",
                    "type": "bool"
                }
            ],
            "stateMutability": "nonpayable",
            "type": "function"
        },
        {
            "inputs": [
                {
                    "internalType": "address",
                    "name": "from",
                    "type": "address"
                },
                {
                    "internalType": "address",
                    "name": "to",
                    "type": "address"
                },
                {
                    "internalType": "uint256",
                    "name": "amount",
                    "type": "uint256"
                }
            ],
            "name": "transferFrom",
            "outputs": [
                {
                    "internalType": "bool",
                    "name": "",
                    "type": "bool"
                }
            ],
            "stateMutability": "nonpayable",
            "type": "function"
        },
        {
            "inputs": [],
            "name": "upperBoundLtv",
            "outputs": [
                {
                    "internalType": "uint64",
                    "name": "",
                    "type": "uint64"
                }
            ],
            "stateMutability": "view",
            "type": "function"
        },
        {
            "inputs": [
                {
                    "internalType": "uint256",
                    "name": "assets",
                    "type": "uint256"
                },
                {
                    "internalType": "address",
                    "name": "receiver",
                    "type": "address"
                },
                {
                    "internalType": "address",
                    "name": "owner",
                    "type": "address"
                }
            ],
            "name": "withdraw",
            "outputs": [
                {
                    "internalType": "uint256",
                    "name": "shares",
                    "type": "uint256"
                }
            ],
            "stateMutability": "nonpayable",
            "type": "function"
        }
    ],
    "bytecode": "6101806040523480156200001257600080fd5b5060405162004215380380620042158339810160408190526200003591620004a0565b601080546001600160a01b0319166001600160a01b038d1617905589516001600160401b038316908c908c908c9062000076906001906020850190620002f8565b5080516200008c906002906020840190620002f8565b505050506001600160801b03166080526001600160401b0384811690861611620000eb5760405162461bcd60e51b8152600401620000e29060208082526004908201526310a62a2b60e11b604082015260600190565b60405180910390fd5b6000846001600160401b0316116200012f5760405162461bcd60e51b8152600401620000e29060208082526004908201526310a62a2b60e11b604082015260600190565b846001600160401b0316836001600160401b0316116200017b5760405162461bcd60e51b8152600401620000e29060208082526004908201526310a62a2b60e11b604082015260600190565b620f4240836001600160401b031610620001c15760405162461bcd60e51b8152600401620000e29060208082526004908201526310a62a2b60e11b604082015260600190565b6000826001600160401b031611620002115760405162461bcd60e51b8152602060048201526012602482015271085c9958985b185b98d9525b9d195c9d985b60721b6044820152606401620000e2565b6000816001600160401b031611620002605760405162461bcd60e51b8152602060048201526011602482015270085c9958d95b9d195c9a5b99d4dc195959607a1b6044820152606401620000e2565b620f4240816001600160401b031610620002b15760405162461bcd60e51b8152602060048201526011602482015270085c9958d95b9d195c9a5b99d4dc195959607a1b6044820152606401620000e2565b6001600160a01b0397881661012052958716610140525092909416610160526001600160401b0390811660c05292831660e0528216610100521660a05250620005f8915050565b8280546200030690620005bc565b90600052602060002090601f0160209004810192826200032a576000855562000375565b82601f106200034557805160ff191683800117855562000375565b8280016001018555821562000375579182015b828111156200037557825182559160200191906001019062000358565b506200038392915062000387565b5090565b5b8082111562000383576000815560010162000388565b80516001600160a01b0381168114620003b657600080fd5b919050565b634e487b7160e01b600052604160045260246000fd5b600082601f830112620003e357600080fd5b81516001600160401b0380821115620004005762000400620003bb565b604051601f8301601f19908116603f011681019082821181831017156200042b576200042b620003bb565b816040528381526020925086838588010111156200044857600080fd5b600091505b838210156200046c57858201830151818301840152908201906200044d565b838211156200047e5760008385830101525b9695505050505050565b80516001600160401b0381168114620003b657600080fd5b60008060008060008060008060008060006101608c8e031215620004c357600080fd5b620004ce8c6200039e565b60208d0151909b506001600160401b03811115620004eb57600080fd5b620004f98e828f01620003d1565b60408e0151909b5090506001600160401b038111156200051857600080fd5b620005268e828f01620003d1565b9950506200053760608d016200039e565b97506200054760808d016200039e565b96506200055760a08d016200039e565b95506200056760c08d0162000488565b94506200057760e08d0162000488565b9350620005886101008d0162000488565b9250620005996101208d0162000488565b9150620005aa6101408d0162000488565b90509295989b509295989b9093969950565b600181811c90821680620005d157607f821691505b602082108103620005f257634e487b7160e01b600052602260045260246000fd5b50919050565b60805160a05160c05160e05161010051610120516101405161016051613aec620007296000396000818161063301526126960152600081816107500152818161117c0152818161120d01528181611d4501528181611efc0152818161202201526120c20152600081816106ea01528181610b5801528181610fbb0152818161136b01528181611465015281816116100152818161182801528181611c04015281816121560152818161218f015281816124fc0152818161277001528181612a010152612ff301526000818161068201528181610d0e01528181611e78015261262201526000818161049a01528181610cd401526125f4015260008181610899015261259e01526000818161059801526124d001526000818161045201528181610c8d0152610d6b0152613aec6000f3fe608060405234801561001057600080fd5b50600436106103ba5760003560e01c80638da5cb5b116101f4578063c45a01551161011a578063e30c3978116100ad578063f00e6a2a1161007c578063f00e6a2a146108ce578063f4afdebd146108df578063f8c8765e146108e7578063f8d89898146108fa57600080fd5b8063e30c397814610879578063ebbc49651461088c578063ec921dc114610894578063ef8b30f7146108bb57600080fd5b8063d4b83992116100e9578063d4b83992146107ff578063d505accf14610812578063d905777e14610825578063dd62ed3e1461084e57600080fd5b8063c45a0155146107c6578063c63d75b61461055a578063c6e6f592146107d9578063ce96cb77146107ec57600080fd5b8063afa293d411610192578063b460af9411610161578063b460af9414610785578063ba08765214610798578063bdde8a48146107ab578063bf9ce952146107b357600080fd5b8063afa293d414610732578063b01db07814610743578063b334ed861461074b578063b3d7f6b91461077257600080fd5b8063a0c1f15e116101ce578063a0c1f15e146106d2578063a59a9973146106e5578063a9059cbb1461070c578063adbd0f8f1461071f57600080fd5b80638da5cb5b146106a457806394bf804d146106b757806395d89b41146106ca57600080fd5b80633a794246116102e457806367e828bf116102775780637dc0d1d0116102465780637dc0d1d01461062e5780637ecebe00146106555780637f240fbf146106755780638469415f1461067d57600080fd5b806367e828bf146105e05780636e553f65146105f357806370a08231146106065780637d7c2a1c1461062657600080fd5b80634cdad506116102b35780634cdad5061461058057806350297d8c146105935780635c60da1b146105ba578063678cbcb5146105cd57600080fd5b80633a7942461461054a5780633d18b91214610552578063402d267d1461055a5780634ba200501461056f57600080fd5b806318160ddd1161035c5780632bf8eb1d1161032b5780632bf8eb1d146104f0578063313ce567146104f85780633644e5151461051757806338d52e0f1461051f57600080fd5b806318160ddd1461048c578063203222aa1461049557806321342b38146104d557806323b872dd146104dd57600080fd5b8063095ea7b311610398578063095ea7b3146104025780630a28a4771461042557806313af40351461043857806316d1d9161461044d57600080fd5b806301e1d114146103bf57806306fdde03146103da57806307a2d13a146103ef575b600080fd5b6103c761090d565b6040519081526020015b60405180910390f35b6103e261097f565b6040516103d19190613278565b6103c76103fd3660046132ab565b610a0d565b6104156104103660046132dc565b610a3a565b60405190151581526020016103d1565b6103c76104333660046132ab565b610aa6565b61044b610446366004613308565b610ac6565b005b6104747f000000000000000000000000000000000000000000000000000000000000000081565b6040516001600160801b0390911681526020016103d1565b6103c760045481565b6104bc7f000000000000000000000000000000000000000000000000000000000000000081565b60405167ffffffffffffffff90911681526020016103d1565b6103c7610b34565b6104156104eb366004613325565b610be8565b6103c7610bf5565b6003546105059060ff1681565b60405160ff90911681526020016103d1565b6103c7610c63565b600a54610532906001600160a01b031681565b6040516001600160a01b0390911681526020016103d1565b610415610c7d565b6103c7610d4e565b6103c7610568366004613308565b5060001990565b600b546001600160a01b0316610532565b6103c761058e3660046132ab565b610db2565b6104bc7f000000000000000000000000000000000000000000000000000000000000000081565b600f54610532906001600160a01b031681565b61044b6105db366004613308565b610dc3565b600c54610532906001600160a01b031681565b6103c761060136600461337a565b610ee3565b6103c7610614366004613308565b60056020526000908152604090205481565b61044b611086565b6105327f000000000000000000000000000000000000000000000000000000000000000081565b6103c7610663366004613308565b60096020526000908152604090205481565b6103c7611155565b6104bc7f000000000000000000000000000000000000000000000000000000000000000081565b601054610532906001600160a01b031681565b6103c76106c536600461337a565b6112cc565b6103e261142a565b601354610532906001600160a01b031681565b6105327f000000000000000000000000000000000000000000000000000000000000000081565b61041561071a3660046132dc565b611437565b601254610474906001600160801b031681565b600c546001600160a01b0316610532565b6103c7611443565b6105327f000000000000000000000000000000000000000000000000000000000000000081565b6103c76107803660046132ab565b6114dc565b6103c76107933660046133aa565b6114fb565b6103c76107a63660046133aa565b6116d5565b6103c76118e0565b600b54610532906001600160a01b031681565b600e54610532906001600160a01b031681565b6103c76107e73660046132ab565b6118ea565b6103c76107fa366004613308565b61190a565b600d54610532906001600160a01b031681565b61044b6108203660046133fb565b61192c565b6103c7610833366004613308565b6001600160a01b031660009081526005602052604090205490565b6103c761085c36600461346c565b600660209081526000928352604080842090915290825290205481565b601154610532906001600160a01b031681565b61044b611b70565b6104bc7f000000000000000000000000000000000000000000000000000000000000000081565b6103c76108c93660046132ab565b611bd7565b600d546001600160a01b0316610532565b6103c7611be2565b61044b6108f536600461349a565b611c7b565b601454610532906001600160a01b031681565b6013546040516370a0823160e01b81523060048201526000916001600160a01b0316906370a0823190602401602060405180830381865afa158015610956573d6000803e3d6000fd5b505050506040513d601f19601f8201168201806040525081019061097a91906134f6565b905090565b6001805461098c9061350f565b80601f01602080910402602001604051908101604052809291908181526020018280546109b89061350f565b8015610a055780601f106109da57610100808354040283529160200191610a05565b820191906000526020600020905b8154815290600101906020018083116109e857829003601f168201915b505050505081565b6004546000908015610a3157610a2c610a2461090d565b849083612208565b610a33565b825b9392505050565b3360008181526006602090815260408083206001600160a01b038716808552925280832085905551919290917f8c5be1e5ebec7d5bd14f71427d1e84f3dd0314c0f7b2291e5b200ac8c7c3b92590610a959086815260200190565b60405180910390a350600192915050565b6004546000908015610a3157610a2c81610abe61090d565b859190612227565b6010546001600160a01b03163314610b125760405162461bcd60e51b815260206004820152600a60248201526908585d5d1bdc9a5e995960b21b60448201526064015b60405180910390fd5b601180546001600160a01b0319166001600160a01b0392909216919091179055565b604051632fe4a15f60e21b8152306004820152600090819081906001600160a01b037f0000000000000000000000000000000000000000000000000000000000000000169063bf92857c9060240160c060405180830381865afa158015610b9f573d6000803e3d6000fd5b505050506040513d601f19601f82011682018060405250810190610bc39190613549565b5093955091935060009250610be09150839050620f424085612227565b949350505050565b6000610be0848484612255565b600d546000906001600160a01b0316610c105761097a61090d565b600d60009054906101000a90046001600160a01b03166001600160a01b03166301e1d1146040518163ffffffff1660e01b8152600401602060405180830381865afa158015610956573d6000803e3d6000fd5b60006007544614610c765761097a612335565b5060085490565b6012546000906001600160801b037f0000000000000000000000000000000000000000000000000000000000000000811691610cba9116426135a9565b1115610cc65750600190565b6000610cd0610b34565b90507f000000000000000000000000000000000000000000000000000000000000000067ffffffffffffffff16811015610d0c57600191505090565b7f000000000000000000000000000000000000000000000000000000000000000067ffffffffffffffff16811115610d4657600191505090565b600091505090565b60045460009066470de4df82000082610d95826001600160801b037f0000000000000000000000000000000000000000000000000000000000000000166301e13380612208565b9050610daa8382670de0b6b3a7640000612208565b935050505090565b6000610dbd82610a0d565b92915050565b600d546001600160a01b031615610e0b5760405162461bcd60e51b815260206004820152600c60248201526b085a5b9a5d1a585b1a5e995960a21b6044820152606401610b09565b600e546001600160a01b03163314610e505760405162461bcd60e51b815260206004820152600860248201526721666163746f727960c01b6044820152606401610b09565b600d80546001600160a01b0319166001600160a01b03838116918217909255600b5460405163095ea7b360e01b8152600481019290925260001960248301529091169063095ea7b3906044016020604051808303816000875af1158015610ebb573d6000803e3d6000fd5b505050506040513d601f19601f82011682018060405250810190610edf91906135d5565b5050565b600c5460009082906001600160a01b0316338114610f135760405162461bcd60e51b8152600401610b09906135f0565b806001600160a01b0316826001600160a01b031614610f445760405162461bcd60e51b8152600401610b09906135f0565b610f4d85611bd7565b925082600003610f895760405162461bcd60e51b81526020600482015260076024820152662173686172657360c81b6044820152606401610b09565b600a54610fa1906001600160a01b03163330886123cf565b600a5460405163e8eda9df60e01b81526001600160a01b037f000000000000000000000000000000000000000000000000000000000000000081169263e8eda9df92610ffb92919091169089903090600090600401613611565b600060405180830381600087803b15801561101557600080fd5b505af1158015611029573d6000803e3d6000fd5b505050506110378484612452565b60408051868152602081018590526001600160a01b0386169133917fdcbc1c05240f31ff3ad067ef1ee35ce4997762752e3a095284754544f4c709d791015b60405180910390a3505092915050565b61108e610c7d565b6110d25760405162461bcd60e51b8152602060048201526015602482015274085c9958985b185b98d9539bdd14995c5d5a5c9959605a1b6044820152606401610b09565b6110da6124ac565b601280546fffffffffffffffffffffffffffffffff1916426001600160801b0316179055611106612a79565b337f9d87982806b4b9230ca8e2416e1584fbff27a9eebcfadf57dbb57ea87ec8ef23611130610d4e565b601254604080519283526001600160801b0390911660208301520160405180910390a2565b600a546040516335ea6a7560e01b81526001600160a01b03918216600482015260009182917f0000000000000000000000000000000000000000000000000000000000000000909116906335ea6a759060240161014060405180830381865afa1580156111c6573d6000803e3d6000fd5b505050506040513d601f19601f820116820180604052508101906111ea919061363e565b5050600b546040516335ea6a7560e01b8152959950600098506001600160a01b037f0000000000000000000000000000000000000000000000000000000000000000811698506335ea6a75975061124c96911694506004019250613366915050565b61014060405180830381865afa15801561126a573d6000803e3d6000fd5b505050506040513d601f19601f8201168201806040525081019061128e919061363e565b50929850600097506112a79650610b3495505050505050565b905060006112b98383620f4240612227565b6112c390856136c7565b95945050505050565b600c5460009082906001600160a01b03163381146112fc5760405162461bcd60e51b8152600401610b09906135f0565b806001600160a01b0316826001600160a01b03161461132d5760405162461bcd60e51b8152600401610b09906135f0565b611336856114dc565b600a54909350611351906001600160a01b03163330866123cf565b600a5460405163e8eda9df60e01b81526001600160a01b037f000000000000000000000000000000000000000000000000000000000000000081169263e8eda9df926113ab92919091169087903090600090600401613611565b600060405180830381600087803b1580156113c557600080fd5b505af11580156113d9573d6000803e3d6000fd5b505050506113e78486612452565b60408051848152602081018790526001600160a01b0386169133917fdcbc1c05240f31ff3ad067ef1ee35ce4997762752e3a095284754544f4c709d79101611076565b6002805461098c9061350f565b6000610a338383612a8c565b604051632fe4a15f60e21b815230600482015260009081906001600160a01b037f0000000000000000000000000000000000000000000000000000000000000000169063bf92857c9060240160c060405180830381865afa1580156114ac573d6000803e3d6000fd5b505050506040513d601f19601f820116820180604052508101906114d09190613549565b50939695505050505050565b6004546000908015610a3157610a2c6114f361090d565b849083612227565b600c5460009083906001600160a01b031633811461152b5760405162461bcd60e51b8152600401610b09906135f0565b806001600160a01b0316826001600160a01b03161461155c5760405162461bcd60e51b8152600401610b09906135f0565b61156586610aa6565b9250336001600160a01b038516146115d5576001600160a01b038416600090815260066020908152604080832033845290915290205460001981146115d3576115ae84826135a9565b6001600160a01b03861660009081526006602090815260408083203384529091529020555b505b6115df8484612af2565b600a54604051631a4ca37b60e21b81526001600160a01b0391821660048201526024810188905286821660448201527f0000000000000000000000000000000000000000000000000000000000000000909116906369328dec906064016020604051808303816000875af115801561165b573d6000803e3d6000fd5b505050506040513d601f19601f8201168201806040525081019061167f91906134f6565b5060408051878152602081018590526001600160a01b03808716929088169133917ffbde797d201c681b91056529119e0b02407c7bb96a4a2c75c01fc9667232c8db91015b60405180910390a450509392505050565b600c5460009083906001600160a01b03163381146117055760405162461bcd60e51b8152600401610b09906135f0565b806001600160a01b0316826001600160a01b0316146117365760405162461bcd60e51b8152600401610b09906135f0565b336001600160a01b038516146117a4576001600160a01b038416600090815260066020908152604080832033845290915290205460001981146117a25761177d87826135a9565b6001600160a01b03861660009081526006602090815260408083203384529091529020555b505b6117ad86610db2565b9250826000036117ed5760405162461bcd60e51b815260206004820152600b60248201526a5a45524f5f41535345545360a81b6044820152606401610b09565b6117f78487612af2565b600a54604051631a4ca37b60e21b81526001600160a01b0391821660048201526024810185905286821660448201527f0000000000000000000000000000000000000000000000000000000000000000909116906369328dec906064016020604051808303816000875af1158015611873573d6000803e3d6000fd5b505050506040513d601f19601f8201168201806040525081019061189791906134f6565b5060408051848152602081018890526001600160a01b03808716929088169133917ffbde797d201c681b91056529119e0b02407c7bb96a4a2c75c01fc9667232c8db91016116c4565b600061097a610b34565b6004546000908015610a3157610a2c8161190261090d565b859190612208565b6001600160a01b038116600090815260056020526040812054610dbd90610a0d565b4284101561197c5760405162461bcd60e51b815260206004820152601760248201527f5045524d49545f444541444c494e455f455850495245440000000000000000006044820152606401610b09565b60006001611988610c63565b6001600160a01b038a811660008181526009602090815260409182902080546001810190915582517f6e71edae12b1b97f4d1f60370fef10105fa2faae0126114a169c64845d6126c98184015280840194909452938d166060840152608083018c905260a083019390935260c08083018b90528151808403909101815260e08301909152805192019190912061190160f01b6101008301526101028201929092526101228101919091526101420160408051601f198184030181528282528051602091820120600084529083018083525260ff871690820152606081018590526080810184905260a0016020604051602081039080840390855afa158015611a94573d6000803e3d6000fd5b5050604051601f1901519150506001600160a01b03811615801590611aca5750876001600160a01b0316816001600160a01b0316145b611b075760405162461bcd60e51b815260206004820152600e60248201526d24a72b20a624a22fa9a4a3a722a960911b6044820152606401610b09565b6001600160a01b0390811660009081526006602090815260408083208a8516808552908352928190208990555188815291928a16917f8c5be1e5ebec7d5bd14f71427d1e84f3dd0314c0f7b2291e5b200ac8c7c3b925910160405180910390a350505050505050565b6011546001600160a01b03163314611bb75760405162461bcd60e51b815260206004820152600a60248201526908585d5d1bdc9a5e995960b21b6044820152606401610b09565b601080546001600160a01b03199081163317909155601180549091169055565b6000610dbd826118ea565b604051632fe4a15f60e21b815230600482015260009081906001600160a01b037f0000000000000000000000000000000000000000000000000000000000000000169063bf92857c9060240160c060405180830381865afa158015611c4b573d6000803e3d6000fd5b505050506040513d601f19601f82011682018060405250810190611c6f9190613549565b50929695505050505050565b600054610100900460ff1615808015611c9b5750600054600160ff909116105b80611cb55750303b158015611cb5575060005460ff166001145b611d185760405162461bcd60e51b815260206004820152602e60248201527f496e697469616c697a61626c653a20636f6e747261637420697320616c72656160448201526d191e481a5b9a5d1a585b1a5e995960921b6064820152608401610b09565b6000805460ff191660011790558015611d3b576000805461ff0019166101001790555b60008060008060007f00000000000000000000000000000000000000000000000000000000000000006001600160a01b0316633e1501418b6040518263ffffffff1660e01b8152600401611d9e91906001600160a01b0391909116815260200190565b61014060405180830381865afa158015611dbc573d6000803e3d6000fd5b505050506040513d601f19601f82011682018060405250810190611de09190613706565b509c50919a509496508a9550611e2d9450505050505760405162461bcd60e51b815260206004820152600c60248201526b21617373657441637469766560a01b6044820152606401610b09565b83611e6d5760405162461bcd60e51b815260206004820152601060248201526f08585cdcd95d10dbdb1b185d195c985b60821b6044820152606401610b09565b67ffffffffffffffff7f000000000000000000000000000000000000000000000000000000000000000016611ea382606461379d565b1015611edd5760405162461bcd60e51b815260206004820152600960248201526810b0b9b9b2ba262a2b60b91b6044820152606401610b09565b604051633e15014160e01b81526001600160a01b038a811660048301527f00000000000000000000000000000000000000000000000000000000000000001690633e1501419060240161014060405180830381865afa158015611f44573d6000803e3d6000fd5b505050506040513d601f19601f82011682018060405250810190611f689190613706565b509a50909850899650611fb5955050505050505760405162461bcd60e51b815260206004820152600e60248201526d2170726f6475637441637469766560901b6044820152606401610b09565b81611ff75760405162461bcd60e51b81526020600482015260126024820152712170726f64756374426f72726f7761626c6560701b6044820152606401610b09565b6120038a8a8a8a612b54565b6040516334924edb60e21b81526001600160a01b038b811660048301527f0000000000000000000000000000000000000000000000000000000000000000169063d2493b6c90602401606060405180830381865afa158015612069573d6000803e3d6000fd5b505050506040513d601f19601f8201168201806040525081019061208d91906137bc565b5050601380546001600160a01b0319166001600160a01b039283161790556040516334924edb60e21b81528a821660048201527f00000000000000000000000000000000000000000000000000000000000000009091169063d2493b6c90602401606060405180830381865afa15801561210b573d6000803e3d6000fd5b505050506040513d601f19601f8201168201806040525081019061212f91906137bc565b601480546001600160a01b0319166001600160a01b0392831617905561217d92508c1690507f0000000000000000000000000000000000000000000000000000000000000000600019612dd5565b6013546121b6906001600160a01b03167f0000000000000000000000000000000000000000000000000000000000000000600019612dd5565b50505050508015612201576000805461ff0019169055604051600181527f7f26b83ff96e1f2b6a682f133852f6798a09c465da95921460cefb38474024989060200160405180910390a15b5050505050565b82820281151584158583048514171661222057600080fd5b0492915050565b82820281151584158583048514171661223f57600080fd5b6001826001830304018115150290509392505050565b6001600160a01b038316600090815260066020908152604080832033845290915281205460001981146122b15761228c83826135a9565b6001600160a01b03861660009081526006602090815260408083203384529091529020555b6001600160a01b038516600090815260056020526040812080548592906122d99084906135a9565b90915550506001600160a01b0380851660008181526005602052604090819020805487019055519091871690600080516020613a97833981519152906123229087815260200190565b60405180910390a3506001949350505050565b60007f8b73c3c69bb8fe3d512ecc4cf759cc79239f7b179b0ffacaa9a75d522b39400f600160405161236791906137fe565b6040805191829003822060208301939093528101919091527fc89efdaa54c0f20c7adf612882df0950f5a951637e0307cdcb4c672f298b8bc660608201524660808201523060a082015260c00160405160208183030381529060405280519060200120905090565b60006040516323b872dd60e01b81528460048201528360248201528260448201526020600060648360008a5af13d15601f3d11600160005114161716915050806122015760405162461bcd60e51b81526020600482015260146024820152731514905394d1915497d19493d357d1905253115160621b6044820152606401610b09565b80600460008282546124649190613899565b90915550506001600160a01b038216600081815260056020908152604080832080548601905551848152600080516020613a9783398151915291015b60405180910390a35050565b6124b4612e52565b604051632fe4a15f60e21b8152306004820152600090819081907f000000000000000000000000000000000000000000000000000000000000000067ffffffffffffffff16907f00000000000000000000000000000000000000000000000000000000000000006001600160a01b03169063bf92857c9060240160c060405180830381865afa15801561254b573d6000803e3d6000fd5b505050506040513d601f19601f8201168201806040525081019061256f9190613549565b509397509195506000925061258c9150859050620f424087612227565b905060006125c867ffffffffffffffff7f00000000000000000000000000000000000000000000000000000000000000001684620f4240612208565b6125e36125d885620f42406135a9565b8490620f4240612208565b6125ed9190613899565b90506126567f000000000000000000000000000000000000000000000000000000000000000067ffffffffffffffff166126517f000000000000000000000000000000000000000000000000000000000000000067ffffffffffffffff168461305d565b613073565b93506000925061266e915085905083620f4240612208565b600b5460405163b3596f0760e01b81526001600160a01b0391821660048201529192506000917f00000000000000000000000000000000000000000000000000000000000000009091169063b3596f0790602401602060405180830381865afa1580156126df573d6000803e3d6000fd5b505050506040513d601f19601f8201168201806040525081019061270391906134f6565b9050838211156128ba57600061271985846135a9565b9050600061273082670de0b6b3a764000085612208565b600b5460405163a415bcad60e01b81526001600160a01b0391821660048201526024810183905260026044820152600060648201523060848201529192507f0000000000000000000000000000000000000000000000000000000000000000169063a415bcad9060a401600060405180830381600087803b1580156127b457600080fd5b505af11580156127c8573d6000803e3d6000fd5b5050600b546040516370a0823160e01b8152306004820152600093506001600160a01b0390911691506370a0823190602401602060405180830381865afa158015612817573d6000803e3d6000fd5b505050506040513d601f19601f8201168201806040525081019061283b91906134f6565b600d54604051636e553f6560e01b8152600481018390523060248201529192506001600160a01b031690636e553f65906044016020604051808303816000875af115801561288d573d6000803e3d6000fd5b505050506040513d601f19601f820116820180604052508101906128b191906134f6565b50505050612201565b60006128c683866135a9565b905060006128dd82670de0b6b3a764000085612208565b600d54604051635d043b2960e11b815260048101839052306024820181905260448201529192506001600160a01b03169063ba087652906064016020604051808303816000875af1158015612936573d6000803e3d6000fd5b505050506040513d601f19601f8201168201806040525081019061295a91906134f6565b50600b546040516370a0823160e01b81523060048201526000916001600160a01b0316906370a0823190602401602060405180830381865afa1580156129a4573d6000803e3d6000fd5b505050506040513d601f19601f820116820180604052508101906129c891906134f6565b600b5460405163573ade8160e01b81526001600160a01b03918216600482015260248101839052600260448201523060648201529192507f0000000000000000000000000000000000000000000000000000000000000000169063573ade81906084016020604051808303816000875af1158015612a4a573d6000803e3d6000fd5b505050506040513d601f19601f82011682018060405250810190612a6e91906134f6565b505050505050505050565b612a8a33612a85610d4e565b612452565b565b33600090815260056020526040812080548391908390612aad9084906135a9565b90915550506001600160a01b03831660008181526005602052604090819020805485019055513390600080516020613a9783398151915290610a959086815260200190565b6001600160a01b03821660009081526005602052604081208054839290612b1a9084906135a9565b90915550506004805482900390556040518181526000906001600160a01b03841690600080516020613a97833981519152906020016124a0565b600054610100900460ff16612b7b5760405162461bcd60e51b8152600401610b09906138b1565b6000846001600160a01b03166395d89b416040518163ffffffff1660e01b8152600401600060405180830381865afa158015612bbb573d6000803e3d6000fd5b505050506040513d6000823e601f3d908101601f19168201604052612be39190810190613912565b90506000846001600160a01b03166395d89b416040518163ffffffff1660e01b8152600401600060405180830381865afa158015612c25573d6000803e3d6000fd5b505050506040513d6000823e601f3d908101601f19168201604052612c4d9190810190613912565b90506000836001600160a01b03166306fdde036040518163ffffffff1660e01b8152600401600060405180830381865afa158015612c8f573d6000803e3d6000fd5b505050506040513d6000823e601f3d908101601f19168201604052612cb79190810190613912565b8383604051602001612ccb939291906139bf565b60405160208183030381529060405290506000846001600160a01b03166395d89b416040518163ffffffff1660e01b8152600401600060405180830381865afa158015612d1c573d6000803e3d6000fd5b505050506040513d6000823e601f3d908101601f19168201604052612d449190810190613912565b8484604051602001612d5893929190613a1f565b6040516020818303038152906040529050612d74888383613083565b600b80546001600160a01b03808a166001600160a01b031992831617909255600c80548984169083168117909155600e8054831633179055600f8054898516931692909217909155612dcb918a1690600019612dd5565b5050505050505050565b600060405163095ea7b360e01b8152836004820152826024820152602060006044836000895af13d15601f3d1160016000511416171691505080612e4c5760405162461bcd60e51b815260206004820152600e60248201526d1054141493d59157d1905253115160921b6044820152606401610b09565b50505050565b6000612e5c610bf5565b6014546040516370a0823160e01b81523060048201529192506000916001600160a01b03909116906370a0823190602401602060405180830381865afa158015612eaa573d6000803e3d6000fd5b505050506040513d601f19601f82011682018060405250810190612ece91906134f6565b905080821115610edf57600a546001600160a01b03166000612ef083856135a9565b600d54604051632d182be560e21b815260048101839052306024820181905260448201529192506001600160a01b03169063b460af94906064016020604051808303816000875af1158015612f49573d6000803e3d6000fd5b505050506040513d601f19601f82011682018060405250810190612f6d91906134f6565b506040516370a0823160e01b81523060048201526000906001600160a01b038416906370a0823190602401602060405180830381865afa158015612fb5573d6000803e3d6000fd5b505050506040513d601f19601f82011682018060405250810190612fd991906134f6565b60405163e8eda9df60e01b81529091506001600160a01b037f0000000000000000000000000000000000000000000000000000000000000000169063e8eda9df9061302f90869085903090600090600401613611565b600060405180830381600087803b15801561304957600080fd5b505af1158015612a6e573d6000803e3d6000fd5b600081831061306c5781610a33565b5090919050565b60008183101561306c5781610a33565b600054610100900460ff166130aa5760405162461bcd60e51b8152600401610b09906138b1565b6000836001600160a01b031663313ce5676040518163ffffffff1660e01b8152600401602060405180830381865afa1580156130ea573d6000803e3d6000fd5b505050506040513d601f19601f8201168201806040525081019061310e9190613a79565b905061311b838383613141565b5050600a80546001600160a01b0319166001600160a01b03939093169290921790915550565b600054610100900460ff166131685760405162461bcd60e51b8152600401610b09906138b1565b825161317b9060019060208601906131b3565b50815161318f9060029060208501906131b3565b506003805460ff191660ff8316179055466007556131ab612335565b600855505050565b8280546131bf9061350f565b90600052602060002090601f0160209004810192826131e15760008555613227565b82601f106131fa57805160ff1916838001178555613227565b82800160010185558215613227579182015b8281111561322757825182559160200191906001019061320c565b50613233929150613237565b5090565b5b808211156132335760008155600101613238565b60005b8381101561326757818101518382015260200161324f565b83811115612e4c5750506000910152565b602081526000825180602084015261329781604085016020870161324c565b601f01601f19169190910160400192915050565b6000602082840312156132bd57600080fd5b5035919050565b6001600160a01b03811681146132d957600080fd5b50565b600080604083850312156132ef57600080fd5b82356132fa816132c4565b946020939093013593505050565b60006020828403121561331a57600080fd5b8135610a33816132c4565b60008060006060848603121561333a57600080fd5b8335613345816132c4565b92506020840135613355816132c4565b929592945050506040919091013590565b6001600160a01b0391909116815260200190565b6000806040838503121561338d57600080fd5b82359150602083013561339f816132c4565b809150509250929050565b6000806000606084860312156133bf57600080fd5b8335925060208401356133d1816132c4565b915060408401356133e1816132c4565b809150509250925092565b60ff811681146132d957600080fd5b600080600080600080600060e0888a03121561341657600080fd5b8735613421816132c4565b96506020880135613431816132c4565b95506040880135945060608801359350608088013561344f816133ec565b9699959850939692959460a0840135945060c09093013592915050565b6000806040838503121561347f57600080fd5b823561348a816132c4565b9150602083013561339f816132c4565b600080600080608085870312156134b057600080fd5b84356134bb816132c4565b935060208501356134cb816132c4565b925060408501356134db816132c4565b915060608501356134eb816132c4565b939692955090935050565b60006020828403121561350857600080fd5b5051919050565b600181811c9082168061352357607f821691505b60208210810361354357634e487b7160e01b600052602260045260246000fd5b50919050565b60008060008060008060c0878903121561356257600080fd5b865195506020870151945060408701519350606087015192506080870151915060a087015190509295509295509295565b634e487b7160e01b600052601160045260246000fd5b6000828210156135bb576135bb613593565b500390565b805180151581146135d057600080fd5b919050565b6000602082840312156135e757600080fd5b610a33826135c0565b60208082526007908201526621736f7572636560c81b604082015260600190565b6001600160a01b03948516815260208101939093529216604082015261ffff909116606082015260800190565b6000806000806000806000806000806101408b8d03121561365e57600080fd5b8a51995060208b0151985060408b0151975060608b0151965060808b0151955060a08b0151945060c08b0151935060e08b015192506101008b015191506101208b015164ffffffffff811681146136b457600080fd5b809150509295989b9194979a5092959850565b60008083128015600160ff1b8501841216156136e5576136e5613593565b6001600160ff1b038401831381161561370057613700613593565b50500390565b6000806000806000806000806000806101408b8d03121561372657600080fd5b8a51995060208b0151985060408b0151975060608b0151965060808b0151955061375260a08c016135c0565b945061376060c08c016135c0565b935061376e60e08c016135c0565b925061377d6101008c016135c0565b915061378c6101208c016135c0565b90509295989b9194979a5092959850565b60008160001904831182151516156137b7576137b7613593565b500290565b6000806000606084860312156137d157600080fd5b83516137dc816132c4565b60208501519093506137ed816132c4565b60408501519092506133e1816132c4565b600080835481600182811c91508083168061381a57607f831692505b6020808410820361383957634e487b7160e01b86526022600452602486fd5b81801561384d576001811461385e5761388b565b60ff1986168952848901965061388b565b60008a81526020902060005b868110156138835781548b82015290850190830161386a565b505084890196505b509498975050505050505050565b600082198211156138ac576138ac613593565b500190565b6020808252602b908201527f496e697469616c697a61626c653a20636f6e7472616374206973206e6f74206960408201526a6e697469616c697a696e6760a81b606082015260800190565b634e487b7160e01b600052604160045260246000fd5b60006020828403121561392457600080fd5b815167ffffffffffffffff8082111561393c57600080fd5b818401915084601f83011261395057600080fd5b815181811115613962576139626138fc565b604051601f8201601f19908116603f0116810190838211818310171561398a5761398a6138fc565b816040528281528760208487010111156139a357600080fd5b6139b483602083016020880161324c565b979650505050505050565b600084516139d181846020890161324c565b6101d160f51b90830190815284516139f081600284016020890161324c565b602d60f81b600292909101918201528351613a1281600384016020880161324c565b0160030195945050505050565b60008451613a3181846020890161324c565b8083019050602d60f81b8082528551613a51816001850160208a0161324c565b60019201918201528351613a6c81600284016020880161324c565b0160020195945050505050565b600060208284031215613a8b57600080fd5b8151610a33816133ec56feddf252ad1be2c89b69c2b068fc378daa952ba7f163c4a11628f55a4df523b3efa26469706673582212200296ed6d791ca08e12e0aea95c6c5a9360edc49e62435fb49ab61bf97d5d3ede64736f6c634300080d0033",
    "sourcePath": "/Users/misha/Library/Mobile Documents/com~apple~CloudDocs/Dev/construct-finance/construct_V0/src/modules/AaveBiassetModule.sol",
    "compiler": {
        "name": "solc",
        "version": "0.8.13+commit.abaa5c0e"
    },
    "functionHashes": {
        "DOMAIN_SEPARATOR()": "3644e515",
        "aToken()": "a0c1f15e",
        "acceptOwner()": "ebbc4965",
        "allowance(address,address)": "dd62ed3e",
        "approve(address,uint256)": "095ea7b3",
        "asset()": "38d52e0f",
        "balanceOf(address)": "70a08231",
        "convertToAssets(uint256)": "07a2d13a",
        "convertToShares(uint256)": "c6e6f592",
        "dataProvider()": "b334ed86",
        "debtToken()": "f8d89898",
        "decimals()": "313ce567",
        "deposit(uint256,address)": "6e553f65",
        "factory()": "c45a0155",
        "getCapitalUtilization()": "bdde8a48",
        "getCollateralETH()": "b01db078",
        "getCurrentLtv()": "21342b38",
        "getDebtETH()": "f4afdebd",
        "getModuleApr()": "7f240fbf",
        "getProduct()": "4ba20050",
        "getReward()": "3d18b912",
        "getSource()": "afa293d4",
        "getTarget()": "f00e6a2a",
        "implementation()": "5c60da1b",
        "initialize(address,address,address,address)": "f8c8765e",
        "initializeStrategy(address)": "678cbcb5",
        "lendingPool()": "a59a9973",
        "lowerBoundLtv()": "203222aa",
        "maxDeposit(address)": "402d267d",
        "maxMint(address)": "c63d75b6",
        "maxRedeem(address)": "d905777e",
        "maxWithdraw(address)": "ce96cb77",
        "mint(uint256,address)": "94bf804d",
        "name()": "06fdde03",
        "nonces(address)": "7ecebe00",
        "oracle()": "7dc0d1d0",
        "owner()": "8da5cb5b",
        "pendingOwner()": "e30c3978",
        "permit(address,address,uint256,uint256,uint8,bytes32,bytes32)": "d505accf",
        "previewDeposit(uint256)": "ef8b30f7",
        "previewMint(uint256)": "b3d7f6b9",
        "previewRedeem(uint256)": "4cdad506",
        "previewWithdraw(uint256)": "0a28a477",
        "product()": "bf9ce952",
        "rebalance()": "7d7c2a1c",
        "rebalanceInterval()": "16d1d916",
        "rebalanceRequired()": "3a794246",
        "rebalanceTimestamp()": "adbd0f8f",
        "recenteringSpeed()": "50297d8c",
        "redeem(uint256,address,address)": "ba087652",
        "setOwner(address)": "13af4035",
        "source()": "67e828bf",
        "symbol()": "95d89b41",
        "target()": "d4b83992",
        "targetLtv()": "ec921dc1",
        "totalAssets()": "01e1d114",
        "totalSupply()": "18160ddd",
        "totalTargetBalance()": "2bf8eb1d",
        "transfer(address,uint256)": "a9059cbb",
        "transferFrom(address,address,uint256)": "23b872dd",
        "upperBoundLtv()": "8469415f",
        "withdraw(uint256,address,address)": "b460af94"
    },
    "gasEstimates": {
        "creation": {
            "codeDepositCost": "3016800",
            "executionCost": "infinite",
            "totalCost": "infinite"
        },
        "external": {
            "DOMAIN_SEPARATOR()": "infinite",
            "aToken()": "2405",
            "acceptOwner()": "50835",
            "allowance(address,address)": "infinite",
            "approve(address,uint256)": "24562",
            "asset()": "2471",
            "balanceOf(address)": "2614",
            "convertToAssets(uint256)": "infinite",
            "convertToShares(uint256)": "infinite",
            "dataProvider()": "infinite",
            "debtToken()": "2469",
            "decimals()": "2403",
            "deposit(uint256,address)": "infinite",
            "factory()": "2405",
            "getCapitalUtilization()": "infinite",
            "getCollateralETH()": "infinite",
            "getCurrentLtv()": "infinite",
            "getDebtETH()": "infinite",
            "getModuleApr()": "infinite",
            "getProduct()": "2466",
            "getReward()": "infinite",
            "getSource()": "2399",
            "getTarget()": "2397",
            "implementation()": "2449",
            "initialize(address,address,address,address)": "infinite",
            "initializeStrategy(address)": "infinite",
            "lendingPool()": "infinite",
            "lowerBoundLtv()": "infinite",
            "maxDeposit(address)": "454",
            "maxMint(address)": "431",
            "maxRedeem(address)": "2631",
            "maxWithdraw(address)": "infinite",
            "mint(uint256,address)": "infinite",
            "name()": "infinite",
            "nonces(address)": "2591",
            "oracle()": "infinite",
            "owner()": "2406",
            "pendingOwner()": "2404",
            "permit(address,address,uint256,uint256,uint8,bytes32,bytes32)": "infinite",
            "previewDeposit(uint256)": "infinite",
            "previewMint(uint256)": "infinite",
            "previewRedeem(uint256)": "infinite",
            "previewWithdraw(uint256)": "infinite",
            "product()": "2470",
            "rebalance()": "infinite",
            "rebalanceInterval()": "infinite",
            "rebalanceRequired()": "infinite",
            "rebalanceTimestamp()": "2471",
            "recenteringSpeed()": "infinite",
            "redeem(uint256,address,address)": "infinite",
            "setOwner(address)": "26818",
            "source()": "2405",
            "symbol()": "infinite",
            "target()": "2404",
            "targetLtv()": "infinite",
            "totalAssets()": "infinite",
            "totalSupply()": "2353",
            "totalTargetBalance()": "infinite",
            "transfer(address,uint256)": "infinite",
            "transferFrom(address,address,uint256)": "infinite",
            "upperBoundLtv()": "infinite",
            "withdraw(uint256,address,address)": "infinite"
        },
        "internal": {
            "_harvest()": "infinite",
            "_rebalance()": "infinite",
            "_rewardPayout()": "infinite"
        }
    }
}