{
    "contractName": "AaveBiassetModule",
    "abi": [
        {
            "inputs": [
                {
                    "internalType": "address",
                    "name": "_owner",
                    "type": "address"
                },
                {
                    "internalType": "string",
                    "name": "_name",
                    "type": "string"
                },
                {
                    "internalType": "string",
                    "name": "_symbol",
                    "type": "string"
                },
                {
                    "internalType": "address",
                    "name": "_aaveLendingPool",
                    "type": "address"
                },
                {
                    "internalType": "address",
                    "name": "_aaveDataProvider",
                    "type": "address"
                },
                {
                    "internalType": "address",
                    "name": "_aaveOracle",
                    "type": "address"
                },
                {
                    "internalType": "uint64",
                    "name": "_targetLtv",
                    "type": "uint64"
                },
                {
                    "internalType": "uint64",
                    "name": "_lowerBoundLtv",
                    "type": "uint64"
                },
                {
                    "internalType": "uint64",
                    "name": "_upperBoundLtv",
                    "type": "uint64"
                },
                {
                    "internalType": "uint64",
                    "name": "_rebalanceInterval",
                    "type": "uint64"
                },
                {
                    "internalType": "uint64",
                    "name": "_recenteringSpeed",
                    "type": "uint64"
                }
            ],
            "stateMutability": "nonpayable",
            "type": "constructor"
        },
        {
            "anonymous": false,
            "inputs": [
                {
                    "indexed": true,
                    "internalType": "address",
                    "name": "owner",
                    "type": "address"
                },
                {
                    "indexed": true,
                    "internalType": "address",
                    "name": "spender",
                    "type": "address"
                },
                {
                    "indexed": false,
                    "internalType": "uint256",
                    "name": "amount",
                    "type": "uint256"
                }
            ],
            "name": "Approval",
            "type": "event"
        },
        {
            "anonymous": false,
            "inputs": [
                {
                    "indexed": true,
                    "internalType": "address",
                    "name": "caller",
                    "type": "address"
                },
                {
                    "indexed": true,
                    "internalType": "address",
                    "name": "owner",
                    "type": "address"
                },
                {
                    "indexed": false,
                    "internalType": "uint256",
                    "name": "assets",
                    "type": "uint256"
                },
                {
                    "indexed": false,
                    "internalType": "uint256",
                    "name": "shares",
                    "type": "uint256"
                }
            ],
            "name": "Deposit",
            "type": "event"
        },
        {
            "anonymous": false,
            "inputs": [
                {
                    "indexed": false,
                    "internalType": "uint8",
                    "name": "version",
                    "type": "uint8"
                }
            ],
            "name": "Initialized",
            "type": "event"
        },
        {
            "anonymous": false,
            "inputs": [
                {
                    "indexed": true,
                    "internalType": "address",
                    "name": "caller",
                    "type": "address"
                },
                {
                    "indexed": false,
                    "internalType": "uint256",
                    "name": "reward",
                    "type": "uint256"
                },
                {
                    "indexed": false,
                    "internalType": "uint128",
                    "name": "timestamp",
                    "type": "uint128"
                }
            ],
            "name": "Rebalance",
            "type": "event"
        },
        {
            "anonymous": false,
            "inputs": [
                {
                    "indexed": true,
                    "internalType": "address",
                    "name": "from",
                    "type": "address"
                },
                {
                    "indexed": true,
                    "internalType": "address",
                    "name": "to",
                    "type": "address"
                },
                {
                    "indexed": false,
                    "internalType": "uint256",
                    "name": "amount",
                    "type": "uint256"
                }
            ],
            "name": "Transfer",
            "type": "event"
        },
        {
            "anonymous": false,
            "inputs": [
                {
                    "indexed": true,
                    "internalType": "address",
                    "name": "caller",
                    "type": "address"
                },
                {
                    "indexed": true,
                    "internalType": "address",
                    "name": "receiver",
                    "type": "address"
                },
                {
                    "indexed": true,
                    "internalType": "address",
                    "name": "owner",
                    "type": "address"
                },
                {
                    "indexed": false,
                    "internalType": "uint256",
                    "name": "assets",
                    "type": "uint256"
                },
                {
                    "indexed": false,
                    "internalType": "uint256",
                    "name": "shares",
                    "type": "uint256"
                }
            ],
            "name": "Withdraw",
            "type": "event"
        },
        {
            "inputs": [],
            "name": "DOMAIN_SEPARATOR",
            "outputs": [
                {
                    "internalType": "bytes32",
                    "name": "",
                    "type": "bytes32"
                }
            ],
            "stateMutability": "view",
            "type": "function"
        },
        {
            "inputs": [],
            "name": "aToken",
            "outputs": [
                {
                    "internalType": "address",
                    "name": "",
                    "type": "address"
                }
            ],
            "stateMutability": "view",
            "type": "function"
        },
        {
            "inputs": [],
            "name": "acceptOwner",
            "outputs": [],
            "stateMutability": "nonpayable",
            "type": "function"
        },
        {
            "inputs": [
                {
                    "internalType": "address",
                    "name": "",
                    "type": "address"
                },
                {
                    "internalType": "address",
                    "name": "",
                    "type": "address"
                }
            ],
            "name": "allowance",
            "outputs": [
                {
                    "internalType": "uint256",
                    "name": "",
                    "type": "uint256"
                }
            ],
            "stateMutability": "view",
            "type": "function"
        },
        {
            "inputs": [
                {
                    "internalType": "address",
                    "name": "spender",
                    "type": "address"
                },
                {
                    "internalType": "uint256",
                    "name": "amount",
                    "type": "uint256"
                }
            ],
            "name": "approve",
            "outputs": [
                {
                    "internalType": "bool",
                    "name": "",
                    "type": "bool"
                }
            ],
            "stateMutability": "nonpayable",
            "type": "function"
        },
        {
            "inputs": [],
            "name": "asset",
            "outputs": [
                {
                    "internalType": "contract ERC20",
                    "name": "",
                    "type": "address"
                }
            ],
            "stateMutability": "view",
            "type": "function"
        },
        {
            "inputs": [
                {
                    "internalType": "address",
                    "name": "",
                    "type": "address"
                }
            ],
            "name": "balanceOf",
            "outputs": [
                {
                    "internalType": "uint256",
                    "name": "",
                    "type": "uint256"
                }
            ],
            "stateMutability": "view",
            "type": "function"
        },
        {
            "inputs": [
                {
                    "internalType": "uint256",
                    "name": "shares",
                    "type": "uint256"
                }
            ],
            "name": "convertToAssets",
            "outputs": [
                {
                    "internalType": "uint256",
                    "name": "",
                    "type": "uint256"
                }
            ],
            "stateMutability": "view",
            "type": "function"
        },
        {
            "inputs": [
                {
                    "internalType": "uint256",
                    "name": "assets",
                    "type": "uint256"
                }
            ],
            "name": "convertToShares",
            "outputs": [
                {
                    "internalType": "uint256",
                    "name": "",
                    "type": "uint256"
                }
            ],
            "stateMutability": "view",
            "type": "function"
        },
        {
            "inputs": [],
            "name": "dataProvider",
            "outputs": [
                {
                    "internalType": "contract IAaveProtocolDataProvider",
                    "name": "",
                    "type": "address"
                }
            ],
            "stateMutability": "view",
            "type": "function"
        },
        {
            "inputs": [],
            "name": "debtToken",
            "outputs": [
                {
                    "internalType": "address",
                    "name": "",
                    "type": "address"
                }
            ],
            "stateMutability": "view",
            "type": "function"
        },
        {
            "inputs": [],
            "name": "decimals",
            "outputs": [
                {
                    "internalType": "uint8",
                    "name": "",
                    "type": "uint8"
                }
            ],
            "stateMutability": "view",
            "type": "function"
        },
        {
            "inputs": [
                {
                    "internalType": "uint256",
                    "name": "assets",
                    "type": "uint256"
                },
                {
                    "internalType": "address",
                    "name": "receiver",
                    "type": "address"
                }
            ],
            "name": "deposit",
            "outputs": [
                {
                    "internalType": "uint256",
                    "name": "shares",
                    "type": "uint256"
                }
            ],
            "stateMutability": "nonpayable",
            "type": "function"
        },
        {
            "inputs": [],
            "name": "factory",
            "outputs": [
                {
                    "internalType": "address",
                    "name": "",
                    "type": "address"
                }
            ],
            "stateMutability": "view",
            "type": "function"
        },
        {
            "inputs": [],
            "name": "getCollateralETH",
            "outputs": [
                {
                    "internalType": "uint256",
                    "name": "",
                    "type": "uint256"
                }
            ],
            "stateMutability": "view",
            "type": "function"
        },
        {
            "inputs": [],
            "name": "getCurrentLtv",
            "outputs": [
                {
                    "internalType": "uint256",
                    "name": "",
                    "type": "uint256"
                }
            ],
            "stateMutability": "view",
            "type": "function"
        },
        {
            "inputs": [],
            "name": "getDebtETH",
            "outputs": [
                {
                    "internalType": "uint256",
                    "name": "",
                    "type": "uint256"
                }
            ],
            "stateMutability": "view",
            "type": "function"
        },
        {
            "inputs": [],
            "name": "getModuleApr",
            "outputs": [
                {
                    "internalType": "uint256",
                    "name": "",
                    "type": "uint256"
                }
            ],
            "stateMutability": "view",
            "type": "function"
        },
        {
            "inputs": [],
            "name": "getReward",
            "outputs": [
                {
                    "internalType": "uint256",
                    "name": "",
                    "type": "uint256"
                }
            ],
            "stateMutability": "view",
            "type": "function"
        },
        {
            "inputs": [],
            "name": "implementation",
            "outputs": [
                {
                    "internalType": "address",
                    "name": "",
                    "type": "address"
                }
            ],
            "stateMutability": "view",
            "type": "function"
        },
        {
            "inputs": [
                {
                    "internalType": "address",
                    "name": "_asset",
                    "type": "address"
                },
                {
                    "internalType": "address",
                    "name": "_product",
                    "type": "address"
                },
                {
                    "internalType": "address",
                    "name": "_source",
                    "type": "address"
                },
                {
                    "internalType": "address",
                    "name": "_implementation",
                    "type": "address"
                }
            ],
            "name": "initialize",
            "outputs": [],
            "stateMutability": "nonpayable",
            "type": "function"
        },
        {
            "inputs": [
                {
                    "internalType": "address",
                    "name": "_target",
                    "type": "address"
                }
            ],
            "name": "initializeStrategy",
            "outputs": [],
            "stateMutability": "nonpayable",
            "type": "function"
        },
        {
            "inputs": [],
            "name": "lendingPool",
            "outputs": [
                {
                    "internalType": "contract IAaveLendingPool",
                    "name": "",
                    "type": "address"
                }
            ],
            "stateMutability": "view",
            "type": "function"
        },
        {
            "inputs": [],
            "name": "lowerBoundLtv",
            "outputs": [
                {
                    "internalType": "uint64",
                    "name": "",
                    "type": "uint64"
                }
            ],
            "stateMutability": "view",
            "type": "function"
        },
        {
            "inputs": [
                {
                    "internalType": "address",
                    "name": "",
                    "type": "address"
                }
            ],
            "name": "maxDeposit",
            "outputs": [
                {
                    "internalType": "uint256",
                    "name": "",
                    "type": "uint256"
                }
            ],
            "stateMutability": "view",
            "type": "function"
        },
        {
            "inputs": [
                {
                    "internalType": "address",
                    "name": "",
                    "type": "address"
                }
            ],
            "name": "maxMint",
            "outputs": [
                {
                    "internalType": "uint256",
                    "name": "",
                    "type": "uint256"
                }
            ],
            "stateMutability": "view",
            "type": "function"
        },
        {
            "inputs": [
                {
                    "internalType": "address",
                    "name": "owner",
                    "type": "address"
                }
            ],
            "name": "maxRedeem",
            "outputs": [
                {
                    "internalType": "uint256",
                    "name": "",
                    "type": "uint256"
                }
            ],
            "stateMutability": "view",
            "type": "function"
        },
        {
            "inputs": [
                {
                    "internalType": "address",
                    "name": "owner",
                    "type": "address"
                }
            ],
            "name": "maxWithdraw",
            "outputs": [
                {
                    "internalType": "uint256",
                    "name": "",
                    "type": "uint256"
                }
            ],
            "stateMutability": "view",
            "type": "function"
        },
        {
            "inputs": [
                {
                    "internalType": "uint256",
                    "name": "shares",
                    "type": "uint256"
                },
                {
                    "internalType": "address",
                    "name": "receiver",
                    "type": "address"
                }
            ],
            "name": "mint",
            "outputs": [
                {
                    "internalType": "uint256",
                    "name": "assets",
                    "type": "uint256"
                }
            ],
            "stateMutability": "nonpayable",
            "type": "function"
        },
        {
            "inputs": [],
            "name": "name",
            "outputs": [
                {
                    "internalType": "string",
                    "name": "",
                    "type": "string"
                }
            ],
            "stateMutability": "view",
            "type": "function"
        },
        {
            "inputs": [
                {
                    "internalType": "address",
                    "name": "",
                    "type": "address"
                }
            ],
            "name": "nonces",
            "outputs": [
                {
                    "internalType": "uint256",
                    "name": "",
                    "type": "uint256"
                }
            ],
            "stateMutability": "view",
            "type": "function"
        },
        {
            "inputs": [],
            "name": "oracle",
            "outputs": [
                {
                    "internalType": "contract IPriceOracleGetter",
                    "name": "",
                    "type": "address"
                }
            ],
            "stateMutability": "view",
            "type": "function"
        },
        {
            "inputs": [],
            "name": "owner",
            "outputs": [
                {
                    "internalType": "address",
                    "name": "",
                    "type": "address"
                }
            ],
            "stateMutability": "view",
            "type": "function"
        },
        {
            "inputs": [],
            "name": "pendingOwner",
            "outputs": [
                {
                    "internalType": "address",
                    "name": "",
                    "type": "address"
                }
            ],
            "stateMutability": "view",
            "type": "function"
        },
        {
            "inputs": [
                {
                    "internalType": "address",
                    "name": "owner",
                    "type": "address"
                },
                {
                    "internalType": "address",
                    "name": "spender",
                    "type": "address"
                },
                {
                    "internalType": "uint256",
                    "name": "value",
                    "type": "uint256"
                },
                {
                    "internalType": "uint256",
                    "name": "deadline",
                    "type": "uint256"
                },
                {
                    "internalType": "uint8",
                    "name": "v",
                    "type": "uint8"
                },
                {
                    "internalType": "bytes32",
                    "name": "r",
                    "type": "bytes32"
                },
                {
                    "internalType": "bytes32",
                    "name": "s",
                    "type": "bytes32"
                }
            ],
            "name": "permit",
            "outputs": [],
            "stateMutability": "nonpayable",
            "type": "function"
        },
        {
            "inputs": [
                {
                    "internalType": "uint256",
                    "name": "assets",
                    "type": "uint256"
                }
            ],
            "name": "previewDeposit",
            "outputs": [
                {
                    "internalType": "uint256",
                    "name": "",
                    "type": "uint256"
                }
            ],
            "stateMutability": "view",
            "type": "function"
        },
        {
            "inputs": [
                {
                    "internalType": "uint256",
                    "name": "shares",
                    "type": "uint256"
                }
            ],
            "name": "previewMint",
            "outputs": [
                {
                    "internalType": "uint256",
                    "name": "",
                    "type": "uint256"
                }
            ],
            "stateMutability": "view",
            "type": "function"
        },
        {
            "inputs": [
                {
                    "internalType": "uint256",
                    "name": "shares",
                    "type": "uint256"
                }
            ],
            "name": "previewRedeem",
            "outputs": [
                {
                    "internalType": "uint256",
                    "name": "",
                    "type": "uint256"
                }
            ],
            "stateMutability": "view",
            "type": "function"
        },
        {
            "inputs": [
                {
                    "internalType": "uint256",
                    "name": "assets",
                    "type": "uint256"
                }
            ],
            "name": "previewWithdraw",
            "outputs": [
                {
                    "internalType": "uint256",
                    "name": "",
                    "type": "uint256"
                }
            ],
            "stateMutability": "view",
            "type": "function"
        },
        {
            "inputs": [],
            "name": "product",
            "outputs": [
                {
                    "internalType": "contract ERC20",
                    "name": "",
                    "type": "address"
                }
            ],
            "stateMutability": "view",
            "type": "function"
        },
        {
            "inputs": [],
            "name": "rebalance",
            "outputs": [],
            "stateMutability": "nonpayable",
            "type": "function"
        },
        {
            "inputs": [],
            "name": "rebalanceInterval",
            "outputs": [
                {
                    "internalType": "uint128",
                    "name": "",
                    "type": "uint128"
                }
            ],
            "stateMutability": "view",
            "type": "function"
        },
        {
            "inputs": [],
            "name": "rebalanceRequired",
            "outputs": [
                {
                    "internalType": "bool",
                    "name": "",
                    "type": "bool"
                }
            ],
            "stateMutability": "view",
            "type": "function"
        },
        {
            "inputs": [],
            "name": "rebalanceTimestamp",
            "outputs": [
                {
                    "internalType": "uint128",
                    "name": "",
                    "type": "uint128"
                }
            ],
            "stateMutability": "view",
            "type": "function"
        },
        {
            "inputs": [],
            "name": "recenteringSpeed",
            "outputs": [
                {
                    "internalType": "uint64",
                    "name": "",
                    "type": "uint64"
                }
            ],
            "stateMutability": "view",
            "type": "function"
        },
        {
            "inputs": [
                {
                    "internalType": "uint256",
                    "name": "shares",
                    "type": "uint256"
                },
                {
                    "internalType": "address",
                    "name": "receiver",
                    "type": "address"
                },
                {
                    "internalType": "address",
                    "name": "owner",
                    "type": "address"
                }
            ],
            "name": "redeem",
            "outputs": [
                {
                    "internalType": "uint256",
                    "name": "assets",
                    "type": "uint256"
                }
            ],
            "stateMutability": "nonpayable",
            "type": "function"
        },
        {
            "inputs": [
                {
                    "internalType": "address",
                    "name": "_owner",
                    "type": "address"
                }
            ],
            "name": "setOwner",
            "outputs": [],
            "stateMutability": "nonpayable",
            "type": "function"
        },
        {
            "inputs": [],
            "name": "source",
            "outputs": [
                {
                    "internalType": "contract ERC4626",
                    "name": "",
                    "type": "address"
                }
            ],
            "stateMutability": "view",
            "type": "function"
        },
        {
            "inputs": [],
            "name": "symbol",
            "outputs": [
                {
                    "internalType": "string",
                    "name": "",
                    "type": "string"
                }
            ],
            "stateMutability": "view",
            "type": "function"
        },
        {
            "inputs": [],
            "name": "target",
            "outputs": [
                {
                    "internalType": "contract ERC4626",
                    "name": "",
                    "type": "address"
                }
            ],
            "stateMutability": "view",
            "type": "function"
        },
        {
            "inputs": [],
            "name": "targetLtv",
            "outputs": [
                {
                    "internalType": "uint64",
                    "name": "",
                    "type": "uint64"
                }
            ],
            "stateMutability": "view",
            "type": "function"
        },
        {
            "inputs": [],
            "name": "totalAssets",
            "outputs": [
                {
                    "internalType": "uint256",
                    "name": "",
                    "type": "uint256"
                }
            ],
            "stateMutability": "view",
            "type": "function"
        },
        {
            "inputs": [],
            "name": "totalSupply",
            "outputs": [
                {
                    "internalType": "uint256",
                    "name": "",
                    "type": "uint256"
                }
            ],
            "stateMutability": "view",
            "type": "function"
        },
        {
            "inputs": [],
            "name": "totalTargetBalance",
            "outputs": [
                {
                    "internalType": "uint256",
                    "name": "",
                    "type": "uint256"
                }
            ],
            "stateMutability": "view",
            "type": "function"
        },
        {
            "inputs": [
                {
                    "internalType": "address",
                    "name": "to",
                    "type": "address"
                },
                {
                    "internalType": "uint256",
                    "name": "amount",
                    "type": "uint256"
                }
            ],
            "name": "transfer",
            "outputs": [
                {
                    "internalType": "bool",
                    "name": "",
                    "type": "bool"
                }
            ],
            "stateMutability": "nonpayable",
            "type": "function"
        },
        {
            "inputs": [
                {
                    "internalType": "address",
                    "name": "from",
                    "type": "address"
                },
                {
                    "internalType": "address",
                    "name": "to",
                    "type": "address"
                },
                {
                    "internalType": "uint256",
                    "name": "amount",
                    "type": "uint256"
                }
            ],
            "name": "transferFrom",
            "outputs": [
                {
                    "internalType": "bool",
                    "name": "",
                    "type": "bool"
                }
            ],
            "stateMutability": "nonpayable",
            "type": "function"
        },
        {
            "inputs": [],
            "name": "upperBoundLtv",
            "outputs": [
                {
                    "internalType": "uint64",
                    "name": "",
                    "type": "uint64"
                }
            ],
            "stateMutability": "view",
            "type": "function"
        },
        {
            "inputs": [
                {
                    "internalType": "uint256",
                    "name": "assets",
                    "type": "uint256"
                },
                {
                    "internalType": "address",
                    "name": "receiver",
                    "type": "address"
                },
                {
                    "internalType": "address",
                    "name": "owner",
                    "type": "address"
                }
            ],
            "name": "withdraw",
            "outputs": [
                {
                    "internalType": "uint256",
                    "name": "shares",
                    "type": "uint256"
                }
            ],
            "stateMutability": "nonpayable",
            "type": "function"
        }
    ],
    "bytecode": "6101806040523480156200001257600080fd5b5060405162003fef38038062003fef8339810160408190526200003591620004a0565b601080546001600160a01b0319166001600160a01b038d1617905589516001600160401b038316908c908c908c9062000076906001906020850190620002f8565b5080516200008c906002906020840190620002f8565b505050506001600160801b03166080526001600160401b0384811690861611620000eb5760405162461bcd60e51b8152600401620000e29060208082526004908201526310a62a2b60e11b604082015260600190565b60405180910390fd5b6000846001600160401b0316116200012f5760405162461bcd60e51b8152600401620000e29060208082526004908201526310a62a2b60e11b604082015260600190565b846001600160401b0316836001600160401b0316116200017b5760405162461bcd60e51b8152600401620000e29060208082526004908201526310a62a2b60e11b604082015260600190565b620f4240836001600160401b031610620001c15760405162461bcd60e51b8152600401620000e29060208082526004908201526310a62a2b60e11b604082015260600190565b6000826001600160401b031611620002115760405162461bcd60e51b8152602060048201526012602482015271085c9958985b185b98d9525b9d195c9d985b60721b6044820152606401620000e2565b6000816001600160401b031611620002605760405162461bcd60e51b8152602060048201526011602482015270085c9958d95b9d195c9a5b99d4dc195959607a1b6044820152606401620000e2565b620f4240816001600160401b031610620002b15760405162461bcd60e51b8152602060048201526011602482015270085c9958d95b9d195c9a5b99d4dc195959607a1b6044820152606401620000e2565b6001600160a01b0397881661012052958716610140525092909416610160526001600160401b0390811660c05292831660e0528216610100521660a05250620005f8915050565b8280546200030690620005bc565b90600052602060002090601f0160209004810192826200032a576000855562000375565b82601f106200034557805160ff191683800117855562000375565b8280016001018555821562000375579182015b828111156200037557825182559160200191906001019062000358565b506200038392915062000387565b5090565b5b8082111562000383576000815560010162000388565b80516001600160a01b0381168114620003b657600080fd5b919050565b634e487b7160e01b600052604160045260246000fd5b600082601f830112620003e357600080fd5b81516001600160401b0380821115620004005762000400620003bb565b604051601f8301601f19908116603f011681019082821181831017156200042b576200042b620003bb565b816040528381526020925086838588010111156200044857600080fd5b600091505b838210156200046c57858201830151818301840152908201906200044d565b838211156200047e5760008385830101525b9695505050505050565b80516001600160401b0381168114620003b657600080fd5b60008060008060008060008060008060006101608c8e031215620004c357600080fd5b620004ce8c6200039e565b60208d0151909b506001600160401b03811115620004eb57600080fd5b620004f98e828f01620003d1565b60408e0151909b5090506001600160401b038111156200051857600080fd5b620005268e828f01620003d1565b9950506200053760608d016200039e565b97506200054760808d016200039e565b96506200055760a08d016200039e565b95506200056760c08d0162000488565b94506200057760e08d0162000488565b9350620005886101008d0162000488565b9250620005996101208d0162000488565b9150620005aa6101408d0162000488565b90509295989b509295989b9093969950565b600181811c90821680620005d157607f821691505b602082108103620005f257634e487b7160e01b600052602260045260246000fd5b50919050565b60805160a05160c05160e051610100516101205161014051610160516138cd62000722600039600081816105f6015261255301526000818161070101528181611c0201528181611db901528181611edf0152611f7f0152600081816106ac01528181610af001528181610c8001528181610ff9015281816112320152818161132c015281816114d7015281816116ef01528181611ac1015281816120130152818161204c015281816123b90152818161262d015281816128be0152612eb001526000818161064401528181610d4801528181611d3501526124df01526000818161046e01528181610d0c01526124b1015260008181610842015261245b01526000818161055b015261238d01526000818161042601528181610c250152610da901526138cd6000f3fe608060405234801561001057600080fd5b506004361061038e5760003560e01c80638469415f116101de578063c45a01551161010f578063dd62ed3e116100ad578063ef8b30f71161007c578063ef8b30f714610864578063f4afdebd14610877578063f8c8765e1461087f578063f8d898981461089257600080fd5b8063dd62ed3e146107f7578063e30c397814610822578063ebbc496514610835578063ec921dc11461083d57600080fd5b8063ce96cb77116100e9578063ce96cb7714610795578063d4b83992146107a8578063d505accf146107bb578063d905777e146107ce57600080fd5b8063c45a01551461076f578063c63d75b61461052e578063c6e6f5921461078257600080fd5b8063adbd0f8f1161017c578063b3d7f6b911610156578063b3d7f6b914610723578063b460af9414610736578063ba08765214610749578063bf9ce9521461075c57600080fd5b8063adbd0f8f146106e1578063b01db078146106f4578063b334ed86146106fc57600080fd5b806395d89b41116101b857806395d89b411461068c578063a0c1f15e14610694578063a59a9973146106a7578063a9059cbb146106ce57600080fd5b80638469415f1461063f5780638da5cb5b1461066657806394bf804d1461067957600080fd5b806338d52e0f116102c3578063678cbcb5116102615780637d7c2a1c116102305780637d7c2a1c146105e95780637dc0d1d0146105f15780637ecebe00146106185780637f240fbf1461063857600080fd5b8063678cbcb51461059057806367e828bf146105a35780636e553f65146105b657806370a08231146105c957600080fd5b8063402d267d1161029d578063402d267d1461052e5780634cdad5061461054357806350297d8c146105565780635c60da1b1461057d57600080fd5b806338d52e0f146104f35780633a7942461461051e5780633d18b9121461052657600080fd5b806318160ddd1161033057806323b872dd1161030a57806323b872dd146104b15780632bf8eb1d146104c4578063313ce567146104cc5780633644e515146104eb57600080fd5b806318160ddd14610460578063203222aa1461046957806321342b38146104a957600080fd5b8063095ea7b31161036c578063095ea7b3146103d65780630a28a477146103f957806313af40351461040c57806316d1d9161461042157600080fd5b806301e1d1141461039357806306fdde03146103ae57806307a2d13a146103c3575b600080fd5b61039b6108a5565b6040519081526020015b60405180910390f35b6103b6610917565b6040516103a59190613135565b61039b6103d1366004613168565b6109a5565b6103e96103e4366004613199565b6109d2565b60405190151581526020016103a5565b61039b610407366004613168565b610a3e565b61041f61041a3660046131c5565b610a5e565b005b6104487f000000000000000000000000000000000000000000000000000000000000000081565b6040516001600160801b0390911681526020016103a5565b61039b60045481565b6104907f000000000000000000000000000000000000000000000000000000000000000081565b60405167ffffffffffffffff90911681526020016103a5565b61039b610acc565b6103e96104bf3660046131e2565b610b80565b61039b610b8d565b6003546104d99060ff1681565b60405160ff90911681526020016103a5565b61039b610bfb565b600a54610506906001600160a01b031681565b6040516001600160a01b0390911681526020016103a5565b6103e9610c15565b61039b610d8c565b61039b61053c3660046131c5565b5060001990565b61039b610551366004613168565b610df0565b6104907f000000000000000000000000000000000000000000000000000000000000000081565b600f54610506906001600160a01b031681565b61041f61059e3660046131c5565b610e01565b600c54610506906001600160a01b031681565b61039b6105c4366004613223565b610f21565b61039b6105d73660046131c5565b60056020526000908152604090205481565b61041f6110c4565b6105067f000000000000000000000000000000000000000000000000000000000000000081565b61039b6106263660046131c5565b60096020526000908152604090205481565b600061039b565b6104907f000000000000000000000000000000000000000000000000000000000000000081565b601054610506906001600160a01b031681565b61039b610687366004613223565b611193565b6103b66112f1565b601354610506906001600160a01b031681565b6105067f000000000000000000000000000000000000000000000000000000000000000081565b6103e96106dc366004613199565b6112fe565b601254610448906001600160801b031681565b61039b61130a565b6105067f000000000000000000000000000000000000000000000000000000000000000081565b61039b610731366004613168565b6113a3565b61039b610744366004613253565b6113c2565b61039b610757366004613253565b61159c565b600b54610506906001600160a01b031681565b600e54610506906001600160a01b031681565b61039b610790366004613168565b6117a7565b61039b6107a33660046131c5565b6117c7565b600d54610506906001600160a01b031681565b61041f6107c93660046132a4565b6117e9565b61039b6107dc3660046131c5565b6001600160a01b031660009081526005602052604090205490565b61039b610805366004613315565b600660209081526000928352604080842090915290825290205481565b601154610506906001600160a01b031681565b61041f611a2d565b6104907f000000000000000000000000000000000000000000000000000000000000000081565b61039b610872366004613168565b611a94565b61039b611a9f565b61041f61088d366004613343565b611b38565b601454610506906001600160a01b031681565b6013546040516370a0823160e01b81523060048201526000916001600160a01b0316906370a0823190602401602060405180830381865afa1580156108ee573d6000803e3d6000fd5b505050506040513d601f19601f82011682018060405250810190610912919061339f565b905090565b60018054610924906133b8565b80601f0160208091040260200160405190810160405280929190818152602001828054610950906133b8565b801561099d5780601f106109725761010080835404028352916020019161099d565b820191906000526020600020905b81548152906001019060200180831161098057829003601f168201915b505050505081565b60045460009080156109c9576109c46109bc6108a5565b8490836120c5565b6109cb565b825b9392505050565b3360008181526006602090815260408083206001600160a01b038716808552925280832085905551919290917f8c5be1e5ebec7d5bd14f71427d1e84f3dd0314c0f7b2291e5b200ac8c7c3b92590610a2d9086815260200190565b60405180910390a350600192915050565b60045460009080156109c9576109c481610a566108a5565b8591906120e4565b6010546001600160a01b03163314610aaa5760405162461bcd60e51b815260206004820152600a60248201526908585d5d1bdc9a5e995960b21b60448201526064015b60405180910390fd5b601180546001600160a01b0319166001600160a01b0392909216919091179055565b604051632fe4a15f60e21b8152306004820152600090819081906001600160a01b037f0000000000000000000000000000000000000000000000000000000000000000169063bf92857c9060240160c060405180830381865afa158015610b37573d6000803e3d6000fd5b505050506040513d601f19601f82011682018060405250810190610b5b91906133f2565b5093955091935060009250610b789150839050620f4240856120e4565b949350505050565b6000610b78848484612112565b600d546000906001600160a01b0316610ba8576109126108a5565b600d60009054906101000a90046001600160a01b03166001600160a01b03166301e1d1146040518163ffffffff1660e01b8152600401602060405180830381865afa1580156108ee573d6000803e3d6000fd5b60006007544614610c0e576109126121f2565b5060085490565b6012546000906001600160801b037f0000000000000000000000000000000000000000000000000000000000000000811691610c52911642613452565b1115610c5e5750600190565b604051632fe4a15f60e21b815230600482015260009081906001600160a01b037f0000000000000000000000000000000000000000000000000000000000000000169063bf92857c9060240160c060405180830381865afa158015610cc7573d6000803e3d6000fd5b505050506040513d601f19601f82011682018060405250810190610ceb91906133f2565b5093955091935060009250610d089150839050620f4240856120e4565b90507f000000000000000000000000000000000000000000000000000000000000000067ffffffffffffffff16811015610d46576001935050505090565b7f000000000000000000000000000000000000000000000000000000000000000067ffffffffffffffff16811115610d82576001935050505090565b6000935050505090565b60045460009066470de4df82000082610dd3826001600160801b037f0000000000000000000000000000000000000000000000000000000000000000166301e133806120c5565b9050610de88382670de0b6b3a76400006120c5565b935050505090565b6000610dfb826109a5565b92915050565b600d546001600160a01b031615610e495760405162461bcd60e51b815260206004820152600c60248201526b085a5b9a5d1a585b1a5e995960a21b6044820152606401610aa1565b600e546001600160a01b03163314610e8e5760405162461bcd60e51b815260206004820152600860248201526721666163746f727960c01b6044820152606401610aa1565b600d80546001600160a01b0319166001600160a01b03838116918217909255600b5460405163095ea7b360e01b8152600481019290925260001960248301529091169063095ea7b3906044016020604051808303816000875af1158015610ef9573d6000803e3d6000fd5b505050506040513d601f19601f82011682018060405250810190610f1d919061347e565b5050565b600c5460009082906001600160a01b0316338114610f515760405162461bcd60e51b8152600401610aa190613499565b806001600160a01b0316826001600160a01b031614610f825760405162461bcd60e51b8152600401610aa190613499565b610f8b85611a94565b925082600003610fc75760405162461bcd60e51b81526020600482015260076024820152662173686172657360c81b6044820152606401610aa1565b600a54610fdf906001600160a01b031633308861228c565b600a5460405163e8eda9df60e01b81526001600160a01b037f000000000000000000000000000000000000000000000000000000000000000081169263e8eda9df92611039929190911690899030906000906004016134ba565b600060405180830381600087803b15801561105357600080fd5b505af1158015611067573d6000803e3d6000fd5b50505050611075848461230f565b60408051868152602081018590526001600160a01b0386169133917fdcbc1c05240f31ff3ad067ef1ee35ce4997762752e3a095284754544f4c709d791015b60405180910390a3505092915050565b6110cc610c15565b6111105760405162461bcd60e51b8152602060048201526015602482015274085c9958985b185b98d9539bdd14995c5d5a5c9959605a1b6044820152606401610aa1565b611118612369565b601280546fffffffffffffffffffffffffffffffff1916426001600160801b0316179055611144612936565b337f9d87982806b4b9230ca8e2416e1584fbff27a9eebcfadf57dbb57ea87ec8ef2361116e610d8c565b601254604080519283526001600160801b0390911660208301520160405180910390a2565b600c5460009082906001600160a01b03163381146111c35760405162461bcd60e51b8152600401610aa190613499565b806001600160a01b0316826001600160a01b0316146111f45760405162461bcd60e51b8152600401610aa190613499565b6111fd856113a3565b600a54909350611218906001600160a01b031633308661228c565b600a5460405163e8eda9df60e01b81526001600160a01b037f000000000000000000000000000000000000000000000000000000000000000081169263e8eda9df92611272929190911690879030906000906004016134ba565b600060405180830381600087803b15801561128c57600080fd5b505af11580156112a0573d6000803e3d6000fd5b505050506112ae848661230f565b60408051848152602081018790526001600160a01b0386169133917fdcbc1c05240f31ff3ad067ef1ee35ce4997762752e3a095284754544f4c709d791016110b4565b60028054610924906133b8565b60006109cb8383612949565b604051632fe4a15f60e21b815230600482015260009081906001600160a01b037f0000000000000000000000000000000000000000000000000000000000000000169063bf92857c9060240160c060405180830381865afa158015611373573d6000803e3d6000fd5b505050506040513d601f19601f8201168201806040525081019061139791906133f2565b50939695505050505050565b60045460009080156109c9576109c46113ba6108a5565b8490836120e4565b600c5460009083906001600160a01b03163381146113f25760405162461bcd60e51b8152600401610aa190613499565b806001600160a01b0316826001600160a01b0316146114235760405162461bcd60e51b8152600401610aa190613499565b61142c86610a3e565b9250336001600160a01b0385161461149c576001600160a01b0384166000908152600660209081526040808320338452909152902054600019811461149a576114758482613452565b6001600160a01b03861660009081526006602090815260408083203384529091529020555b505b6114a684846129af565b600a54604051631a4ca37b60e21b81526001600160a01b0391821660048201526024810188905286821660448201527f0000000000000000000000000000000000000000000000000000000000000000909116906369328dec906064016020604051808303816000875af1158015611522573d6000803e3d6000fd5b505050506040513d601f19601f82011682018060405250810190611546919061339f565b5060408051878152602081018590526001600160a01b03808716929088169133917ffbde797d201c681b91056529119e0b02407c7bb96a4a2c75c01fc9667232c8db91015b60405180910390a450509392505050565b600c5460009083906001600160a01b03163381146115cc5760405162461bcd60e51b8152600401610aa190613499565b806001600160a01b0316826001600160a01b0316146115fd5760405162461bcd60e51b8152600401610aa190613499565b336001600160a01b0385161461166b576001600160a01b03841660009081526006602090815260408083203384529091529020546000198114611669576116448782613452565b6001600160a01b03861660009081526006602090815260408083203384529091529020555b505b61167486610df0565b9250826000036116b45760405162461bcd60e51b815260206004820152600b60248201526a5a45524f5f41535345545360a81b6044820152606401610aa1565b6116be84876129af565b600a54604051631a4ca37b60e21b81526001600160a01b0391821660048201526024810185905286821660448201527f0000000000000000000000000000000000000000000000000000000000000000909116906369328dec906064016020604051808303816000875af115801561173a573d6000803e3d6000fd5b505050506040513d601f19601f8201168201806040525081019061175e919061339f565b5060408051848152602081018890526001600160a01b03808716929088169133917ffbde797d201c681b91056529119e0b02407c7bb96a4a2c75c01fc9667232c8db910161158b565b60045460009080156109c9576109c4816117bf6108a5565b8591906120c5565b6001600160a01b038116600090815260056020526040812054610dfb906109a5565b428410156118395760405162461bcd60e51b815260206004820152601760248201527f5045524d49545f444541444c494e455f455850495245440000000000000000006044820152606401610aa1565b60006001611845610bfb565b6001600160a01b038a811660008181526009602090815260409182902080546001810190915582517f6e71edae12b1b97f4d1f60370fef10105fa2faae0126114a169c64845d6126c98184015280840194909452938d166060840152608083018c905260a083019390935260c08083018b90528151808403909101815260e08301909152805192019190912061190160f01b6101008301526101028201929092526101228101919091526101420160408051601f198184030181528282528051602091820120600084529083018083525260ff871690820152606081018590526080810184905260a0016020604051602081039080840390855afa158015611951573d6000803e3d6000fd5b5050604051601f1901519150506001600160a01b038116158015906119875750876001600160a01b0316816001600160a01b0316145b6119c45760405162461bcd60e51b815260206004820152600e60248201526d24a72b20a624a22fa9a4a3a722a960911b6044820152606401610aa1565b6001600160a01b0390811660009081526006602090815260408083208a8516808552908352928190208990555188815291928a16917f8c5be1e5ebec7d5bd14f71427d1e84f3dd0314c0f7b2291e5b200ac8c7c3b925910160405180910390a350505050505050565b6011546001600160a01b03163314611a745760405162461bcd60e51b815260206004820152600a60248201526908585d5d1bdc9a5e995960b21b6044820152606401610aa1565b601080546001600160a01b03199081163317909155601180549091169055565b6000610dfb826117a7565b604051632fe4a15f60e21b815230600482015260009081906001600160a01b037f0000000000000000000000000000000000000000000000000000000000000000169063bf92857c9060240160c060405180830381865afa158015611b08573d6000803e3d6000fd5b505050506040513d601f19601f82011682018060405250810190611b2c91906133f2565b50929695505050505050565b600054610100900460ff1615808015611b585750600054600160ff909116105b80611b725750303b158015611b72575060005460ff166001145b611bd55760405162461bcd60e51b815260206004820152602e60248201527f496e697469616c697a61626c653a20636f6e747261637420697320616c72656160448201526d191e481a5b9a5d1a585b1a5e995960921b6064820152608401610aa1565b6000805460ff191660011790558015611bf8576000805461ff0019166101001790555b60008060008060007f00000000000000000000000000000000000000000000000000000000000000006001600160a01b0316633e1501418b6040518263ffffffff1660e01b8152600401611c5b91906001600160a01b0391909116815260200190565b61014060405180830381865afa158015611c79573d6000803e3d6000fd5b505050506040513d601f19601f82011682018060405250810190611c9d91906134e7565b509c50919a509496508a9550611cea9450505050505760405162461bcd60e51b815260206004820152600c60248201526b21617373657441637469766560a01b6044820152606401610aa1565b83611d2a5760405162461bcd60e51b815260206004820152601060248201526f08585cdcd95d10dbdb1b185d195c985b60821b6044820152606401610aa1565b67ffffffffffffffff7f000000000000000000000000000000000000000000000000000000000000000016611d6082606461357e565b1015611d9a5760405162461bcd60e51b815260206004820152600960248201526810b0b9b9b2ba262a2b60b91b6044820152606401610aa1565b604051633e15014160e01b81526001600160a01b038a811660048301527f00000000000000000000000000000000000000000000000000000000000000001690633e1501419060240161014060405180830381865afa158015611e01573d6000803e3d6000fd5b505050506040513d601f19601f82011682018060405250810190611e2591906134e7565b509a50909850899650611e72955050505050505760405162461bcd60e51b815260206004820152600e60248201526d2170726f6475637441637469766560901b6044820152606401610aa1565b81611eb45760405162461bcd60e51b81526020600482015260126024820152712170726f64756374426f72726f7761626c6560701b6044820152606401610aa1565b611ec08a8a8a8a612a11565b6040516334924edb60e21b81526001600160a01b038b811660048301527f0000000000000000000000000000000000000000000000000000000000000000169063d2493b6c90602401606060405180830381865afa158015611f26573d6000803e3d6000fd5b505050506040513d601f19601f82011682018060405250810190611f4a919061359d565b5050601380546001600160a01b0319166001600160a01b039283161790556040516334924edb60e21b81528a821660048201527f00000000000000000000000000000000000000000000000000000000000000009091169063d2493b6c90602401606060405180830381865afa158015611fc8573d6000803e3d6000fd5b505050506040513d601f19601f82011682018060405250810190611fec919061359d565b601480546001600160a01b0319166001600160a01b0392831617905561203a92508c1690507f0000000000000000000000000000000000000000000000000000000000000000600019612c92565b601354612073906001600160a01b03167f0000000000000000000000000000000000000000000000000000000000000000600019612c92565b505050505080156120be576000805461ff0019169055604051600181527f7f26b83ff96e1f2b6a682f133852f6798a09c465da95921460cefb38474024989060200160405180910390a15b5050505050565b8282028115158415858304851417166120dd57600080fd5b0492915050565b8282028115158415858304851417166120fc57600080fd5b6001826001830304018115150290509392505050565b6001600160a01b0383166000908152600660209081526040808320338452909152812054600019811461216e576121498382613452565b6001600160a01b03861660009081526006602090815260408083203384529091529020555b6001600160a01b03851660009081526005602052604081208054859290612196908490613452565b90915550506001600160a01b0380851660008181526005602052604090819020805487019055519091871690600080516020613878833981519152906121df9087815260200190565b60405180910390a3506001949350505050565b60007f8b73c3c69bb8fe3d512ecc4cf759cc79239f7b179b0ffacaa9a75d522b39400f600160405161222491906135df565b6040805191829003822060208301939093528101919091527fc89efdaa54c0f20c7adf612882df0950f5a951637e0307cdcb4c672f298b8bc660608201524660808201523060a082015260c00160405160208183030381529060405280519060200120905090565b60006040516323b872dd60e01b81528460048201528360248201528260448201526020600060648360008a5af13d15601f3d11600160005114161716915050806120be5760405162461bcd60e51b81526020600482015260146024820152731514905394d1915497d19493d357d1905253115160621b6044820152606401610aa1565b8060046000828254612321919061367a565b90915550506001600160a01b03821660008181526005602090815260408083208054860190555184815260008051602061387883398151915291015b60405180910390a35050565b612371612d0f565b604051632fe4a15f60e21b8152306004820152600090819081907f000000000000000000000000000000000000000000000000000000000000000067ffffffffffffffff16907f00000000000000000000000000000000000000000000000000000000000000006001600160a01b03169063bf92857c9060240160c060405180830381865afa158015612408573d6000803e3d6000fd5b505050506040513d601f19601f8201168201806040525081019061242c91906133f2565b50939750919550600092506124499150859050620f4240876120e4565b9050600061248567ffffffffffffffff7f00000000000000000000000000000000000000000000000000000000000000001684620f42406120c5565b6124a061249585620f4240613452565b8490620f42406120c5565b6124aa919061367a565b90506125137f000000000000000000000000000000000000000000000000000000000000000067ffffffffffffffff1661250e7f000000000000000000000000000000000000000000000000000000000000000067ffffffffffffffff1684612f1a565b612f30565b93506000925061252b915085905083620f42406120c5565b600b5460405163b3596f0760e01b81526001600160a01b0391821660048201529192506000917f00000000000000000000000000000000000000000000000000000000000000009091169063b3596f0790602401602060405180830381865afa15801561259c573d6000803e3d6000fd5b505050506040513d601f19601f820116820180604052508101906125c0919061339f565b9050838211156127775760006125d68584613452565b905060006125ed82670de0b6b3a7640000856120c5565b600b5460405163a415bcad60e01b81526001600160a01b0391821660048201526024810183905260026044820152600060648201523060848201529192507f0000000000000000000000000000000000000000000000000000000000000000169063a415bcad9060a401600060405180830381600087803b15801561267157600080fd5b505af1158015612685573d6000803e3d6000fd5b5050600b546040516370a0823160e01b8152306004820152600093506001600160a01b0390911691506370a0823190602401602060405180830381865afa1580156126d4573d6000803e3d6000fd5b505050506040513d601f19601f820116820180604052508101906126f8919061339f565b600d54604051636e553f6560e01b8152600481018390523060248201529192506001600160a01b031690636e553f65906044016020604051808303816000875af115801561274a573d6000803e3d6000fd5b505050506040513d601f19601f8201168201806040525081019061276e919061339f565b505050506120be565b60006127838386613452565b9050600061279a82670de0b6b3a7640000856120c5565b600d54604051635d043b2960e11b815260048101839052306024820181905260448201529192506001600160a01b03169063ba087652906064016020604051808303816000875af11580156127f3573d6000803e3d6000fd5b505050506040513d601f19601f82011682018060405250810190612817919061339f565b50600b546040516370a0823160e01b81523060048201526000916001600160a01b0316906370a0823190602401602060405180830381865afa158015612861573d6000803e3d6000fd5b505050506040513d601f19601f82011682018060405250810190612885919061339f565b600b5460405163573ade8160e01b81526001600160a01b03918216600482015260248101839052600260448201523060648201529192507f0000000000000000000000000000000000000000000000000000000000000000169063573ade81906084016020604051808303816000875af1158015612907573d6000803e3d6000fd5b505050506040513d601f19601f8201168201806040525081019061292b919061339f565b505050505050505050565b61294733612942610d8c565b61230f565b565b3360009081526005602052604081208054839190839061296a908490613452565b90915550506001600160a01b0383166000818152600560205260409081902080548501905551339060008051602061387883398151915290610a2d9086815260200190565b6001600160a01b038216600090815260056020526040812080548392906129d7908490613452565b90915550506004805482900390556040518181526000906001600160a01b038416906000805160206138788339815191529060200161235d565b600054610100900460ff16612a385760405162461bcd60e51b8152600401610aa190613692565b6000846001600160a01b03166395d89b416040518163ffffffff1660e01b8152600401600060405180830381865afa158015612a78573d6000803e3d6000fd5b505050506040513d6000823e601f3d908101601f19168201604052612aa091908101906136f3565b90506000846001600160a01b03166395d89b416040518163ffffffff1660e01b8152600401600060405180830381865afa158015612ae2573d6000803e3d6000fd5b505050506040513d6000823e601f3d908101601f19168201604052612b0a91908101906136f3565b90506000836001600160a01b03166306fdde036040518163ffffffff1660e01b8152600401600060405180830381865afa158015612b4c573d6000803e3d6000fd5b505050506040513d6000823e601f3d908101601f19168201604052612b7491908101906136f3565b8383604051602001612b88939291906137a0565b60405160208183030381529060405290506000846001600160a01b03166395d89b416040518163ffffffff1660e01b8152600401600060405180830381865afa158015612bd9573d6000803e3d6000fd5b505050506040513d6000823e601f3d908101601f19168201604052612c0191908101906136f3565b8484604051602001612c1593929190613800565b6040516020818303038152906040529050612c31888383612f40565b600b80546001600160a01b03808a166001600160a01b031992831617909255600c80548984169083168117909155600e8054831633179055600f8054898516931692909217909155612c88918a1690600019612c92565b5050505050505050565b600060405163095ea7b360e01b8152836004820152826024820152602060006044836000895af13d15601f3d1160016000511416171691505080612d095760405162461bcd60e51b815260206004820152600e60248201526d1054141493d59157d1905253115160921b6044820152606401610aa1565b50505050565b6000612d19610b8d565b6014546040516370a0823160e01b81523060048201529192506000916001600160a01b03909116906370a0823190602401602060405180830381865afa158015612d67573d6000803e3d6000fd5b505050506040513d601f19601f82011682018060405250810190612d8b919061339f565b905080821115610f1d57600a546001600160a01b03166000612dad8385613452565b600d54604051632d182be560e21b815260048101839052306024820181905260448201529192506001600160a01b03169063b460af94906064016020604051808303816000875af1158015612e06573d6000803e3d6000fd5b505050506040513d601f19601f82011682018060405250810190612e2a919061339f565b506040516370a0823160e01b81523060048201526000906001600160a01b038416906370a0823190602401602060405180830381865afa158015612e72573d6000803e3d6000fd5b505050506040513d601f19601f82011682018060405250810190612e96919061339f565b60405163e8eda9df60e01b81529091506001600160a01b037f0000000000000000000000000000000000000000000000000000000000000000169063e8eda9df90612eec908690859030906000906004016134ba565b600060405180830381600087803b158015612f0657600080fd5b505af115801561292b573d6000803e3d6000fd5b6000818310612f2957816109cb565b5090919050565b600081831015612f2957816109cb565b600054610100900460ff16612f675760405162461bcd60e51b8152600401610aa190613692565b6000836001600160a01b031663313ce5676040518163ffffffff1660e01b8152600401602060405180830381865afa158015612fa7573d6000803e3d6000fd5b505050506040513d601f19601f82011682018060405250810190612fcb919061385a565b9050612fd8838383612ffe565b5050600a80546001600160a01b0319166001600160a01b03939093169290921790915550565b600054610100900460ff166130255760405162461bcd60e51b8152600401610aa190613692565b8251613038906001906020860190613070565b50815161304c906002906020850190613070565b506003805460ff191660ff8316179055466007556130686121f2565b600855505050565b82805461307c906133b8565b90600052602060002090601f01602090048101928261309e57600085556130e4565b82601f106130b757805160ff19168380011785556130e4565b828001600101855582156130e4579182015b828111156130e45782518255916020019190600101906130c9565b506130f09291506130f4565b5090565b5b808211156130f057600081556001016130f5565b60005b8381101561312457818101518382015260200161310c565b83811115612d095750506000910152565b6020815260008251806020840152613154816040850160208701613109565b601f01601f19169190910160400192915050565b60006020828403121561317a57600080fd5b5035919050565b6001600160a01b038116811461319657600080fd5b50565b600080604083850312156131ac57600080fd5b82356131b781613181565b946020939093013593505050565b6000602082840312156131d757600080fd5b81356109cb81613181565b6000806000606084860312156131f757600080fd5b833561320281613181565b9250602084013561321281613181565b929592945050506040919091013590565b6000806040838503121561323657600080fd5b82359150602083013561324881613181565b809150509250929050565b60008060006060848603121561326857600080fd5b83359250602084013561327a81613181565b9150604084013561328a81613181565b809150509250925092565b60ff8116811461319657600080fd5b600080600080600080600060e0888a0312156132bf57600080fd5b87356132ca81613181565b965060208801356132da81613181565b9550604088013594506060880135935060808801356132f881613295565b9699959850939692959460a0840135945060c09093013592915050565b6000806040838503121561332857600080fd5b823561333381613181565b9150602083013561324881613181565b6000806000806080858703121561335957600080fd5b843561336481613181565b9350602085013561337481613181565b9250604085013561338481613181565b9150606085013561339481613181565b939692955090935050565b6000602082840312156133b157600080fd5b5051919050565b600181811c908216806133cc57607f821691505b6020821081036133ec57634e487b7160e01b600052602260045260246000fd5b50919050565b60008060008060008060c0878903121561340b57600080fd5b865195506020870151945060408701519350606087015192506080870151915060a087015190509295509295509295565b634e487b7160e01b600052601160045260246000fd5b6000828210156134645761346461343c565b500390565b8051801515811461347957600080fd5b919050565b60006020828403121561349057600080fd5b6109cb82613469565b60208082526007908201526621736f7572636560c81b604082015260600190565b6001600160a01b03948516815260208101939093529216604082015261ffff909116606082015260800190565b6000806000806000806000806000806101408b8d03121561350757600080fd5b8a51995060208b0151985060408b0151975060608b0151965060808b0151955061353360a08c01613469565b945061354160c08c01613469565b935061354f60e08c01613469565b925061355e6101008c01613469565b915061356d6101208c01613469565b90509295989b9194979a5092959850565b60008160001904831182151516156135985761359861343c565b500290565b6000806000606084860312156135b257600080fd5b83516135bd81613181565b60208501519093506135ce81613181565b604085015190925061328a81613181565b600080835481600182811c9150808316806135fb57607f831692505b6020808410820361361a57634e487b7160e01b86526022600452602486fd5b81801561362e576001811461363f5761366c565b60ff1986168952848901965061366c565b60008a81526020902060005b868110156136645781548b82015290850190830161364b565b505084890196505b509498975050505050505050565b6000821982111561368d5761368d61343c565b500190565b6020808252602b908201527f496e697469616c697a61626c653a20636f6e7472616374206973206e6f74206960408201526a6e697469616c697a696e6760a81b606082015260800190565b634e487b7160e01b600052604160045260246000fd5b60006020828403121561370557600080fd5b815167ffffffffffffffff8082111561371d57600080fd5b818401915084601f83011261373157600080fd5b815181811115613743576137436136dd565b604051601f8201601f19908116603f0116810190838211818310171561376b5761376b6136dd565b8160405282815287602084870101111561378457600080fd5b613795836020830160208801613109565b979650505050505050565b600084516137b2818460208901613109565b6101d160f51b90830190815284516137d1816002840160208901613109565b602d60f81b6002929091019182015283516137f3816003840160208801613109565b0160030195945050505050565b60008451613812818460208901613109565b8083019050602d60f81b8082528551613832816001850160208a01613109565b6001920191820152835161384d816002840160208801613109565b0160020195945050505050565b60006020828403121561386c57600080fd5b81516109cb8161329556feddf252ad1be2c89b69c2b068fc378daa952ba7f163c4a11628f55a4df523b3efa26469706673582212209b3d854df7d3e76dc576b42d5345ce8d7d623a911ae1533f97813642740e880064736f6c634300080d0033",
    "sourcePath": "/Users/misha/Library/Mobile Documents/com~apple~CloudDocs/Dev/construct-finance/construct_V0/src/modules/AaveBiassetModule.sol",
    "compiler": {
        "name": "solc",
        "version": "0.8.13+commit.abaa5c0e"
    },
    "functionHashes": {
        "DOMAIN_SEPARATOR()": "3644e515",
        "aToken()": "a0c1f15e",
        "acceptOwner()": "ebbc4965",
        "allowance(address,address)": "dd62ed3e",
        "approve(address,uint256)": "095ea7b3",
        "asset()": "38d52e0f",
        "balanceOf(address)": "70a08231",
        "convertToAssets(uint256)": "07a2d13a",
        "convertToShares(uint256)": "c6e6f592",
        "dataProvider()": "b334ed86",
        "debtToken()": "f8d89898",
        "decimals()": "313ce567",
        "deposit(uint256,address)": "6e553f65",
        "factory()": "c45a0155",
        "getCollateralETH()": "b01db078",
        "getCurrentLtv()": "21342b38",
        "getDebtETH()": "f4afdebd",
        "getModuleApr()": "7f240fbf",
        "getReward()": "3d18b912",
        "implementation()": "5c60da1b",
        "initialize(address,address,address,address)": "f8c8765e",
        "initializeStrategy(address)": "678cbcb5",
        "lendingPool()": "a59a9973",
        "lowerBoundLtv()": "203222aa",
        "maxDeposit(address)": "402d267d",
        "maxMint(address)": "c63d75b6",
        "maxRedeem(address)": "d905777e",
        "maxWithdraw(address)": "ce96cb77",
        "mint(uint256,address)": "94bf804d",
        "name()": "06fdde03",
        "nonces(address)": "7ecebe00",
        "oracle()": "7dc0d1d0",
        "owner()": "8da5cb5b",
        "pendingOwner()": "e30c3978",
        "permit(address,address,uint256,uint256,uint8,bytes32,bytes32)": "d505accf",
        "previewDeposit(uint256)": "ef8b30f7",
        "previewMint(uint256)": "b3d7f6b9",
        "previewRedeem(uint256)": "4cdad506",
        "previewWithdraw(uint256)": "0a28a477",
        "product()": "bf9ce952",
        "rebalance()": "7d7c2a1c",
        "rebalanceInterval()": "16d1d916",
        "rebalanceRequired()": "3a794246",
        "rebalanceTimestamp()": "adbd0f8f",
        "recenteringSpeed()": "50297d8c",
        "redeem(uint256,address,address)": "ba087652",
        "setOwner(address)": "13af4035",
        "source()": "67e828bf",
        "symbol()": "95d89b41",
        "target()": "d4b83992",
        "targetLtv()": "ec921dc1",
        "totalAssets()": "01e1d114",
        "totalSupply()": "18160ddd",
        "totalTargetBalance()": "2bf8eb1d",
        "transfer(address,uint256)": "a9059cbb",
        "transferFrom(address,address,uint256)": "23b872dd",
        "upperBoundLtv()": "8469415f",
        "withdraw(uint256,address,address)": "b460af94"
    },
    "gasEstimates": {
        "creation": {
            "codeDepositCost": "2908200",
            "executionCost": "infinite",
            "totalCost": "infinite"
        },
        "external": {
            "DOMAIN_SEPARATOR()": "infinite",
            "aToken()": "2427",
            "acceptOwner()": "50857",
            "allowance(address,address)": "infinite",
            "approve(address,uint256)": "24562",
            "asset()": "2406",
            "balanceOf(address)": "2636",
            "convertToAssets(uint256)": "infinite",
            "convertToShares(uint256)": "infinite",
            "dataProvider()": "infinite",
            "debtToken()": "2469",
            "decimals()": "2425",
            "deposit(uint256,address)": "infinite",
            "factory()": "2405",
            "getCollateralETH()": "infinite",
            "getCurrentLtv()": "infinite",
            "getDebtETH()": "infinite",
            "getModuleApr()": "314",
            "getReward()": "infinite",
            "implementation()": "2471",
            "initialize(address,address,address,address)": "infinite",
            "initializeStrategy(address)": "infinite",
            "lendingPool()": "infinite",
            "lowerBoundLtv()": "infinite",
            "maxDeposit(address)": "409",
            "maxMint(address)": "431",
            "maxRedeem(address)": "2653",
            "maxWithdraw(address)": "infinite",
            "mint(uint256,address)": "infinite",
            "name()": "infinite",
            "nonces(address)": "2613",
            "oracle()": "infinite",
            "owner()": "2428",
            "pendingOwner()": "2426",
            "permit(address,address,uint256,uint256,uint8,bytes32,bytes32)": "infinite",
            "previewDeposit(uint256)": "infinite",
            "previewMint(uint256)": "infinite",
            "previewRedeem(uint256)": "infinite",
            "previewWithdraw(uint256)": "infinite",
            "product()": "2470",
            "rebalance()": "infinite",
            "rebalanceInterval()": "infinite",
            "rebalanceRequired()": "infinite",
            "rebalanceTimestamp()": "2405",
            "recenteringSpeed()": "infinite",
            "redeem(uint256,address,address)": "infinite",
            "setOwner(address)": "26818",
            "source()": "2427",
            "symbol()": "infinite",
            "target()": "2426",
            "targetLtv()": "infinite",
            "totalAssets()": "infinite",
            "totalSupply()": "2353",
            "totalTargetBalance()": "infinite",
            "transfer(address,uint256)": "infinite",
            "transferFrom(address,address,uint256)": "infinite",
            "upperBoundLtv()": "infinite",
            "withdraw(uint256,address,address)": "infinite"
        },
        "internal": {
            "_harvest()": "infinite",
            "_rebalance()": "infinite",
            "_rewardPayout()": "infinite"
        }
    }
}