{
    "contractName": "CurvePlainPoolModule",
    "abi": [
        {
            "inputs": [
                {
                    "internalType": "address",
                    "name": "_owner",
                    "type": "address"
                },
                {
                    "internalType": "string",
                    "name": "_name",
                    "type": "string"
                },
                {
                    "internalType": "string",
                    "name": "_symbol",
                    "type": "string"
                },
                {
                    "internalType": "address",
                    "name": "_curveFactory",
                    "type": "address"
                },
                {
                    "internalType": "uint256",
                    "name": "_maxSlippage",
                    "type": "uint256"
                }
            ],
            "stateMutability": "nonpayable",
            "type": "constructor"
        },
        {
            "anonymous": false,
            "inputs": [
                {
                    "indexed": true,
                    "internalType": "address",
                    "name": "owner",
                    "type": "address"
                },
                {
                    "indexed": true,
                    "internalType": "address",
                    "name": "spender",
                    "type": "address"
                },
                {
                    "indexed": false,
                    "internalType": "uint256",
                    "name": "amount",
                    "type": "uint256"
                }
            ],
            "name": "Approval",
            "type": "event"
        },
        {
            "anonymous": false,
            "inputs": [
                {
                    "indexed": true,
                    "internalType": "address",
                    "name": "caller",
                    "type": "address"
                },
                {
                    "indexed": true,
                    "internalType": "address",
                    "name": "owner",
                    "type": "address"
                },
                {
                    "indexed": false,
                    "internalType": "uint256",
                    "name": "assets",
                    "type": "uint256"
                },
                {
                    "indexed": false,
                    "internalType": "uint256",
                    "name": "shares",
                    "type": "uint256"
                }
            ],
            "name": "Deposit",
            "type": "event"
        },
        {
            "anonymous": false,
            "inputs": [
                {
                    "indexed": false,
                    "internalType": "uint8",
                    "name": "version",
                    "type": "uint8"
                }
            ],
            "name": "Initialized",
            "type": "event"
        },
        {
            "anonymous": false,
            "inputs": [
                {
                    "indexed": true,
                    "internalType": "address",
                    "name": "from",
                    "type": "address"
                },
                {
                    "indexed": true,
                    "internalType": "address",
                    "name": "to",
                    "type": "address"
                },
                {
                    "indexed": false,
                    "internalType": "uint256",
                    "name": "amount",
                    "type": "uint256"
                }
            ],
            "name": "Transfer",
            "type": "event"
        },
        {
            "anonymous": false,
            "inputs": [
                {
                    "indexed": true,
                    "internalType": "address",
                    "name": "caller",
                    "type": "address"
                },
                {
                    "indexed": true,
                    "internalType": "address",
                    "name": "receiver",
                    "type": "address"
                },
                {
                    "indexed": true,
                    "internalType": "address",
                    "name": "owner",
                    "type": "address"
                },
                {
                    "indexed": false,
                    "internalType": "uint256",
                    "name": "assets",
                    "type": "uint256"
                },
                {
                    "indexed": false,
                    "internalType": "uint256",
                    "name": "shares",
                    "type": "uint256"
                }
            ],
            "name": "Withdraw",
            "type": "event"
        },
        {
            "inputs": [],
            "name": "DOMAIN_SEPARATOR",
            "outputs": [
                {
                    "internalType": "bytes32",
                    "name": "",
                    "type": "bytes32"
                }
            ],
            "stateMutability": "view",
            "type": "function"
        },
        {
            "inputs": [],
            "name": "acceptOwner",
            "outputs": [],
            "stateMutability": "nonpayable",
            "type": "function"
        },
        {
            "inputs": [
                {
                    "internalType": "address",
                    "name": "",
                    "type": "address"
                },
                {
                    "internalType": "address",
                    "name": "",
                    "type": "address"
                }
            ],
            "name": "allowance",
            "outputs": [
                {
                    "internalType": "uint256",
                    "name": "",
                    "type": "uint256"
                }
            ],
            "stateMutability": "view",
            "type": "function"
        },
        {
            "inputs": [
                {
                    "internalType": "address",
                    "name": "spender",
                    "type": "address"
                },
                {
                    "internalType": "uint256",
                    "name": "amount",
                    "type": "uint256"
                }
            ],
            "name": "approve",
            "outputs": [
                {
                    "internalType": "bool",
                    "name": "",
                    "type": "bool"
                }
            ],
            "stateMutability": "nonpayable",
            "type": "function"
        },
        {
            "inputs": [],
            "name": "asset",
            "outputs": [
                {
                    "internalType": "contract ERC20",
                    "name": "",
                    "type": "address"
                }
            ],
            "stateMutability": "view",
            "type": "function"
        },
        {
            "inputs": [],
            "name": "assetIndex",
            "outputs": [
                {
                    "internalType": "uint256",
                    "name": "",
                    "type": "uint256"
                }
            ],
            "stateMutability": "view",
            "type": "function"
        },
        {
            "inputs": [
                {
                    "internalType": "address",
                    "name": "",
                    "type": "address"
                }
            ],
            "name": "balanceOf",
            "outputs": [
                {
                    "internalType": "uint256",
                    "name": "",
                    "type": "uint256"
                }
            ],
            "stateMutability": "view",
            "type": "function"
        },
        {
            "inputs": [
                {
                    "internalType": "uint256",
                    "name": "shares",
                    "type": "uint256"
                }
            ],
            "name": "convertToAssets",
            "outputs": [
                {
                    "internalType": "uint256",
                    "name": "",
                    "type": "uint256"
                }
            ],
            "stateMutability": "view",
            "type": "function"
        },
        {
            "inputs": [
                {
                    "internalType": "uint256",
                    "name": "assets",
                    "type": "uint256"
                }
            ],
            "name": "convertToShares",
            "outputs": [
                {
                    "internalType": "uint256",
                    "name": "",
                    "type": "uint256"
                }
            ],
            "stateMutability": "view",
            "type": "function"
        },
        {
            "inputs": [],
            "name": "curveFactory",
            "outputs": [
                {
                    "internalType": "contract ICurveFactory",
                    "name": "",
                    "type": "address"
                }
            ],
            "stateMutability": "view",
            "type": "function"
        },
        {
            "inputs": [],
            "name": "decimals",
            "outputs": [
                {
                    "internalType": "uint8",
                    "name": "",
                    "type": "uint8"
                }
            ],
            "stateMutability": "view",
            "type": "function"
        },
        {
            "inputs": [
                {
                    "internalType": "uint256",
                    "name": "assets",
                    "type": "uint256"
                },
                {
                    "internalType": "address",
                    "name": "receiver",
                    "type": "address"
                }
            ],
            "name": "deposit",
            "outputs": [
                {
                    "internalType": "uint256",
                    "name": "shares",
                    "type": "uint256"
                }
            ],
            "stateMutability": "nonpayable",
            "type": "function"
        },
        {
            "inputs": [],
            "name": "factory",
            "outputs": [
                {
                    "internalType": "address",
                    "name": "",
                    "type": "address"
                }
            ],
            "stateMutability": "view",
            "type": "function"
        },
        {
            "inputs": [],
            "name": "getAsset",
            "outputs": [
                {
                    "internalType": "address",
                    "name": "",
                    "type": "address"
                }
            ],
            "stateMutability": "view",
            "type": "function"
        },
        {
            "inputs": [],
            "name": "getCapitalUtilization",
            "outputs": [
                {
                    "internalType": "uint256",
                    "name": "",
                    "type": "uint256"
                }
            ],
            "stateMutability": "view",
            "type": "function"
        },
        {
            "inputs": [],
            "name": "getModuleApr",
            "outputs": [
                {
                    "internalType": "int256",
                    "name": "",
                    "type": "int256"
                }
            ],
            "stateMutability": "view",
            "type": "function"
        },
        {
            "inputs": [],
            "name": "getProduct",
            "outputs": [
                {
                    "internalType": "address",
                    "name": "",
                    "type": "address"
                }
            ],
            "stateMutability": "view",
            "type": "function"
        },
        {
            "inputs": [],
            "name": "getSource",
            "outputs": [
                {
                    "internalType": "address",
                    "name": "",
                    "type": "address"
                }
            ],
            "stateMutability": "view",
            "type": "function"
        },
        {
            "inputs": [],
            "name": "getTarget",
            "outputs": [
                {
                    "internalType": "address",
                    "name": "",
                    "type": "address"
                }
            ],
            "stateMutability": "view",
            "type": "function"
        },
        {
            "inputs": [],
            "name": "implementation",
            "outputs": [
                {
                    "internalType": "address",
                    "name": "",
                    "type": "address"
                }
            ],
            "stateMutability": "view",
            "type": "function"
        },
        {
            "inputs": [
                {
                    "internalType": "address",
                    "name": "_asset",
                    "type": "address"
                },
                {
                    "internalType": "address",
                    "name": "_product",
                    "type": "address"
                },
                {
                    "internalType": "address",
                    "name": "_source",
                    "type": "address"
                },
                {
                    "internalType": "address",
                    "name": "_implementation",
                    "type": "address"
                }
            ],
            "name": "initialize",
            "outputs": [],
            "stateMutability": "nonpayable",
            "type": "function"
        },
        {
            "inputs": [
                {
                    "internalType": "address",
                    "name": "",
                    "type": "address"
                }
            ],
            "name": "maxDeposit",
            "outputs": [
                {
                    "internalType": "uint256",
                    "name": "",
                    "type": "uint256"
                }
            ],
            "stateMutability": "view",
            "type": "function"
        },
        {
            "inputs": [
                {
                    "internalType": "address",
                    "name": "",
                    "type": "address"
                }
            ],
            "name": "maxMint",
            "outputs": [
                {
                    "internalType": "uint256",
                    "name": "",
                    "type": "uint256"
                }
            ],
            "stateMutability": "view",
            "type": "function"
        },
        {
            "inputs": [
                {
                    "internalType": "address",
                    "name": "owner",
                    "type": "address"
                }
            ],
            "name": "maxRedeem",
            "outputs": [
                {
                    "internalType": "uint256",
                    "name": "",
                    "type": "uint256"
                }
            ],
            "stateMutability": "view",
            "type": "function"
        },
        {
            "inputs": [],
            "name": "maxSlippage",
            "outputs": [
                {
                    "internalType": "uint256",
                    "name": "",
                    "type": "uint256"
                }
            ],
            "stateMutability": "view",
            "type": "function"
        },
        {
            "inputs": [
                {
                    "internalType": "address",
                    "name": "owner",
                    "type": "address"
                }
            ],
            "name": "maxWithdraw",
            "outputs": [
                {
                    "internalType": "uint256",
                    "name": "",
                    "type": "uint256"
                }
            ],
            "stateMutability": "view",
            "type": "function"
        },
        {
            "inputs": [
                {
                    "internalType": "uint256",
                    "name": "shares",
                    "type": "uint256"
                },
                {
                    "internalType": "address",
                    "name": "receiver",
                    "type": "address"
                }
            ],
            "name": "mint",
            "outputs": [
                {
                    "internalType": "uint256",
                    "name": "assets",
                    "type": "uint256"
                }
            ],
            "stateMutability": "nonpayable",
            "type": "function"
        },
        {
            "inputs": [],
            "name": "name",
            "outputs": [
                {
                    "internalType": "string",
                    "name": "",
                    "type": "string"
                }
            ],
            "stateMutability": "view",
            "type": "function"
        },
        {
            "inputs": [
                {
                    "internalType": "address",
                    "name": "",
                    "type": "address"
                }
            ],
            "name": "nonces",
            "outputs": [
                {
                    "internalType": "uint256",
                    "name": "",
                    "type": "uint256"
                }
            ],
            "stateMutability": "view",
            "type": "function"
        },
        {
            "inputs": [],
            "name": "owner",
            "outputs": [
                {
                    "internalType": "address",
                    "name": "",
                    "type": "address"
                }
            ],
            "stateMutability": "view",
            "type": "function"
        },
        {
            "inputs": [],
            "name": "pendingOwner",
            "outputs": [
                {
                    "internalType": "address",
                    "name": "",
                    "type": "address"
                }
            ],
            "stateMutability": "view",
            "type": "function"
        },
        {
            "inputs": [
                {
                    "internalType": "address",
                    "name": "owner",
                    "type": "address"
                },
                {
                    "internalType": "address",
                    "name": "spender",
                    "type": "address"
                },
                {
                    "internalType": "uint256",
                    "name": "value",
                    "type": "uint256"
                },
                {
                    "internalType": "uint256",
                    "name": "deadline",
                    "type": "uint256"
                },
                {
                    "internalType": "uint8",
                    "name": "v",
                    "type": "uint8"
                },
                {
                    "internalType": "bytes32",
                    "name": "r",
                    "type": "bytes32"
                },
                {
                    "internalType": "bytes32",
                    "name": "s",
                    "type": "bytes32"
                }
            ],
            "name": "permit",
            "outputs": [],
            "stateMutability": "nonpayable",
            "type": "function"
        },
        {
            "inputs": [
                {
                    "internalType": "uint256",
                    "name": "assets",
                    "type": "uint256"
                }
            ],
            "name": "previewDeposit",
            "outputs": [
                {
                    "internalType": "uint256",
                    "name": "",
                    "type": "uint256"
                }
            ],
            "stateMutability": "view",
            "type": "function"
        },
        {
            "inputs": [
                {
                    "internalType": "uint256",
                    "name": "shares",
                    "type": "uint256"
                }
            ],
            "name": "previewMint",
            "outputs": [
                {
                    "internalType": "uint256",
                    "name": "",
                    "type": "uint256"
                }
            ],
            "stateMutability": "view",
            "type": "function"
        },
        {
            "inputs": [
                {
                    "internalType": "uint256",
                    "name": "shares",
                    "type": "uint256"
                }
            ],
            "name": "previewRedeem",
            "outputs": [
                {
                    "internalType": "uint256",
                    "name": "",
                    "type": "uint256"
                }
            ],
            "stateMutability": "view",
            "type": "function"
        },
        {
            "inputs": [
                {
                    "internalType": "uint256",
                    "name": "assets",
                    "type": "uint256"
                }
            ],
            "name": "previewWithdraw",
            "outputs": [
                {
                    "internalType": "uint256",
                    "name": "",
                    "type": "uint256"
                }
            ],
            "stateMutability": "view",
            "type": "function"
        },
        {
            "inputs": [],
            "name": "product",
            "outputs": [
                {
                    "internalType": "contract ERC20",
                    "name": "",
                    "type": "address"
                }
            ],
            "stateMutability": "view",
            "type": "function"
        },
        {
            "inputs": [
                {
                    "internalType": "uint256",
                    "name": "shares",
                    "type": "uint256"
                },
                {
                    "internalType": "address",
                    "name": "receiver",
                    "type": "address"
                },
                {
                    "internalType": "address",
                    "name": "owner",
                    "type": "address"
                }
            ],
            "name": "redeem",
            "outputs": [
                {
                    "internalType": "uint256",
                    "name": "assets",
                    "type": "uint256"
                }
            ],
            "stateMutability": "nonpayable",
            "type": "function"
        },
        {
            "inputs": [
                {
                    "internalType": "address",
                    "name": "_owner",
                    "type": "address"
                }
            ],
            "name": "setOwner",
            "outputs": [],
            "stateMutability": "nonpayable",
            "type": "function"
        },
        {
            "inputs": [
                {
                    "internalType": "address",
                    "name": "_target",
                    "type": "address"
                }
            ],
            "name": "setTarget",
            "outputs": [],
            "stateMutability": "nonpayable",
            "type": "function"
        },
        {
            "inputs": [],
            "name": "source",
            "outputs": [
                {
                    "internalType": "contract ERC4626",
                    "name": "",
                    "type": "address"
                }
            ],
            "stateMutability": "view",
            "type": "function"
        },
        {
            "inputs": [],
            "name": "strategy",
            "outputs": [
                {
                    "internalType": "contract ERC4626",
                    "name": "",
                    "type": "address"
                }
            ],
            "stateMutability": "view",
            "type": "function"
        },
        {
            "inputs": [],
            "name": "symbol",
            "outputs": [
                {
                    "internalType": "string",
                    "name": "",
                    "type": "string"
                }
            ],
            "stateMutability": "view",
            "type": "function"
        },
        {
            "inputs": [],
            "name": "target",
            "outputs": [
                {
                    "internalType": "contract ERC4626",
                    "name": "",
                    "type": "address"
                }
            ],
            "stateMutability": "view",
            "type": "function"
        },
        {
            "inputs": [],
            "name": "totalAssets",
            "outputs": [
                {
                    "internalType": "uint256",
                    "name": "",
                    "type": "uint256"
                }
            ],
            "stateMutability": "view",
            "type": "function"
        },
        {
            "inputs": [],
            "name": "totalSupply",
            "outputs": [
                {
                    "internalType": "uint256",
                    "name": "",
                    "type": "uint256"
                }
            ],
            "stateMutability": "view",
            "type": "function"
        },
        {
            "inputs": [],
            "name": "totalTargetBalance",
            "outputs": [
                {
                    "internalType": "uint256",
                    "name": "",
                    "type": "uint256"
                }
            ],
            "stateMutability": "view",
            "type": "function"
        },
        {
            "inputs": [
                {
                    "internalType": "address",
                    "name": "to",
                    "type": "address"
                },
                {
                    "internalType": "uint256",
                    "name": "amount",
                    "type": "uint256"
                }
            ],
            "name": "transfer",
            "outputs": [
                {
                    "internalType": "bool",
                    "name": "",
                    "type": "bool"
                }
            ],
            "stateMutability": "nonpayable",
            "type": "function"
        },
        {
            "inputs": [
                {
                    "internalType": "address",
                    "name": "from",
                    "type": "address"
                },
                {
                    "internalType": "address",
                    "name": "to",
                    "type": "address"
                },
                {
                    "internalType": "uint256",
                    "name": "amount",
                    "type": "uint256"
                }
            ],
            "name": "transferFrom",
            "outputs": [
                {
                    "internalType": "bool",
                    "name": "",
                    "type": "bool"
                }
            ],
            "stateMutability": "nonpayable",
            "type": "function"
        },
        {
            "inputs": [
                {
                    "internalType": "uint256",
                    "name": "assets",
                    "type": "uint256"
                },
                {
                    "internalType": "address",
                    "name": "receiver",
                    "type": "address"
                },
                {
                    "internalType": "address",
                    "name": "owner",
                    "type": "address"
                }
            ],
            "name": "withdraw",
            "outputs": [
                {
                    "internalType": "uint256",
                    "name": "shares",
                    "type": "uint256"
                }
            ],
            "stateMutability": "nonpayable",
            "type": "function"
        }
    ],
    "bytecode": "60c06040523480156200001157600080fd5b50604051620033d4380380620033d483398101604081905262000034916200022f565b601180546001600160a01b0319166001600160a01b03871617905583518590859085906200006a9060019060208501906200009f565b508051620000809060029060208401906200009f565b5050506001600160a01b0390921660a052608052506200030592505050565b828054620000ad90620002c9565b90600052602060002090601f016020900481019282620000d157600085556200011c565b82601f10620000ec57805160ff19168380011785556200011c565b828001600101855582156200011c579182015b828111156200011c578251825591602001919060010190620000ff565b506200012a9291506200012e565b5090565b5b808211156200012a57600081556001016200012f565b80516001600160a01b03811681146200015d57600080fd5b919050565b634e487b7160e01b600052604160045260246000fd5b600082601f8301126200018a57600080fd5b81516001600160401b0380821115620001a757620001a762000162565b604051601f8301601f19908116603f01168101908282118183101715620001d257620001d262000162565b81604052838152602092508683858801011115620001ef57600080fd5b600091505b83821015620002135785820183015181830184015290820190620001f4565b83821115620002255760008385830101525b9695505050505050565b600080600080600060a086880312156200024857600080fd5b620002538662000145565b60208701519095506001600160401b03808211156200027157600080fd5b6200027f89838a0162000178565b955060408801519150808211156200029657600080fd5b50620002a58882890162000178565b935050620002b66060870162000145565b9150608086015190509295509295909350565b600181811c90821680620002de57607f821691505b602082108103620002ff57634e487b7160e01b600052602260045260246000fd5b50919050565b60805160a0516130866200034e6000396000818161053c0152611de50152600081816104c101528181610c8a01528181610fff01528181611445015261180f01526130866000f3fe608060405234801561001057600080fd5b50600436106102d65760003560e01c806394bf804d11610182578063c63d75b6116100e9578063dd62ed3e116100a2578063ebbc49651161007c578063ebbc496514610680578063ef8b30f714610688578063f00e6a2a1461069b578063f8c8765e146106ac57600080fd5b8063dd62ed3e14610639578063e07b098a14610664578063e30c39781461066d57600080fd5b8063c63d75b6146103df578063c6e6f592146105c4578063ce96cb77146105d7578063d4b83992146105ea578063d505accf146105fd578063d905777e1461061057600080fd5b8063b3d7f6b91161013b578063b3d7f6b914610405578063b460af941461056f578063ba08765214610582578063bdde8a4814610595578063bf9ce9521461059e578063c45a0155146105b157600080fd5b806394bf804d146104f657806395d89b4114610509578063a8c62e7614610511578063a9059cbb14610524578063ae6836d614610537578063afa293d41461055e57600080fd5b8063402d267d116102415780636e553f65116101fa5780637ecebe00116101d45780637ecebe00146104955780637f240fbf146104b55780638c04166f146104bc5780638da5cb5b146104e357600080fd5b80636e553f651461044f57806370a0823114610462578063776d1a011461048257600080fd5b8063402d267d146103df5780634ba20050146103f45780634cdad506146104055780635c222bad146104185780635c60da1b1461042957806367e828bf1461043c57600080fd5b806318160ddd1161029357806318160ddd1461036957806323b872dd146103725780632bf8eb1d14610385578063313ce5671461038d5780633644e515146103ac57806338d52e0f146103b457600080fd5b806301e1d114146102db57806306fdde03146102f657806307a2d13a1461030b578063095ea7b31461031e5780630a28a4771461034157806313af403514610354575b600080fd5b6102e36106bf565b6040519081526020015b60405180910390f35b6102fe61074c565b6040516102ed9190612948565b6102e361031936600461297b565b6107da565b61033161032c3660046129ac565b610807565b60405190151581526020016102ed565b6102e361034f36600461297b565b610873565b6103676103623660046129d8565b61093c565b005b6102e360045481565b6103316103803660046129f5565b6109aa565b6102e36109bf565b60035461039a9060ff1681565b60405160ff90911681526020016102ed565b6102e3610a56565b600a546103c7906001600160a01b031681565b6040516001600160a01b0390911681526020016102ed565b6102e36103ed3660046129d8565b5060001990565b600b546001600160a01b03166103c7565b6102e361041336600461297b565b610a70565b600a546001600160a01b03166103c7565b6010546103c7906001600160a01b031681565b600c546103c7906001600160a01b031681565b6102e361045d366004612a36565b610af8565b6102e36104703660046129d8565b60056020526000908152604090205481565b6103676104903660046129d8565b610da9565b6102e36104a33660046129d8565b60096020526000908152604090205481565b60006102e3565b6102e37f000000000000000000000000000000000000000000000000000000000000000081565b6011546103c7906001600160a01b031681565b6102e3610504366004612a36565b610ec9565b6102fe611196565b600e546103c7906001600160a01b031681565b6103316105323660046129ac565b6111a3565b6103c77f000000000000000000000000000000000000000000000000000000000000000081565b600c546001600160a01b03166103c7565b6102e361057d366004612a66565b6111af565b6102e3610590366004612a66565b611575565b620f42406102e3565b600b546103c7906001600160a01b031681565b600f546103c7906001600160a01b031681565b6102e36105d236600461297b565b611940565b6102e36105e53660046129d8565b611958565b600d546103c7906001600160a01b031681565b61036761060b366004612ab7565b611980565b6102e361061e3660046129d8565b6001600160a01b031660009081526005602052604090205490565b6102e3610647366004612b28565b600660209081526000928352604080842090915290825290205481565b6102e360135481565b6012546103c7906001600160a01b031681565b610367611bc4565b6102e361069636600461297b565b611c2b565b600d546001600160a01b03166103c7565b6103676106ba366004612b56565b611d03565b6000806106ca6109bf565b600b5460135460405163cc2b27d760e01b815260048101849052600f9190910b60248201529192506001600160a01b03169063cc2b27d790604401602060405180830381865afa158015610722573d6000803e3d6000fd5b505050506040513d601f19601f820116820180604052508101906107469190612bb2565b91505090565b6001805461075990612bcb565b80601f016020809104026020016040519081016040528092919081815260200182805461078590612bcb565b80156107d25780601f106107a7576101008083540402835291602001916107d2565b820191906000526020600020905b8154815290600101906020018083116107b557829003601f168201915b505050505081565b60045460009080156107fe576107f96107f16106bf565b849083611fa9565b610800565b825b9392505050565b3360008181526006602090815260408083206001600160a01b038716808552925280832085905551919290917f8c5be1e5ebec7d5bd14f71427d1e84f3dd0314c0f7b2291e5b200ac8c7c3b925906108629086815260200190565b60405180910390a350600192915050565b600454600090610881612865565b83816013546002811061089657610896612c05565b6020020152600b5460405163ed8e84f360e01b81526000916001600160a01b03169063ed8e84f3906108cf908590600190600401612c3e565b602060405180830381865afa1580156108ec573d6000803e3d6000fd5b505050506040513d601f19601f820116820180604052508101906109109190612bb2565b905082156109315761092c836109246106bf565b839190611fa9565b610933565b845b95945050505050565b6011546001600160a01b031633146109885760405162461bcd60e51b815260206004820152600a60248201526908585d5d1bdc9a5e995960b21b60448201526064015b60405180910390fd5b601280546001600160a01b0319166001600160a01b0392909216919091179055565b60006109b7848484611fc8565b949350505050565b600d546000906001600160a01b03166109df576109da6106bf565b905090565b600d60009054906101000a90046001600160a01b03166001600160a01b03166301e1d1146040518163ffffffff1660e01b8152600401602060405180830381865afa158015610a32573d6000803e3d6000fd5b505050506040513d601f19601f820116820180604052508101906109da9190612bb2565b60006007544614610a69576109da6120a8565b5060085490565b600080610a7c836107da565b600b5460135460405163cc2b27d760e01b815260048101849052600f9190910b60248201529192506001600160a01b03169063cc2b27d790604401602060405180830381865afa158015610ad4573d6000803e3d6000fd5b505050506040513d601f19601f820116820180604052508101906108009190612bb2565b600c5460009082906001600160a01b0316338114610b285760405162461bcd60e51b815260040161097f90612c5b565b806001600160a01b0316826001600160a01b031614610b595760405162461bcd60e51b815260040161097f90612c5b565b600b54600a546001600160a01b0391821691610b789116333089612142565b610b80612865565b868160135460028110610b9557610b95612c05565b60200201526004805460405163ed8e84f360e01b815290916000916001600160a01b0386169163ed8e84f391610bd091879160019101612c3e565b602060405180830381865afa158015610bed573d6000803e3d6000fd5b505050506040513d601f19601f82011682018060405250810190610c119190612bb2565b9050600081610c1e6109bf565b610c289190612c92565b905060008315610c4257610c3d838584611fa9565b610c44565b8a5b905080600003610c805760405162461bcd60e51b81526020600482015260076024820152662173686172657360c81b604482015260640161097f565b6000610cbd610cb27f0000000000000000000000000000000000000000000000000000000000000000620f4240612caa565b8590620f42406121c5565b90506000876001600160a01b0316630c3e4b548884306040518463ffffffff1660e01b8152600401610cf193929190612cc1565b6020604051808303816000875af1158015610d10573d6000803e3d6000fd5b505050506040513d601f19601f82011682018060405250810190610d349190612bb2565b9050610d3f81611940565b9a50610d4b8c8c6121f3565b604080518e8152602081018d90526001600160a01b038e169133917fdcbc1c05240f31ff3ad067ef1ee35ce4997762752e3a095284754544f4c709d7910160405180910390a3610d9961224d565b5050505050505050505092915050565b600d546001600160a01b031615610df15760405162461bcd60e51b815260206004820152600c60248201526b085a5b9a5d1a585b1a5e995960a21b604482015260640161097f565b600f546001600160a01b03163314610e365760405162461bcd60e51b815260206004820152600860248201526721666163746f727960c01b604482015260640161097f565b600d80546001600160a01b0319166001600160a01b03838116918217909255600b5460405163095ea7b360e01b8152600481019290925260001960248301529091169063095ea7b3906044016020604051808303816000875af1158015610ea1573d6000803e3d6000fd5b505050506040513d601f19601f82011682018060405250810190610ec59190612cee565b5050565b600c5460009082906001600160a01b0316338114610ef95760405162461bcd60e51b815260040161097f90612c5b565b806001600160a01b0316826001600160a01b031614610f2a5760405162461bcd60e51b815260040161097f90612c5b565b600b546013546001600160a01b0390911690610f45876107da565b600a54909550610f60906001600160a01b0316333088612142565b610f68612865565b85818360028110610f7b57610f7b612c05565b602002015260405163ed8e84f360e01b81526000906001600160a01b0385169063ed8e84f390610fb2908590600190600401612c3e565b602060405180830381865afa158015610fcf573d6000803e3d6000fd5b505050506040513d601f19601f82011682018060405250810190610ff39190612bb2565b905060006110326110277f0000000000000000000000000000000000000000000000000000000000000000620f4240612caa565b8390620f42406121c5565b90506000856001600160a01b0316630c3e4b548584306040518463ffffffff1660e01b815260040161106693929190612cc1565b6020604051808303816000875af1158015611085573d6000803e3d6000fd5b505050506040513d601f19601f820116820180604052508101906110a99190612bb2565b60405163cc2b27d760e01b815260048101829052600f87900b60248201529091506000906001600160a01b0388169063cc2b27d790604401602060405180830381865afa1580156110fe573d6000803e3d6000fd5b505050506040513d601f19601f820116820180604052508101906111229190612bb2565b905061112d81611940565b9b506111398b8d6121f3565b604080518b8152602081018e90526001600160a01b038d169133917fdcbc1c05240f31ff3ad067ef1ee35ce4997762752e3a095284754544f4c709d7910160405180910390a361118761224d565b50505050505050505092915050565b6002805461075990612bcb565b60006108008383612331565b600c5460009083906001600160a01b03163381146111df5760405162461bcd60e51b815260040161097f90612c5b565b806001600160a01b0316826001600160a01b0316146112105760405162461bcd60e51b815260040161097f90612c5b565b600b546013546004546001600160a01b0390921691600090611230612865565b8a81856002811061124357611243612c05565b602002015260405163ed8e84f360e01b81526001600160a01b0386169063ed8e84f390611277908490600190600401612c3e565b602060405180830381865afa158015611294573d6000803e3d6000fd5b505050506040513d601f19601f820116820180604052508101906112b89190612bb2565b925081156112d9576112d4826112cc6109bf565b859190611fa9565b6112db565b8a5b975050506001600160a01b038716331461134d576001600160a01b0387166000908152600660209081526040808320338452909152902054600019811461134b576113268782612caa565b6001600160a01b03891660009081526006602090815260408083203384529091529020555b505b61135681612397565b600b546040516370a0823160e01b81523060048201526000916001600160a01b0316906370a0823190602401602060405180830381865afa15801561139f573d6000803e3d6000fd5b505050506040513d601f19601f820116820180604052508101906113c39190612bb2565b60405163cc2b27d760e01b815260048101829052600f85900b60248201529091506001600160a01b0385169063cc2b27d790604401602060405180830381865afa158015611415573d6000803e3d6000fd5b505050506040513d601f19601f820116820180604052508101906114399190612bb2565b9950600061147861146d7f0000000000000000000000000000000000000000000000000000000000000000620f4240612caa565b8c90620f4240611fa9565b60405163081579a560e01b815260048101849052600f86900b6024820152604481018290526001600160a01b038c8116606483015291925060009187169063081579a5906084016020604051808303816000875af11580156114de573d6000803e3d6000fd5b505050506040513d601f19601f820116820180604052508101906115029190612bb2565b905061150f89828e6121c5565b985061151b8a8a6123d5565b60408051828152602081018b90526001600160a01b03808d1692908e169133917ffbde797d201c681b91056529119e0b02407c7bb96a4a2c75c01fc9667232c8db910160405180910390a450505050505050509392505050565b600c5460009083906001600160a01b03163381146115a55760405162461bcd60e51b815260040161097f90612c5b565b806001600160a01b0316826001600160a01b0316146115d65760405162461bcd60e51b815260040161097f90612c5b565b600b546013546001600160a01b039091169060006115f3896107da565b60405163cc2b27d760e01b815260048101829052600f84900b60248201529091506001600160a01b0384169063cc2b27d790604401602060405180830381865afa158015611645573d6000803e3d6000fd5b505050506040513d601f19601f820116820180604052508101906116699190612bb2565b9550856000036116a55760405162461bcd60e51b81526020600482015260076024820152662161737365747360c81b604482015260640161097f565b336001600160a01b03881614611713576001600160a01b03871660009081526006602090815260408083203384529091529020546000198114611711576116ec8a82612caa565b6001600160a01b03891660009081526006602090815260408083203384529091529020555b505b61171c81612397565b600b546040516370a0823160e01b815230600482015260009182916001600160a01b03909116906370a0823190602401602060405180830381865afa158015611769573d6000803e3d6000fd5b505050506040513d601f19601f8201168201806040525081019061178d9190612bb2565b60405163cc2b27d760e01b815260048101829052600f86900b60248201529091506001600160a01b0386169063cc2b27d790604401602060405180830381865afa1580156117df573d6000803e3d6000fd5b505050506040513d601f19601f820116820180604052508101906118039190612bb2565b975060006118426118377f0000000000000000000000000000000000000000000000000000000000000000620f4240612caa565b8a90620f4240611fa9565b60405163081579a560e01b815260048101849052600f87900b6024820152604481018290526001600160a01b038d811660648301529192509087169063081579a5906084016020604051808303816000875af11580156118a6573d6000803e3d6000fd5b505050506040513d601f19601f820116820180604052508101906118ca9190612bb2565b92506118d78c848b6121c5565b9b5050508096506118e8888b6123d5565b60408051828152602081018c90526001600160a01b03808b1692908c169133917ffbde797d201c681b91056529119e0b02407c7bb96a4a2c75c01fc9667232c8db910160405180910390a45050505050509392505050565b60045460009080156107fe576107f9816112cc6106bf565b6001600160a01b03811660009081526005602052604081205461197a906107da565b92915050565b428410156119d05760405162461bcd60e51b815260206004820152601760248201527f5045524d49545f444541444c494e455f45585049524544000000000000000000604482015260640161097f565b600060016119dc610a56565b6001600160a01b038a811660008181526009602090815260409182902080546001810190915582517f6e71edae12b1b97f4d1f60370fef10105fa2faae0126114a169c64845d6126c98184015280840194909452938d166060840152608083018c905260a083019390935260c08083018b90528151808403909101815260e08301909152805192019190912061190160f01b6101008301526101028201929092526101228101919091526101420160408051601f198184030181528282528051602091820120600084529083018083525260ff871690820152606081018590526080810184905260a0016020604051602081039080840390855afa158015611ae8573d6000803e3d6000fd5b5050604051601f1901519150506001600160a01b03811615801590611b1e5750876001600160a01b0316816001600160a01b0316145b611b5b5760405162461bcd60e51b815260206004820152600e60248201526d24a72b20a624a22fa9a4a3a722a960911b604482015260640161097f565b6001600160a01b0390811660009081526006602090815260408083208a8516808552908352928190208990555188815291928a16917f8c5be1e5ebec7d5bd14f71427d1e84f3dd0314c0f7b2291e5b200ac8c7c3b925910160405180910390a350505050505050565b6012546001600160a01b03163314611c0b5760405162461bcd60e51b815260206004820152600a60248201526908585d5d1bdc9a5e995960b21b604482015260640161097f565b601180546001600160a01b03199081163317909155601280549091169055565b600454600090611c39612865565b838160135460028110611c4e57611c4e612c05565b6020020152600b5460405163ed8e84f360e01b81526000916001600160a01b03169063ed8e84f390611c87908590600190600401612c3e565b602060405180830381865afa158015611ca4573d6000803e3d6000fd5b505050506040513d601f19601f82011682018060405250810190611cc89190612bb2565b9050600081611cd56109bf565b611cdf9190612c92565b90508315611cf757611cf2828583611fa9565b611cf9565b855b9695505050505050565b600054610100900460ff1615808015611d235750600054600160ff909116105b80611d3d5750303b158015611d3d575060005460ff166001145b611da05760405162461bcd60e51b815260206004820152602e60248201527f496e697469616c697a61626c653a20636f6e747261637420697320616c72656160448201526d191e481a5b9a5d1a585b1a5e995960921b606482015260840161097f565b6000805460ff191660011790558015611dc3576000805461ff0019166101001790555b604051639ac90d3d60e01b81526001600160a01b0385811660048301526000917f000000000000000000000000000000000000000000000000000000000000000090911690639ac90d3d90602401608060405180830381865afa158015611e2e573d6000803e3d6000fd5b505050506040513d601f19601f82011682018060405250810190611e529190612d26565b80519091506001600160a01b0316611e975760405162461bcd60e51b8152602060048201526008602482015267085c1c9bd91d58dd60c21b604482015260640161097f565b60001960005b6004811015611efd57876001600160a01b0316838260048110611ec257611ec2612c05565b60200201516001600160a01b031603611edd57809150611efd565b80611ee781612dad565b9150508080611ef590612dad565b915050611e9d565b506000198103611f385760405162461bcd60e51b815260206004820152600660248201526508585cdcd95d60d21b604482015260640161097f565b611f4487878787612437565b611f5a6001600160a01b038816876000196126b8565b50508015611fa2576000805461ff0019169055604051600181527f7f26b83ff96e1f2b6a682f133852f6798a09c465da95921460cefb38474024989060200160405180910390a15b5050505050565b828202811515841585830485141716611fc157600080fd5b0492915050565b6001600160a01b0383166000908152600660209081526040808320338452909152812054600019811461202457611fff8382612caa565b6001600160a01b03861660009081526006602090815260408083203384529091529020555b6001600160a01b0385166000908152600560205260408120805485929061204c908490612caa565b90915550506001600160a01b0380851660008181526005602052604090819020805487019055519091871690600080516020613031833981519152906120959087815260200190565b60405180910390a3506001949350505050565b60007f8b73c3c69bb8fe3d512ecc4cf759cc79239f7b179b0ffacaa9a75d522b39400f60016040516120da9190612dc6565b6040805191829003822060208301939093528101919091527fc89efdaa54c0f20c7adf612882df0950f5a951637e0307cdcb4c672f298b8bc660608201524660808201523060a082015260c00160405160208183030381529060405280519060200120905090565b60006040516323b872dd60e01b81528460048201528360248201528260448201526020600060648360008a5af13d15601f3d1160016000511416171691505080611fa25760405162461bcd60e51b81526020600482015260146024820152731514905394d1915497d19493d357d1905253115160621b604482015260640161097f565b8282028115158415858304851417166121dd57600080fd5b6001826001830304018115150290509392505050565b80600460008282546122059190612c92565b90915550506001600160a01b03821660008181526005602090815260408083208054860190555184815260008051602061303183398151915291015b60405180910390a35050565b600b546040516370a0823160e01b81523060048201526000916001600160a01b0316906370a0823190602401602060405180830381865afa158015612296573d6000803e3d6000fd5b505050506040513d601f19601f820116820180604052508101906122ba9190612bb2565b600d54604051636e553f6560e01b8152600481018390523060248201529192506001600160a01b031690636e553f65906044015b6020604051808303816000875af115801561230d573d6000803e3d6000fd5b505050506040513d601f19601f82011682018060405250810190610ec59190612bb2565b33600090815260056020526040812080548391908390612352908490612caa565b90915550506001600160a01b03831660008181526005602052604090819020805485019055513390600080516020613031833981519152906108629086815260200190565b600d54604051632d182be560e21b815260048101839052306024820181905260448201526001600160a01b039091169063b460af94906064016122ee565b6001600160a01b038216600090815260056020526040812080548392906123fd908490612caa565b90915550506004805482900390556040518181526000906001600160a01b0384169060008051602061303183398151915290602001612241565b600054610100900460ff1661245e5760405162461bcd60e51b815260040161097f90612e61565b6000846001600160a01b03166395d89b416040518163ffffffff1660e01b8152600401600060405180830381865afa15801561249e573d6000803e3d6000fd5b505050506040513d6000823e601f3d908101601f191682016040526124c69190810190612eac565b90506000846001600160a01b03166395d89b416040518163ffffffff1660e01b8152600401600060405180830381865afa158015612508573d6000803e3d6000fd5b505050506040513d6000823e601f3d908101601f191682016040526125309190810190612eac565b90506000836001600160a01b03166306fdde036040518163ffffffff1660e01b8152600401600060405180830381865afa158015612572573d6000803e3d6000fd5b505050506040513d6000823e601f3d908101601f1916820160405261259a9190810190612eac565b83836040516020016125ae93929190612f59565b60405160208183030381529060405290506000846001600160a01b03166395d89b416040518163ffffffff1660e01b8152600401600060405180830381865afa1580156125ff573d6000803e3d6000fd5b505050506040513d6000823e601f3d908101601f191682016040526126279190810190612eac565b848460405160200161263b93929190612fb9565b6040516020818303038152906040529050612657888383612735565b600b80546001600160a01b03808a166001600160a01b031992831617909255600c80548984169083168117909155600f8054831633179055601080548985169316929092179091556126ae918a16906000196126b8565b5050505050505050565b600060405163095ea7b360e01b8152836004820152826024820152602060006044836000895af13d15601f3d116001600051141617169150508061272f5760405162461bcd60e51b815260206004820152600e60248201526d1054141493d59157d1905253115160921b604482015260640161097f565b50505050565b600054610100900460ff1661275c5760405162461bcd60e51b815260040161097f90612e61565b6000836001600160a01b031663313ce5676040518163ffffffff1660e01b8152600401602060405180830381865afa15801561279c573d6000803e3d6000fd5b505050506040513d601f19601f820116820180604052508101906127c09190613013565b90506127cd8383836127f3565b5050600a80546001600160a01b0319166001600160a01b03939093169290921790915550565b600054610100900460ff1661281a5760405162461bcd60e51b815260040161097f90612e61565b825161282d906001906020860190612883565b508151612841906002906020850190612883565b506003805460ff191660ff83161790554660075561285d6120a8565b600855505050565b60405180604001604052806002906020820280368337509192915050565b82805461288f90612bcb565b90600052602060002090601f0160209004810192826128b157600085556128f7565b82601f106128ca57805160ff19168380011785556128f7565b828001600101855582156128f7579182015b828111156128f75782518255916020019190600101906128dc565b50612903929150612907565b5090565b5b808211156129035760008155600101612908565b60005b8381101561293757818101518382015260200161291f565b8381111561272f5750506000910152565b602081526000825180602084015261296781604085016020870161291c565b601f01601f19169190910160400192915050565b60006020828403121561298d57600080fd5b5035919050565b6001600160a01b03811681146129a957600080fd5b50565b600080604083850312156129bf57600080fd5b82356129ca81612994565b946020939093013593505050565b6000602082840312156129ea57600080fd5b813561080081612994565b600080600060608486031215612a0a57600080fd5b8335612a1581612994565b92506020840135612a2581612994565b929592945050506040919091013590565b60008060408385031215612a4957600080fd5b823591506020830135612a5b81612994565b809150509250929050565b600080600060608486031215612a7b57600080fd5b833592506020840135612a8d81612994565b91506040840135612a9d81612994565b809150509250925092565b60ff811681146129a957600080fd5b600080600080600080600060e0888a031215612ad257600080fd5b8735612add81612994565b96506020880135612aed81612994565b955060408801359450606088013593506080880135612b0b81612aa8565b9699959850939692959460a0840135945060c09093013592915050565b60008060408385031215612b3b57600080fd5b8235612b4681612994565b91506020830135612a5b81612994565b60008060008060808587031215612b6c57600080fd5b8435612b7781612994565b93506020850135612b8781612994565b92506040850135612b9781612994565b91506060850135612ba781612994565b939692955090935050565b600060208284031215612bc457600080fd5b5051919050565b600181811c90821680612bdf57607f821691505b602082108103612bff57634e487b7160e01b600052602260045260246000fd5b50919050565b634e487b7160e01b600052603260045260246000fd5b8060005b600281101561272f578151845260209384019390910190600101612c1f565b60608101612c4c8285612c1b565b82151560408301529392505050565b60208082526007908201526621736f7572636560c81b604082015260600190565b634e487b7160e01b600052601160045260246000fd5b60008219821115612ca557612ca5612c7c565b500190565b600082821015612cbc57612cbc612c7c565b500390565b60808101612ccf8286612c1b565b60408201939093526001600160a01b0391909116606090910152919050565b600060208284031215612d0057600080fd5b8151801515811461080057600080fd5b634e487b7160e01b600052604160045260246000fd5b600060808284031215612d3857600080fd5b82601f830112612d4757600080fd5b6040516080810181811067ffffffffffffffff82111715612d6a57612d6a612d10565b604052806080840185811115612d7f57600080fd5b845b81811015612da2578051612d9481612994565b835260209283019201612d81565b509195945050505050565b600060018201612dbf57612dbf612c7c565b5060010190565b600080835481600182811c915080831680612de257607f831692505b60208084108203612e0157634e487b7160e01b86526022600452602486fd5b818015612e155760018114612e2657612e53565b60ff19861689528489019650612e53565b60008a81526020902060005b86811015612e4b5781548b820152908501908301612e32565b505084890196505b509498975050505050505050565b6020808252602b908201527f496e697469616c697a61626c653a20636f6e7472616374206973206e6f74206960408201526a6e697469616c697a696e6760a81b606082015260800190565b600060208284031215612ebe57600080fd5b815167ffffffffffffffff80821115612ed657600080fd5b818401915084601f830112612eea57600080fd5b815181811115612efc57612efc612d10565b604051601f8201601f19908116603f01168101908382118183101715612f2457612f24612d10565b81604052828152876020848701011115612f3d57600080fd5b612f4e83602083016020880161291c565b979650505050505050565b60008451612f6b81846020890161291c565b6101d160f51b9083019081528451612f8a81600284016020890161291c565b602d60f81b600292909101918201528351612fac81600384016020880161291c565b0160030195945050505050565b60008451612fcb81846020890161291c565b8083019050602d60f81b8082528551612feb816001850160208a0161291c565b6001920191820152835161300681600284016020880161291c565b0160020195945050505050565b60006020828403121561302557600080fd5b815161080081612aa856feddf252ad1be2c89b69c2b068fc378daa952ba7f163c4a11628f55a4df523b3efa26469706673582212205edfffa1ae038e513a3deb4b1b15dd54756850bed7679ca869cd7e7cf224500464736f6c634300080d0033",
    "sourcePath": "/Users/misha/Library/Mobile Documents/com~apple~CloudDocs/Dev/construct-finance/construct_V0/src/modules/CurvePlainPoolModule.sol",
    "compiler": {
        "name": "solc",
        "version": "0.8.13+commit.abaa5c0e"
    },
    "functionHashes": {
        "DOMAIN_SEPARATOR()": "3644e515",
        "acceptOwner()": "ebbc4965",
        "allowance(address,address)": "dd62ed3e",
        "approve(address,uint256)": "095ea7b3",
        "asset()": "38d52e0f",
        "assetIndex()": "e07b098a",
        "balanceOf(address)": "70a08231",
        "convertToAssets(uint256)": "07a2d13a",
        "convertToShares(uint256)": "c6e6f592",
        "curveFactory()": "ae6836d6",
        "decimals()": "313ce567",
        "deposit(uint256,address)": "6e553f65",
        "factory()": "c45a0155",
        "getAsset()": "5c222bad",
        "getCapitalUtilization()": "bdde8a48",
        "getModuleApr()": "7f240fbf",
        "getProduct()": "4ba20050",
        "getSource()": "afa293d4",
        "getTarget()": "f00e6a2a",
        "implementation()": "5c60da1b",
        "initialize(address,address,address,address)": "f8c8765e",
        "maxDeposit(address)": "402d267d",
        "maxMint(address)": "c63d75b6",
        "maxRedeem(address)": "d905777e",
        "maxSlippage()": "8c04166f",
        "maxWithdraw(address)": "ce96cb77",
        "mint(uint256,address)": "94bf804d",
        "name()": "06fdde03",
        "nonces(address)": "7ecebe00",
        "owner()": "8da5cb5b",
        "pendingOwner()": "e30c3978",
        "permit(address,address,uint256,uint256,uint8,bytes32,bytes32)": "d505accf",
        "previewDeposit(uint256)": "ef8b30f7",
        "previewMint(uint256)": "b3d7f6b9",
        "previewRedeem(uint256)": "4cdad506",
        "previewWithdraw(uint256)": "0a28a477",
        "product()": "bf9ce952",
        "redeem(uint256,address,address)": "ba087652",
        "setOwner(address)": "13af4035",
        "setTarget(address)": "776d1a01",
        "source()": "67e828bf",
        "strategy()": "a8c62e76",
        "symbol()": "95d89b41",
        "target()": "d4b83992",
        "totalAssets()": "01e1d114",
        "totalSupply()": "18160ddd",
        "totalTargetBalance()": "2bf8eb1d",
        "transfer(address,uint256)": "a9059cbb",
        "transferFrom(address,address,uint256)": "23b872dd",
        "withdraw(uint256,address,address)": "b460af94"
    },
    "gasEstimates": {
        "creation": {
            "codeDepositCost": "2484400",
            "executionCost": "infinite",
            "totalCost": "infinite"
        },
        "external": {
            "DOMAIN_SEPARATOR()": "infinite",
            "acceptOwner()": "50812",
            "allowance(address,address)": "infinite",
            "approve(address,uint256)": "24606",
            "asset()": "2493",
            "assetIndex()": "2373",
            "balanceOf(address)": "2592",
            "convertToAssets(uint256)": "infinite",
            "convertToShares(uint256)": "infinite",
            "curveFactory()": "infinite",
            "decimals()": "2425",
            "deposit(uint256,address)": "infinite",
            "factory()": "2492",
            "getAsset()": "2443",
            "getCapitalUtilization()": "292",
            "getModuleApr()": "270",
            "getProduct()": "2399",
            "getSource()": "2487",
            "getTarget()": "2441",
            "implementation()": "2471",
            "initialize(address,address,address,address)": "infinite",
            "maxDeposit(address)": "387",
            "maxMint(address)": "386",
            "maxRedeem(address)": "2675",
            "maxSlippage()": "infinite",
            "maxWithdraw(address)": "infinite",
            "mint(uint256,address)": "infinite",
            "name()": "infinite",
            "nonces(address)": "2569",
            "owner()": "2470",
            "pendingOwner()": "2448",
            "permit(address,address,uint256,uint256,uint8,bytes32,bytes32)": "infinite",
            "previewDeposit(uint256)": "infinite",
            "previewMint(uint256)": "infinite",
            "previewRedeem(uint256)": "infinite",
            "previewWithdraw(uint256)": "infinite",
            "product()": "2470",
            "redeem(uint256,address,address)": "infinite",
            "setOwner(address)": "26862",
            "setTarget(address)": "infinite",
            "source()": "2493",
            "strategy()": "2427",
            "symbol()": "infinite",
            "target()": "2448",
            "totalAssets()": "infinite",
            "totalSupply()": "2330",
            "totalTargetBalance()": "infinite",
            "transfer(address,uint256)": "infinite",
            "transferFrom(address,address,uint256)": "infinite",
            "withdraw(uint256,address,address)": "infinite"
        },
        "internal": {
            "afterDeposit()": "infinite",
            "beforeWithdraw(uint256)": "infinite"
        }
    }
}