{
    "contractName": "CurvePlainPoolModule",
    "abi": [
        {
            "inputs": [
                {
                    "internalType": "address",
                    "name": "_owner",
                    "type": "address"
                },
                {
                    "internalType": "string",
                    "name": "_name",
                    "type": "string"
                },
                {
                    "internalType": "string",
                    "name": "_symbol",
                    "type": "string"
                },
                {
                    "internalType": "address",
                    "name": "_curveFactory",
                    "type": "address"
                },
                {
                    "internalType": "uint256",
                    "name": "_maxSlippage",
                    "type": "uint256"
                }
            ],
            "stateMutability": "nonpayable",
            "type": "constructor"
        },
        {
            "anonymous": false,
            "inputs": [
                {
                    "indexed": true,
                    "internalType": "address",
                    "name": "owner",
                    "type": "address"
                },
                {
                    "indexed": true,
                    "internalType": "address",
                    "name": "spender",
                    "type": "address"
                },
                {
                    "indexed": false,
                    "internalType": "uint256",
                    "name": "amount",
                    "type": "uint256"
                }
            ],
            "name": "Approval",
            "type": "event"
        },
        {
            "anonymous": false,
            "inputs": [
                {
                    "indexed": true,
                    "internalType": "address",
                    "name": "caller",
                    "type": "address"
                },
                {
                    "indexed": true,
                    "internalType": "address",
                    "name": "owner",
                    "type": "address"
                },
                {
                    "indexed": false,
                    "internalType": "uint256",
                    "name": "assets",
                    "type": "uint256"
                },
                {
                    "indexed": false,
                    "internalType": "uint256",
                    "name": "shares",
                    "type": "uint256"
                }
            ],
            "name": "Deposit",
            "type": "event"
        },
        {
            "anonymous": false,
            "inputs": [
                {
                    "indexed": false,
                    "internalType": "uint8",
                    "name": "version",
                    "type": "uint8"
                }
            ],
            "name": "Initialized",
            "type": "event"
        },
        {
            "anonymous": false,
            "inputs": [
                {
                    "indexed": true,
                    "internalType": "address",
                    "name": "from",
                    "type": "address"
                },
                {
                    "indexed": true,
                    "internalType": "address",
                    "name": "to",
                    "type": "address"
                },
                {
                    "indexed": false,
                    "internalType": "uint256",
                    "name": "amount",
                    "type": "uint256"
                }
            ],
            "name": "Transfer",
            "type": "event"
        },
        {
            "anonymous": false,
            "inputs": [
                {
                    "indexed": true,
                    "internalType": "address",
                    "name": "caller",
                    "type": "address"
                },
                {
                    "indexed": true,
                    "internalType": "address",
                    "name": "receiver",
                    "type": "address"
                },
                {
                    "indexed": true,
                    "internalType": "address",
                    "name": "owner",
                    "type": "address"
                },
                {
                    "indexed": false,
                    "internalType": "uint256",
                    "name": "assets",
                    "type": "uint256"
                },
                {
                    "indexed": false,
                    "internalType": "uint256",
                    "name": "shares",
                    "type": "uint256"
                }
            ],
            "name": "Withdraw",
            "type": "event"
        },
        {
            "inputs": [],
            "name": "DOMAIN_SEPARATOR",
            "outputs": [
                {
                    "internalType": "bytes32",
                    "name": "",
                    "type": "bytes32"
                }
            ],
            "stateMutability": "view",
            "type": "function"
        },
        {
            "inputs": [],
            "name": "acceptOwner",
            "outputs": [],
            "stateMutability": "nonpayable",
            "type": "function"
        },
        {
            "inputs": [
                {
                    "internalType": "address",
                    "name": "",
                    "type": "address"
                },
                {
                    "internalType": "address",
                    "name": "",
                    "type": "address"
                }
            ],
            "name": "allowance",
            "outputs": [
                {
                    "internalType": "uint256",
                    "name": "",
                    "type": "uint256"
                }
            ],
            "stateMutability": "view",
            "type": "function"
        },
        {
            "inputs": [
                {
                    "internalType": "address",
                    "name": "spender",
                    "type": "address"
                },
                {
                    "internalType": "uint256",
                    "name": "amount",
                    "type": "uint256"
                }
            ],
            "name": "approve",
            "outputs": [
                {
                    "internalType": "bool",
                    "name": "",
                    "type": "bool"
                }
            ],
            "stateMutability": "nonpayable",
            "type": "function"
        },
        {
            "inputs": [],
            "name": "asset",
            "outputs": [
                {
                    "internalType": "contract ERC20",
                    "name": "",
                    "type": "address"
                }
            ],
            "stateMutability": "view",
            "type": "function"
        },
        {
            "inputs": [],
            "name": "assetIndex",
            "outputs": [
                {
                    "internalType": "uint256",
                    "name": "",
                    "type": "uint256"
                }
            ],
            "stateMutability": "view",
            "type": "function"
        },
        {
            "inputs": [
                {
                    "internalType": "address",
                    "name": "",
                    "type": "address"
                }
            ],
            "name": "balanceOf",
            "outputs": [
                {
                    "internalType": "uint256",
                    "name": "",
                    "type": "uint256"
                }
            ],
            "stateMutability": "view",
            "type": "function"
        },
        {
            "inputs": [
                {
                    "internalType": "uint256",
                    "name": "shares",
                    "type": "uint256"
                }
            ],
            "name": "convertToAssets",
            "outputs": [
                {
                    "internalType": "uint256",
                    "name": "",
                    "type": "uint256"
                }
            ],
            "stateMutability": "view",
            "type": "function"
        },
        {
            "inputs": [
                {
                    "internalType": "uint256",
                    "name": "assets",
                    "type": "uint256"
                }
            ],
            "name": "convertToShares",
            "outputs": [
                {
                    "internalType": "uint256",
                    "name": "",
                    "type": "uint256"
                }
            ],
            "stateMutability": "view",
            "type": "function"
        },
        {
            "inputs": [],
            "name": "curveFactory",
            "outputs": [
                {
                    "internalType": "contract ICurveFactory",
                    "name": "",
                    "type": "address"
                }
            ],
            "stateMutability": "view",
            "type": "function"
        },
        {
            "inputs": [],
            "name": "decimals",
            "outputs": [
                {
                    "internalType": "uint8",
                    "name": "",
                    "type": "uint8"
                }
            ],
            "stateMutability": "view",
            "type": "function"
        },
        {
            "inputs": [
                {
                    "internalType": "uint256",
                    "name": "assets",
                    "type": "uint256"
                },
                {
                    "internalType": "address",
                    "name": "receiver",
                    "type": "address"
                }
            ],
            "name": "deposit",
            "outputs": [
                {
                    "internalType": "uint256",
                    "name": "shares",
                    "type": "uint256"
                }
            ],
            "stateMutability": "nonpayable",
            "type": "function"
        },
        {
            "inputs": [],
            "name": "factory",
            "outputs": [
                {
                    "internalType": "address",
                    "name": "",
                    "type": "address"
                }
            ],
            "stateMutability": "view",
            "type": "function"
        },
        {
            "inputs": [],
            "name": "getCapitalUtilization",
            "outputs": [
                {
                    "internalType": "uint256",
                    "name": "",
                    "type": "uint256"
                }
            ],
            "stateMutability": "view",
            "type": "function"
        },
        {
            "inputs": [],
            "name": "getModuleApr",
            "outputs": [
                {
                    "internalType": "int256",
                    "name": "",
                    "type": "int256"
                }
            ],
            "stateMutability": "view",
            "type": "function"
        },
        {
            "inputs": [],
            "name": "getProduct",
            "outputs": [
                {
                    "internalType": "address",
                    "name": "",
                    "type": "address"
                }
            ],
            "stateMutability": "view",
            "type": "function"
        },
        {
            "inputs": [],
            "name": "getSource",
            "outputs": [
                {
                    "internalType": "address",
                    "name": "",
                    "type": "address"
                }
            ],
            "stateMutability": "view",
            "type": "function"
        },
        {
            "inputs": [],
            "name": "getTarget",
            "outputs": [
                {
                    "internalType": "address",
                    "name": "",
                    "type": "address"
                }
            ],
            "stateMutability": "view",
            "type": "function"
        },
        {
            "inputs": [],
            "name": "implementation",
            "outputs": [
                {
                    "internalType": "address",
                    "name": "",
                    "type": "address"
                }
            ],
            "stateMutability": "view",
            "type": "function"
        },
        {
            "inputs": [
                {
                    "internalType": "address",
                    "name": "_asset",
                    "type": "address"
                },
                {
                    "internalType": "address",
                    "name": "_product",
                    "type": "address"
                },
                {
                    "internalType": "address",
                    "name": "_source",
                    "type": "address"
                },
                {
                    "internalType": "address",
                    "name": "_implementation",
                    "type": "address"
                }
            ],
            "name": "initialize",
            "outputs": [],
            "stateMutability": "nonpayable",
            "type": "function"
        },
        {
            "inputs": [
                {
                    "internalType": "address",
                    "name": "_target",
                    "type": "address"
                }
            ],
            "name": "initializeStrategy",
            "outputs": [],
            "stateMutability": "nonpayable",
            "type": "function"
        },
        {
            "inputs": [
                {
                    "internalType": "address",
                    "name": "",
                    "type": "address"
                }
            ],
            "name": "maxDeposit",
            "outputs": [
                {
                    "internalType": "uint256",
                    "name": "",
                    "type": "uint256"
                }
            ],
            "stateMutability": "view",
            "type": "function"
        },
        {
            "inputs": [
                {
                    "internalType": "address",
                    "name": "",
                    "type": "address"
                }
            ],
            "name": "maxMint",
            "outputs": [
                {
                    "internalType": "uint256",
                    "name": "",
                    "type": "uint256"
                }
            ],
            "stateMutability": "view",
            "type": "function"
        },
        {
            "inputs": [
                {
                    "internalType": "address",
                    "name": "owner",
                    "type": "address"
                }
            ],
            "name": "maxRedeem",
            "outputs": [
                {
                    "internalType": "uint256",
                    "name": "",
                    "type": "uint256"
                }
            ],
            "stateMutability": "view",
            "type": "function"
        },
        {
            "inputs": [],
            "name": "maxSlippage",
            "outputs": [
                {
                    "internalType": "uint256",
                    "name": "",
                    "type": "uint256"
                }
            ],
            "stateMutability": "view",
            "type": "function"
        },
        {
            "inputs": [
                {
                    "internalType": "address",
                    "name": "owner",
                    "type": "address"
                }
            ],
            "name": "maxWithdraw",
            "outputs": [
                {
                    "internalType": "uint256",
                    "name": "",
                    "type": "uint256"
                }
            ],
            "stateMutability": "view",
            "type": "function"
        },
        {
            "inputs": [
                {
                    "internalType": "uint256",
                    "name": "shares",
                    "type": "uint256"
                },
                {
                    "internalType": "address",
                    "name": "receiver",
                    "type": "address"
                }
            ],
            "name": "mint",
            "outputs": [
                {
                    "internalType": "uint256",
                    "name": "assets",
                    "type": "uint256"
                }
            ],
            "stateMutability": "nonpayable",
            "type": "function"
        },
        {
            "inputs": [],
            "name": "name",
            "outputs": [
                {
                    "internalType": "string",
                    "name": "",
                    "type": "string"
                }
            ],
            "stateMutability": "view",
            "type": "function"
        },
        {
            "inputs": [
                {
                    "internalType": "address",
                    "name": "",
                    "type": "address"
                }
            ],
            "name": "nonces",
            "outputs": [
                {
                    "internalType": "uint256",
                    "name": "",
                    "type": "uint256"
                }
            ],
            "stateMutability": "view",
            "type": "function"
        },
        {
            "inputs": [],
            "name": "owner",
            "outputs": [
                {
                    "internalType": "address",
                    "name": "",
                    "type": "address"
                }
            ],
            "stateMutability": "view",
            "type": "function"
        },
        {
            "inputs": [],
            "name": "pendingOwner",
            "outputs": [
                {
                    "internalType": "address",
                    "name": "",
                    "type": "address"
                }
            ],
            "stateMutability": "view",
            "type": "function"
        },
        {
            "inputs": [
                {
                    "internalType": "address",
                    "name": "owner",
                    "type": "address"
                },
                {
                    "internalType": "address",
                    "name": "spender",
                    "type": "address"
                },
                {
                    "internalType": "uint256",
                    "name": "value",
                    "type": "uint256"
                },
                {
                    "internalType": "uint256",
                    "name": "deadline",
                    "type": "uint256"
                },
                {
                    "internalType": "uint8",
                    "name": "v",
                    "type": "uint8"
                },
                {
                    "internalType": "bytes32",
                    "name": "r",
                    "type": "bytes32"
                },
                {
                    "internalType": "bytes32",
                    "name": "s",
                    "type": "bytes32"
                }
            ],
            "name": "permit",
            "outputs": [],
            "stateMutability": "nonpayable",
            "type": "function"
        },
        {
            "inputs": [
                {
                    "internalType": "uint256",
                    "name": "assets",
                    "type": "uint256"
                }
            ],
            "name": "previewDeposit",
            "outputs": [
                {
                    "internalType": "uint256",
                    "name": "",
                    "type": "uint256"
                }
            ],
            "stateMutability": "view",
            "type": "function"
        },
        {
            "inputs": [
                {
                    "internalType": "uint256",
                    "name": "shares",
                    "type": "uint256"
                }
            ],
            "name": "previewMint",
            "outputs": [
                {
                    "internalType": "uint256",
                    "name": "",
                    "type": "uint256"
                }
            ],
            "stateMutability": "view",
            "type": "function"
        },
        {
            "inputs": [
                {
                    "internalType": "uint256",
                    "name": "shares",
                    "type": "uint256"
                }
            ],
            "name": "previewRedeem",
            "outputs": [
                {
                    "internalType": "uint256",
                    "name": "",
                    "type": "uint256"
                }
            ],
            "stateMutability": "view",
            "type": "function"
        },
        {
            "inputs": [
                {
                    "internalType": "uint256",
                    "name": "assets",
                    "type": "uint256"
                }
            ],
            "name": "previewWithdraw",
            "outputs": [
                {
                    "internalType": "uint256",
                    "name": "",
                    "type": "uint256"
                }
            ],
            "stateMutability": "view",
            "type": "function"
        },
        {
            "inputs": [],
            "name": "product",
            "outputs": [
                {
                    "internalType": "contract ERC20",
                    "name": "",
                    "type": "address"
                }
            ],
            "stateMutability": "view",
            "type": "function"
        },
        {
            "inputs": [
                {
                    "internalType": "uint256",
                    "name": "shares",
                    "type": "uint256"
                },
                {
                    "internalType": "address",
                    "name": "receiver",
                    "type": "address"
                },
                {
                    "internalType": "address",
                    "name": "owner",
                    "type": "address"
                }
            ],
            "name": "redeem",
            "outputs": [
                {
                    "internalType": "uint256",
                    "name": "assets",
                    "type": "uint256"
                }
            ],
            "stateMutability": "nonpayable",
            "type": "function"
        },
        {
            "inputs": [
                {
                    "internalType": "address",
                    "name": "_owner",
                    "type": "address"
                }
            ],
            "name": "setOwner",
            "outputs": [],
            "stateMutability": "nonpayable",
            "type": "function"
        },
        {
            "inputs": [],
            "name": "source",
            "outputs": [
                {
                    "internalType": "contract ERC4626",
                    "name": "",
                    "type": "address"
                }
            ],
            "stateMutability": "view",
            "type": "function"
        },
        {
            "inputs": [],
            "name": "symbol",
            "outputs": [
                {
                    "internalType": "string",
                    "name": "",
                    "type": "string"
                }
            ],
            "stateMutability": "view",
            "type": "function"
        },
        {
            "inputs": [],
            "name": "target",
            "outputs": [
                {
                    "internalType": "contract ERC4626",
                    "name": "",
                    "type": "address"
                }
            ],
            "stateMutability": "view",
            "type": "function"
        },
        {
            "inputs": [],
            "name": "totalAssets",
            "outputs": [
                {
                    "internalType": "uint256",
                    "name": "",
                    "type": "uint256"
                }
            ],
            "stateMutability": "view",
            "type": "function"
        },
        {
            "inputs": [],
            "name": "totalSupply",
            "outputs": [
                {
                    "internalType": "uint256",
                    "name": "",
                    "type": "uint256"
                }
            ],
            "stateMutability": "view",
            "type": "function"
        },
        {
            "inputs": [],
            "name": "totalTargetBalance",
            "outputs": [
                {
                    "internalType": "uint256",
                    "name": "",
                    "type": "uint256"
                }
            ],
            "stateMutability": "view",
            "type": "function"
        },
        {
            "inputs": [
                {
                    "internalType": "address",
                    "name": "to",
                    "type": "address"
                },
                {
                    "internalType": "uint256",
                    "name": "amount",
                    "type": "uint256"
                }
            ],
            "name": "transfer",
            "outputs": [
                {
                    "internalType": "bool",
                    "name": "",
                    "type": "bool"
                }
            ],
            "stateMutability": "nonpayable",
            "type": "function"
        },
        {
            "inputs": [
                {
                    "internalType": "address",
                    "name": "from",
                    "type": "address"
                },
                {
                    "internalType": "address",
                    "name": "to",
                    "type": "address"
                },
                {
                    "internalType": "uint256",
                    "name": "amount",
                    "type": "uint256"
                }
            ],
            "name": "transferFrom",
            "outputs": [
                {
                    "internalType": "bool",
                    "name": "",
                    "type": "bool"
                }
            ],
            "stateMutability": "nonpayable",
            "type": "function"
        },
        {
            "inputs": [
                {
                    "internalType": "uint256",
                    "name": "assets",
                    "type": "uint256"
                },
                {
                    "internalType": "address",
                    "name": "receiver",
                    "type": "address"
                },
                {
                    "internalType": "address",
                    "name": "owner",
                    "type": "address"
                }
            ],
            "name": "withdraw",
            "outputs": [
                {
                    "internalType": "uint256",
                    "name": "shares",
                    "type": "uint256"
                }
            ],
            "stateMutability": "nonpayable",
            "type": "function"
        }
    ],
    "bytecode": "60c06040523480156200001157600080fd5b506040516200337a3803806200337a83398101604081905262000034916200022f565b601080546001600160a01b0319166001600160a01b03871617905583518590859085906200006a9060019060208501906200009f565b508051620000809060029060208401906200009f565b5050506001600160a01b0390921660a052608052506200030592505050565b828054620000ad90620002c9565b90600052602060002090601f016020900481019282620000d157600085556200011c565b82601f10620000ec57805160ff19168380011785556200011c565b828001600101855582156200011c579182015b828111156200011c578251825591602001919060010190620000ff565b506200012a9291506200012e565b5090565b5b808211156200012a57600081556001016200012f565b80516001600160a01b03811681146200015d57600080fd5b919050565b634e487b7160e01b600052604160045260246000fd5b600082601f8301126200018a57600080fd5b81516001600160401b0380821115620001a757620001a762000162565b604051601f8301601f19908116603f01168101908282118183101715620001d257620001d262000162565b81604052838152602092508683858801011115620001ef57600080fd5b600091505b83821015620002135785820183015181830184015290820190620001f4565b83821115620002255760008385830101525b9695505050505050565b600080600080600060a086880312156200024857600080fd5b620002538662000145565b60208701519095506001600160401b03808211156200027157600080fd5b6200027f89838a0162000178565b955060408801519150808211156200029657600080fd5b50620002a58882890162000178565b935050620002b66060870162000145565b9150608086015190509295509295909350565b600181811c90821680620002de57607f821691505b602082108103620002ff57634e487b7160e01b600052602260045260246000fd5b50919050565b60805160a05161302c6200034e600039600081816104e20152611d8b01526000818161047a01528181610d5001528181610fa5015281816113eb01526117b5015261302c6000f3fe608060405234801561001057600080fd5b50600436106102a05760003560e01c806394bf804d11610167578063c6e6f592116100ce578063e07b098a11610087578063e07b098a1461060a578063e30c397814610613578063ebbc496514610626578063ef8b30f71461062e578063f00e6a2a14610641578063f8c8765e1461065257600080fd5b8063c6e6f5921461056a578063ce96cb771461057d578063d4b8399214610590578063d505accf146105a3578063d905777e146105b6578063dd62ed3e146105df57600080fd5b8063b460af9411610120578063b460af9414610515578063ba08765214610528578063bdde8a481461053b578063bf9ce95214610544578063c45a015514610557578063c63d75b6146103a957600080fd5b806394bf804d146104af57806395d89b41146104c2578063a9059cbb146104ca578063ae6836d6146104dd578063afa293d414610504578063b3d7f6b9146103cf57600080fd5b8063402d267d1161020b5780636e553f65116101c45780636e553f651461041b57806370a082311461042e5780637ecebe001461044e5780637f240fbf1461046e5780638c04166f146104755780638da5cb5b1461049c57600080fd5b8063402d267d146103a95780634ba20050146103be5780634cdad506146103cf5780635c60da1b146103e2578063678cbcb5146103f557806367e828bf1461040857600080fd5b806318160ddd1161025d57806318160ddd1461033357806323b872dd1461033c5780632bf8eb1d1461034f578063313ce567146103575780633644e5151461037657806338d52e0f1461037e57600080fd5b806301e1d114146102a557806306fdde03146102c057806307a2d13a146102d5578063095ea7b3146102e85780630a28a4771461030b57806313af40351461031e575b600080fd5b6102ad610665565b6040519081526020015b60405180910390f35b6102c86106f2565b6040516102b791906128ee565b6102ad6102e3366004612921565b610780565b6102fb6102f6366004612952565b6107ad565b60405190151581526020016102b7565b6102ad610319366004612921565b610819565b61033161032c36600461297e565b6108e2565b005b6102ad60045481565b6102fb61034a36600461299b565b610950565b6102ad610965565b6003546103649060ff1681565b60405160ff90911681526020016102b7565b6102ad6109fc565b600a54610391906001600160a01b031681565b6040516001600160a01b0390911681526020016102b7565b6102ad6103b736600461297e565b5060001990565b600b546001600160a01b0316610391565b6102ad6103dd366004612921565b610a16565b600f54610391906001600160a01b031681565b61033161040336600461297e565b610a9e565b600c54610391906001600160a01b031681565b6102ad6104293660046129dc565b610bbe565b6102ad61043c36600461297e565b60056020526000908152604090205481565b6102ad61045c36600461297e565b60096020526000908152604090205481565b60006102ad565b6102ad7f000000000000000000000000000000000000000000000000000000000000000081565b601054610391906001600160a01b031681565b6102ad6104bd3660046129dc565b610e6f565b6102c861113c565b6102fb6104d8366004612952565b611149565b6103917f000000000000000000000000000000000000000000000000000000000000000081565b600c546001600160a01b0316610391565b6102ad610523366004612a0c565b611155565b6102ad610536366004612a0c565b61151b565b620f42406102ad565b600b54610391906001600160a01b031681565b600e54610391906001600160a01b031681565b6102ad610578366004612921565b6118e6565b6102ad61058b36600461297e565b6118fe565b600d54610391906001600160a01b031681565b6103316105b1366004612a5d565b611926565b6102ad6105c436600461297e565b6001600160a01b031660009081526005602052604090205490565b6102ad6105ed366004612ace565b600660209081526000928352604080842090915290825290205481565b6102ad60125481565b601154610391906001600160a01b031681565b610331611b6a565b6102ad61063c366004612921565b611bd1565b600d546001600160a01b0316610391565b610331610660366004612afc565b611ca9565b600080610670610965565b600b5460125460405163cc2b27d760e01b815260048101849052600f9190910b60248201529192506001600160a01b03169063cc2b27d790604401602060405180830381865afa1580156106c8573d6000803e3d6000fd5b505050506040513d601f19601f820116820180604052508101906106ec9190612b58565b91505090565b600180546106ff90612b71565b80601f016020809104026020016040519081016040528092919081815260200182805461072b90612b71565b80156107785780601f1061074d57610100808354040283529160200191610778565b820191906000526020600020905b81548152906001019060200180831161075b57829003601f168201915b505050505081565b60045460009080156107a45761079f610797610665565b849083611f4f565b6107a6565b825b9392505050565b3360008181526006602090815260408083206001600160a01b038716808552925280832085905551919290917f8c5be1e5ebec7d5bd14f71427d1e84f3dd0314c0f7b2291e5b200ac8c7c3b925906108089086815260200190565b60405180910390a350600192915050565b60045460009061082761280b565b83816012546002811061083c5761083c612bab565b6020020152600b5460405163ed8e84f360e01b81526000916001600160a01b03169063ed8e84f390610875908590600190600401612be4565b602060405180830381865afa158015610892573d6000803e3d6000fd5b505050506040513d601f19601f820116820180604052508101906108b69190612b58565b905082156108d7576108d2836108ca610665565b839190611f4f565b6108d9565b845b95945050505050565b6010546001600160a01b0316331461092e5760405162461bcd60e51b815260206004820152600a60248201526908585d5d1bdc9a5e995960b21b60448201526064015b60405180910390fd5b601180546001600160a01b0319166001600160a01b0392909216919091179055565b600061095d848484611f6e565b949350505050565b600d546000906001600160a01b031661098557610980610665565b905090565b600d60009054906101000a90046001600160a01b03166001600160a01b03166301e1d1146040518163ffffffff1660e01b8152600401602060405180830381865afa1580156109d8573d6000803e3d6000fd5b505050506040513d601f19601f820116820180604052508101906109809190612b58565b60006007544614610a0f5761098061204e565b5060085490565b600080610a2283610780565b600b5460125460405163cc2b27d760e01b815260048101849052600f9190910b60248201529192506001600160a01b03169063cc2b27d790604401602060405180830381865afa158015610a7a573d6000803e3d6000fd5b505050506040513d601f19601f820116820180604052508101906107a69190612b58565b600d546001600160a01b031615610ae65760405162461bcd60e51b815260206004820152600c60248201526b085a5b9a5d1a585b1a5e995960a21b6044820152606401610925565b600e546001600160a01b03163314610b2b5760405162461bcd60e51b815260206004820152600860248201526721666163746f727960c01b6044820152606401610925565b600d80546001600160a01b0319166001600160a01b03838116918217909255600b5460405163095ea7b360e01b8152600481019290925260001960248301529091169063095ea7b3906044016020604051808303816000875af1158015610b96573d6000803e3d6000fd5b505050506040513d601f19601f82011682018060405250810190610bba9190612c01565b5050565b600c5460009082906001600160a01b0316338114610bee5760405162461bcd60e51b815260040161092590612c23565b806001600160a01b0316826001600160a01b031614610c1f5760405162461bcd60e51b815260040161092590612c23565b600b54600a546001600160a01b0391821691610c3e91163330896120e8565b610c4661280b565b868160125460028110610c5b57610c5b612bab565b60200201526004805460405163ed8e84f360e01b815290916000916001600160a01b0386169163ed8e84f391610c9691879160019101612be4565b602060405180830381865afa158015610cb3573d6000803e3d6000fd5b505050506040513d601f19601f82011682018060405250810190610cd79190612b58565b9050600081610ce4610965565b610cee9190612c5a565b905060008315610d0857610d03838584611f4f565b610d0a565b8a5b905080600003610d465760405162461bcd60e51b81526020600482015260076024820152662173686172657360c81b6044820152606401610925565b6000610d83610d787f0000000000000000000000000000000000000000000000000000000000000000620f4240612c72565b8590620f424061216b565b90506000876001600160a01b0316630c3e4b548884306040518463ffffffff1660e01b8152600401610db793929190612c89565b6020604051808303816000875af1158015610dd6573d6000803e3d6000fd5b505050506040513d601f19601f82011682018060405250810190610dfa9190612b58565b9050610e05816118e6565b9a50610e118c8c612199565b604080518e8152602081018d90526001600160a01b038e169133917fdcbc1c05240f31ff3ad067ef1ee35ce4997762752e3a095284754544f4c709d7910160405180910390a3610e5f6121f3565b5050505050505050505092915050565b600c5460009082906001600160a01b0316338114610e9f5760405162461bcd60e51b815260040161092590612c23565b806001600160a01b0316826001600160a01b031614610ed05760405162461bcd60e51b815260040161092590612c23565b600b546012546001600160a01b0390911690610eeb87610780565b600a54909550610f06906001600160a01b03163330886120e8565b610f0e61280b565b85818360028110610f2157610f21612bab565b602002015260405163ed8e84f360e01b81526000906001600160a01b0385169063ed8e84f390610f58908590600190600401612be4565b602060405180830381865afa158015610f75573d6000803e3d6000fd5b505050506040513d601f19601f82011682018060405250810190610f999190612b58565b90506000610fd8610fcd7f0000000000000000000000000000000000000000000000000000000000000000620f4240612c72565b8390620f424061216b565b90506000856001600160a01b0316630c3e4b548584306040518463ffffffff1660e01b815260040161100c93929190612c89565b6020604051808303816000875af115801561102b573d6000803e3d6000fd5b505050506040513d601f19601f8201168201806040525081019061104f9190612b58565b60405163cc2b27d760e01b815260048101829052600f87900b60248201529091506000906001600160a01b0388169063cc2b27d790604401602060405180830381865afa1580156110a4573d6000803e3d6000fd5b505050506040513d601f19601f820116820180604052508101906110c89190612b58565b90506110d3816118e6565b9b506110df8b8d612199565b604080518b8152602081018e90526001600160a01b038d169133917fdcbc1c05240f31ff3ad067ef1ee35ce4997762752e3a095284754544f4c709d7910160405180910390a361112d6121f3565b50505050505050505092915050565b600280546106ff90612b71565b60006107a683836122d7565b600c5460009083906001600160a01b03163381146111855760405162461bcd60e51b815260040161092590612c23565b806001600160a01b0316826001600160a01b0316146111b65760405162461bcd60e51b815260040161092590612c23565b600b546012546004546001600160a01b03909216916000906111d661280b565b8a8185600281106111e9576111e9612bab565b602002015260405163ed8e84f360e01b81526001600160a01b0386169063ed8e84f39061121d908490600190600401612be4565b602060405180830381865afa15801561123a573d6000803e3d6000fd5b505050506040513d601f19601f8201168201806040525081019061125e9190612b58565b9250811561127f5761127a82611272610965565b859190611f4f565b611281565b8a5b975050506001600160a01b03871633146112f3576001600160a01b038716600090815260066020908152604080832033845290915290205460001981146112f1576112cc8782612c72565b6001600160a01b03891660009081526006602090815260408083203384529091529020555b505b6112fc8161233d565b600b546040516370a0823160e01b81523060048201526000916001600160a01b0316906370a0823190602401602060405180830381865afa158015611345573d6000803e3d6000fd5b505050506040513d601f19601f820116820180604052508101906113699190612b58565b60405163cc2b27d760e01b815260048101829052600f85900b60248201529091506001600160a01b0385169063cc2b27d790604401602060405180830381865afa1580156113bb573d6000803e3d6000fd5b505050506040513d601f19601f820116820180604052508101906113df9190612b58565b9950600061141e6114137f0000000000000000000000000000000000000000000000000000000000000000620f4240612c72565b8c90620f4240611f4f565b60405163081579a560e01b815260048101849052600f86900b6024820152604481018290526001600160a01b038c8116606483015291925060009187169063081579a5906084016020604051808303816000875af1158015611484573d6000803e3d6000fd5b505050506040513d601f19601f820116820180604052508101906114a89190612b58565b90506114b589828e61216b565b98506114c18a8a61237b565b60408051828152602081018b90526001600160a01b03808d1692908e169133917ffbde797d201c681b91056529119e0b02407c7bb96a4a2c75c01fc9667232c8db910160405180910390a450505050505050509392505050565b600c5460009083906001600160a01b031633811461154b5760405162461bcd60e51b815260040161092590612c23565b806001600160a01b0316826001600160a01b03161461157c5760405162461bcd60e51b815260040161092590612c23565b600b546012546001600160a01b0390911690600061159989610780565b60405163cc2b27d760e01b815260048101829052600f84900b60248201529091506001600160a01b0384169063cc2b27d790604401602060405180830381865afa1580156115eb573d6000803e3d6000fd5b505050506040513d601f19601f8201168201806040525081019061160f9190612b58565b95508560000361164b5760405162461bcd60e51b81526020600482015260076024820152662161737365747360c81b6044820152606401610925565b336001600160a01b038816146116b9576001600160a01b038716600090815260066020908152604080832033845290915290205460001981146116b7576116928a82612c72565b6001600160a01b03891660009081526006602090815260408083203384529091529020555b505b6116c28161233d565b600b546040516370a0823160e01b815230600482015260009182916001600160a01b03909116906370a0823190602401602060405180830381865afa15801561170f573d6000803e3d6000fd5b505050506040513d601f19601f820116820180604052508101906117339190612b58565b60405163cc2b27d760e01b815260048101829052600f86900b60248201529091506001600160a01b0386169063cc2b27d790604401602060405180830381865afa158015611785573d6000803e3d6000fd5b505050506040513d601f19601f820116820180604052508101906117a99190612b58565b975060006117e86117dd7f0000000000000000000000000000000000000000000000000000000000000000620f4240612c72565b8a90620f4240611f4f565b60405163081579a560e01b815260048101849052600f87900b6024820152604481018290526001600160a01b038d811660648301529192509087169063081579a5906084016020604051808303816000875af115801561184c573d6000803e3d6000fd5b505050506040513d601f19601f820116820180604052508101906118709190612b58565b925061187d8c848b61216b565b9b50505080965061188e888b61237b565b60408051828152602081018c90526001600160a01b03808b1692908c169133917ffbde797d201c681b91056529119e0b02407c7bb96a4a2c75c01fc9667232c8db910160405180910390a45050505050509392505050565b60045460009080156107a45761079f81611272610665565b6001600160a01b03811660009081526005602052604081205461192090610780565b92915050565b428410156119765760405162461bcd60e51b815260206004820152601760248201527f5045524d49545f444541444c494e455f455850495245440000000000000000006044820152606401610925565b600060016119826109fc565b6001600160a01b038a811660008181526009602090815260409182902080546001810190915582517f6e71edae12b1b97f4d1f60370fef10105fa2faae0126114a169c64845d6126c98184015280840194909452938d166060840152608083018c905260a083019390935260c08083018b90528151808403909101815260e08301909152805192019190912061190160f01b6101008301526101028201929092526101228101919091526101420160408051601f198184030181528282528051602091820120600084529083018083525260ff871690820152606081018590526080810184905260a0016020604051602081039080840390855afa158015611a8e573d6000803e3d6000fd5b5050604051601f1901519150506001600160a01b03811615801590611ac45750876001600160a01b0316816001600160a01b0316145b611b015760405162461bcd60e51b815260206004820152600e60248201526d24a72b20a624a22fa9a4a3a722a960911b6044820152606401610925565b6001600160a01b0390811660009081526006602090815260408083208a8516808552908352928190208990555188815291928a16917f8c5be1e5ebec7d5bd14f71427d1e84f3dd0314c0f7b2291e5b200ac8c7c3b925910160405180910390a350505050505050565b6011546001600160a01b03163314611bb15760405162461bcd60e51b815260206004820152600a60248201526908585d5d1bdc9a5e995960b21b6044820152606401610925565b601080546001600160a01b03199081163317909155601180549091169055565b600454600090611bdf61280b565b838160125460028110611bf457611bf4612bab565b6020020152600b5460405163ed8e84f360e01b81526000916001600160a01b03169063ed8e84f390611c2d908590600190600401612be4565b602060405180830381865afa158015611c4a573d6000803e3d6000fd5b505050506040513d601f19601f82011682018060405250810190611c6e9190612b58565b9050600081611c7b610965565b611c859190612c5a565b90508315611c9d57611c98828583611f4f565b611c9f565b855b9695505050505050565b600054610100900460ff1615808015611cc95750600054600160ff909116105b80611ce35750303b158015611ce3575060005460ff166001145b611d465760405162461bcd60e51b815260206004820152602e60248201527f496e697469616c697a61626c653a20636f6e747261637420697320616c72656160448201526d191e481a5b9a5d1a585b1a5e995960921b6064820152608401610925565b6000805460ff191660011790558015611d69576000805461ff0019166101001790555b604051639ac90d3d60e01b81526001600160a01b0385811660048301526000917f000000000000000000000000000000000000000000000000000000000000000090911690639ac90d3d90602401608060405180830381865afa158015611dd4573d6000803e3d6000fd5b505050506040513d601f19601f82011682018060405250810190611df89190612ccc565b80519091506001600160a01b0316611e3d5760405162461bcd60e51b8152602060048201526008602482015267085c1c9bd91d58dd60c21b6044820152606401610925565b60001960005b6004811015611ea357876001600160a01b0316838260048110611e6857611e68612bab565b60200201516001600160a01b031603611e8357809150611ea3565b80611e8d81612d53565b9150508080611e9b90612d53565b915050611e43565b506000198103611ede5760405162461bcd60e51b815260206004820152600660248201526508585cdcd95d60d21b6044820152606401610925565b611eea878787876123dd565b611f006001600160a01b0388168760001961265e565b50508015611f48576000805461ff0019169055604051600181527f7f26b83ff96e1f2b6a682f133852f6798a09c465da95921460cefb38474024989060200160405180910390a15b5050505050565b828202811515841585830485141716611f6757600080fd5b0492915050565b6001600160a01b03831660009081526006602090815260408083203384529091528120546000198114611fca57611fa58382612c72565b6001600160a01b03861660009081526006602090815260408083203384529091529020555b6001600160a01b03851660009081526005602052604081208054859290611ff2908490612c72565b90915550506001600160a01b0380851660008181526005602052604090819020805487019055519091871690600080516020612fd78339815191529061203b9087815260200190565b60405180910390a3506001949350505050565b60007f8b73c3c69bb8fe3d512ecc4cf759cc79239f7b179b0ffacaa9a75d522b39400f60016040516120809190612d6c565b6040805191829003822060208301939093528101919091527fc89efdaa54c0f20c7adf612882df0950f5a951637e0307cdcb4c672f298b8bc660608201524660808201523060a082015260c00160405160208183030381529060405280519060200120905090565b60006040516323b872dd60e01b81528460048201528360248201528260448201526020600060648360008a5af13d15601f3d1160016000511416171691505080611f485760405162461bcd60e51b81526020600482015260146024820152731514905394d1915497d19493d357d1905253115160621b6044820152606401610925565b82820281151584158583048514171661218357600080fd5b6001826001830304018115150290509392505050565b80600460008282546121ab9190612c5a565b90915550506001600160a01b038216600081815260056020908152604080832080548601905551848152600080516020612fd783398151915291015b60405180910390a35050565b600b546040516370a0823160e01b81523060048201526000916001600160a01b0316906370a0823190602401602060405180830381865afa15801561223c573d6000803e3d6000fd5b505050506040513d601f19601f820116820180604052508101906122609190612b58565b600d54604051636e553f6560e01b8152600481018390523060248201529192506001600160a01b031690636e553f65906044015b6020604051808303816000875af11580156122b3573d6000803e3d6000fd5b505050506040513d601f19601f82011682018060405250810190610bba9190612b58565b336000908152600560205260408120805483919083906122f8908490612c72565b90915550506001600160a01b03831660008181526005602052604090819020805485019055513390600080516020612fd7833981519152906108089086815260200190565b600d54604051632d182be560e21b815260048101839052306024820181905260448201526001600160a01b039091169063b460af9490606401612294565b6001600160a01b038216600090815260056020526040812080548392906123a3908490612c72565b90915550506004805482900390556040518181526000906001600160a01b03841690600080516020612fd7833981519152906020016121e7565b600054610100900460ff166124045760405162461bcd60e51b815260040161092590612e07565b6000846001600160a01b03166395d89b416040518163ffffffff1660e01b8152600401600060405180830381865afa158015612444573d6000803e3d6000fd5b505050506040513d6000823e601f3d908101601f1916820160405261246c9190810190612e52565b90506000846001600160a01b03166395d89b416040518163ffffffff1660e01b8152600401600060405180830381865afa1580156124ae573d6000803e3d6000fd5b505050506040513d6000823e601f3d908101601f191682016040526124d69190810190612e52565b90506000836001600160a01b03166306fdde036040518163ffffffff1660e01b8152600401600060405180830381865afa158015612518573d6000803e3d6000fd5b505050506040513d6000823e601f3d908101601f191682016040526125409190810190612e52565b838360405160200161255493929190612eff565b60405160208183030381529060405290506000846001600160a01b03166395d89b416040518163ffffffff1660e01b8152600401600060405180830381865afa1580156125a5573d6000803e3d6000fd5b505050506040513d6000823e601f3d908101601f191682016040526125cd9190810190612e52565b84846040516020016125e193929190612f5f565b60405160208183030381529060405290506125fd8883836126db565b600b80546001600160a01b03808a166001600160a01b031992831617909255600c80548984169083168117909155600e8054831633179055600f8054898516931692909217909155612654918a169060001961265e565b5050505050505050565b600060405163095ea7b360e01b8152836004820152826024820152602060006044836000895af13d15601f3d11600160005114161716915050806126d55760405162461bcd60e51b815260206004820152600e60248201526d1054141493d59157d1905253115160921b6044820152606401610925565b50505050565b600054610100900460ff166127025760405162461bcd60e51b815260040161092590612e07565b6000836001600160a01b031663313ce5676040518163ffffffff1660e01b8152600401602060405180830381865afa158015612742573d6000803e3d6000fd5b505050506040513d601f19601f820116820180604052508101906127669190612fb9565b9050612773838383612799565b5050600a80546001600160a01b0319166001600160a01b03939093169290921790915550565b600054610100900460ff166127c05760405162461bcd60e51b815260040161092590612e07565b82516127d3906001906020860190612829565b5081516127e7906002906020850190612829565b506003805460ff191660ff83161790554660075561280361204e565b600855505050565b60405180604001604052806002906020820280368337509192915050565b82805461283590612b71565b90600052602060002090601f016020900481019282612857576000855561289d565b82601f1061287057805160ff191683800117855561289d565b8280016001018555821561289d579182015b8281111561289d578251825591602001919060010190612882565b506128a99291506128ad565b5090565b5b808211156128a957600081556001016128ae565b60005b838110156128dd5781810151838201526020016128c5565b838111156126d55750506000910152565b602081526000825180602084015261290d8160408501602087016128c2565b601f01601f19169190910160400192915050565b60006020828403121561293357600080fd5b5035919050565b6001600160a01b038116811461294f57600080fd5b50565b6000806040838503121561296557600080fd5b82356129708161293a565b946020939093013593505050565b60006020828403121561299057600080fd5b81356107a68161293a565b6000806000606084860312156129b057600080fd5b83356129bb8161293a565b925060208401356129cb8161293a565b929592945050506040919091013590565b600080604083850312156129ef57600080fd5b823591506020830135612a018161293a565b809150509250929050565b600080600060608486031215612a2157600080fd5b833592506020840135612a338161293a565b91506040840135612a438161293a565b809150509250925092565b60ff8116811461294f57600080fd5b600080600080600080600060e0888a031215612a7857600080fd5b8735612a838161293a565b96506020880135612a938161293a565b955060408801359450606088013593506080880135612ab181612a4e565b9699959850939692959460a0840135945060c09093013592915050565b60008060408385031215612ae157600080fd5b8235612aec8161293a565b91506020830135612a018161293a565b60008060008060808587031215612b1257600080fd5b8435612b1d8161293a565b93506020850135612b2d8161293a565b92506040850135612b3d8161293a565b91506060850135612b4d8161293a565b939692955090935050565b600060208284031215612b6a57600080fd5b5051919050565b600181811c90821680612b8557607f821691505b602082108103612ba557634e487b7160e01b600052602260045260246000fd5b50919050565b634e487b7160e01b600052603260045260246000fd5b8060005b60028110156126d5578151845260209384019390910190600101612bc5565b60608101612bf28285612bc1565b82151560408301529392505050565b600060208284031215612c1357600080fd5b815180151581146107a657600080fd5b60208082526007908201526621736f7572636560c81b604082015260600190565b634e487b7160e01b600052601160045260246000fd5b60008219821115612c6d57612c6d612c44565b500190565b600082821015612c8457612c84612c44565b500390565b60808101612c978286612bc1565b60408201939093526001600160a01b0391909116606090910152919050565b634e487b7160e01b600052604160045260246000fd5b600060808284031215612cde57600080fd5b82601f830112612ced57600080fd5b6040516080810181811067ffffffffffffffff82111715612d1057612d10612cb6565b604052806080840185811115612d2557600080fd5b845b81811015612d48578051612d3a8161293a565b835260209283019201612d27565b509195945050505050565b600060018201612d6557612d65612c44565b5060010190565b600080835481600182811c915080831680612d8857607f831692505b60208084108203612da757634e487b7160e01b86526022600452602486fd5b818015612dbb5760018114612dcc57612df9565b60ff19861689528489019650612df9565b60008a81526020902060005b86811015612df15781548b820152908501908301612dd8565b505084890196505b509498975050505050505050565b6020808252602b908201527f496e697469616c697a61626c653a20636f6e7472616374206973206e6f74206960408201526a6e697469616c697a696e6760a81b606082015260800190565b600060208284031215612e6457600080fd5b815167ffffffffffffffff80821115612e7c57600080fd5b818401915084601f830112612e9057600080fd5b815181811115612ea257612ea2612cb6565b604051601f8201601f19908116603f01168101908382118183101715612eca57612eca612cb6565b81604052828152876020848701011115612ee357600080fd5b612ef48360208301602088016128c2565b979650505050505050565b60008451612f118184602089016128c2565b6101d160f51b9083019081528451612f308160028401602089016128c2565b602d60f81b600292909101918201528351612f528160038401602088016128c2565b0160030195945050505050565b60008451612f718184602089016128c2565b8083019050602d60f81b8082528551612f91816001850160208a016128c2565b60019201918201528351612fac8160028401602088016128c2565b0160020195945050505050565b600060208284031215612fcb57600080fd5b81516107a681612a4e56feddf252ad1be2c89b69c2b068fc378daa952ba7f163c4a11628f55a4df523b3efa2646970667358221220d0a59645ee060a7c54b086579d3624ee09e9507c0e9a315579003a9629e79a2664736f6c634300080d0033",
    "sourcePath": "/Users/misha/Library/Mobile Documents/com~apple~CloudDocs/Dev/construct-finance/construct_V0/src/modules/CurvePlainPoolModule.sol",
    "compiler": {
        "name": "solc",
        "version": "0.8.13+commit.abaa5c0e"
    },
    "functionHashes": {
        "DOMAIN_SEPARATOR()": "3644e515",
        "acceptOwner()": "ebbc4965",
        "allowance(address,address)": "dd62ed3e",
        "approve(address,uint256)": "095ea7b3",
        "asset()": "38d52e0f",
        "assetIndex()": "e07b098a",
        "balanceOf(address)": "70a08231",
        "convertToAssets(uint256)": "07a2d13a",
        "convertToShares(uint256)": "c6e6f592",
        "curveFactory()": "ae6836d6",
        "decimals()": "313ce567",
        "deposit(uint256,address)": "6e553f65",
        "factory()": "c45a0155",
        "getCapitalUtilization()": "bdde8a48",
        "getModuleApr()": "7f240fbf",
        "getProduct()": "4ba20050",
        "getSource()": "afa293d4",
        "getTarget()": "f00e6a2a",
        "implementation()": "5c60da1b",
        "initialize(address,address,address,address)": "f8c8765e",
        "initializeStrategy(address)": "678cbcb5",
        "maxDeposit(address)": "402d267d",
        "maxMint(address)": "c63d75b6",
        "maxRedeem(address)": "d905777e",
        "maxSlippage()": "8c04166f",
        "maxWithdraw(address)": "ce96cb77",
        "mint(uint256,address)": "94bf804d",
        "name()": "06fdde03",
        "nonces(address)": "7ecebe00",
        "owner()": "8da5cb5b",
        "pendingOwner()": "e30c3978",
        "permit(address,address,uint256,uint256,uint8,bytes32,bytes32)": "d505accf",
        "previewDeposit(uint256)": "ef8b30f7",
        "previewMint(uint256)": "b3d7f6b9",
        "previewRedeem(uint256)": "4cdad506",
        "previewWithdraw(uint256)": "0a28a477",
        "product()": "bf9ce952",
        "redeem(uint256,address,address)": "ba087652",
        "setOwner(address)": "13af4035",
        "source()": "67e828bf",
        "symbol()": "95d89b41",
        "target()": "d4b83992",
        "totalAssets()": "01e1d114",
        "totalSupply()": "18160ddd",
        "totalTargetBalance()": "2bf8eb1d",
        "transfer(address,uint256)": "a9059cbb",
        "transferFrom(address,address,uint256)": "23b872dd",
        "withdraw(uint256,address,address)": "b460af94"
    },
    "gasEstimates": {
        "creation": {
            "codeDepositCost": "2466400",
            "executionCost": "infinite",
            "totalCost": "infinite"
        },
        "external": {
            "DOMAIN_SEPARATOR()": "infinite",
            "acceptOwner()": "50834",
            "allowance(address,address)": "infinite",
            "approve(address,uint256)": "24606",
            "asset()": "2493",
            "assetIndex()": "2328",
            "balanceOf(address)": "2569",
            "convertToAssets(uint256)": "infinite",
            "convertToShares(uint256)": "infinite",
            "curveFactory()": "infinite",
            "decimals()": "2425",
            "deposit(uint256,address)": "infinite",
            "factory()": "2470",
            "getCapitalUtilization()": "270",
            "getModuleApr()": "292",
            "getProduct()": "2399",
            "getSource()": "2465",
            "getTarget()": "2463",
            "implementation()": "2449",
            "initialize(address,address,address,address)": "infinite",
            "initializeStrategy(address)": "infinite",
            "maxDeposit(address)": "387",
            "maxMint(address)": "496",
            "maxRedeem(address)": "2653",
            "maxSlippage()": "infinite",
            "maxWithdraw(address)": "infinite",
            "mint(uint256,address)": "infinite",
            "name()": "infinite",
            "nonces(address)": "2591",
            "owner()": "2492",
            "pendingOwner()": "2403",
            "permit(address,address,uint256,uint256,uint8,bytes32,bytes32)": "infinite",
            "previewDeposit(uint256)": "infinite",
            "previewMint(uint256)": "infinite",
            "previewRedeem(uint256)": "infinite",
            "previewWithdraw(uint256)": "infinite",
            "product()": "2448",
            "redeem(uint256,address,address)": "infinite",
            "setOwner(address)": "26862",
            "source()": "2493",
            "symbol()": "infinite",
            "target()": "2426",
            "totalAssets()": "infinite",
            "totalSupply()": "2330",
            "totalTargetBalance()": "infinite",
            "transfer(address,uint256)": "infinite",
            "transferFrom(address,address,uint256)": "infinite",
            "withdraw(uint256,address,address)": "infinite"
        },
        "internal": {
            "afterDeposit()": "infinite",
            "beforeWithdraw(uint256)": "infinite"
        }
    }
}