{
    "contractName": "CurvePlainPoolModule",
    "abi": [
        {
            "inputs": [
                {
                    "internalType": "address",
                    "name": "_owner",
                    "type": "address"
                },
                {
                    "internalType": "string",
                    "name": "_name",
                    "type": "string"
                },
                {
                    "internalType": "string",
                    "name": "_symbol",
                    "type": "string"
                },
                {
                    "internalType": "address",
                    "name": "_curveFactory",
                    "type": "address"
                },
                {
                    "internalType": "uint256",
                    "name": "_maxSlippage",
                    "type": "uint256"
                }
            ],
            "stateMutability": "nonpayable",
            "type": "constructor"
        },
        {
            "anonymous": false,
            "inputs": [
                {
                    "indexed": true,
                    "internalType": "address",
                    "name": "owner",
                    "type": "address"
                },
                {
                    "indexed": true,
                    "internalType": "address",
                    "name": "spender",
                    "type": "address"
                },
                {
                    "indexed": false,
                    "internalType": "uint256",
                    "name": "amount",
                    "type": "uint256"
                }
            ],
            "name": "Approval",
            "type": "event"
        },
        {
            "anonymous": false,
            "inputs": [
                {
                    "indexed": true,
                    "internalType": "address",
                    "name": "caller",
                    "type": "address"
                },
                {
                    "indexed": true,
                    "internalType": "address",
                    "name": "owner",
                    "type": "address"
                },
                {
                    "indexed": false,
                    "internalType": "uint256",
                    "name": "assets",
                    "type": "uint256"
                },
                {
                    "indexed": false,
                    "internalType": "uint256",
                    "name": "shares",
                    "type": "uint256"
                }
            ],
            "name": "Deposit",
            "type": "event"
        },
        {
            "anonymous": false,
            "inputs": [
                {
                    "indexed": false,
                    "internalType": "uint8",
                    "name": "version",
                    "type": "uint8"
                }
            ],
            "name": "Initialized",
            "type": "event"
        },
        {
            "anonymous": false,
            "inputs": [
                {
                    "indexed": true,
                    "internalType": "address",
                    "name": "from",
                    "type": "address"
                },
                {
                    "indexed": true,
                    "internalType": "address",
                    "name": "to",
                    "type": "address"
                },
                {
                    "indexed": false,
                    "internalType": "uint256",
                    "name": "amount",
                    "type": "uint256"
                }
            ],
            "name": "Transfer",
            "type": "event"
        },
        {
            "anonymous": false,
            "inputs": [
                {
                    "indexed": true,
                    "internalType": "address",
                    "name": "caller",
                    "type": "address"
                },
                {
                    "indexed": true,
                    "internalType": "address",
                    "name": "receiver",
                    "type": "address"
                },
                {
                    "indexed": true,
                    "internalType": "address",
                    "name": "owner",
                    "type": "address"
                },
                {
                    "indexed": false,
                    "internalType": "uint256",
                    "name": "assets",
                    "type": "uint256"
                },
                {
                    "indexed": false,
                    "internalType": "uint256",
                    "name": "shares",
                    "type": "uint256"
                }
            ],
            "name": "Withdraw",
            "type": "event"
        },
        {
            "inputs": [],
            "name": "DOMAIN_SEPARATOR",
            "outputs": [
                {
                    "internalType": "bytes32",
                    "name": "",
                    "type": "bytes32"
                }
            ],
            "stateMutability": "view",
            "type": "function"
        },
        {
            "inputs": [],
            "name": "acceptOwner",
            "outputs": [],
            "stateMutability": "nonpayable",
            "type": "function"
        },
        {
            "inputs": [
                {
                    "internalType": "address",
                    "name": "",
                    "type": "address"
                },
                {
                    "internalType": "address",
                    "name": "",
                    "type": "address"
                }
            ],
            "name": "allowance",
            "outputs": [
                {
                    "internalType": "uint256",
                    "name": "",
                    "type": "uint256"
                }
            ],
            "stateMutability": "view",
            "type": "function"
        },
        {
            "inputs": [
                {
                    "internalType": "address",
                    "name": "spender",
                    "type": "address"
                },
                {
                    "internalType": "uint256",
                    "name": "amount",
                    "type": "uint256"
                }
            ],
            "name": "approve",
            "outputs": [
                {
                    "internalType": "bool",
                    "name": "",
                    "type": "bool"
                }
            ],
            "stateMutability": "nonpayable",
            "type": "function"
        },
        {
            "inputs": [],
            "name": "asset",
            "outputs": [
                {
                    "internalType": "contract ERC20",
                    "name": "",
                    "type": "address"
                }
            ],
            "stateMutability": "view",
            "type": "function"
        },
        {
            "inputs": [],
            "name": "assetIndex",
            "outputs": [
                {
                    "internalType": "uint256",
                    "name": "",
                    "type": "uint256"
                }
            ],
            "stateMutability": "view",
            "type": "function"
        },
        {
            "inputs": [
                {
                    "internalType": "address",
                    "name": "",
                    "type": "address"
                }
            ],
            "name": "balanceOf",
            "outputs": [
                {
                    "internalType": "uint256",
                    "name": "",
                    "type": "uint256"
                }
            ],
            "stateMutability": "view",
            "type": "function"
        },
        {
            "inputs": [
                {
                    "internalType": "uint256",
                    "name": "shares",
                    "type": "uint256"
                }
            ],
            "name": "convertToAssets",
            "outputs": [
                {
                    "internalType": "uint256",
                    "name": "",
                    "type": "uint256"
                }
            ],
            "stateMutability": "view",
            "type": "function"
        },
        {
            "inputs": [
                {
                    "internalType": "uint256",
                    "name": "assets",
                    "type": "uint256"
                }
            ],
            "name": "convertToShares",
            "outputs": [
                {
                    "internalType": "uint256",
                    "name": "",
                    "type": "uint256"
                }
            ],
            "stateMutability": "view",
            "type": "function"
        },
        {
            "inputs": [],
            "name": "curveFactory",
            "outputs": [
                {
                    "internalType": "contract ICurveFactory",
                    "name": "",
                    "type": "address"
                }
            ],
            "stateMutability": "view",
            "type": "function"
        },
        {
            "inputs": [],
            "name": "decimals",
            "outputs": [
                {
                    "internalType": "uint8",
                    "name": "",
                    "type": "uint8"
                }
            ],
            "stateMutability": "view",
            "type": "function"
        },
        {
            "inputs": [
                {
                    "internalType": "uint256",
                    "name": "assets",
                    "type": "uint256"
                },
                {
                    "internalType": "address",
                    "name": "receiver",
                    "type": "address"
                }
            ],
            "name": "deposit",
            "outputs": [
                {
                    "internalType": "uint256",
                    "name": "shares",
                    "type": "uint256"
                }
            ],
            "stateMutability": "nonpayable",
            "type": "function"
        },
        {
            "inputs": [],
            "name": "factory",
            "outputs": [
                {
                    "internalType": "address",
                    "name": "",
                    "type": "address"
                }
            ],
            "stateMutability": "view",
            "type": "function"
        },
        {
            "inputs": [],
            "name": "getModuleApr",
            "outputs": [
                {
                    "internalType": "uint256",
                    "name": "",
                    "type": "uint256"
                }
            ],
            "stateMutability": "view",
            "type": "function"
        },
        {
            "inputs": [],
            "name": "implementation",
            "outputs": [
                {
                    "internalType": "address",
                    "name": "",
                    "type": "address"
                }
            ],
            "stateMutability": "view",
            "type": "function"
        },
        {
            "inputs": [
                {
                    "internalType": "address",
                    "name": "_asset",
                    "type": "address"
                },
                {
                    "internalType": "address",
                    "name": "_product",
                    "type": "address"
                },
                {
                    "internalType": "address",
                    "name": "_source",
                    "type": "address"
                },
                {
                    "internalType": "address",
                    "name": "_implementation",
                    "type": "address"
                }
            ],
            "name": "initialize",
            "outputs": [],
            "stateMutability": "nonpayable",
            "type": "function"
        },
        {
            "inputs": [
                {
                    "internalType": "address",
                    "name": "_target",
                    "type": "address"
                }
            ],
            "name": "initializeStrategy",
            "outputs": [],
            "stateMutability": "nonpayable",
            "type": "function"
        },
        {
            "inputs": [
                {
                    "internalType": "address",
                    "name": "",
                    "type": "address"
                }
            ],
            "name": "maxDeposit",
            "outputs": [
                {
                    "internalType": "uint256",
                    "name": "",
                    "type": "uint256"
                }
            ],
            "stateMutability": "view",
            "type": "function"
        },
        {
            "inputs": [
                {
                    "internalType": "address",
                    "name": "",
                    "type": "address"
                }
            ],
            "name": "maxMint",
            "outputs": [
                {
                    "internalType": "uint256",
                    "name": "",
                    "type": "uint256"
                }
            ],
            "stateMutability": "view",
            "type": "function"
        },
        {
            "inputs": [
                {
                    "internalType": "address",
                    "name": "owner",
                    "type": "address"
                }
            ],
            "name": "maxRedeem",
            "outputs": [
                {
                    "internalType": "uint256",
                    "name": "",
                    "type": "uint256"
                }
            ],
            "stateMutability": "view",
            "type": "function"
        },
        {
            "inputs": [],
            "name": "maxSlippage",
            "outputs": [
                {
                    "internalType": "uint256",
                    "name": "",
                    "type": "uint256"
                }
            ],
            "stateMutability": "view",
            "type": "function"
        },
        {
            "inputs": [
                {
                    "internalType": "address",
                    "name": "owner",
                    "type": "address"
                }
            ],
            "name": "maxWithdraw",
            "outputs": [
                {
                    "internalType": "uint256",
                    "name": "",
                    "type": "uint256"
                }
            ],
            "stateMutability": "view",
            "type": "function"
        },
        {
            "inputs": [
                {
                    "internalType": "uint256",
                    "name": "shares",
                    "type": "uint256"
                },
                {
                    "internalType": "address",
                    "name": "receiver",
                    "type": "address"
                }
            ],
            "name": "mint",
            "outputs": [
                {
                    "internalType": "uint256",
                    "name": "assets",
                    "type": "uint256"
                }
            ],
            "stateMutability": "nonpayable",
            "type": "function"
        },
        {
            "inputs": [],
            "name": "name",
            "outputs": [
                {
                    "internalType": "string",
                    "name": "",
                    "type": "string"
                }
            ],
            "stateMutability": "view",
            "type": "function"
        },
        {
            "inputs": [
                {
                    "internalType": "address",
                    "name": "",
                    "type": "address"
                }
            ],
            "name": "nonces",
            "outputs": [
                {
                    "internalType": "uint256",
                    "name": "",
                    "type": "uint256"
                }
            ],
            "stateMutability": "view",
            "type": "function"
        },
        {
            "inputs": [],
            "name": "owner",
            "outputs": [
                {
                    "internalType": "address",
                    "name": "",
                    "type": "address"
                }
            ],
            "stateMutability": "view",
            "type": "function"
        },
        {
            "inputs": [],
            "name": "pendingOwner",
            "outputs": [
                {
                    "internalType": "address",
                    "name": "",
                    "type": "address"
                }
            ],
            "stateMutability": "view",
            "type": "function"
        },
        {
            "inputs": [
                {
                    "internalType": "address",
                    "name": "owner",
                    "type": "address"
                },
                {
                    "internalType": "address",
                    "name": "spender",
                    "type": "address"
                },
                {
                    "internalType": "uint256",
                    "name": "value",
                    "type": "uint256"
                },
                {
                    "internalType": "uint256",
                    "name": "deadline",
                    "type": "uint256"
                },
                {
                    "internalType": "uint8",
                    "name": "v",
                    "type": "uint8"
                },
                {
                    "internalType": "bytes32",
                    "name": "r",
                    "type": "bytes32"
                },
                {
                    "internalType": "bytes32",
                    "name": "s",
                    "type": "bytes32"
                }
            ],
            "name": "permit",
            "outputs": [],
            "stateMutability": "nonpayable",
            "type": "function"
        },
        {
            "inputs": [
                {
                    "internalType": "uint256",
                    "name": "assets",
                    "type": "uint256"
                }
            ],
            "name": "previewDeposit",
            "outputs": [
                {
                    "internalType": "uint256",
                    "name": "",
                    "type": "uint256"
                }
            ],
            "stateMutability": "view",
            "type": "function"
        },
        {
            "inputs": [
                {
                    "internalType": "uint256",
                    "name": "shares",
                    "type": "uint256"
                }
            ],
            "name": "previewMint",
            "outputs": [
                {
                    "internalType": "uint256",
                    "name": "",
                    "type": "uint256"
                }
            ],
            "stateMutability": "view",
            "type": "function"
        },
        {
            "inputs": [
                {
                    "internalType": "uint256",
                    "name": "shares",
                    "type": "uint256"
                }
            ],
            "name": "previewRedeem",
            "outputs": [
                {
                    "internalType": "uint256",
                    "name": "",
                    "type": "uint256"
                }
            ],
            "stateMutability": "view",
            "type": "function"
        },
        {
            "inputs": [
                {
                    "internalType": "uint256",
                    "name": "assets",
                    "type": "uint256"
                }
            ],
            "name": "previewWithdraw",
            "outputs": [
                {
                    "internalType": "uint256",
                    "name": "",
                    "type": "uint256"
                }
            ],
            "stateMutability": "view",
            "type": "function"
        },
        {
            "inputs": [],
            "name": "product",
            "outputs": [
                {
                    "internalType": "contract ERC20",
                    "name": "",
                    "type": "address"
                }
            ],
            "stateMutability": "view",
            "type": "function"
        },
        {
            "inputs": [
                {
                    "internalType": "uint256",
                    "name": "shares",
                    "type": "uint256"
                },
                {
                    "internalType": "address",
                    "name": "receiver",
                    "type": "address"
                },
                {
                    "internalType": "address",
                    "name": "owner",
                    "type": "address"
                }
            ],
            "name": "redeem",
            "outputs": [
                {
                    "internalType": "uint256",
                    "name": "assets",
                    "type": "uint256"
                }
            ],
            "stateMutability": "nonpayable",
            "type": "function"
        },
        {
            "inputs": [
                {
                    "internalType": "address",
                    "name": "_owner",
                    "type": "address"
                }
            ],
            "name": "setOwner",
            "outputs": [],
            "stateMutability": "nonpayable",
            "type": "function"
        },
        {
            "inputs": [],
            "name": "source",
            "outputs": [
                {
                    "internalType": "contract ERC4626",
                    "name": "",
                    "type": "address"
                }
            ],
            "stateMutability": "view",
            "type": "function"
        },
        {
            "inputs": [],
            "name": "symbol",
            "outputs": [
                {
                    "internalType": "string",
                    "name": "",
                    "type": "string"
                }
            ],
            "stateMutability": "view",
            "type": "function"
        },
        {
            "inputs": [],
            "name": "target",
            "outputs": [
                {
                    "internalType": "contract ERC4626",
                    "name": "",
                    "type": "address"
                }
            ],
            "stateMutability": "view",
            "type": "function"
        },
        {
            "inputs": [],
            "name": "totalAssets",
            "outputs": [
                {
                    "internalType": "uint256",
                    "name": "",
                    "type": "uint256"
                }
            ],
            "stateMutability": "view",
            "type": "function"
        },
        {
            "inputs": [],
            "name": "totalSupply",
            "outputs": [
                {
                    "internalType": "uint256",
                    "name": "",
                    "type": "uint256"
                }
            ],
            "stateMutability": "view",
            "type": "function"
        },
        {
            "inputs": [],
            "name": "totalTargetBalance",
            "outputs": [
                {
                    "internalType": "uint256",
                    "name": "",
                    "type": "uint256"
                }
            ],
            "stateMutability": "view",
            "type": "function"
        },
        {
            "inputs": [
                {
                    "internalType": "address",
                    "name": "to",
                    "type": "address"
                },
                {
                    "internalType": "uint256",
                    "name": "amount",
                    "type": "uint256"
                }
            ],
            "name": "transfer",
            "outputs": [
                {
                    "internalType": "bool",
                    "name": "",
                    "type": "bool"
                }
            ],
            "stateMutability": "nonpayable",
            "type": "function"
        },
        {
            "inputs": [
                {
                    "internalType": "address",
                    "name": "from",
                    "type": "address"
                },
                {
                    "internalType": "address",
                    "name": "to",
                    "type": "address"
                },
                {
                    "internalType": "uint256",
                    "name": "amount",
                    "type": "uint256"
                }
            ],
            "name": "transferFrom",
            "outputs": [
                {
                    "internalType": "bool",
                    "name": "",
                    "type": "bool"
                }
            ],
            "stateMutability": "nonpayable",
            "type": "function"
        },
        {
            "inputs": [
                {
                    "internalType": "uint256",
                    "name": "assets",
                    "type": "uint256"
                },
                {
                    "internalType": "address",
                    "name": "receiver",
                    "type": "address"
                },
                {
                    "internalType": "address",
                    "name": "owner",
                    "type": "address"
                }
            ],
            "name": "withdraw",
            "outputs": [
                {
                    "internalType": "uint256",
                    "name": "shares",
                    "type": "uint256"
                }
            ],
            "stateMutability": "nonpayable",
            "type": "function"
        }
    ],
    "bytecode": "60c06040523480156200001157600080fd5b50604051620033123803806200331283398101604081905262000034916200022f565b601080546001600160a01b0319166001600160a01b03871617905583518590859085906200006a9060019060208501906200009f565b508051620000809060029060208401906200009f565b5050506001600160a01b0390921660a052608052506200030592505050565b828054620000ad90620002c9565b90600052602060002090601f016020900481019282620000d157600085556200011c565b82601f10620000ec57805160ff19168380011785556200011c565b828001600101855582156200011c579182015b828111156200011c578251825591602001919060010190620000ff565b506200012a9291506200012e565b5090565b5b808211156200012a57600081556001016200012f565b80516001600160a01b03811681146200015d57600080fd5b919050565b634e487b7160e01b600052604160045260246000fd5b600082601f8301126200018a57600080fd5b81516001600160401b0380821115620001a757620001a762000162565b604051601f8301601f19908116603f01168101908282118183101715620001d257620001d262000162565b81604052838152602092508683858801011115620001ef57600080fd5b600091505b83821015620002135785820183015181830184015290820190620001f4565b83821115620002255760008385830101525b9695505050505050565b600080600080600060a086880312156200024857600080fd5b620002538662000145565b60208701519095506001600160401b03808211156200027157600080fd5b6200027f89838a0162000178565b955060408801519150808211156200029657600080fd5b50620002a58882890162000178565b935050620002b66060870162000145565b9150608086015190509295509295909350565b600181811c90821680620002de57607f821691505b602082108103620002ff57634e487b7160e01b600052602260045260246000fd5b50919050565b60805160a051612fc46200034e600039600081816104a50152611d2301526000818161043d01528181610ce801528181610f3d01528181611383015261174d0152612fc46000f3fe608060405234801561001057600080fd5b50600436106102745760003560e01c80638da5cb5b11610151578063c6e6f592116100c3578063dd62ed3e11610087578063dd62ed3e14610588578063e07b098a146105b3578063e30c3978146105bc578063ebbc4965146105cf578063ef8b30f7146105d7578063f8c8765e146105ea57600080fd5b8063c6e6f59214610513578063ce96cb7714610526578063d4b8399214610539578063d505accf1461054c578063d905777e1461055f57600080fd5b8063b3d7f6b911610115578063b3d7f6b914610392578063b460af94146104c7578063ba087652146104da578063bf9ce952146104ed578063c45a015514610500578063c63d75b61461037d57600080fd5b80638da5cb5b1461045f57806394bf804d1461047257806395d89b4114610485578063a9059cbb1461048d578063ae6836d6146104a057600080fd5b806338d52e0f116101ea57806367e828bf116101ae57806367e828bf146103cb5780636e553f65146103de57806370a08231146103f15780637ecebe00146104115780637f240fbf146104315780638c04166f1461043857600080fd5b806338d52e0f14610352578063402d267d1461037d5780634cdad506146103925780635c60da1b146103a5578063678cbcb5146103b857600080fd5b806313af40351161023c57806313af4035146102f257806318160ddd1461030757806323b872dd146103105780632bf8eb1d14610323578063313ce5671461032b5780633644e5151461034a57600080fd5b806301e1d1141461027957806306fdde031461029457806307a2d13a146102a9578063095ea7b3146102bc5780630a28a477146102df575b600080fd5b6102816105fd565b6040519081526020015b60405180910390f35b61029c61068a565b60405161028b9190612886565b6102816102b73660046128b9565b610718565b6102cf6102ca3660046128ea565b610745565b604051901515815260200161028b565b6102816102ed3660046128b9565b6107b1565b610305610300366004612916565b61087a565b005b61028160045481565b6102cf61031e366004612933565b6108e8565b6102816108fd565b6003546103389060ff1681565b60405160ff909116815260200161028b565b610281610994565b600a54610365906001600160a01b031681565b6040516001600160a01b03909116815260200161028b565b61028161038b366004612916565b5060001990565b6102816103a03660046128b9565b6109ae565b600f54610365906001600160a01b031681565b6103056103c6366004612916565b610a36565b600c54610365906001600160a01b031681565b6102816103ec366004612974565b610b56565b6102816103ff366004612916565b60056020526000908152604090205481565b61028161041f366004612916565b60096020526000908152604090205481565b6000610281565b6102817f000000000000000000000000000000000000000000000000000000000000000081565b601054610365906001600160a01b031681565b610281610480366004612974565b610e07565b61029c6110d4565b6102cf61049b3660046128ea565b6110e1565b6103657f000000000000000000000000000000000000000000000000000000000000000081565b6102816104d53660046129a4565b6110ed565b6102816104e83660046129a4565b6114b3565b600b54610365906001600160a01b031681565b600e54610365906001600160a01b031681565b6102816105213660046128b9565b61187e565b610281610534366004612916565b611896565b600d54610365906001600160a01b031681565b61030561055a3660046129f5565b6118be565b61028161056d366004612916565b6001600160a01b031660009081526005602052604090205490565b610281610596366004612a66565b600660209081526000928352604080842090915290825290205481565b61028160125481565b601154610365906001600160a01b031681565b610305611b02565b6102816105e53660046128b9565b611b69565b6103056105f8366004612a94565b611c41565b6000806106086108fd565b600b5460125460405163cc2b27d760e01b815260048101849052600f9190910b60248201529192506001600160a01b03169063cc2b27d790604401602060405180830381865afa158015610660573d6000803e3d6000fd5b505050506040513d601f19601f820116820180604052508101906106849190612af0565b91505090565b6001805461069790612b09565b80601f01602080910402602001604051908101604052809291908181526020018280546106c390612b09565b80156107105780601f106106e557610100808354040283529160200191610710565b820191906000526020600020905b8154815290600101906020018083116106f357829003601f168201915b505050505081565b600454600090801561073c5761073761072f6105fd565b849083611ee7565b61073e565b825b9392505050565b3360008181526006602090815260408083206001600160a01b038716808552925280832085905551919290917f8c5be1e5ebec7d5bd14f71427d1e84f3dd0314c0f7b2291e5b200ac8c7c3b925906107a09086815260200190565b60405180910390a350600192915050565b6004546000906107bf6127a3565b8381601254600281106107d4576107d4612b43565b6020020152600b5460405163ed8e84f360e01b81526000916001600160a01b03169063ed8e84f39061080d908590600190600401612b7c565b602060405180830381865afa15801561082a573d6000803e3d6000fd5b505050506040513d601f19601f8201168201806040525081019061084e9190612af0565b9050821561086f5761086a836108626105fd565b839190611ee7565b610871565b845b95945050505050565b6010546001600160a01b031633146108c65760405162461bcd60e51b815260206004820152600a60248201526908585d5d1bdc9a5e995960b21b60448201526064015b60405180910390fd5b601180546001600160a01b0319166001600160a01b0392909216919091179055565b60006108f5848484611f06565b949350505050565b600d546000906001600160a01b031661091d576109186105fd565b905090565b600d60009054906101000a90046001600160a01b03166001600160a01b03166301e1d1146040518163ffffffff1660e01b8152600401602060405180830381865afa158015610970573d6000803e3d6000fd5b505050506040513d601f19601f820116820180604052508101906109189190612af0565b600060075446146109a757610918611fe6565b5060085490565b6000806109ba83610718565b600b5460125460405163cc2b27d760e01b815260048101849052600f9190910b60248201529192506001600160a01b03169063cc2b27d790604401602060405180830381865afa158015610a12573d6000803e3d6000fd5b505050506040513d601f19601f8201168201806040525081019061073e9190612af0565b600d546001600160a01b031615610a7e5760405162461bcd60e51b815260206004820152600c60248201526b085a5b9a5d1a585b1a5e995960a21b60448201526064016108bd565b600e546001600160a01b03163314610ac35760405162461bcd60e51b815260206004820152600860248201526721666163746f727960c01b60448201526064016108bd565b600d80546001600160a01b0319166001600160a01b03838116918217909255600b5460405163095ea7b360e01b8152600481019290925260001960248301529091169063095ea7b3906044016020604051808303816000875af1158015610b2e573d6000803e3d6000fd5b505050506040513d601f19601f82011682018060405250810190610b529190612b99565b5050565b600c5460009082906001600160a01b0316338114610b865760405162461bcd60e51b81526004016108bd90612bbb565b806001600160a01b0316826001600160a01b031614610bb75760405162461bcd60e51b81526004016108bd90612bbb565b600b54600a546001600160a01b0391821691610bd69116333089612080565b610bde6127a3565b868160125460028110610bf357610bf3612b43565b60200201526004805460405163ed8e84f360e01b815290916000916001600160a01b0386169163ed8e84f391610c2e91879160019101612b7c565b602060405180830381865afa158015610c4b573d6000803e3d6000fd5b505050506040513d601f19601f82011682018060405250810190610c6f9190612af0565b9050600081610c7c6108fd565b610c869190612bf2565b905060008315610ca057610c9b838584611ee7565b610ca2565b8a5b905080600003610cde5760405162461bcd60e51b81526020600482015260076024820152662173686172657360c81b60448201526064016108bd565b6000610d1b610d107f0000000000000000000000000000000000000000000000000000000000000000620f4240612c0a565b8590620f4240612103565b90506000876001600160a01b0316630c3e4b548884306040518463ffffffff1660e01b8152600401610d4f93929190612c21565b6020604051808303816000875af1158015610d6e573d6000803e3d6000fd5b505050506040513d601f19601f82011682018060405250810190610d929190612af0565b9050610d9d8161187e565b9a50610da98c8c612131565b604080518e8152602081018d90526001600160a01b038e169133917fdcbc1c05240f31ff3ad067ef1ee35ce4997762752e3a095284754544f4c709d7910160405180910390a3610df761218b565b5050505050505050505092915050565b600c5460009082906001600160a01b0316338114610e375760405162461bcd60e51b81526004016108bd90612bbb565b806001600160a01b0316826001600160a01b031614610e685760405162461bcd60e51b81526004016108bd90612bbb565b600b546012546001600160a01b0390911690610e8387610718565b600a54909550610e9e906001600160a01b0316333088612080565b610ea66127a3565b85818360028110610eb957610eb9612b43565b602002015260405163ed8e84f360e01b81526000906001600160a01b0385169063ed8e84f390610ef0908590600190600401612b7c565b602060405180830381865afa158015610f0d573d6000803e3d6000fd5b505050506040513d601f19601f82011682018060405250810190610f319190612af0565b90506000610f70610f657f0000000000000000000000000000000000000000000000000000000000000000620f4240612c0a565b8390620f4240612103565b90506000856001600160a01b0316630c3e4b548584306040518463ffffffff1660e01b8152600401610fa493929190612c21565b6020604051808303816000875af1158015610fc3573d6000803e3d6000fd5b505050506040513d601f19601f82011682018060405250810190610fe79190612af0565b60405163cc2b27d760e01b815260048101829052600f87900b60248201529091506000906001600160a01b0388169063cc2b27d790604401602060405180830381865afa15801561103c573d6000803e3d6000fd5b505050506040513d601f19601f820116820180604052508101906110609190612af0565b905061106b8161187e565b9b506110778b8d612131565b604080518b8152602081018e90526001600160a01b038d169133917fdcbc1c05240f31ff3ad067ef1ee35ce4997762752e3a095284754544f4c709d7910160405180910390a36110c561218b565b50505050505050505092915050565b6002805461069790612b09565b600061073e838361226f565b600c5460009083906001600160a01b031633811461111d5760405162461bcd60e51b81526004016108bd90612bbb565b806001600160a01b0316826001600160a01b03161461114e5760405162461bcd60e51b81526004016108bd90612bbb565b600b546012546004546001600160a01b039092169160009061116e6127a3565b8a81856002811061118157611181612b43565b602002015260405163ed8e84f360e01b81526001600160a01b0386169063ed8e84f3906111b5908490600190600401612b7c565b602060405180830381865afa1580156111d2573d6000803e3d6000fd5b505050506040513d601f19601f820116820180604052508101906111f69190612af0565b92508115611217576112128261120a6108fd565b859190611ee7565b611219565b8a5b975050506001600160a01b038716331461128b576001600160a01b03871660009081526006602090815260408083203384529091529020546000198114611289576112648782612c0a565b6001600160a01b03891660009081526006602090815260408083203384529091529020555b505b611294816122d5565b600b546040516370a0823160e01b81523060048201526000916001600160a01b0316906370a0823190602401602060405180830381865afa1580156112dd573d6000803e3d6000fd5b505050506040513d601f19601f820116820180604052508101906113019190612af0565b60405163cc2b27d760e01b815260048101829052600f85900b60248201529091506001600160a01b0385169063cc2b27d790604401602060405180830381865afa158015611353573d6000803e3d6000fd5b505050506040513d601f19601f820116820180604052508101906113779190612af0565b995060006113b66113ab7f0000000000000000000000000000000000000000000000000000000000000000620f4240612c0a565b8c90620f4240611ee7565b60405163081579a560e01b815260048101849052600f86900b6024820152604481018290526001600160a01b038c8116606483015291925060009187169063081579a5906084016020604051808303816000875af115801561141c573d6000803e3d6000fd5b505050506040513d601f19601f820116820180604052508101906114409190612af0565b905061144d89828e612103565b98506114598a8a612313565b60408051828152602081018b90526001600160a01b03808d1692908e169133917ffbde797d201c681b91056529119e0b02407c7bb96a4a2c75c01fc9667232c8db910160405180910390a450505050505050509392505050565b600c5460009083906001600160a01b03163381146114e35760405162461bcd60e51b81526004016108bd90612bbb565b806001600160a01b0316826001600160a01b0316146115145760405162461bcd60e51b81526004016108bd90612bbb565b600b546012546001600160a01b0390911690600061153189610718565b60405163cc2b27d760e01b815260048101829052600f84900b60248201529091506001600160a01b0384169063cc2b27d790604401602060405180830381865afa158015611583573d6000803e3d6000fd5b505050506040513d601f19601f820116820180604052508101906115a79190612af0565b9550856000036115e35760405162461bcd60e51b81526020600482015260076024820152662161737365747360c81b60448201526064016108bd565b336001600160a01b03881614611651576001600160a01b0387166000908152600660209081526040808320338452909152902054600019811461164f5761162a8a82612c0a565b6001600160a01b03891660009081526006602090815260408083203384529091529020555b505b61165a816122d5565b600b546040516370a0823160e01b815230600482015260009182916001600160a01b03909116906370a0823190602401602060405180830381865afa1580156116a7573d6000803e3d6000fd5b505050506040513d601f19601f820116820180604052508101906116cb9190612af0565b60405163cc2b27d760e01b815260048101829052600f86900b60248201529091506001600160a01b0386169063cc2b27d790604401602060405180830381865afa15801561171d573d6000803e3d6000fd5b505050506040513d601f19601f820116820180604052508101906117419190612af0565b975060006117806117757f0000000000000000000000000000000000000000000000000000000000000000620f4240612c0a565b8a90620f4240611ee7565b60405163081579a560e01b815260048101849052600f87900b6024820152604481018290526001600160a01b038d811660648301529192509087169063081579a5906084016020604051808303816000875af11580156117e4573d6000803e3d6000fd5b505050506040513d601f19601f820116820180604052508101906118089190612af0565b92506118158c848b612103565b9b505050809650611826888b612313565b60408051828152602081018c90526001600160a01b03808b1692908c169133917ffbde797d201c681b91056529119e0b02407c7bb96a4a2c75c01fc9667232c8db910160405180910390a45050505050509392505050565b600454600090801561073c576107378161120a6105fd565b6001600160a01b0381166000908152600560205260408120546118b890610718565b92915050565b4284101561190e5760405162461bcd60e51b815260206004820152601760248201527f5045524d49545f444541444c494e455f4558504952454400000000000000000060448201526064016108bd565b6000600161191a610994565b6001600160a01b038a811660008181526009602090815260409182902080546001810190915582517f6e71edae12b1b97f4d1f60370fef10105fa2faae0126114a169c64845d6126c98184015280840194909452938d166060840152608083018c905260a083019390935260c08083018b90528151808403909101815260e08301909152805192019190912061190160f01b6101008301526101028201929092526101228101919091526101420160408051601f198184030181528282528051602091820120600084529083018083525260ff871690820152606081018590526080810184905260a0016020604051602081039080840390855afa158015611a26573d6000803e3d6000fd5b5050604051601f1901519150506001600160a01b03811615801590611a5c5750876001600160a01b0316816001600160a01b0316145b611a995760405162461bcd60e51b815260206004820152600e60248201526d24a72b20a624a22fa9a4a3a722a960911b60448201526064016108bd565b6001600160a01b0390811660009081526006602090815260408083208a8516808552908352928190208990555188815291928a16917f8c5be1e5ebec7d5bd14f71427d1e84f3dd0314c0f7b2291e5b200ac8c7c3b925910160405180910390a350505050505050565b6011546001600160a01b03163314611b495760405162461bcd60e51b815260206004820152600a60248201526908585d5d1bdc9a5e995960b21b60448201526064016108bd565b601080546001600160a01b03199081163317909155601180549091169055565b600454600090611b776127a3565b838160125460028110611b8c57611b8c612b43565b6020020152600b5460405163ed8e84f360e01b81526000916001600160a01b03169063ed8e84f390611bc5908590600190600401612b7c565b602060405180830381865afa158015611be2573d6000803e3d6000fd5b505050506040513d601f19601f82011682018060405250810190611c069190612af0565b9050600081611c136108fd565b611c1d9190612bf2565b90508315611c3557611c30828583611ee7565b611c37565b855b9695505050505050565b600054610100900460ff1615808015611c615750600054600160ff909116105b80611c7b5750303b158015611c7b575060005460ff166001145b611cde5760405162461bcd60e51b815260206004820152602e60248201527f496e697469616c697a61626c653a20636f6e747261637420697320616c72656160448201526d191e481a5b9a5d1a585b1a5e995960921b60648201526084016108bd565b6000805460ff191660011790558015611d01576000805461ff0019166101001790555b604051639ac90d3d60e01b81526001600160a01b0385811660048301526000917f000000000000000000000000000000000000000000000000000000000000000090911690639ac90d3d90602401608060405180830381865afa158015611d6c573d6000803e3d6000fd5b505050506040513d601f19601f82011682018060405250810190611d909190612c64565b80519091506001600160a01b0316611dd55760405162461bcd60e51b8152602060048201526008602482015267085c1c9bd91d58dd60c21b60448201526064016108bd565b60001960005b6004811015611e3b57876001600160a01b0316838260048110611e0057611e00612b43565b60200201516001600160a01b031603611e1b57809150611e3b565b80611e2581612ceb565b9150508080611e3390612ceb565b915050611ddb565b506000198103611e765760405162461bcd60e51b815260206004820152600660248201526508585cdcd95d60d21b60448201526064016108bd565b611e8287878787612375565b611e986001600160a01b038816876000196125f6565b50508015611ee0576000805461ff0019169055604051600181527f7f26b83ff96e1f2b6a682f133852f6798a09c465da95921460cefb38474024989060200160405180910390a15b5050505050565b828202811515841585830485141716611eff57600080fd5b0492915050565b6001600160a01b03831660009081526006602090815260408083203384529091528120546000198114611f6257611f3d8382612c0a565b6001600160a01b03861660009081526006602090815260408083203384529091529020555b6001600160a01b03851660009081526005602052604081208054859290611f8a908490612c0a565b90915550506001600160a01b0380851660008181526005602052604090819020805487019055519091871690600080516020612f6f83398151915290611fd39087815260200190565b60405180910390a3506001949350505050565b60007f8b73c3c69bb8fe3d512ecc4cf759cc79239f7b179b0ffacaa9a75d522b39400f60016040516120189190612d04565b6040805191829003822060208301939093528101919091527fc89efdaa54c0f20c7adf612882df0950f5a951637e0307cdcb4c672f298b8bc660608201524660808201523060a082015260c00160405160208183030381529060405280519060200120905090565b60006040516323b872dd60e01b81528460048201528360248201528260448201526020600060648360008a5af13d15601f3d1160016000511416171691505080611ee05760405162461bcd60e51b81526020600482015260146024820152731514905394d1915497d19493d357d1905253115160621b60448201526064016108bd565b82820281151584158583048514171661211b57600080fd5b6001826001830304018115150290509392505050565b80600460008282546121439190612bf2565b90915550506001600160a01b038216600081815260056020908152604080832080548601905551848152600080516020612f6f83398151915291015b60405180910390a35050565b600b546040516370a0823160e01b81523060048201526000916001600160a01b0316906370a0823190602401602060405180830381865afa1580156121d4573d6000803e3d6000fd5b505050506040513d601f19601f820116820180604052508101906121f89190612af0565b600d54604051636e553f6560e01b8152600481018390523060248201529192506001600160a01b031690636e553f65906044015b6020604051808303816000875af115801561224b573d6000803e3d6000fd5b505050506040513d601f19601f82011682018060405250810190610b529190612af0565b33600090815260056020526040812080548391908390612290908490612c0a565b90915550506001600160a01b03831660008181526005602052604090819020805485019055513390600080516020612f6f833981519152906107a09086815260200190565b600d54604051632d182be560e21b815260048101839052306024820181905260448201526001600160a01b039091169063b460af949060640161222c565b6001600160a01b0382166000908152600560205260408120805483929061233b908490612c0a565b90915550506004805482900390556040518181526000906001600160a01b03841690600080516020612f6f8339815191529060200161217f565b600054610100900460ff1661239c5760405162461bcd60e51b81526004016108bd90612d9f565b6000846001600160a01b03166395d89b416040518163ffffffff1660e01b8152600401600060405180830381865afa1580156123dc573d6000803e3d6000fd5b505050506040513d6000823e601f3d908101601f191682016040526124049190810190612dea565b90506000846001600160a01b03166395d89b416040518163ffffffff1660e01b8152600401600060405180830381865afa158015612446573d6000803e3d6000fd5b505050506040513d6000823e601f3d908101601f1916820160405261246e9190810190612dea565b90506000836001600160a01b03166306fdde036040518163ffffffff1660e01b8152600401600060405180830381865afa1580156124b0573d6000803e3d6000fd5b505050506040513d6000823e601f3d908101601f191682016040526124d89190810190612dea565b83836040516020016124ec93929190612e97565b60405160208183030381529060405290506000846001600160a01b03166395d89b416040518163ffffffff1660e01b8152600401600060405180830381865afa15801561253d573d6000803e3d6000fd5b505050506040513d6000823e601f3d908101601f191682016040526125659190810190612dea565b848460405160200161257993929190612ef7565b6040516020818303038152906040529050612595888383612673565b600b80546001600160a01b03808a166001600160a01b031992831617909255600c80548984169083168117909155600e8054831633179055600f80548985169316929092179091556125ec918a16906000196125f6565b5050505050505050565b600060405163095ea7b360e01b8152836004820152826024820152602060006044836000895af13d15601f3d116001600051141617169150508061266d5760405162461bcd60e51b815260206004820152600e60248201526d1054141493d59157d1905253115160921b60448201526064016108bd565b50505050565b600054610100900460ff1661269a5760405162461bcd60e51b81526004016108bd90612d9f565b6000836001600160a01b031663313ce5676040518163ffffffff1660e01b8152600401602060405180830381865afa1580156126da573d6000803e3d6000fd5b505050506040513d601f19601f820116820180604052508101906126fe9190612f51565b905061270b838383612731565b5050600a80546001600160a01b0319166001600160a01b03939093169290921790915550565b600054610100900460ff166127585760405162461bcd60e51b81526004016108bd90612d9f565b825161276b9060019060208601906127c1565b50815161277f9060029060208501906127c1565b506003805460ff191660ff83161790554660075561279b611fe6565b600855505050565b60405180604001604052806002906020820280368337509192915050565b8280546127cd90612b09565b90600052602060002090601f0160209004810192826127ef5760008555612835565b82601f1061280857805160ff1916838001178555612835565b82800160010185558215612835579182015b8281111561283557825182559160200191906001019061281a565b50612841929150612845565b5090565b5b808211156128415760008155600101612846565b60005b8381101561287557818101518382015260200161285d565b8381111561266d5750506000910152565b60208152600082518060208401526128a581604085016020870161285a565b601f01601f19169190910160400192915050565b6000602082840312156128cb57600080fd5b5035919050565b6001600160a01b03811681146128e757600080fd5b50565b600080604083850312156128fd57600080fd5b8235612908816128d2565b946020939093013593505050565b60006020828403121561292857600080fd5b813561073e816128d2565b60008060006060848603121561294857600080fd5b8335612953816128d2565b92506020840135612963816128d2565b929592945050506040919091013590565b6000806040838503121561298757600080fd5b823591506020830135612999816128d2565b809150509250929050565b6000806000606084860312156129b957600080fd5b8335925060208401356129cb816128d2565b915060408401356129db816128d2565b809150509250925092565b60ff811681146128e757600080fd5b600080600080600080600060e0888a031215612a1057600080fd5b8735612a1b816128d2565b96506020880135612a2b816128d2565b955060408801359450606088013593506080880135612a49816129e6565b9699959850939692959460a0840135945060c09093013592915050565b60008060408385031215612a7957600080fd5b8235612a84816128d2565b91506020830135612999816128d2565b60008060008060808587031215612aaa57600080fd5b8435612ab5816128d2565b93506020850135612ac5816128d2565b92506040850135612ad5816128d2565b91506060850135612ae5816128d2565b939692955090935050565b600060208284031215612b0257600080fd5b5051919050565b600181811c90821680612b1d57607f821691505b602082108103612b3d57634e487b7160e01b600052602260045260246000fd5b50919050565b634e487b7160e01b600052603260045260246000fd5b8060005b600281101561266d578151845260209384019390910190600101612b5d565b60608101612b8a8285612b59565b82151560408301529392505050565b600060208284031215612bab57600080fd5b8151801515811461073e57600080fd5b60208082526007908201526621736f7572636560c81b604082015260600190565b634e487b7160e01b600052601160045260246000fd5b60008219821115612c0557612c05612bdc565b500190565b600082821015612c1c57612c1c612bdc565b500390565b60808101612c2f8286612b59565b60408201939093526001600160a01b0391909116606090910152919050565b634e487b7160e01b600052604160045260246000fd5b600060808284031215612c7657600080fd5b82601f830112612c8557600080fd5b6040516080810181811067ffffffffffffffff82111715612ca857612ca8612c4e565b604052806080840185811115612cbd57600080fd5b845b81811015612ce0578051612cd2816128d2565b835260209283019201612cbf565b509195945050505050565b600060018201612cfd57612cfd612bdc565b5060010190565b600080835481600182811c915080831680612d2057607f831692505b60208084108203612d3f57634e487b7160e01b86526022600452602486fd5b818015612d535760018114612d6457612d91565b60ff19861689528489019650612d91565b60008a81526020902060005b86811015612d895781548b820152908501908301612d70565b505084890196505b509498975050505050505050565b6020808252602b908201527f496e697469616c697a61626c653a20636f6e7472616374206973206e6f74206960408201526a6e697469616c697a696e6760a81b606082015260800190565b600060208284031215612dfc57600080fd5b815167ffffffffffffffff80821115612e1457600080fd5b818401915084601f830112612e2857600080fd5b815181811115612e3a57612e3a612c4e565b604051601f8201601f19908116603f01168101908382118183101715612e6257612e62612c4e565b81604052828152876020848701011115612e7b57600080fd5b612e8c83602083016020880161285a565b979650505050505050565b60008451612ea981846020890161285a565b6101d160f51b9083019081528451612ec881600284016020890161285a565b602d60f81b600292909101918201528351612eea81600384016020880161285a565b0160030195945050505050565b60008451612f0981846020890161285a565b8083019050602d60f81b8082528551612f29816001850160208a0161285a565b60019201918201528351612f4481600284016020880161285a565b0160020195945050505050565b600060208284031215612f6357600080fd5b815161073e816129e656feddf252ad1be2c89b69c2b068fc378daa952ba7f163c4a11628f55a4df523b3efa26469706673582212201d607ada674b823119a5bf280d422b2477c7b884657ebce8e35cf5dd4529b5d464736f6c634300080d0033",
    "sourcePath": "/Users/misha/Library/Mobile Documents/com~apple~CloudDocs/Dev/construct-finance/construct_V0/src/modules/CurvePlainPoolModule.sol",
    "compiler": {
        "name": "solc",
        "version": "0.8.13+commit.abaa5c0e"
    },
    "functionHashes": {
        "DOMAIN_SEPARATOR()": "3644e515",
        "acceptOwner()": "ebbc4965",
        "allowance(address,address)": "dd62ed3e",
        "approve(address,uint256)": "095ea7b3",
        "asset()": "38d52e0f",
        "assetIndex()": "e07b098a",
        "balanceOf(address)": "70a08231",
        "convertToAssets(uint256)": "07a2d13a",
        "convertToShares(uint256)": "c6e6f592",
        "curveFactory()": "ae6836d6",
        "decimals()": "313ce567",
        "deposit(uint256,address)": "6e553f65",
        "factory()": "c45a0155",
        "getModuleApr()": "7f240fbf",
        "implementation()": "5c60da1b",
        "initialize(address,address,address,address)": "f8c8765e",
        "initializeStrategy(address)": "678cbcb5",
        "maxDeposit(address)": "402d267d",
        "maxMint(address)": "c63d75b6",
        "maxRedeem(address)": "d905777e",
        "maxSlippage()": "8c04166f",
        "maxWithdraw(address)": "ce96cb77",
        "mint(uint256,address)": "94bf804d",
        "name()": "06fdde03",
        "nonces(address)": "7ecebe00",
        "owner()": "8da5cb5b",
        "pendingOwner()": "e30c3978",
        "permit(address,address,uint256,uint256,uint8,bytes32,bytes32)": "d505accf",
        "previewDeposit(uint256)": "ef8b30f7",
        "previewMint(uint256)": "b3d7f6b9",
        "previewRedeem(uint256)": "4cdad506",
        "previewWithdraw(uint256)": "0a28a477",
        "product()": "bf9ce952",
        "redeem(uint256,address,address)": "ba087652",
        "setOwner(address)": "13af4035",
        "source()": "67e828bf",
        "symbol()": "95d89b41",
        "target()": "d4b83992",
        "totalAssets()": "01e1d114",
        "totalSupply()": "18160ddd",
        "totalTargetBalance()": "2bf8eb1d",
        "transfer(address,uint256)": "a9059cbb",
        "transferFrom(address,address,uint256)": "23b872dd",
        "withdraw(uint256,address,address)": "b460af94"
    },
    "gasEstimates": {
        "creation": {
            "codeDepositCost": "2445600",
            "executionCost": "infinite",
            "totalCost": "infinite"
        },
        "external": {
            "DOMAIN_SEPARATOR()": "infinite",
            "acceptOwner()": "50856",
            "allowance(address,address)": "infinite",
            "approve(address,uint256)": "24606",
            "asset()": "2383",
            "assetIndex()": "2350",
            "balanceOf(address)": "2591",
            "convertToAssets(uint256)": "infinite",
            "convertToShares(uint256)": "infinite",
            "curveFactory()": "infinite",
            "decimals()": "2447",
            "deposit(uint256,address)": "infinite",
            "factory()": "2470",
            "getModuleApr()": "314",
            "implementation()": "2449",
            "initialize(address,address,address,address)": "infinite",
            "initializeStrategy(address)": "infinite",
            "maxDeposit(address)": "409",
            "maxMint(address)": "496",
            "maxRedeem(address)": "2653",
            "maxSlippage()": "infinite",
            "maxWithdraw(address)": "infinite",
            "mint(uint256,address)": "infinite",
            "name()": "infinite",
            "nonces(address)": "2613",
            "owner()": "2383",
            "pendingOwner()": "2425",
            "permit(address,address,uint256,uint256,uint8,bytes32,bytes32)": "infinite",
            "previewDeposit(uint256)": "infinite",
            "previewMint(uint256)": "infinite",
            "previewRedeem(uint256)": "infinite",
            "previewWithdraw(uint256)": "infinite",
            "product()": "2448",
            "redeem(uint256,address,address)": "infinite",
            "setOwner(address)": "26751",
            "source()": "2382",
            "symbol()": "infinite",
            "target()": "2426",
            "totalAssets()": "infinite",
            "totalSupply()": "2352",
            "totalTargetBalance()": "infinite",
            "transfer(address,uint256)": "infinite",
            "transferFrom(address,address,uint256)": "infinite",
            "withdraw(uint256,address,address)": "infinite"
        },
        "internal": {
            "afterDeposit()": "infinite",
            "beforeWithdraw(uint256)": "infinite"
        }
    }
}