{
    "contractName": "YearnConvexModule",
    "abi": [
        {
            "inputs": [
                {
                    "internalType": "address",
                    "name": "_owner",
                    "type": "address"
                },
                {
                    "internalType": "string",
                    "name": "_name",
                    "type": "string"
                },
                {
                    "internalType": "string",
                    "name": "_symbol",
                    "type": "string"
                },
                {
                    "internalType": "address",
                    "name": "_oracle",
                    "type": "address"
                },
                {
                    "internalType": "address",
                    "name": "_registry",
                    "type": "address"
                },
                {
                    "internalType": "address",
                    "name": "_strategyHelper",
                    "type": "address"
                },
                {
                    "internalType": "address",
                    "name": "_booster",
                    "type": "address"
                }
            ],
            "stateMutability": "nonpayable",
            "type": "constructor"
        },
        {
            "anonymous": false,
            "inputs": [
                {
                    "indexed": true,
                    "internalType": "address",
                    "name": "owner",
                    "type": "address"
                },
                {
                    "indexed": true,
                    "internalType": "address",
                    "name": "spender",
                    "type": "address"
                },
                {
                    "indexed": false,
                    "internalType": "uint256",
                    "name": "amount",
                    "type": "uint256"
                }
            ],
            "name": "Approval",
            "type": "event"
        },
        {
            "anonymous": false,
            "inputs": [
                {
                    "indexed": true,
                    "internalType": "address",
                    "name": "caller",
                    "type": "address"
                },
                {
                    "indexed": true,
                    "internalType": "address",
                    "name": "owner",
                    "type": "address"
                },
                {
                    "indexed": false,
                    "internalType": "uint256",
                    "name": "assets",
                    "type": "uint256"
                },
                {
                    "indexed": false,
                    "internalType": "uint256",
                    "name": "shares",
                    "type": "uint256"
                }
            ],
            "name": "Deposit",
            "type": "event"
        },
        {
            "anonymous": false,
            "inputs": [
                {
                    "indexed": false,
                    "internalType": "uint8",
                    "name": "version",
                    "type": "uint8"
                }
            ],
            "name": "Initialized",
            "type": "event"
        },
        {
            "anonymous": false,
            "inputs": [
                {
                    "indexed": true,
                    "internalType": "address",
                    "name": "from",
                    "type": "address"
                },
                {
                    "indexed": true,
                    "internalType": "address",
                    "name": "to",
                    "type": "address"
                },
                {
                    "indexed": false,
                    "internalType": "uint256",
                    "name": "amount",
                    "type": "uint256"
                }
            ],
            "name": "Transfer",
            "type": "event"
        },
        {
            "anonymous": false,
            "inputs": [
                {
                    "indexed": true,
                    "internalType": "address",
                    "name": "caller",
                    "type": "address"
                },
                {
                    "indexed": true,
                    "internalType": "address",
                    "name": "receiver",
                    "type": "address"
                },
                {
                    "indexed": true,
                    "internalType": "address",
                    "name": "owner",
                    "type": "address"
                },
                {
                    "indexed": false,
                    "internalType": "uint256",
                    "name": "assets",
                    "type": "uint256"
                },
                {
                    "indexed": false,
                    "internalType": "uint256",
                    "name": "shares",
                    "type": "uint256"
                }
            ],
            "name": "Withdraw",
            "type": "event"
        },
        {
            "inputs": [],
            "name": "DOMAIN_SEPARATOR",
            "outputs": [
                {
                    "internalType": "bytes32",
                    "name": "",
                    "type": "bytes32"
                }
            ],
            "stateMutability": "view",
            "type": "function"
        },
        {
            "inputs": [],
            "name": "acceptOwner",
            "outputs": [],
            "stateMutability": "nonpayable",
            "type": "function"
        },
        {
            "inputs": [],
            "name": "affiliate",
            "outputs": [
                {
                    "internalType": "address",
                    "name": "",
                    "type": "address"
                }
            ],
            "stateMutability": "view",
            "type": "function"
        },
        {
            "inputs": [],
            "name": "allVaults",
            "outputs": [
                {
                    "internalType": "contract VaultAPI[]",
                    "name": "",
                    "type": "address[]"
                }
            ],
            "stateMutability": "view",
            "type": "function"
        },
        {
            "inputs": [
                {
                    "internalType": "address",
                    "name": "",
                    "type": "address"
                },
                {
                    "internalType": "address",
                    "name": "",
                    "type": "address"
                }
            ],
            "name": "allowance",
            "outputs": [
                {
                    "internalType": "uint256",
                    "name": "",
                    "type": "uint256"
                }
            ],
            "stateMutability": "view",
            "type": "function"
        },
        {
            "inputs": [
                {
                    "internalType": "address",
                    "name": "spender",
                    "type": "address"
                },
                {
                    "internalType": "uint256",
                    "name": "amount",
                    "type": "uint256"
                }
            ],
            "name": "approve",
            "outputs": [
                {
                    "internalType": "bool",
                    "name": "",
                    "type": "bool"
                }
            ],
            "stateMutability": "nonpayable",
            "type": "function"
        },
        {
            "inputs": [],
            "name": "asset",
            "outputs": [
                {
                    "internalType": "contract ERC20",
                    "name": "",
                    "type": "address"
                }
            ],
            "stateMutability": "view",
            "type": "function"
        },
        {
            "inputs": [
                {
                    "internalType": "address",
                    "name": "",
                    "type": "address"
                }
            ],
            "name": "balanceOf",
            "outputs": [
                {
                    "internalType": "uint256",
                    "name": "",
                    "type": "uint256"
                }
            ],
            "stateMutability": "view",
            "type": "function"
        },
        {
            "inputs": [],
            "name": "bestVault",
            "outputs": [
                {
                    "internalType": "contract VaultAPI",
                    "name": "",
                    "type": "address"
                }
            ],
            "stateMutability": "view",
            "type": "function"
        },
        {
            "inputs": [
                {
                    "internalType": "uint256",
                    "name": "shares",
                    "type": "uint256"
                }
            ],
            "name": "convertToAssets",
            "outputs": [
                {
                    "internalType": "uint256",
                    "name": "",
                    "type": "uint256"
                }
            ],
            "stateMutability": "view",
            "type": "function"
        },
        {
            "inputs": [
                {
                    "internalType": "uint256",
                    "name": "assets",
                    "type": "uint256"
                }
            ],
            "name": "convertToShares",
            "outputs": [
                {
                    "internalType": "uint256",
                    "name": "",
                    "type": "uint256"
                }
            ],
            "stateMutability": "view",
            "type": "function"
        },
        {
            "inputs": [],
            "name": "convexBooster",
            "outputs": [
                {
                    "internalType": "address",
                    "name": "",
                    "type": "address"
                }
            ],
            "stateMutability": "view",
            "type": "function"
        },
        {
            "inputs": [],
            "name": "convexPid",
            "outputs": [
                {
                    "internalType": "uint256",
                    "name": "",
                    "type": "uint256"
                }
            ],
            "stateMutability": "view",
            "type": "function"
        },
        {
            "inputs": [],
            "name": "decimals",
            "outputs": [
                {
                    "internalType": "uint8",
                    "name": "",
                    "type": "uint8"
                }
            ],
            "stateMutability": "view",
            "type": "function"
        },
        {
            "inputs": [
                {
                    "internalType": "uint256",
                    "name": "assets",
                    "type": "uint256"
                },
                {
                    "internalType": "address",
                    "name": "receiver",
                    "type": "address"
                }
            ],
            "name": "deposit",
            "outputs": [
                {
                    "internalType": "uint256",
                    "name": "shares",
                    "type": "uint256"
                }
            ],
            "stateMutability": "nonpayable",
            "type": "function"
        },
        {
            "inputs": [],
            "name": "factory",
            "outputs": [
                {
                    "internalType": "address",
                    "name": "",
                    "type": "address"
                }
            ],
            "stateMutability": "view",
            "type": "function"
        },
        {
            "inputs": [],
            "name": "getAsset",
            "outputs": [
                {
                    "internalType": "address",
                    "name": "",
                    "type": "address"
                }
            ],
            "stateMutability": "view",
            "type": "function"
        },
        {
            "inputs": [],
            "name": "getCapitalUtilization",
            "outputs": [
                {
                    "internalType": "uint256",
                    "name": "",
                    "type": "uint256"
                }
            ],
            "stateMutability": "view",
            "type": "function"
        },
        {
            "inputs": [],
            "name": "getModuleApr",
            "outputs": [
                {
                    "internalType": "int256",
                    "name": "",
                    "type": "int256"
                }
            ],
            "stateMutability": "view",
            "type": "function"
        },
        {
            "inputs": [],
            "name": "getProduct",
            "outputs": [
                {
                    "internalType": "address",
                    "name": "",
                    "type": "address"
                }
            ],
            "stateMutability": "view",
            "type": "function"
        },
        {
            "inputs": [],
            "name": "getSource",
            "outputs": [
                {
                    "internalType": "address",
                    "name": "",
                    "type": "address"
                }
            ],
            "stateMutability": "view",
            "type": "function"
        },
        {
            "inputs": [],
            "name": "getTarget",
            "outputs": [
                {
                    "internalType": "address",
                    "name": "",
                    "type": "address"
                }
            ],
            "stateMutability": "view",
            "type": "function"
        },
        {
            "inputs": [],
            "name": "implementation",
            "outputs": [
                {
                    "internalType": "address",
                    "name": "",
                    "type": "address"
                }
            ],
            "stateMutability": "view",
            "type": "function"
        },
        {
            "inputs": [
                {
                    "internalType": "address",
                    "name": "_asset",
                    "type": "address"
                },
                {
                    "internalType": "address",
                    "name": "_product",
                    "type": "address"
                },
                {
                    "internalType": "address",
                    "name": "_source",
                    "type": "address"
                },
                {
                    "internalType": "address",
                    "name": "_implementation",
                    "type": "address"
                }
            ],
            "name": "initialize",
            "outputs": [],
            "stateMutability": "nonpayable",
            "type": "function"
        },
        {
            "inputs": [
                {
                    "internalType": "address",
                    "name": "",
                    "type": "address"
                }
            ],
            "name": "maxDeposit",
            "outputs": [
                {
                    "internalType": "uint256",
                    "name": "",
                    "type": "uint256"
                }
            ],
            "stateMutability": "view",
            "type": "function"
        },
        {
            "inputs": [
                {
                    "internalType": "address",
                    "name": "",
                    "type": "address"
                }
            ],
            "name": "maxMint",
            "outputs": [
                {
                    "internalType": "uint256",
                    "name": "",
                    "type": "uint256"
                }
            ],
            "stateMutability": "view",
            "type": "function"
        },
        {
            "inputs": [
                {
                    "internalType": "address",
                    "name": "owner",
                    "type": "address"
                }
            ],
            "name": "maxRedeem",
            "outputs": [
                {
                    "internalType": "uint256",
                    "name": "",
                    "type": "uint256"
                }
            ],
            "stateMutability": "view",
            "type": "function"
        },
        {
            "inputs": [
                {
                    "internalType": "address",
                    "name": "owner",
                    "type": "address"
                }
            ],
            "name": "maxWithdraw",
            "outputs": [
                {
                    "internalType": "uint256",
                    "name": "",
                    "type": "uint256"
                }
            ],
            "stateMutability": "view",
            "type": "function"
        },
        {
            "inputs": [
                {
                    "internalType": "uint256",
                    "name": "amount",
                    "type": "uint256"
                },
                {
                    "internalType": "uint256",
                    "name": "maxMigrationLoss",
                    "type": "uint256"
                }
            ],
            "name": "migrate",
            "outputs": [
                {
                    "internalType": "uint256",
                    "name": "",
                    "type": "uint256"
                }
            ],
            "stateMutability": "nonpayable",
            "type": "function"
        },
        {
            "inputs": [
                {
                    "internalType": "uint256",
                    "name": "amount",
                    "type": "uint256"
                }
            ],
            "name": "migrate",
            "outputs": [
                {
                    "internalType": "uint256",
                    "name": "",
                    "type": "uint256"
                }
            ],
            "stateMutability": "nonpayable",
            "type": "function"
        },
        {
            "inputs": [],
            "name": "migrate",
            "outputs": [
                {
                    "internalType": "uint256",
                    "name": "",
                    "type": "uint256"
                }
            ],
            "stateMutability": "nonpayable",
            "type": "function"
        },
        {
            "inputs": [
                {
                    "internalType": "uint256",
                    "name": "shares",
                    "type": "uint256"
                },
                {
                    "internalType": "address",
                    "name": "receiver",
                    "type": "address"
                }
            ],
            "name": "mint",
            "outputs": [
                {
                    "internalType": "uint256",
                    "name": "assets",
                    "type": "uint256"
                }
            ],
            "stateMutability": "nonpayable",
            "type": "function"
        },
        {
            "inputs": [],
            "name": "name",
            "outputs": [
                {
                    "internalType": "string",
                    "name": "",
                    "type": "string"
                }
            ],
            "stateMutability": "view",
            "type": "function"
        },
        {
            "inputs": [
                {
                    "internalType": "address",
                    "name": "",
                    "type": "address"
                }
            ],
            "name": "nonces",
            "outputs": [
                {
                    "internalType": "uint256",
                    "name": "",
                    "type": "uint256"
                }
            ],
            "stateMutability": "view",
            "type": "function"
        },
        {
            "inputs": [],
            "name": "oracle",
            "outputs": [
                {
                    "internalType": "contract IPriceOracleGetter",
                    "name": "",
                    "type": "address"
                }
            ],
            "stateMutability": "view",
            "type": "function"
        },
        {
            "inputs": [],
            "name": "owner",
            "outputs": [
                {
                    "internalType": "address",
                    "name": "",
                    "type": "address"
                }
            ],
            "stateMutability": "view",
            "type": "function"
        },
        {
            "inputs": [],
            "name": "pendingAffiliate",
            "outputs": [
                {
                    "internalType": "address",
                    "name": "",
                    "type": "address"
                }
            ],
            "stateMutability": "view",
            "type": "function"
        },
        {
            "inputs": [],
            "name": "pendingOwner",
            "outputs": [
                {
                    "internalType": "address",
                    "name": "",
                    "type": "address"
                }
            ],
            "stateMutability": "view",
            "type": "function"
        },
        {
            "inputs": [
                {
                    "internalType": "address",
                    "name": "owner",
                    "type": "address"
                },
                {
                    "internalType": "address",
                    "name": "spender",
                    "type": "address"
                },
                {
                    "internalType": "uint256",
                    "name": "value",
                    "type": "uint256"
                },
                {
                    "internalType": "uint256",
                    "name": "deadline",
                    "type": "uint256"
                },
                {
                    "internalType": "uint8",
                    "name": "v",
                    "type": "uint8"
                },
                {
                    "internalType": "bytes32",
                    "name": "r",
                    "type": "bytes32"
                },
                {
                    "internalType": "bytes32",
                    "name": "s",
                    "type": "bytes32"
                }
            ],
            "name": "permit",
            "outputs": [],
            "stateMutability": "nonpayable",
            "type": "function"
        },
        {
            "inputs": [
                {
                    "internalType": "uint256",
                    "name": "assets",
                    "type": "uint256"
                }
            ],
            "name": "previewDeposit",
            "outputs": [
                {
                    "internalType": "uint256",
                    "name": "",
                    "type": "uint256"
                }
            ],
            "stateMutability": "view",
            "type": "function"
        },
        {
            "inputs": [
                {
                    "internalType": "uint256",
                    "name": "shares",
                    "type": "uint256"
                }
            ],
            "name": "previewMint",
            "outputs": [
                {
                    "internalType": "uint256",
                    "name": "",
                    "type": "uint256"
                }
            ],
            "stateMutability": "view",
            "type": "function"
        },
        {
            "inputs": [
                {
                    "internalType": "uint256",
                    "name": "shares",
                    "type": "uint256"
                }
            ],
            "name": "previewRedeem",
            "outputs": [
                {
                    "internalType": "uint256",
                    "name": "",
                    "type": "uint256"
                }
            ],
            "stateMutability": "view",
            "type": "function"
        },
        {
            "inputs": [
                {
                    "internalType": "uint256",
                    "name": "assets",
                    "type": "uint256"
                }
            ],
            "name": "previewWithdraw",
            "outputs": [
                {
                    "internalType": "uint256",
                    "name": "",
                    "type": "uint256"
                }
            ],
            "stateMutability": "view",
            "type": "function"
        },
        {
            "inputs": [],
            "name": "product",
            "outputs": [
                {
                    "internalType": "contract ERC20",
                    "name": "",
                    "type": "address"
                }
            ],
            "stateMutability": "view",
            "type": "function"
        },
        {
            "inputs": [
                {
                    "internalType": "uint256",
                    "name": "shares",
                    "type": "uint256"
                },
                {
                    "internalType": "address",
                    "name": "receiver",
                    "type": "address"
                },
                {
                    "internalType": "address",
                    "name": "owner",
                    "type": "address"
                }
            ],
            "name": "redeem",
            "outputs": [
                {
                    "internalType": "uint256",
                    "name": "assets",
                    "type": "uint256"
                }
            ],
            "stateMutability": "nonpayable",
            "type": "function"
        },
        {
            "inputs": [],
            "name": "registry",
            "outputs": [
                {
                    "internalType": "contract RegistryAPI",
                    "name": "",
                    "type": "address"
                }
            ],
            "stateMutability": "view",
            "type": "function"
        },
        {
            "inputs": [
                {
                    "internalType": "address",
                    "name": "_owner",
                    "type": "address"
                }
            ],
            "name": "setOwner",
            "outputs": [],
            "stateMutability": "nonpayable",
            "type": "function"
        },
        {
            "inputs": [
                {
                    "internalType": "address",
                    "name": "_registry",
                    "type": "address"
                }
            ],
            "name": "setRegistry",
            "outputs": [],
            "stateMutability": "nonpayable",
            "type": "function"
        },
        {
            "inputs": [
                {
                    "internalType": "address",
                    "name": "_target",
                    "type": "address"
                }
            ],
            "name": "setTarget",
            "outputs": [],
            "stateMutability": "nonpayable",
            "type": "function"
        },
        {
            "inputs": [],
            "name": "source",
            "outputs": [
                {
                    "internalType": "contract ERC4626",
                    "name": "",
                    "type": "address"
                }
            ],
            "stateMutability": "view",
            "type": "function"
        },
        {
            "inputs": [],
            "name": "strategy",
            "outputs": [
                {
                    "internalType": "contract ERC4626",
                    "name": "",
                    "type": "address"
                }
            ],
            "stateMutability": "view",
            "type": "function"
        },
        {
            "inputs": [],
            "name": "symbol",
            "outputs": [
                {
                    "internalType": "string",
                    "name": "",
                    "type": "string"
                }
            ],
            "stateMutability": "view",
            "type": "function"
        },
        {
            "inputs": [],
            "name": "target",
            "outputs": [
                {
                    "internalType": "contract ERC4626",
                    "name": "",
                    "type": "address"
                }
            ],
            "stateMutability": "view",
            "type": "function"
        },
        {
            "inputs": [],
            "name": "token",
            "outputs": [
                {
                    "internalType": "contract IERC20",
                    "name": "",
                    "type": "address"
                }
            ],
            "stateMutability": "view",
            "type": "function"
        },
        {
            "inputs": [],
            "name": "totalAssets",
            "outputs": [
                {
                    "internalType": "uint256",
                    "name": "",
                    "type": "uint256"
                }
            ],
            "stateMutability": "view",
            "type": "function"
        },
        {
            "inputs": [],
            "name": "totalSupply",
            "outputs": [
                {
                    "internalType": "uint256",
                    "name": "",
                    "type": "uint256"
                }
            ],
            "stateMutability": "view",
            "type": "function"
        },
        {
            "inputs": [],
            "name": "totalTargetBalance",
            "outputs": [
                {
                    "internalType": "uint256",
                    "name": "",
                    "type": "uint256"
                }
            ],
            "stateMutability": "view",
            "type": "function"
        },
        {
            "inputs": [
                {
                    "internalType": "address",
                    "name": "account",
                    "type": "address"
                }
            ],
            "name": "totalVaultBalance",
            "outputs": [
                {
                    "internalType": "uint256",
                    "name": "balance",
                    "type": "uint256"
                }
            ],
            "stateMutability": "view",
            "type": "function"
        },
        {
            "inputs": [
                {
                    "internalType": "address",
                    "name": "to",
                    "type": "address"
                },
                {
                    "internalType": "uint256",
                    "name": "amount",
                    "type": "uint256"
                }
            ],
            "name": "transfer",
            "outputs": [
                {
                    "internalType": "bool",
                    "name": "",
                    "type": "bool"
                }
            ],
            "stateMutability": "nonpayable",
            "type": "function"
        },
        {
            "inputs": [
                {
                    "internalType": "address",
                    "name": "from",
                    "type": "address"
                },
                {
                    "internalType": "address",
                    "name": "to",
                    "type": "address"
                },
                {
                    "internalType": "uint256",
                    "name": "amount",
                    "type": "uint256"
                }
            ],
            "name": "transferFrom",
            "outputs": [
                {
                    "internalType": "bool",
                    "name": "",
                    "type": "bool"
                }
            ],
            "stateMutability": "nonpayable",
            "type": "function"
        },
        {
            "inputs": [
                {
                    "internalType": "uint256",
                    "name": "assets",
                    "type": "uint256"
                },
                {
                    "internalType": "address",
                    "name": "receiver",
                    "type": "address"
                },
                {
                    "internalType": "address",
                    "name": "owner",
                    "type": "address"
                }
            ],
            "name": "withdraw",
            "outputs": [
                {
                    "internalType": "uint256",
                    "name": "shares",
                    "type": "uint256"
                }
            ],
            "stateMutability": "nonpayable",
            "type": "function"
        },
        {
            "inputs": [],
            "name": "yearnStrategyHelper",
            "outputs": [
                {
                    "internalType": "contract IYearnStrategyHelper",
                    "name": "",
                    "type": "address"
                }
            ],
            "stateMutability": "view",
            "type": "function"
        }
    ],
    "bytecode": "60e06040523480156200001157600080fd5b50604051620050513803806200505183398101604081905262000034916200024f565b601180546001600160a01b0319166001600160a01b038916179055855183908890889088906200006c906001906020850190620000bf565b50805162000082906002906020840190620000bf565b5050601580546001600160a01b0319166001600160a01b03948516179055505093841660a05290831660805290911660c052506200035392505050565b828054620000cd9062000317565b90600052602060002090601f016020900481019282620000f157600085556200013c565b82601f106200010c57805160ff19168380011785556200013c565b828001600101855582156200013c579182015b828111156200013c5782518255916020019190600101906200011f565b506200014a9291506200014e565b5090565b5b808211156200014a57600081556001016200014f565b80516001600160a01b03811681146200017d57600080fd5b919050565b634e487b7160e01b600052604160045260246000fd5b600082601f830112620001aa57600080fd5b81516001600160401b0380821115620001c757620001c762000182565b604051601f8301601f19908116603f01168101908282118183101715620001f257620001f262000182565b816040528381526020925086838588010111156200020f57600080fd5b600091505b8382101562000233578582018301518183018401529082019062000214565b83821115620002455760008385830101525b9695505050505050565b600080600080600080600060e0888a0312156200026b57600080fd5b620002768862000165565b60208901519097506001600160401b03808211156200029457600080fd5b620002a28b838c0162000198565b975060408a0151915080821115620002b957600080fd5b50620002c88a828b0162000198565b955050620002d96060890162000165565b9350620002e96080890162000165565b9250620002f960a0890162000165565b91506200030960c0890162000165565b905092959891949750929550565b600181811c908216806200032c57607f821691505b6020821081036200034d57634e487b7160e01b600052602260045260246000fd5b50919050565b60805160a05160c051614cab620003a660003960006104ca015260008181610640015281816127190152818161287d0152612a270152600081816104700152818161346501526135790152614cab6000f3fe608060405234801561001057600080fd5b50600436106103ba5760003560e01c80637f240fbf116101f4578063bf9ce9521161011a578063dd62ed3e116100ad578063ef8b30f71161007c578063ef8b30f714610851578063f00e6a2a14610864578063f8c8765e14610875578063fc0c546a1461088857600080fd5b8063dd62ed3e14610803578063e30c39781461082e578063e95b2de814610841578063ebbc49651461084957600080fd5b8063ce96cb77116100e9578063ce96cb77146107a1578063d4b83992146107b4578063d505accf146107c7578063d905777e146107da57600080fd5b8063bf9ce95214610768578063c45a01551461077b578063c63d75b61461054c578063c6e6f5921461078e57600080fd5b8063a9059cbb11610192578063b3d7f6b911610161578063b3d7f6b914610726578063b460af9414610739578063ba0876521461074c578063bdde8a481461075f57600080fd5b8063a9059cbb146106dc578063a91ee0dc146106ef578063afa293d414610702578063b38a440e1461071357600080fd5b80638fd3ab80116101ce5780638fd3ab80146106a657806394bf804d146106ae57806395d89b41146106c1578063a8c62e76146106c957600080fd5b80637f240fbf1461068257806386993bef1461068a5780638da5cb5b1461069357600080fd5b806338d52e0f116102e45780635c60da1b11610277578063776d1a0111610246578063776d1a01146106155780637b103999146106285780637dc0d1d01461063b5780637ecebe001461066257600080fd5b80635c60da1b146105bc57806367e828bf146105cf5780636e553f65146105e257806370a08231146105f557600080fd5b806345e05f43116102b357806345e05f43146105745780634ba20050146105875780634cdad506146105985780635c222bad146105ab57600080fd5b806338d52e0f146105265780633e54bacb14610539578063402d267d1461054c578063454b06081461056157600080fd5b806318160ddd1161035c5780632cdacb501161032b5780632cdacb50146104c557806330e5065e146104ec578063313ce567146104ff5780633644e5151461051e57600080fd5b806318160ddd14610462578063183b66b11461046b57806323b872dd146104aa5780632bf8eb1d146104bd57600080fd5b806307a2d13a1161039857806307a2d13a14610404578063095ea7b3146104175780630a28a4771461043a57806313af40351461044d57600080fd5b806301e1d114146103bf578063063effeb146103da57806306fdde03146103ef575b600080fd5b6103c761089b565b6040519081526020015b60405180910390f35b6103e26108ab565b6040516103d1919061428c565b6103f7610b14565b6040516103d19190614331565b6103c7610412366004614344565b610ba2565b61042a610425366004614372565b610bcf565b60405190151581526020016103d1565b6103c7610448366004614344565b610c3c565b61046061045b36600461439e565b610c5c565b005b6103c760045481565b6104927f000000000000000000000000000000000000000000000000000000000000000081565b6040516001600160a01b0390911681526020016103d1565b61042a6104b83660046143bb565b610cca565b6103c7610cdf565b6104927f000000000000000000000000000000000000000000000000000000000000000081565b6103c76104fa36600461439e565b610d71565b60035461050c9060ff1681565b60405160ff90911681526020016103d1565b6103c7610f4a565b600a54610492906001600160a01b031681565b6103c76105473660046143fc565b610f64565b6103c761055a36600461439e565b5060001990565b6103c761056f366004614344565b610f71565b601654610492906001600160a01b031681565b600b546001600160a01b0316610492565b6103c76105a6366004614344565b610f7d565b600a546001600160a01b0316610492565b601054610492906001600160a01b031681565b600c54610492906001600160a01b031681565b6103c76105f036600461441e565b610f88565b6103c761060336600461439e565b60056020526000908152604090205481565b61046061062336600461439e565b6110a4565b601554610492906001600160a01b031681565b6104927f000000000000000000000000000000000000000000000000000000000000000081565b6103c761067036600461439e565b60096020526000908152604090205481565b6103c76111c4565b6103c760185481565b601154610492906001600160a01b031681565b6103c7611301565b6103c76106bc36600461441e565b61130c565b6103f76113e1565b600e54610492906001600160a01b031681565b61042a6106ea366004614372565b6113ee565b6104606106fd36600461439e565b6113fa565b600c546001600160a01b0316610492565b601754610492906001600160a01b031681565b6103c7610734366004614344565b61152b565b6103c761074736600461444e565b61154a565b6103c761075a36600461444e565b6116a2565b620f42406103c7565b600b54610492906001600160a01b031681565b600f54610492906001600160a01b031681565b6103c761079c366004614344565b611826565b6103c76107af36600461439e565b611846565b600d54610492906001600160a01b031681565b6104606107d536600461449f565b611868565b6103c76107e836600461439e565b6001600160a01b031660009081526005602052604090205490565b6103c7610811366004614510565b600660209081526000928352604080842090915290825290205481565b601254610492906001600160a01b031681565b610492611aac565b610460611b21565b6103c761085f366004614344565b611b88565b600d546001600160a01b0316610492565b61046061088336600461453e565b611bc2565b601354610492906001600160a01b031681565b60006108a630610d71565b905090565b60145460155460135460405163f9c7bba560e01b81526001600160a01b03918216600482015260609392600092169063f9c7bba590602401602060405180830381865afa158015610900573d6000803e3d6000fd5b505050506040513d601f19601f82011682018060405250810190610924919061459a565b905080820361098f57601480548060200260200160405190810160405280929190818152602001828054801561098357602002820191906000526020600020905b81546001600160a01b03168152600190910190602001808311610965575b50505050509250505090565b60008167ffffffffffffffff8111156109aa576109aa6145b3565b6040519080825280602002602001820160405280156109d3578160200160208202803683370190505b50905060005b83811015610a4e57601481815481106109f4576109f46145c9565b9060005260206000200160009054906101000a90046001600160a01b0316828281518110610a2457610a246145c9565b6001600160a01b039092166020928302919091019091015280610a46816145f5565b9150506109d9565b50825b82811015610b0c57601554601354604051633ddfe34f60e11b81526001600160a01b03918216600482015260248101849052911690637bbfc69e90604401602060405180830381865afa158015610aac573d6000803e3d6000fd5b505050506040513d601f19601f82011682018060405250810190610ad0919061460e565b828281518110610ae257610ae26145c9565b6001600160a01b039092166020928302919091019091015280610b04816145f5565b915050610a51565b509392505050565b60018054610b219061462b565b80601f0160208091040260200160405190810160405280929190818152602001828054610b4d9061462b565b8015610b9a5780601f10610b6f57610100808354040283529160200191610b9a565b820191906000526020600020905b815481529060010190602001808311610b7d57829003601f168201915b505050505081565b6004546000908015610bc657610bc1610bb961089b565b849083611e6b565b610bc8565b825b9392505050565b3360008181526006602090815260408083206001600160a01b038716808552925280832085905551919290917f8c5be1e5ebec7d5bd14f71427d1e84f3dd0314c0f7b2291e5b200ac8c7c3b92590610c2a9086815260200190565b60405180910390a35060015b92915050565b6004546000908015610bc657610bc181610c5461089b565b859190611e8a565b6011546001600160a01b03163314610ca85760405162461bcd60e51b815260206004820152600a60248201526908585d5d1bdc9a5e995960b21b60448201526064015b60405180910390fd5b601280546001600160a01b0319166001600160a01b0392909216919091179055565b6000610cd7848484611eb8565b949350505050565b600d546000906001600160a01b0316610cfa576108a661089b565b600d60009054906101000a90046001600160a01b03166001600160a01b03166301e1d1146040518163ffffffff1660e01b8152600401602060405180830381865afa158015610d4d573d6000803e3d6000fd5b505050506040513d601f19601f820116820180604052508101906108a6919061459a565b600080610d7c6108ab565b905060005b8151811015610f4357610f2f610f28838381518110610da257610da26145c9565b60200260200101516001600160a01b031663313ce5676040518163ffffffff1660e01b8152600401602060405180830381865afa158015610de7573d6000803e3d6000fd5b505050506040513d601f19601f82011682018060405250810190610e0b919061459a565b610e1690600a614749565b610f22858581518110610e2b57610e2b6145c9565b60200260200101516001600160a01b03166399530b066040518163ffffffff1660e01b8152600401602060405180830381865afa158015610e70573d6000803e3d6000fd5b505050506040513d601f19601f82011682018060405250810190610e94919061459a565b868681518110610ea657610ea66145c9565b60209081029190910101516040516370a0823160e01b81526001600160a01b038b81166004830152909116906370a0823190602401602060405180830381865afa158015610ef8573d6000803e3d6000fd5b505050506040513d601f19601f82011682018060405250810190610f1c919061459a565b90611f98565b90611fa4565b8490611fb0565b925080610f3b816145f5565b915050610d81565b5050919050565b60006007544614610f5d576108a6611fbc565b5060085490565b6000610bc8308484612056565b6000610c3630836121d5565b6000610c3682610ba2565b600c5460009082906001600160a01b0316338114610fb85760405162461bcd60e51b8152600401610c9f90614755565b806001600160a01b0316826001600160a01b031614610fe95760405162461bcd60e51b8152600401610c9f90614755565b610ff285611b88565b92508260000361102e5760405162461bcd60e51b81526020600482015260076024820152662173686172657360c81b6044820152606401610c9f565b600061103d33308860016121e3565b905061104881611826565b935061105485856125a1565b60408051878152602081018690526001600160a01b0387169133917fdcbc1c05240f31ff3ad067ef1ee35ce4997762752e3a095284754544f4c709d791015b60405180910390a350505092915050565b600d546001600160a01b0316156110ec5760405162461bcd60e51b815260206004820152600c60248201526b085a5b9a5d1a585b1a5e995960a21b6044820152606401610c9f565b600f546001600160a01b031633146111315760405162461bcd60e51b815260206004820152600860248201526721666163746f727960c01b6044820152606401610c9f565b600d80546001600160a01b0319166001600160a01b03838116918217909255600b5460405163095ea7b360e01b8152600481019290925260001960248301529091169063095ea7b3906044016020604051808303816000875af115801561119c573d6000803e3d6000fd5b505050506040513d601f19601f820116820180604052508101906111c09190614776565b5050565b6000806111cf611aac565b90506000816001600160a01b031663a6f7f5d66040518163ffffffff1660e01b8152600401602060405180830381865afa158015611211573d6000803e3d6000fd5b505050506040513d601f19601f82011682018060405250810190611235919061459a565b90506000826001600160a01b031663877887826040518163ffffffff1660e01b8152600401602060405180830381865afa158015611277573d6000803e3d6000fd5b505050506040513d601f19601f8201168201806040525081019061129b919061459a565b905060006112a76125fb565b90506112b983655af3107a4000614798565b6112ee6112cc84655af3107a4000614798565b6112de90670de0b6b3a76400006147b7565b8390670de0b6b3a7640000611e6b565b6112f891906147ce565b94505050505090565b60006108a630612b0a565b600c5460009082906001600160a01b031633811461133c5760405162461bcd60e51b8152600401610c9f90614755565b806001600160a01b0316826001600160a01b03161461136d5760405162461bcd60e51b8152600401610c9f90614755565b6113768561152b565b9250600061138733308660016121e3565b905061139281611826565b955061139e85876125a1565b60408051858152602081018890526001600160a01b0387169133917fdcbc1c05240f31ff3ad067ef1ee35ce4997762752e3a095284754544f4c709d79101611093565b60028054610b219061462b565b6000610bc88383612b18565b601560009054906101000a90046001600160a01b03166001600160a01b0316635aa6e6756040518163ffffffff1660e01b8152600401602060405180830381865afa15801561144d573d6000803e3d6000fd5b505050506040513d601f19601f82011682018060405250810190611471919061460e565b6001600160a01b0316336001600160a01b03161461148e57600080fd5b601580546001600160a01b0319166001600160a01b03831690811790915560408051635aa6e67560e01b81529051635aa6e675916004808201926020929091908290030181865afa1580156114e7573d6000803e3d6000fd5b505050506040513d601f19601f8201168201806040525081019061150b919061460e565b6001600160a01b0316336001600160a01b03161461152857600080fd5b50565b6004546000908015610bc657610bc161154261089b565b849083611e8a565b600c5460009083906001600160a01b031633811461157a5760405162461bcd60e51b8152600401610c9f90614755565b806001600160a01b0316826001600160a01b0316146115ab5760405162461bcd60e51b8152600401610c9f90614755565b6115b486610c3c565b9250336001600160a01b03851614611624576001600160a01b03841660009081526006602090815260408083203384529091529020546000198114611622576115fd84826147b7565b6001600160a01b03861660009081526006602090815260408083203384529091529020555b505b60006116333087896001612b7e565b9050611640848289611e8a565b935061164c8585613340565b60408051828152602081018690526001600160a01b03808816929089169133917ffbde797d201c681b91056529119e0b02407c7bb96a4a2c75c01fc9667232c8db91015b60405180910390a45050509392505050565b600c5460009083906001600160a01b03163381146116d25760405162461bcd60e51b8152600401610c9f90614755565b806001600160a01b0316826001600160a01b0316146117035760405162461bcd60e51b8152600401610c9f90614755565b61170c86610f7d565b9250826000036117485760405162461bcd60e51b81526020600482015260076024820152662161737365747360c81b6044820152606401610c9f565b336001600160a01b038516146117b6576001600160a01b038416600090815260066020908152604080832033845290915290205460001981146117b45761178f87826147b7565b6001600160a01b03861660009081526006602090815260408083203384529091529020555b505b60006117c53087866001612b7e565b90506117d2878286611e8a565b96506117de8588613340565b60408051828152602081018990526001600160a01b03808816929089169133917ffbde797d201c681b91056529119e0b02407c7bb96a4a2c75c01fc9667232c8db9101611690565b6004546000908015610bc657610bc18161183e61089b565b859190611e6b565b6001600160a01b038116600090815260056020526040812054610c3690610ba2565b428410156118b85760405162461bcd60e51b815260206004820152601760248201527f5045524d49545f444541444c494e455f455850495245440000000000000000006044820152606401610c9f565b600060016118c4610f4a565b6001600160a01b038a811660008181526009602090815260409182902080546001810190915582517f6e71edae12b1b97f4d1f60370fef10105fa2faae0126114a169c64845d6126c98184015280840194909452938d166060840152608083018c905260a083019390935260c08083018b90528151808403909101815260e08301909152805192019190912061190160f01b6101008301526101028201929092526101228101919091526101420160408051601f198184030181528282528051602091820120600084529083018083525260ff871690820152606081018590526080810184905260a0016020604051602081039080840390855afa1580156119d0573d6000803e3d6000fd5b5050604051601f1901519150506001600160a01b03811615801590611a065750876001600160a01b0316816001600160a01b0316145b611a435760405162461bcd60e51b815260206004820152600e60248201526d24a72b20a624a22fa9a4a3a722a960911b6044820152606401610c9f565b6001600160a01b0390811660009081526006602090815260408083208a8516808552908352928190208990555188815291928a16917f8c5be1e5ebec7d5bd14f71427d1e84f3dd0314c0f7b2291e5b200ac8c7c3b925910160405180910390a350505050505050565b601554601354604051630e177dc760e41b81526001600160a01b039182166004820152600092919091169063e177dc7090602401602060405180830381865afa158015611afd573d6000803e3d6000fd5b505050506040513d601f19601f820116820180604052508101906108a6919061460e565b6012546001600160a01b03163314611b685760405162461bcd60e51b815260206004820152600a60248201526908585d5d1bdc9a5e995960b21b6044820152606401610c9f565b601180546001600160a01b03199081163317909155601280549091169055565b6004546000908183611b9861089b565b611ba2919061480d565b90508115611bba57611bb5848383611e6b565b610cd7565b509192915050565b600054610100900460ff1615808015611be25750600054600160ff909116105b80611bfc5750303b158015611bfc575060005460ff166001145b611c5f5760405162461bcd60e51b815260206004820152602e60248201527f496e697469616c697a61626c653a20636f6e747261637420697320616c72656160448201526d191e481a5b9a5d1a585b1a5e995960921b6064820152608401610c9f565b6000805460ff191660011790558015611c82576000805461ff0019166101001790555b6000826001600160a01b0316637b1039996040518163ffffffff1660e01b8152600401602060405180830381865afa158015611cc2573d6000803e3d6000fd5b505050506040513d601f19601f82011682018060405250810190611ce6919061460e565b9050611cf286826133a2565b6000611cfc611aac565b90506001600160a01b038116611d3d5760405162461bcd60e51b8152602060048201526006602482015265085d985d5b1d60d21b6044820152606401610c9f565b6000611d476133f7565b6001600160a01b031603611d895760405162461bcd60e51b815260206004820152600960248201526821737472617465677960b81b6044820152606401610c9f565b611d95878787876136bd565b601680546001600160a01b0319163317905560405163095ea7b360e01b81526001600160a01b038281166004830152600019602483015288169063095ea7b3906044016020604051808303816000875af1158015611df7573d6000803e3d6000fd5b505050506040513d601f19601f82011682018060405250810190611e1b9190614776565b5050508015611e64576000805461ff0019169055604051600181527f7f26b83ff96e1f2b6a682f133852f6798a09c465da95921460cefb38474024989060200160405180910390a15b5050505050565b828202811515841585830485141716611e8357600080fd5b0492915050565b828202811515841585830485141716611ea257600080fd5b6001826001830304018115150290509392505050565b6001600160a01b03831660009081526006602090815260408083203384529091528120546000198114611f1457611eef83826147b7565b6001600160a01b03861660009081526006602090815260408083203384529091529020555b6001600160a01b03851660009081526005602052604081208054859290611f3c9084906147b7565b90915550506001600160a01b0380851660008181526005602052604090819020805487019055519091871690600080516020614c5683398151915290611f859087815260200190565b60405180910390a3506001949350505050565b6000610bc88284614798565b6000610bc88284614825565b6000610bc8828461480d565b60007f8b73c3c69bb8fe3d512ecc4cf759cc79239f7b179b0ffacaa9a75d522b39400f6001604051611fee9190614847565b6040805191829003822060208301939093528101919091527fc89efdaa54c0f20c7adf612882df0950f5a951637e0307cdcb4c672f298b8bc660608201524660808201523060a082015260c00160405160208183030381529060405280519060200120905090565b600080612061611aac565b90506000816001600160a01b031663ecf708586040518163ffffffff1660e01b8152600401602060405180830381865afa1580156120a3573d6000803e3d6000fd5b505050506040513d601f19601f820116820180604052508101906120c7919061459a565b90506000826001600160a01b03166301e1d1146040518163ffffffff1660e01b8152600401602060405180830381865afa158015612109573d6000803e3d6000fd5b505050506040513d601f19601f8201168201806040525081019061212d919061459a565b90508082116121425760009350505050610bc8565b8560001983108015612155575060001981105b15612176576000612166848461393e565b905080821115612174578091505b505b80156121ca57600061218b8930846000612b7e565b9050806000036121a357600095505050505050610bc8565b6121b0308a8360006121e3565b9550866121bd828861393e565b11156121c857600080fd5b505b505050509392505050565b6000610bc883836000612056565b6000806121ee611aac565b905082156122a657600019841461221c57601354612217906001600160a01b031687308761394a565b6122a6565b6013546040516370a0823160e01b81526001600160a01b0380891660048301526122a69289923092909116906370a0823190602401602060405180830381865afa15801561226e573d6000803e3d6000fd5b505050506040513d601f19601f82011682018060405250810190612292919061459a565b6013546001600160a01b031692919061394a565b601354604051636eb1769f60e11b81523060048201526001600160a01b0383811660248301528692169063dd62ed3e90604401602060405180830381865afa1580156122f6573d6000803e3d6000fd5b505050506040513d601f19601f8201168201806040525081019061231a919061459a565b101561235157601354612338906001600160a01b03168260006139bb565b601354612351906001600160a01b0316826000196139bb565b6013546040516370a0823160e01b81523060048201526000916001600160a01b0316906370a0823190602401602060405180830381865afa15801561239a573d6000803e3d6000fd5b505050506040513d601f19601f820116820180604052508101906123be919061459a565b90506001600160a01b038616301461244a57604051636e553f6560e01b8152600481018690526001600160a01b038781166024830152831690636e553f65906044015b6020604051808303816000875af1158015612420573d6000803e3d6000fd5b505050506040513d601f19601f82011682018060405250810190612444919061459a565b506124e6565b60001985146124805760405163b6b55f2560e01b8152600481018690526001600160a01b0383169063b6b55f2590602401612401565b816001600160a01b031663d0e30db06040518163ffffffff1660e01b81526004016020604051808303816000875af11580156124c0573d6000803e3d6000fd5b505050506040513d601f19601f820116820180604052508101906124e4919061459a565b505b6013546040516370a0823160e01b81523060048201526000916001600160a01b0316906370a0823190602401602060405180830381865afa15801561252f573d6000803e3d6000fd5b505050506040513d601f19601f82011682018060405250810190612553919061459a565b905061255f828261393e565b93506001600160a01b038816301480159061257a5750600081115b1561259657601354612596906001600160a01b03168983613ad5565b505050949350505050565b80600460008282546125b3919061480d565b90915550506001600160a01b038216600081815260056020908152604080832080548601905551848152600080516020614c5683398151915291015b60405180910390a35050565b6000806126066133f7565b90506000816001600160a01b031663220cce976040518163ffffffff1660e01b8152600401602060405180830381865afa158015612648573d6000803e3d6000fd5b505050506040513d601f19601f8201168201806040525081019061266c919061460e565b90506000600a60009054906101000a90046001600160a01b03166001600160a01b031663bb7b8b806040518163ffffffff1660e01b8152600401602060405180830381865afa1580156126c3573d6000803e3d6000fd5b505050506040513d601f19601f820116820180604052508101906126e7919061459a565b905060006126f483613b05565b60405163b3596f0760e01b81526001600160a01b0380831660048301529192506000917f0000000000000000000000000000000000000000000000000000000000000000169063b3596f0790602401602060405180830381865afa158015612760573d6000803e3d6000fd5b505050506040513d601f19601f82011682018060405250810190612784919061459a565b9050600061279185613b6a565b905060006127a0828487611e6b565b905073d533a949740bb3306d119cc777fa900ba034cd51196001600160a01b03851601612912576000876001600160a01b0316637fef901a6040518163ffffffff1660e01b8152600401602060405180830381865afa158015612807573d6000803e3d6000fd5b505050506040513d601f19601f8201168201806040525081019061282b919061459a565b905061284661283c826127106147b7565b8390612710611e6b565b60405163b3596f0760e01b8152734e3fbd56cd56c3e72c1403e103b45db9da5b9d2b60048201529092506000906001600160a01b037f0000000000000000000000000000000000000000000000000000000000000000169063b3596f0790602401602060405180830381865afa1580156128c4573d6000803e3d6000fd5b505050506040513d601f19601f820116820180604052508101906128e8919061459a565b905060006128f585613c58565b905061290281838a611e6b565b61290c908561480d565b93505050505b6000866001600160a01b031663d55a23f46040518163ffffffff1660e01b8152600401602060405180830381865afa158015612952573d6000803e3d6000fd5b505050506040513d601f19601f82011682018060405250810190612976919061459a565b90508015612ad15760005b81811015612acf57604051632061aa2360e11b8152600481018290526000906001600160a01b038a16906340c3544690602401602060405180830381865afa1580156129d1573d6000803e3d6000fd5b505050506040513d601f19601f820116820180604052508101906129f5919061460e565b90506000612a0282613b05565b60405163b3596f0760e01b81526001600160a01b0380831660048301529192506000917f0000000000000000000000000000000000000000000000000000000000000000169063b3596f0790602401602060405180830381865afa158015612a6e573d6000803e3d6000fd5b505050506040513d601f19601f82011682018060405250810190612a92919061459a565b90506000612a9f84613b6a565b9050612aac81838d611e6b565b612ab6908861480d565b9650505050508080612ac7906145f5565b915050612981565b505b612afe6040518060400160405280600b81526020016a033b937b9b99030b8391d160ad1b81525083613d68565b50979650505050505050565b6000610c36826000196121d5565b33600090815260056020526040812080548391908390612b399084906147b7565b90915550506001600160a01b03831660008181526005602052604090819020805485019055513390600080516020614c5683398151915290610c2a9086815260200190565b600080612b89611aac565b90506000612b956108ab565b9050612ba081613dad565b60005b81518110156130f55784158015612be45750826001600160a01b0316828281518110612bd157612bd16145c9565b60200260200101516001600160a01b0316145b6130e3576000828281518110612bfc57612bfc6145c9565b60209081029190910101516040516370a0823160e01b81526001600160a01b038b81166004830152909116906370a0823190602401602060405180830381865afa158015612c4e573d6000803e3d6000fd5b505050506040513d601f19601f82011682018060405250810190612c72919061459a565b90506001600160a01b0389163014612d1e57612d1b81848481518110612c9a57612c9a6145c9565b6020908102919091010151604051636eb1769f60e11b81526001600160a01b038d811660048301523060248301529091169063dd62ed3e90604401602060405180830381865afa158015612cf2573d6000803e3d6000fd5b505050506040513d601f19601f82011682018060405250810190612d16919061459a565b613dcb565b90505b612d7981848481518110612d3457612d346145c9565b60200260200101516001600160a01b03166375de29026040518163ffffffff1660e01b8152600401602060405180830381865afa158015612cf2573d6000803e3d6000fd5b905080156130e1576001600160a01b0389163014612e2a57828281518110612da357612da36145c9565b60209081029190910101516040516323b872dd60e01b81526001600160a01b038b8116600483015230602483015260448201849052909116906323b872dd906064016020604051808303816000875af1158015612e04573d6000803e3d6000fd5b505050506040513d601f19601f82011682018060405250810190612e289190614776565b505b600019871461304a576000612f46848481518110612e4a57612e4a6145c9565b60200260200101516001600160a01b03166399530b066040518163ffffffff1660e01b8152600401602060405180830381865afa158015612e8f573d6000803e3d6000fd5b505050506040513d601f19601f82011682018060405250810190612eb3919061459a565b610f22868681518110612ec857612ec86145c9565b60200260200101516001600160a01b031663313ce5676040518163ffffffff1660e01b8152600401602060405180830381865afa158015612f0d573d6000803e3d6000fd5b505050506040513d601f19601f82011682018060405250810190612f31919061459a565b612f3c90600a614749565b610f1c8c8b61393e565b9050600081118015612f5757508181105b15612ff757612ff0848481518110612f7157612f716145c9565b60200260200101516001600160a01b0316632e1a7d4d836040518263ffffffff1660e01b8152600401612fa691815260200190565b6020604051808303816000875af1158015612fc5573d6000803e3d6000fd5b505050506040513d601f19601f82011682018060405250810190612fe9919061459a565b8790611fb0565b9550613044565b61304184848151811061300c5761300c6145c9565b60200260200101516001600160a01b0316632e1a7d4d846040518263ffffffff1660e01b8152600401612fa691815260200190565b95505b506130d4565b6130d183838151811061305f5761305f6145c9565b60200260200101516001600160a01b0316633ccfd60b6040518163ffffffff1660e01b81526004016020604051808303816000875af11580156130a6573d6000803e3d6000fd5b505050506040513d601f19601f820116820180604052508101906130ca919061459a565b8690611fb0565b94505b8487116130e157506130f5565b505b806130ed816145f5565b915050612ba3565b5084831180156131de57506131d2826001600160a01b031663313ce5676040518163ffffffff1660e01b8152600401602060405180830381865afa158015613141573d6000803e3d6000fd5b505050506040513d601f19601f82011682018060405250810190613165919061459a565b61317090600a614749565b836001600160a01b03166399530b066040518163ffffffff1660e01b8152600401602060405180830381865afa1580156131ae573d6000803e3d6000fd5b505050506040513d601f19601f82011682018060405250810190610f22919061459a565b6131dc848761393e565b115b1561330f576131ed838661393e565b601354604051636eb1769f60e11b81523060048201526001600160a01b0385811660248301529091169063dd62ed3e90604401602060405180830381865afa15801561323d573d6000803e3d6000fd5b505050506040513d601f19601f82011682018060405250810190613261919061459a565b101561328057601354613280906001600160a01b0316836000196139bb565b6001600160a01b038216636e553f65613299858861393e565b6040516001600160e01b031960e084901b16815260048101919091526001600160a01b038a1660248201526044016020604051808303816000875af11580156132e6573d6000803e3d6000fd5b505050506040513d601f19601f8201168201806040525081019061330a919061459a565b508492505b6001600160a01b038616301461333657601354613336906001600160a01b03168785613ad5565b5050949350505050565b6001600160a01b038216600090815260056020526040812080548392906133689084906147b7565b90915550506004805482900390556040518181526000906001600160a01b03841690600080516020614c56833981519152906020016125ef565b600054610100900460ff166133c95760405162461bcd60e51b8152600401610c9f906148e2565b601380546001600160a01b039384166001600160a01b03199182161790915560158054929093169116179055565b600080613402611aac565b90506001600160a01b0381166134435760405162461bcd60e51b8152602060048201526006602482015265085d985d5b1d60d21b6044820152606401610c9f565b60405163a5b166fb60e01b81526001600160a01b0382811660048301526000917f00000000000000000000000000000000000000000000000000000000000000009091169063a5b166fb90602401602060405180830381865afa1580156134ae573d6000803e3d6000fd5b505050506040513d601f19601f820116820180604052508101906134d2919061459a565b9050600081116135125760405162461bcd60e51b815260206004820152600b60248201526a217374726174656769657360a81b6044820152606401610c9f565b60008167ffffffffffffffff81111561352d5761352d6145b3565b604051908082528060200260200182016040528015613556578160200160208202803683370190505b506040516397a077b960e01b81526001600160a01b0385811660048301529192507f0000000000000000000000000000000000000000000000000000000000000000909116906397a077b990602401600060405180830381865afa1580156135c2573d6000803e3d6000fd5b505050506040513d6000823e601f3d908101601f191682016040526135ea9190810190614988565b90506000805b838110156136b457600083828151811061360c5761360c6145c9565b60209081029190910101516040516339ebf82360e01b81526001600160a01b0380831660048301529192506000918816906339ebf8239060240161012060405180830381865afa158015613664573d6000803e3d6000fd5b505050506040513d601f19601f820116820180604052508101906136889190614a3a565b905080604001516127100361369f575091506136b4565b505080806136ac906145f5565b9150506135f0565b50949350505050565b600054610100900460ff166136e45760405162461bcd60e51b8152600401610c9f906148e2565b6000846001600160a01b03166395d89b416040518163ffffffff1660e01b8152600401600060405180830381865afa158015613724573d6000803e3d6000fd5b505050506040513d6000823e601f3d908101601f1916820160405261374c9190810190614ab5565b90506000846001600160a01b03166395d89b416040518163ffffffff1660e01b8152600401600060405180830381865afa15801561378e573d6000803e3d6000fd5b505050506040513d6000823e601f3d908101601f191682016040526137b69190810190614ab5565b90506000836001600160a01b03166306fdde036040518163ffffffff1660e01b8152600401600060405180830381865afa1580156137f8573d6000803e3d6000fd5b505050506040513d6000823e601f3d908101601f191682016040526138209190810190614ab5565b838360405160200161383493929190614b40565b60405160208183030381529060405290506000846001600160a01b03166395d89b416040518163ffffffff1660e01b8152600401600060405180830381865afa158015613885573d6000803e3d6000fd5b505050506040513d6000823e601f3d908101601f191682016040526138ad9190810190614ab5565b84846040516020016138c193929190614ba0565b60405160208183030381529060405290506138dd888383613de1565b600b80546001600160a01b03808a166001600160a01b031992831617909255600c80548984169083168117909155600f805483163317905560108054898516931692909217909155613934918a1690600019613e9f565b5050505050505050565b6000610bc882846147b7565b6040516001600160a01b03808516602483015283166044820152606481018290526139b59085906323b872dd60e01b906084015b60408051601f198184030181529190526020810180516001600160e01b03166001600160e01b031990931692909217909152613f16565b50505050565b801580613a355750604051636eb1769f60e11b81523060048201526001600160a01b03838116602483015284169063dd62ed3e90604401602060405180830381865afa158015613a0f573d6000803e3d6000fd5b505050506040513d601f19601f82011682018060405250810190613a33919061459a565b155b613aa05760405162461bcd60e51b815260206004820152603660248201527f5361666545524332303a20617070726f76652066726f6d206e6f6e2d7a65726f60448201527520746f206e6f6e2d7a65726f20616c6c6f77616e636560501b6064820152608401610c9f565b6040516001600160a01b038316602482015260448101829052613ad090849063095ea7b360e01b9060640161397e565b505050565b6040516001600160a01b038316602482015260448101829052613ad090849063a9059cbb60e01b9060640161397e565b600080826001600160a01b031663f7c618c16040518163ffffffff1660e01b8152600401602060405180830381865afa158015613b46573d6000803e3d6000fd5b505050506040513d601f19601f82011682018060405250810190610bc8919061460e565b600080826001600160a01b0316637b0a47ee6040518163ffffffff1660e01b8152600401602060405180830381865afa158015613bab573d6000803e3d6000fd5b505050506040513d601f19601f82011682018060405250810190613bcf919061459a565b90506000836001600160a01b03166318160ddd6040518163ffffffff1660e01b8152600401602060405180830381865afa158015613c11573d6000803e3d6000fd5b505050506040513d601f19601f82011682018060405250810190613c35919061459a565b90506000613c4f836a1a1601fc4ea7109e00000084611e6b565b95945050505050565b6000806a52b7d2dcc80cd2e4000000905060006103e89050600069152d02c7e14af680000090506000734e3fbd56cd56c3e72c1403e103b45db9da5b9d2b6001600160a01b03166318160ddd6040518163ffffffff1660e01b8152600401602060405180830381865afa158015613cd3573d6000803e3d6000fd5b505050506040513d601f19601f82011682018060405250810190613cf7919061459a565b90506000613d058383614825565b905083811015613d5b576000613d1b82866147b7565b905084613d28828a614798565b613d329190614825565b97506000613d4084886147b7565b905080891115613d4e578098505b5096979650505050505050565b5060009695505050505050565b6111c08282604051602401613d7e929190614bfa565b60408051601f198184030181529190526020810180516001600160e01b03166309710a9d60e41b179052613fe8565b601454815111156115285780516111c090601490602084019061419e565b6000818310613dda5781610bc8565b5090919050565b600054610100900460ff16613e085760405162461bcd60e51b8152600401610c9f906148e2565b6000836001600160a01b031663313ce5676040518163ffffffff1660e01b8152600401602060405180830381865afa158015613e48573d6000803e3d6000fd5b505050506040513d601f19601f82011682018060405250810190613e6c9190614c1c565b9050613e79838383614009565b5050600a80546001600160a01b0319166001600160a01b03939093169290921790915550565b600060405163095ea7b360e01b8152836004820152826024820152602060006044836000895af13d15601f3d11600160005114161716915050806139b55760405162461bcd60e51b815260206004820152600e60248201526d1054141493d59157d1905253115160921b6044820152606401610c9f565b6000613f6b826040518060400160405280602081526020017f5361666545524332303a206c6f772d6c6576656c2063616c6c206661696c6564815250856001600160a01b031661407b9092919063ffffffff16565b805190915015613ad05780806020019051810190613f899190614776565b613ad05760405162461bcd60e51b815260206004820152602a60248201527f5361666545524332303a204552433230206f7065726174696f6e20646964206e6044820152691bdd081cdd58d8d9595960b21b6064820152608401610c9f565b80516a636f6e736f6c652e6c6f67602083016000808483855afa5050505050565b600054610100900460ff166140305760405162461bcd60e51b8152600401610c9f906148e2565b8251614043906001906020860190614203565b508151614057906002906020850190614203565b506003805460ff191660ff831617905546600755614073611fbc565b600855505050565b6060610cd7848460008585600080866001600160a01b031685876040516140a29190614c39565b60006040518083038185875af1925050503d80600081146140df576040519150601f19603f3d011682016040523d82523d6000602084013e6140e4565b606091505b50915091506140f587838387614100565b979650505050505050565b6060831561416f578251600003614168576001600160a01b0385163b6141685760405162461bcd60e51b815260206004820152601d60248201527f416464726573733a2063616c6c20746f206e6f6e2d636f6e74726163740000006044820152606401610c9f565b5081610cd7565b610cd783838151156141845781518083602001fd5b8060405162461bcd60e51b8152600401610c9f9190614331565b8280548282559060005260206000209081019282156141f3579160200282015b828111156141f357825182546001600160a01b0319166001600160a01b039091161782556020909201916001909101906141be565b506141ff929150614277565b5090565b82805461420f9061462b565b90600052602060002090601f01602090048101928261423157600085556141f3565b82601f1061424a57805160ff19168380011785556141f3565b828001600101855582156141f3579182015b828111156141f357825182559160200191906001019061425c565b5b808211156141ff5760008155600101614278565b6020808252825182820181905260009190848201906040850190845b818110156142cd5783516001600160a01b0316835292840192918401916001016142a8565b50909695505050505050565b60005b838110156142f45781810151838201526020016142dc565b838111156139b55750506000910152565b6000815180845261431d8160208601602086016142d9565b601f01601f19169290920160200192915050565b602081526000610bc86020830184614305565b60006020828403121561435657600080fd5b5035919050565b6001600160a01b038116811461152857600080fd5b6000806040838503121561438557600080fd5b82356143908161435d565b946020939093013593505050565b6000602082840312156143b057600080fd5b8135610bc88161435d565b6000806000606084860312156143d057600080fd5b83356143db8161435d565b925060208401356143eb8161435d565b929592945050506040919091013590565b6000806040838503121561440f57600080fd5b50508035926020909101359150565b6000806040838503121561443157600080fd5b8235915060208301356144438161435d565b809150509250929050565b60008060006060848603121561446357600080fd5b8335925060208401356144758161435d565b915060408401356144858161435d565b809150509250925092565b60ff8116811461152857600080fd5b600080600080600080600060e0888a0312156144ba57600080fd5b87356144c58161435d565b965060208801356144d58161435d565b9550604088013594506060880135935060808801356144f381614490565b9699959850939692959460a0840135945060c09093013592915050565b6000806040838503121561452357600080fd5b823561452e8161435d565b915060208301356144438161435d565b6000806000806080858703121561455457600080fd5b843561455f8161435d565b9350602085013561456f8161435d565b9250604085013561457f8161435d565b9150606085013561458f8161435d565b939692955090935050565b6000602082840312156145ac57600080fd5b5051919050565b634e487b7160e01b600052604160045260246000fd5b634e487b7160e01b600052603260045260246000fd5b634e487b7160e01b600052601160045260246000fd5b600060018201614607576146076145df565b5060010190565b60006020828403121561462057600080fd5b8151610bc88161435d565b600181811c9082168061463f57607f821691505b60208210810361465f57634e487b7160e01b600052602260045260246000fd5b50919050565b600181815b808511156146a0578160001904821115614686576146866145df565b8085161561469357918102915b93841c939080029061466a565b509250929050565b6000826146b757506001610c36565b816146c457506000610c36565b81600181146146da57600281146146e457614700565b6001915050610c36565b60ff8411156146f5576146f56145df565b50506001821b610c36565b5060208310610133831016604e8410600b8410161715614723575081810a610c36565b61472d8383614665565b8060001904821115614741576147416145df565b029392505050565b6000610bc883836146a8565b60208082526007908201526621736f7572636560c81b604082015260600190565b60006020828403121561478857600080fd5b81518015158114610bc857600080fd5b60008160001904831182151516156147b2576147b26145df565b500290565b6000828210156147c9576147c96145df565b500390565b60008083128015600160ff1b8501841216156147ec576147ec6145df565b6001600160ff1b0384018313811615614807576148076145df565b50500390565b60008219821115614820576148206145df565b500190565b60008261484257634e487b7160e01b600052601260045260246000fd5b500490565b600080835481600182811c91508083168061486357607f831692505b6020808410820361488257634e487b7160e01b86526022600452602486fd5b81801561489657600181146148a7576148d4565b60ff198616895284890196506148d4565b60008a81526020902060005b868110156148cc5781548b8201529085019083016148b3565b505084890196505b509498975050505050505050565b6020808252602b908201527f496e697469616c697a61626c653a20636f6e7472616374206973206e6f74206960408201526a6e697469616c697a696e6760a81b606082015260800190565b604051610120810167ffffffffffffffff81118282101715614951576149516145b3565b60405290565b604051601f8201601f1916810167ffffffffffffffff81118282101715614980576149806145b3565b604052919050565b6000602080838503121561499b57600080fd5b825167ffffffffffffffff808211156149b357600080fd5b818501915085601f8301126149c757600080fd5b8151818111156149d9576149d96145b3565b8060051b91506149ea848301614957565b8181529183018401918481019088841115614a0457600080fd5b938501935b83851015614a2e5784519250614a1e8361435d565b8282529385019390850190614a09565b98975050505050505050565b60006101208284031215614a4d57600080fd5b614a5561492d565b825181526020830151602082015260408301516040820152606083015160608201526080830151608082015260a083015160a082015260c083015160c082015260e083015160e08201526101008084015181830152508091505092915050565b600060208284031215614ac757600080fd5b815167ffffffffffffffff80821115614adf57600080fd5b818401915084601f830112614af357600080fd5b815181811115614b0557614b056145b3565b614b18601f8201601f1916602001614957565b9150808252856020828501011115614b2f57600080fd5b6136b48160208401602086016142d9565b60008451614b528184602089016142d9565b6101d160f51b9083019081528451614b718160028401602089016142d9565b602d60f81b600292909101918201528351614b938160038401602088016142d9565b0160030195945050505050565b60008451614bb28184602089016142d9565b8083019050602d60f81b8082528551614bd2816001850160208a016142d9565b60019201918201528351614bed8160028401602088016142d9565b0160020195945050505050565b604081526000614c0d6040830185614305565b90508260208301529392505050565b600060208284031215614c2e57600080fd5b8151610bc881614490565b60008251614c4b8184602087016142d9565b919091019291505056feddf252ad1be2c89b69c2b068fc378daa952ba7f163c4a11628f55a4df523b3efa26469706673582212201d88be682e6c50d5d392833471ed894c7b107c2685ac7dab46fb5a97f9ea459964736f6c634300080d0033",
    "sourcePath": "/Users/misha/Library/Mobile Documents/com~apple~CloudDocs/Dev/construct-finance/construct_V0/src/modules/YearnConvexModule.sol",
    "compiler": {
        "name": "solc",
        "version": "0.8.13+commit.abaa5c0e"
    },
    "functionHashes": {
        "DOMAIN_SEPARATOR()": "3644e515",
        "acceptOwner()": "ebbc4965",
        "affiliate()": "45e05f43",
        "allVaults()": "063effeb",
        "allowance(address,address)": "dd62ed3e",
        "approve(address,uint256)": "095ea7b3",
        "asset()": "38d52e0f",
        "balanceOf(address)": "70a08231",
        "bestVault()": "e95b2de8",
        "convertToAssets(uint256)": "07a2d13a",
        "convertToShares(uint256)": "c6e6f592",
        "convexBooster()": "2cdacb50",
        "convexPid()": "86993bef",
        "decimals()": "313ce567",
        "deposit(uint256,address)": "6e553f65",
        "factory()": "c45a0155",
        "getAsset()": "5c222bad",
        "getCapitalUtilization()": "bdde8a48",
        "getModuleApr()": "7f240fbf",
        "getProduct()": "4ba20050",
        "getSource()": "afa293d4",
        "getTarget()": "f00e6a2a",
        "implementation()": "5c60da1b",
        "initialize(address,address,address,address)": "f8c8765e",
        "maxDeposit(address)": "402d267d",
        "maxMint(address)": "c63d75b6",
        "maxRedeem(address)": "d905777e",
        "maxWithdraw(address)": "ce96cb77",
        "migrate()": "8fd3ab80",
        "migrate(uint256)": "454b0608",
        "migrate(uint256,uint256)": "3e54bacb",
        "mint(uint256,address)": "94bf804d",
        "name()": "06fdde03",
        "nonces(address)": "7ecebe00",
        "oracle()": "7dc0d1d0",
        "owner()": "8da5cb5b",
        "pendingAffiliate()": "b38a440e",
        "pendingOwner()": "e30c3978",
        "permit(address,address,uint256,uint256,uint8,bytes32,bytes32)": "d505accf",
        "previewDeposit(uint256)": "ef8b30f7",
        "previewMint(uint256)": "b3d7f6b9",
        "previewRedeem(uint256)": "4cdad506",
        "previewWithdraw(uint256)": "0a28a477",
        "product()": "bf9ce952",
        "redeem(uint256,address,address)": "ba087652",
        "registry()": "7b103999",
        "setOwner(address)": "13af4035",
        "setRegistry(address)": "a91ee0dc",
        "setTarget(address)": "776d1a01",
        "source()": "67e828bf",
        "strategy()": "a8c62e76",
        "symbol()": "95d89b41",
        "target()": "d4b83992",
        "token()": "fc0c546a",
        "totalAssets()": "01e1d114",
        "totalSupply()": "18160ddd",
        "totalTargetBalance()": "2bf8eb1d",
        "totalVaultBalance(address)": "30e5065e",
        "transfer(address,uint256)": "a9059cbb",
        "transferFrom(address,address,uint256)": "23b872dd",
        "withdraw(uint256,address,address)": "b460af94",
        "yearnStrategyHelper()": "183b66b1"
    },
    "gasEstimates": {
        "creation": {
            "codeDepositCost": "3925400",
            "executionCost": "infinite",
            "totalCost": "infinite"
        },
        "external": {
            "DOMAIN_SEPARATOR()": "infinite",
            "acceptOwner()": "50879",
            "affiliate()": "2405",
            "allVaults()": "infinite",
            "allowance(address,address)": "infinite",
            "approve(address,uint256)": "24585",
            "asset()": "2406",
            "balanceOf(address)": "2636",
            "bestVault()": "infinite",
            "convertToAssets(uint256)": "infinite",
            "convertToShares(uint256)": "infinite",
            "convexBooster()": "infinite",
            "convexPid()": "2375",
            "decimals()": "2425",
            "deposit(uint256,address)": "infinite",
            "factory()": "2427",
            "getAsset()": "2465",
            "getCapitalUtilization()": "314",
            "getModuleApr()": "infinite",
            "getProduct()": "2421",
            "getSource()": "2443",
            "getTarget()": "2419",
            "implementation()": "2405",
            "initialize(address,address,address,address)": "infinite",
            "maxDeposit(address)": "454",
            "maxMint(address)": "453",
            "maxRedeem(address)": "2653",
            "maxWithdraw(address)": "infinite",
            "migrate()": "infinite",
            "migrate(uint256)": "infinite",
            "migrate(uint256,uint256)": "infinite",
            "mint(uint256,address)": "infinite",
            "name()": "infinite",
            "nonces(address)": "2635",
            "oracle()": "infinite",
            "owner()": "2450",
            "pendingAffiliate()": "2471",
            "pendingOwner()": "2426",
            "permit(address,address,uint256,uint256,uint8,bytes32,bytes32)": "infinite",
            "previewDeposit(uint256)": "infinite",
            "previewMint(uint256)": "infinite",
            "previewRedeem(uint256)": "infinite",
            "previewWithdraw(uint256)": "infinite",
            "product()": "2405",
            "redeem(uint256,address,address)": "infinite",
            "registry()": "2426",
            "setOwner(address)": "26840",
            "setRegistry(address)": "infinite",
            "setTarget(address)": "infinite",
            "source()": "2427",
            "strategy()": "2471",
            "symbol()": "infinite",
            "target()": "2426",
            "token()": "2469",
            "totalAssets()": "infinite",
            "totalSupply()": "2353",
            "totalTargetBalance()": "infinite",
            "totalVaultBalance(address)": "infinite",
            "transfer(address,uint256)": "infinite",
            "transferFrom(address,address,uint256)": "infinite",
            "withdraw(uint256,address,address)": "infinite",
            "yearnStrategyHelper()": "infinite"
        },
        "internal": {
            "getActiveStrategy()": "infinite",
            "getConvexPid()": "infinite",
            "getConvexRewardsContract()": "infinite",
            "getCvxMint(uint256)": "infinite",
            "getExtraRewards(address)": "infinite",
            "getGrossApr()": "infinite",
            "getRewardApr(address)": "infinite",
            "getRewardToken(address)": "infinite"
        }
    }
}