{
    "contractName": "YearnConvexModule",
    "abi": [
        {
            "inputs": [
                {
                    "internalType": "address",
                    "name": "_owner",
                    "type": "address"
                },
                {
                    "internalType": "string",
                    "name": "_name",
                    "type": "string"
                },
                {
                    "internalType": "string",
                    "name": "_symbol",
                    "type": "string"
                },
                {
                    "internalType": "address",
                    "name": "_oracle",
                    "type": "address"
                },
                {
                    "internalType": "address",
                    "name": "_registry",
                    "type": "address"
                },
                {
                    "internalType": "address",
                    "name": "_strategyHelper",
                    "type": "address"
                },
                {
                    "internalType": "address",
                    "name": "_booster",
                    "type": "address"
                }
            ],
            "stateMutability": "nonpayable",
            "type": "constructor"
        },
        {
            "anonymous": false,
            "inputs": [
                {
                    "indexed": true,
                    "internalType": "address",
                    "name": "owner",
                    "type": "address"
                },
                {
                    "indexed": true,
                    "internalType": "address",
                    "name": "spender",
                    "type": "address"
                },
                {
                    "indexed": false,
                    "internalType": "uint256",
                    "name": "amount",
                    "type": "uint256"
                }
            ],
            "name": "Approval",
            "type": "event"
        },
        {
            "anonymous": false,
            "inputs": [
                {
                    "indexed": true,
                    "internalType": "address",
                    "name": "caller",
                    "type": "address"
                },
                {
                    "indexed": true,
                    "internalType": "address",
                    "name": "owner",
                    "type": "address"
                },
                {
                    "indexed": false,
                    "internalType": "uint256",
                    "name": "assets",
                    "type": "uint256"
                },
                {
                    "indexed": false,
                    "internalType": "uint256",
                    "name": "shares",
                    "type": "uint256"
                }
            ],
            "name": "Deposit",
            "type": "event"
        },
        {
            "anonymous": false,
            "inputs": [
                {
                    "indexed": false,
                    "internalType": "uint8",
                    "name": "version",
                    "type": "uint8"
                }
            ],
            "name": "Initialized",
            "type": "event"
        },
        {
            "anonymous": false,
            "inputs": [
                {
                    "indexed": true,
                    "internalType": "address",
                    "name": "from",
                    "type": "address"
                },
                {
                    "indexed": true,
                    "internalType": "address",
                    "name": "to",
                    "type": "address"
                },
                {
                    "indexed": false,
                    "internalType": "uint256",
                    "name": "amount",
                    "type": "uint256"
                }
            ],
            "name": "Transfer",
            "type": "event"
        },
        {
            "anonymous": false,
            "inputs": [
                {
                    "indexed": true,
                    "internalType": "address",
                    "name": "caller",
                    "type": "address"
                },
                {
                    "indexed": true,
                    "internalType": "address",
                    "name": "receiver",
                    "type": "address"
                },
                {
                    "indexed": true,
                    "internalType": "address",
                    "name": "owner",
                    "type": "address"
                },
                {
                    "indexed": false,
                    "internalType": "uint256",
                    "name": "assets",
                    "type": "uint256"
                },
                {
                    "indexed": false,
                    "internalType": "uint256",
                    "name": "shares",
                    "type": "uint256"
                }
            ],
            "name": "Withdraw",
            "type": "event"
        },
        {
            "inputs": [],
            "name": "DOMAIN_SEPARATOR",
            "outputs": [
                {
                    "internalType": "bytes32",
                    "name": "",
                    "type": "bytes32"
                }
            ],
            "stateMutability": "view",
            "type": "function"
        },
        {
            "inputs": [],
            "name": "acceptOwner",
            "outputs": [],
            "stateMutability": "nonpayable",
            "type": "function"
        },
        {
            "inputs": [],
            "name": "affiliate",
            "outputs": [
                {
                    "internalType": "address",
                    "name": "",
                    "type": "address"
                }
            ],
            "stateMutability": "view",
            "type": "function"
        },
        {
            "inputs": [],
            "name": "allVaults",
            "outputs": [
                {
                    "internalType": "contract VaultAPI[]",
                    "name": "",
                    "type": "address[]"
                }
            ],
            "stateMutability": "view",
            "type": "function"
        },
        {
            "inputs": [
                {
                    "internalType": "address",
                    "name": "",
                    "type": "address"
                },
                {
                    "internalType": "address",
                    "name": "",
                    "type": "address"
                }
            ],
            "name": "allowance",
            "outputs": [
                {
                    "internalType": "uint256",
                    "name": "",
                    "type": "uint256"
                }
            ],
            "stateMutability": "view",
            "type": "function"
        },
        {
            "inputs": [
                {
                    "internalType": "address",
                    "name": "spender",
                    "type": "address"
                },
                {
                    "internalType": "uint256",
                    "name": "amount",
                    "type": "uint256"
                }
            ],
            "name": "approve",
            "outputs": [
                {
                    "internalType": "bool",
                    "name": "",
                    "type": "bool"
                }
            ],
            "stateMutability": "nonpayable",
            "type": "function"
        },
        {
            "inputs": [],
            "name": "asset",
            "outputs": [
                {
                    "internalType": "contract ERC20",
                    "name": "",
                    "type": "address"
                }
            ],
            "stateMutability": "view",
            "type": "function"
        },
        {
            "inputs": [
                {
                    "internalType": "address",
                    "name": "",
                    "type": "address"
                }
            ],
            "name": "balanceOf",
            "outputs": [
                {
                    "internalType": "uint256",
                    "name": "",
                    "type": "uint256"
                }
            ],
            "stateMutability": "view",
            "type": "function"
        },
        {
            "inputs": [],
            "name": "bestVault",
            "outputs": [
                {
                    "internalType": "contract VaultAPI",
                    "name": "",
                    "type": "address"
                }
            ],
            "stateMutability": "view",
            "type": "function"
        },
        {
            "inputs": [
                {
                    "internalType": "uint256",
                    "name": "shares",
                    "type": "uint256"
                }
            ],
            "name": "convertToAssets",
            "outputs": [
                {
                    "internalType": "uint256",
                    "name": "",
                    "type": "uint256"
                }
            ],
            "stateMutability": "view",
            "type": "function"
        },
        {
            "inputs": [
                {
                    "internalType": "uint256",
                    "name": "assets",
                    "type": "uint256"
                }
            ],
            "name": "convertToShares",
            "outputs": [
                {
                    "internalType": "uint256",
                    "name": "",
                    "type": "uint256"
                }
            ],
            "stateMutability": "view",
            "type": "function"
        },
        {
            "inputs": [],
            "name": "convexBooster",
            "outputs": [
                {
                    "internalType": "address",
                    "name": "",
                    "type": "address"
                }
            ],
            "stateMutability": "view",
            "type": "function"
        },
        {
            "inputs": [],
            "name": "convexPid",
            "outputs": [
                {
                    "internalType": "uint256",
                    "name": "",
                    "type": "uint256"
                }
            ],
            "stateMutability": "view",
            "type": "function"
        },
        {
            "inputs": [],
            "name": "decimals",
            "outputs": [
                {
                    "internalType": "uint8",
                    "name": "",
                    "type": "uint8"
                }
            ],
            "stateMutability": "view",
            "type": "function"
        },
        {
            "inputs": [
                {
                    "internalType": "uint256",
                    "name": "assets",
                    "type": "uint256"
                },
                {
                    "internalType": "address",
                    "name": "receiver",
                    "type": "address"
                }
            ],
            "name": "deposit",
            "outputs": [
                {
                    "internalType": "uint256",
                    "name": "shares",
                    "type": "uint256"
                }
            ],
            "stateMutability": "nonpayable",
            "type": "function"
        },
        {
            "inputs": [],
            "name": "factory",
            "outputs": [
                {
                    "internalType": "address",
                    "name": "",
                    "type": "address"
                }
            ],
            "stateMutability": "view",
            "type": "function"
        },
        {
            "inputs": [],
            "name": "getCapitalUtilization",
            "outputs": [
                {
                    "internalType": "uint256",
                    "name": "",
                    "type": "uint256"
                }
            ],
            "stateMutability": "view",
            "type": "function"
        },
        {
            "inputs": [],
            "name": "getModuleApr",
            "outputs": [
                {
                    "internalType": "int256",
                    "name": "",
                    "type": "int256"
                }
            ],
            "stateMutability": "view",
            "type": "function"
        },
        {
            "inputs": [],
            "name": "getProduct",
            "outputs": [
                {
                    "internalType": "address",
                    "name": "",
                    "type": "address"
                }
            ],
            "stateMutability": "view",
            "type": "function"
        },
        {
            "inputs": [],
            "name": "getSource",
            "outputs": [
                {
                    "internalType": "address",
                    "name": "",
                    "type": "address"
                }
            ],
            "stateMutability": "view",
            "type": "function"
        },
        {
            "inputs": [],
            "name": "getTarget",
            "outputs": [
                {
                    "internalType": "address",
                    "name": "",
                    "type": "address"
                }
            ],
            "stateMutability": "view",
            "type": "function"
        },
        {
            "inputs": [],
            "name": "implementation",
            "outputs": [
                {
                    "internalType": "address",
                    "name": "",
                    "type": "address"
                }
            ],
            "stateMutability": "view",
            "type": "function"
        },
        {
            "inputs": [
                {
                    "internalType": "address",
                    "name": "_asset",
                    "type": "address"
                },
                {
                    "internalType": "address",
                    "name": "_product",
                    "type": "address"
                },
                {
                    "internalType": "address",
                    "name": "_source",
                    "type": "address"
                },
                {
                    "internalType": "address",
                    "name": "_implementation",
                    "type": "address"
                }
            ],
            "name": "initialize",
            "outputs": [],
            "stateMutability": "nonpayable",
            "type": "function"
        },
        {
            "inputs": [
                {
                    "internalType": "address",
                    "name": "_target",
                    "type": "address"
                }
            ],
            "name": "initializeStrategy",
            "outputs": [],
            "stateMutability": "nonpayable",
            "type": "function"
        },
        {
            "inputs": [
                {
                    "internalType": "address",
                    "name": "",
                    "type": "address"
                }
            ],
            "name": "maxDeposit",
            "outputs": [
                {
                    "internalType": "uint256",
                    "name": "",
                    "type": "uint256"
                }
            ],
            "stateMutability": "view",
            "type": "function"
        },
        {
            "inputs": [
                {
                    "internalType": "address",
                    "name": "",
                    "type": "address"
                }
            ],
            "name": "maxMint",
            "outputs": [
                {
                    "internalType": "uint256",
                    "name": "",
                    "type": "uint256"
                }
            ],
            "stateMutability": "view",
            "type": "function"
        },
        {
            "inputs": [
                {
                    "internalType": "address",
                    "name": "owner",
                    "type": "address"
                }
            ],
            "name": "maxRedeem",
            "outputs": [
                {
                    "internalType": "uint256",
                    "name": "",
                    "type": "uint256"
                }
            ],
            "stateMutability": "view",
            "type": "function"
        },
        {
            "inputs": [
                {
                    "internalType": "address",
                    "name": "owner",
                    "type": "address"
                }
            ],
            "name": "maxWithdraw",
            "outputs": [
                {
                    "internalType": "uint256",
                    "name": "",
                    "type": "uint256"
                }
            ],
            "stateMutability": "view",
            "type": "function"
        },
        {
            "inputs": [
                {
                    "internalType": "uint256",
                    "name": "amount",
                    "type": "uint256"
                },
                {
                    "internalType": "uint256",
                    "name": "maxMigrationLoss",
                    "type": "uint256"
                }
            ],
            "name": "migrate",
            "outputs": [
                {
                    "internalType": "uint256",
                    "name": "",
                    "type": "uint256"
                }
            ],
            "stateMutability": "nonpayable",
            "type": "function"
        },
        {
            "inputs": [
                {
                    "internalType": "uint256",
                    "name": "amount",
                    "type": "uint256"
                }
            ],
            "name": "migrate",
            "outputs": [
                {
                    "internalType": "uint256",
                    "name": "",
                    "type": "uint256"
                }
            ],
            "stateMutability": "nonpayable",
            "type": "function"
        },
        {
            "inputs": [],
            "name": "migrate",
            "outputs": [
                {
                    "internalType": "uint256",
                    "name": "",
                    "type": "uint256"
                }
            ],
            "stateMutability": "nonpayable",
            "type": "function"
        },
        {
            "inputs": [
                {
                    "internalType": "uint256",
                    "name": "shares",
                    "type": "uint256"
                },
                {
                    "internalType": "address",
                    "name": "receiver",
                    "type": "address"
                }
            ],
            "name": "mint",
            "outputs": [
                {
                    "internalType": "uint256",
                    "name": "assets",
                    "type": "uint256"
                }
            ],
            "stateMutability": "nonpayable",
            "type": "function"
        },
        {
            "inputs": [],
            "name": "name",
            "outputs": [
                {
                    "internalType": "string",
                    "name": "",
                    "type": "string"
                }
            ],
            "stateMutability": "view",
            "type": "function"
        },
        {
            "inputs": [
                {
                    "internalType": "address",
                    "name": "",
                    "type": "address"
                }
            ],
            "name": "nonces",
            "outputs": [
                {
                    "internalType": "uint256",
                    "name": "",
                    "type": "uint256"
                }
            ],
            "stateMutability": "view",
            "type": "function"
        },
        {
            "inputs": [],
            "name": "oracle",
            "outputs": [
                {
                    "internalType": "contract IPriceOracleGetter",
                    "name": "",
                    "type": "address"
                }
            ],
            "stateMutability": "view",
            "type": "function"
        },
        {
            "inputs": [],
            "name": "owner",
            "outputs": [
                {
                    "internalType": "address",
                    "name": "",
                    "type": "address"
                }
            ],
            "stateMutability": "view",
            "type": "function"
        },
        {
            "inputs": [],
            "name": "pendingAffiliate",
            "outputs": [
                {
                    "internalType": "address",
                    "name": "",
                    "type": "address"
                }
            ],
            "stateMutability": "view",
            "type": "function"
        },
        {
            "inputs": [],
            "name": "pendingOwner",
            "outputs": [
                {
                    "internalType": "address",
                    "name": "",
                    "type": "address"
                }
            ],
            "stateMutability": "view",
            "type": "function"
        },
        {
            "inputs": [
                {
                    "internalType": "address",
                    "name": "owner",
                    "type": "address"
                },
                {
                    "internalType": "address",
                    "name": "spender",
                    "type": "address"
                },
                {
                    "internalType": "uint256",
                    "name": "value",
                    "type": "uint256"
                },
                {
                    "internalType": "uint256",
                    "name": "deadline",
                    "type": "uint256"
                },
                {
                    "internalType": "uint8",
                    "name": "v",
                    "type": "uint8"
                },
                {
                    "internalType": "bytes32",
                    "name": "r",
                    "type": "bytes32"
                },
                {
                    "internalType": "bytes32",
                    "name": "s",
                    "type": "bytes32"
                }
            ],
            "name": "permit",
            "outputs": [],
            "stateMutability": "nonpayable",
            "type": "function"
        },
        {
            "inputs": [
                {
                    "internalType": "uint256",
                    "name": "assets",
                    "type": "uint256"
                }
            ],
            "name": "previewDeposit",
            "outputs": [
                {
                    "internalType": "uint256",
                    "name": "",
                    "type": "uint256"
                }
            ],
            "stateMutability": "view",
            "type": "function"
        },
        {
            "inputs": [
                {
                    "internalType": "uint256",
                    "name": "shares",
                    "type": "uint256"
                }
            ],
            "name": "previewMint",
            "outputs": [
                {
                    "internalType": "uint256",
                    "name": "",
                    "type": "uint256"
                }
            ],
            "stateMutability": "view",
            "type": "function"
        },
        {
            "inputs": [
                {
                    "internalType": "uint256",
                    "name": "shares",
                    "type": "uint256"
                }
            ],
            "name": "previewRedeem",
            "outputs": [
                {
                    "internalType": "uint256",
                    "name": "",
                    "type": "uint256"
                }
            ],
            "stateMutability": "view",
            "type": "function"
        },
        {
            "inputs": [
                {
                    "internalType": "uint256",
                    "name": "assets",
                    "type": "uint256"
                }
            ],
            "name": "previewWithdraw",
            "outputs": [
                {
                    "internalType": "uint256",
                    "name": "",
                    "type": "uint256"
                }
            ],
            "stateMutability": "view",
            "type": "function"
        },
        {
            "inputs": [],
            "name": "product",
            "outputs": [
                {
                    "internalType": "contract ERC20",
                    "name": "",
                    "type": "address"
                }
            ],
            "stateMutability": "view",
            "type": "function"
        },
        {
            "inputs": [
                {
                    "internalType": "uint256",
                    "name": "shares",
                    "type": "uint256"
                },
                {
                    "internalType": "address",
                    "name": "receiver",
                    "type": "address"
                },
                {
                    "internalType": "address",
                    "name": "owner",
                    "type": "address"
                }
            ],
            "name": "redeem",
            "outputs": [
                {
                    "internalType": "uint256",
                    "name": "assets",
                    "type": "uint256"
                }
            ],
            "stateMutability": "nonpayable",
            "type": "function"
        },
        {
            "inputs": [],
            "name": "registry",
            "outputs": [
                {
                    "internalType": "contract RegistryAPI",
                    "name": "",
                    "type": "address"
                }
            ],
            "stateMutability": "view",
            "type": "function"
        },
        {
            "inputs": [
                {
                    "internalType": "address",
                    "name": "_owner",
                    "type": "address"
                }
            ],
            "name": "setOwner",
            "outputs": [],
            "stateMutability": "nonpayable",
            "type": "function"
        },
        {
            "inputs": [
                {
                    "internalType": "address",
                    "name": "_registry",
                    "type": "address"
                }
            ],
            "name": "setRegistry",
            "outputs": [],
            "stateMutability": "nonpayable",
            "type": "function"
        },
        {
            "inputs": [],
            "name": "source",
            "outputs": [
                {
                    "internalType": "contract ERC4626",
                    "name": "",
                    "type": "address"
                }
            ],
            "stateMutability": "view",
            "type": "function"
        },
        {
            "inputs": [],
            "name": "symbol",
            "outputs": [
                {
                    "internalType": "string",
                    "name": "",
                    "type": "string"
                }
            ],
            "stateMutability": "view",
            "type": "function"
        },
        {
            "inputs": [],
            "name": "target",
            "outputs": [
                {
                    "internalType": "contract ERC4626",
                    "name": "",
                    "type": "address"
                }
            ],
            "stateMutability": "view",
            "type": "function"
        },
        {
            "inputs": [],
            "name": "token",
            "outputs": [
                {
                    "internalType": "contract IERC20",
                    "name": "",
                    "type": "address"
                }
            ],
            "stateMutability": "view",
            "type": "function"
        },
        {
            "inputs": [],
            "name": "totalAssets",
            "outputs": [
                {
                    "internalType": "uint256",
                    "name": "",
                    "type": "uint256"
                }
            ],
            "stateMutability": "view",
            "type": "function"
        },
        {
            "inputs": [],
            "name": "totalSupply",
            "outputs": [
                {
                    "internalType": "uint256",
                    "name": "",
                    "type": "uint256"
                }
            ],
            "stateMutability": "view",
            "type": "function"
        },
        {
            "inputs": [],
            "name": "totalTargetBalance",
            "outputs": [
                {
                    "internalType": "uint256",
                    "name": "",
                    "type": "uint256"
                }
            ],
            "stateMutability": "view",
            "type": "function"
        },
        {
            "inputs": [
                {
                    "internalType": "address",
                    "name": "account",
                    "type": "address"
                }
            ],
            "name": "totalVaultBalance",
            "outputs": [
                {
                    "internalType": "uint256",
                    "name": "balance",
                    "type": "uint256"
                }
            ],
            "stateMutability": "view",
            "type": "function"
        },
        {
            "inputs": [
                {
                    "internalType": "address",
                    "name": "to",
                    "type": "address"
                },
                {
                    "internalType": "uint256",
                    "name": "amount",
                    "type": "uint256"
                }
            ],
            "name": "transfer",
            "outputs": [
                {
                    "internalType": "bool",
                    "name": "",
                    "type": "bool"
                }
            ],
            "stateMutability": "nonpayable",
            "type": "function"
        },
        {
            "inputs": [
                {
                    "internalType": "address",
                    "name": "from",
                    "type": "address"
                },
                {
                    "internalType": "address",
                    "name": "to",
                    "type": "address"
                },
                {
                    "internalType": "uint256",
                    "name": "amount",
                    "type": "uint256"
                }
            ],
            "name": "transferFrom",
            "outputs": [
                {
                    "internalType": "bool",
                    "name": "",
                    "type": "bool"
                }
            ],
            "stateMutability": "nonpayable",
            "type": "function"
        },
        {
            "inputs": [
                {
                    "internalType": "uint256",
                    "name": "assets",
                    "type": "uint256"
                },
                {
                    "internalType": "address",
                    "name": "receiver",
                    "type": "address"
                },
                {
                    "internalType": "address",
                    "name": "owner",
                    "type": "address"
                }
            ],
            "name": "withdraw",
            "outputs": [
                {
                    "internalType": "uint256",
                    "name": "shares",
                    "type": "uint256"
                }
            ],
            "stateMutability": "nonpayable",
            "type": "function"
        },
        {
            "inputs": [],
            "name": "yearnStrategyHelper",
            "outputs": [
                {
                    "internalType": "contract IYearnStrategyHelper",
                    "name": "",
                    "type": "address"
                }
            ],
            "stateMutability": "view",
            "type": "function"
        }
    ],
    "bytecode": "60e06040523480156200001157600080fd5b50604051620050173803806200501783398101604081905262000034916200024f565b601080546001600160a01b0319166001600160a01b038916179055855183908890889088906200006c906001906020850190620000bf565b50805162000082906002906020840190620000bf565b5050601480546001600160a01b0319166001600160a01b03948516179055505093841660a05290831660805290911660c052506200035392505050565b828054620000cd9062000317565b90600052602060002090601f016020900481019282620000f157600085556200013c565b82601f106200010c57805160ff19168380011785556200013c565b828001600101855582156200013c579182015b828111156200013c5782518255916020019190600101906200011f565b506200014a9291506200014e565b5090565b5b808211156200014a57600081556001016200014f565b80516001600160a01b03811681146200017d57600080fd5b919050565b634e487b7160e01b600052604160045260246000fd5b600082601f830112620001aa57600080fd5b81516001600160401b0380821115620001c757620001c762000182565b604051601f8301601f19908116603f01168101908282118183101715620001f257620001f262000182565b816040528381526020925086838588010111156200020f57600080fd5b600091505b8382101562000233578582018301518183018401529082019062000214565b83821115620002455760008385830101525b9695505050505050565b600080600080600080600060e0888a0312156200026b57600080fd5b620002768862000165565b60208901519097506001600160401b03808211156200029457600080fd5b620002a28b838c0162000198565b975060408a0151915080821115620002b957600080fd5b50620002c88a828b0162000198565b955050620002d96060890162000165565b9350620002e96080890162000165565b9250620002f960a0890162000165565b91506200030960c0890162000165565b905092959891949750929550565b600181811c908216806200032c57607f821691505b6020821081036200034d57634e487b7160e01b600052602260045260246000fd5b50919050565b60805160a05160c051614c71620003a660003960006104b4015260008181610619015281816126df0152818161284301526129ed01526000818161045a0152818161342b015261353f0152614c716000f3fe608060405234801561001057600080fd5b50600436106103a45760003560e01c80637f240fbf116101e9578063c45a01551161010f578063dd62ed3e116100ad578063ef8b30f71161007c578063ef8b30f714610817578063f00e6a2a1461082a578063f8c8765e1461083b578063fc0c546a1461084e57600080fd5b8063dd62ed3e146107c9578063e30c3978146107f4578063e95b2de814610807578063ebbc49651461080f57600080fd5b8063ce96cb77116100e9578063ce96cb7714610767578063d4b839921461077a578063d505accf1461078d578063d905777e146107a057600080fd5b8063c45a015514610741578063c63d75b614610536578063c6e6f5921461075457600080fd5b8063a91ee0dc11610187578063b460af9411610156578063b460af94146106ff578063ba08765214610712578063bdde8a4814610725578063bf9ce9521461072e57600080fd5b8063a91ee0dc146106b5578063afa293d4146106c8578063b38a440e146106d9578063b3d7f6b9146106ec57600080fd5b80638fd3ab80116101c35780638fd3ab801461067f57806394bf804d1461068757806395d89b411461069a578063a9059cbb146106a257600080fd5b80637f240fbf1461065b57806386993bef146106635780638da5cb5b1461066c57600080fd5b806338d52e0f116102ce5780635c60da1b1161026c57806370a082311161023b57806370a08231146105e15780637b103999146106015780637dc0d1d0146106145780637ecebe001461063b57600080fd5b80635c60da1b14610595578063678cbcb5146105a857806367e828bf146105bb5780636e553f65146105ce57600080fd5b8063454b0608116102a8578063454b06081461054b57806345e05f431461055e5780634ba20050146105715780634cdad5061461058257600080fd5b806338d52e0f146105105780633e54bacb14610523578063402d267d1461053657600080fd5b806318160ddd116103465780632cdacb50116103155780632cdacb50146104af57806330e5065e146104d6578063313ce567146104e95780633644e5151461050857600080fd5b806318160ddd1461044c578063183b66b11461045557806323b872dd146104945780632bf8eb1d146104a757600080fd5b806307a2d13a1161038257806307a2d13a146103ee578063095ea7b3146104015780630a28a4771461042457806313af40351461043757600080fd5b806301e1d114146103a9578063063effeb146103c457806306fdde03146103d9575b600080fd5b6103b1610861565b6040519081526020015b60405180910390f35b6103cc610871565b6040516103bb9190614252565b6103e1610ada565b6040516103bb91906142f7565b6103b16103fc36600461430a565b610b68565b61041461040f366004614338565b610b95565b60405190151581526020016103bb565b6103b161043236600461430a565b610c02565b61044a610445366004614364565b610c22565b005b6103b160045481565b61047c7f000000000000000000000000000000000000000000000000000000000000000081565b6040516001600160a01b0390911681526020016103bb565b6104146104a2366004614381565b610c90565b6103b1610ca5565b61047c7f000000000000000000000000000000000000000000000000000000000000000081565b6103b16104e4366004614364565b610d37565b6003546104f69060ff1681565b60405160ff90911681526020016103bb565b6103b1610f10565b600a5461047c906001600160a01b031681565b6103b16105313660046143c2565b610f2a565b6103b1610544366004614364565b5060001990565b6103b161055936600461430a565b610f37565b60155461047c906001600160a01b031681565b600b546001600160a01b031661047c565b6103b161059036600461430a565b610f43565b600f5461047c906001600160a01b031681565b61044a6105b6366004614364565b610f4e565b600c5461047c906001600160a01b031681565b6103b16105dc3660046143e4565b61106e565b6103b16105ef366004614364565b60056020526000908152604090205481565b60145461047c906001600160a01b031681565b61047c7f000000000000000000000000000000000000000000000000000000000000000081565b6103b1610649366004614364565b60096020526000908152604090205481565b6103b161118a565b6103b160175481565b60105461047c906001600160a01b031681565b6103b16112c7565b6103b16106953660046143e4565b6112d2565b6103e16113a7565b6104146106b0366004614338565b6113b4565b61044a6106c3366004614364565b6113c0565b600c546001600160a01b031661047c565b60165461047c906001600160a01b031681565b6103b16106fa36600461430a565b6114f1565b6103b161070d366004614414565b611510565b6103b1610720366004614414565b611668565b620f42406103b1565b600b5461047c906001600160a01b031681565b600e5461047c906001600160a01b031681565b6103b161076236600461430a565b6117ec565b6103b1610775366004614364565b61180c565b600d5461047c906001600160a01b031681565b61044a61079b366004614465565b61182e565b6103b16107ae366004614364565b6001600160a01b031660009081526005602052604090205490565b6103b16107d73660046144d6565b600660209081526000928352604080842090915290825290205481565b60115461047c906001600160a01b031681565b61047c611a72565b61044a611ae7565b6103b161082536600461430a565b611b4e565b600d546001600160a01b031661047c565b61044a610849366004614504565b611b88565b60125461047c906001600160a01b031681565b600061086c30610d37565b905090565b60135460145460125460405163f9c7bba560e01b81526001600160a01b03918216600482015260609392600092169063f9c7bba590602401602060405180830381865afa1580156108c6573d6000803e3d6000fd5b505050506040513d601f19601f820116820180604052508101906108ea9190614560565b905080820361095557601380548060200260200160405190810160405280929190818152602001828054801561094957602002820191906000526020600020905b81546001600160a01b0316815260019091019060200180831161092b575b50505050509250505090565b60008167ffffffffffffffff81111561097057610970614579565b604051908082528060200260200182016040528015610999578160200160208202803683370190505b50905060005b83811015610a1457601381815481106109ba576109ba61458f565b9060005260206000200160009054906101000a90046001600160a01b03168282815181106109ea576109ea61458f565b6001600160a01b039092166020928302919091019091015280610a0c816145bb565b91505061099f565b50825b82811015610ad257601454601254604051633ddfe34f60e11b81526001600160a01b03918216600482015260248101849052911690637bbfc69e90604401602060405180830381865afa158015610a72573d6000803e3d6000fd5b505050506040513d601f19601f82011682018060405250810190610a9691906145d4565b828281518110610aa857610aa861458f565b6001600160a01b039092166020928302919091019091015280610aca816145bb565b915050610a17565b509392505050565b60018054610ae7906145f1565b80601f0160208091040260200160405190810160405280929190818152602001828054610b13906145f1565b8015610b605780601f10610b3557610100808354040283529160200191610b60565b820191906000526020600020905b815481529060010190602001808311610b4357829003601f168201915b505050505081565b6004546000908015610b8c57610b87610b7f610861565b849083611e31565b610b8e565b825b9392505050565b3360008181526006602090815260408083206001600160a01b038716808552925280832085905551919290917f8c5be1e5ebec7d5bd14f71427d1e84f3dd0314c0f7b2291e5b200ac8c7c3b92590610bf09086815260200190565b60405180910390a35060015b92915050565b6004546000908015610b8c57610b8781610c1a610861565b859190611e50565b6010546001600160a01b03163314610c6e5760405162461bcd60e51b815260206004820152600a60248201526908585d5d1bdc9a5e995960b21b60448201526064015b60405180910390fd5b601180546001600160a01b0319166001600160a01b0392909216919091179055565b6000610c9d848484611e7e565b949350505050565b600d546000906001600160a01b0316610cc05761086c610861565b600d60009054906101000a90046001600160a01b03166001600160a01b03166301e1d1146040518163ffffffff1660e01b8152600401602060405180830381865afa158015610d13573d6000803e3d6000fd5b505050506040513d601f19601f8201168201806040525081019061086c9190614560565b600080610d42610871565b905060005b8151811015610f0957610ef5610eee838381518110610d6857610d6861458f565b60200260200101516001600160a01b031663313ce5676040518163ffffffff1660e01b8152600401602060405180830381865afa158015610dad573d6000803e3d6000fd5b505050506040513d601f19601f82011682018060405250810190610dd19190614560565b610ddc90600a61470f565b610ee8858581518110610df157610df161458f565b60200260200101516001600160a01b03166399530b066040518163ffffffff1660e01b8152600401602060405180830381865afa158015610e36573d6000803e3d6000fd5b505050506040513d601f19601f82011682018060405250810190610e5a9190614560565b868681518110610e6c57610e6c61458f565b60209081029190910101516040516370a0823160e01b81526001600160a01b038b81166004830152909116906370a0823190602401602060405180830381865afa158015610ebe573d6000803e3d6000fd5b505050506040513d601f19601f82011682018060405250810190610ee29190614560565b90611f5e565b90611f6a565b8490611f76565b925080610f01816145bb565b915050610d47565b5050919050565b60006007544614610f235761086c611f82565b5060085490565b6000610b8e30848461201c565b6000610bfc308361219b565b6000610bfc82610b68565b600d546001600160a01b031615610f965760405162461bcd60e51b815260206004820152600c60248201526b085a5b9a5d1a585b1a5e995960a21b6044820152606401610c65565b600e546001600160a01b03163314610fdb5760405162461bcd60e51b815260206004820152600860248201526721666163746f727960c01b6044820152606401610c65565b600d80546001600160a01b0319166001600160a01b03838116918217909255600b5460405163095ea7b360e01b8152600481019290925260001960248301529091169063095ea7b3906044016020604051808303816000875af1158015611046573d6000803e3d6000fd5b505050506040513d601f19601f8201168201806040525081019061106a919061471b565b5050565b600c5460009082906001600160a01b031633811461109e5760405162461bcd60e51b8152600401610c659061473d565b806001600160a01b0316826001600160a01b0316146110cf5760405162461bcd60e51b8152600401610c659061473d565b6110d885611b4e565b9250826000036111145760405162461bcd60e51b81526020600482015260076024820152662173686172657360c81b6044820152606401610c65565b600061112333308860016121a9565b905061112e816117ec565b935061113a8585612567565b60408051878152602081018690526001600160a01b0387169133917fdcbc1c05240f31ff3ad067ef1ee35ce4997762752e3a095284754544f4c709d791015b60405180910390a350505092915050565b600080611195611a72565b90506000816001600160a01b031663a6f7f5d66040518163ffffffff1660e01b8152600401602060405180830381865afa1580156111d7573d6000803e3d6000fd5b505050506040513d601f19601f820116820180604052508101906111fb9190614560565b90506000826001600160a01b031663877887826040518163ffffffff1660e01b8152600401602060405180830381865afa15801561123d573d6000803e3d6000fd5b505050506040513d601f19601f820116820180604052508101906112619190614560565b9050600061126d6125c1565b905061127f83655af3107a400061475e565b6112b461129284655af3107a400061475e565b6112a490670de0b6b3a764000061477d565b8390670de0b6b3a7640000611e31565b6112be9190614794565b94505050505090565b600061086c30612ad0565b600c5460009082906001600160a01b03163381146113025760405162461bcd60e51b8152600401610c659061473d565b806001600160a01b0316826001600160a01b0316146113335760405162461bcd60e51b8152600401610c659061473d565b61133c856114f1565b9250600061134d33308660016121a9565b9050611358816117ec565b95506113648587612567565b60408051858152602081018890526001600160a01b0387169133917fdcbc1c05240f31ff3ad067ef1ee35ce4997762752e3a095284754544f4c709d79101611179565b60028054610ae7906145f1565b6000610b8e8383612ade565b601460009054906101000a90046001600160a01b03166001600160a01b0316635aa6e6756040518163ffffffff1660e01b8152600401602060405180830381865afa158015611413573d6000803e3d6000fd5b505050506040513d601f19601f8201168201806040525081019061143791906145d4565b6001600160a01b0316336001600160a01b03161461145457600080fd5b601480546001600160a01b0319166001600160a01b03831690811790915560408051635aa6e67560e01b81529051635aa6e675916004808201926020929091908290030181865afa1580156114ad573d6000803e3d6000fd5b505050506040513d601f19601f820116820180604052508101906114d191906145d4565b6001600160a01b0316336001600160a01b0316146114ee57600080fd5b50565b6004546000908015610b8c57610b87611508610861565b849083611e50565b600c5460009083906001600160a01b03163381146115405760405162461bcd60e51b8152600401610c659061473d565b806001600160a01b0316826001600160a01b0316146115715760405162461bcd60e51b8152600401610c659061473d565b61157a86610c02565b9250336001600160a01b038516146115ea576001600160a01b038416600090815260066020908152604080832033845290915290205460001981146115e8576115c3848261477d565b6001600160a01b03861660009081526006602090815260408083203384529091529020555b505b60006115f93087896001612b44565b9050611606848289611e50565b93506116128585613306565b60408051828152602081018690526001600160a01b03808816929089169133917ffbde797d201c681b91056529119e0b02407c7bb96a4a2c75c01fc9667232c8db91015b60405180910390a45050509392505050565b600c5460009083906001600160a01b03163381146116985760405162461bcd60e51b8152600401610c659061473d565b806001600160a01b0316826001600160a01b0316146116c95760405162461bcd60e51b8152600401610c659061473d565b6116d286610f43565b92508260000361170e5760405162461bcd60e51b81526020600482015260076024820152662161737365747360c81b6044820152606401610c65565b336001600160a01b0385161461177c576001600160a01b0384166000908152600660209081526040808320338452909152902054600019811461177a57611755878261477d565b6001600160a01b03861660009081526006602090815260408083203384529091529020555b505b600061178b3087866001612b44565b9050611798878286611e50565b96506117a48588613306565b60408051828152602081018990526001600160a01b03808816929089169133917ffbde797d201c681b91056529119e0b02407c7bb96a4a2c75c01fc9667232c8db9101611656565b6004546000908015610b8c57610b8781611804610861565b859190611e31565b6001600160a01b038116600090815260056020526040812054610bfc90610b68565b4284101561187e5760405162461bcd60e51b815260206004820152601760248201527f5045524d49545f444541444c494e455f455850495245440000000000000000006044820152606401610c65565b6000600161188a610f10565b6001600160a01b038a811660008181526009602090815260409182902080546001810190915582517f6e71edae12b1b97f4d1f60370fef10105fa2faae0126114a169c64845d6126c98184015280840194909452938d166060840152608083018c905260a083019390935260c08083018b90528151808403909101815260e08301909152805192019190912061190160f01b6101008301526101028201929092526101228101919091526101420160408051601f198184030181528282528051602091820120600084529083018083525260ff871690820152606081018590526080810184905260a0016020604051602081039080840390855afa158015611996573d6000803e3d6000fd5b5050604051601f1901519150506001600160a01b038116158015906119cc5750876001600160a01b0316816001600160a01b0316145b611a095760405162461bcd60e51b815260206004820152600e60248201526d24a72b20a624a22fa9a4a3a722a960911b6044820152606401610c65565b6001600160a01b0390811660009081526006602090815260408083208a8516808552908352928190208990555188815291928a16917f8c5be1e5ebec7d5bd14f71427d1e84f3dd0314c0f7b2291e5b200ac8c7c3b925910160405180910390a350505050505050565b601454601254604051630e177dc760e41b81526001600160a01b039182166004820152600092919091169063e177dc7090602401602060405180830381865afa158015611ac3573d6000803e3d6000fd5b505050506040513d601f19601f8201168201806040525081019061086c91906145d4565b6011546001600160a01b03163314611b2e5760405162461bcd60e51b815260206004820152600a60248201526908585d5d1bdc9a5e995960b21b6044820152606401610c65565b601080546001600160a01b03199081163317909155601180549091169055565b6004546000908183611b5e610861565b611b6891906147d3565b90508115611b8057611b7b848383611e31565b610c9d565b509192915050565b600054610100900460ff1615808015611ba85750600054600160ff909116105b80611bc25750303b158015611bc2575060005460ff166001145b611c255760405162461bcd60e51b815260206004820152602e60248201527f496e697469616c697a61626c653a20636f6e747261637420697320616c72656160448201526d191e481a5b9a5d1a585b1a5e995960921b6064820152608401610c65565b6000805460ff191660011790558015611c48576000805461ff0019166101001790555b6000826001600160a01b0316637b1039996040518163ffffffff1660e01b8152600401602060405180830381865afa158015611c88573d6000803e3d6000fd5b505050506040513d601f19601f82011682018060405250810190611cac91906145d4565b9050611cb88682613368565b6000611cc2611a72565b90506001600160a01b038116611d035760405162461bcd60e51b8152602060048201526006602482015265085d985d5b1d60d21b6044820152606401610c65565b6000611d0d6133bd565b6001600160a01b031603611d4f5760405162461bcd60e51b815260206004820152600960248201526821737472617465677960b81b6044820152606401610c65565b611d5b87878787613683565b601580546001600160a01b0319163317905560405163095ea7b360e01b81526001600160a01b038281166004830152600019602483015288169063095ea7b3906044016020604051808303816000875af1158015611dbd573d6000803e3d6000fd5b505050506040513d601f19601f82011682018060405250810190611de1919061471b565b5050508015611e2a576000805461ff0019169055604051600181527f7f26b83ff96e1f2b6a682f133852f6798a09c465da95921460cefb38474024989060200160405180910390a15b5050505050565b828202811515841585830485141716611e4957600080fd5b0492915050565b828202811515841585830485141716611e6857600080fd5b6001826001830304018115150290509392505050565b6001600160a01b03831660009081526006602090815260408083203384529091528120546000198114611eda57611eb5838261477d565b6001600160a01b03861660009081526006602090815260408083203384529091529020555b6001600160a01b03851660009081526005602052604081208054859290611f0290849061477d565b90915550506001600160a01b0380851660008181526005602052604090819020805487019055519091871690600080516020614c1c83398151915290611f4b9087815260200190565b60405180910390a3506001949350505050565b6000610b8e828461475e565b6000610b8e82846147eb565b6000610b8e82846147d3565b60007f8b73c3c69bb8fe3d512ecc4cf759cc79239f7b179b0ffacaa9a75d522b39400f6001604051611fb4919061480d565b6040805191829003822060208301939093528101919091527fc89efdaa54c0f20c7adf612882df0950f5a951637e0307cdcb4c672f298b8bc660608201524660808201523060a082015260c00160405160208183030381529060405280519060200120905090565b600080612027611a72565b90506000816001600160a01b031663ecf708586040518163ffffffff1660e01b8152600401602060405180830381865afa158015612069573d6000803e3d6000fd5b505050506040513d601f19601f8201168201806040525081019061208d9190614560565b90506000826001600160a01b03166301e1d1146040518163ffffffff1660e01b8152600401602060405180830381865afa1580156120cf573d6000803e3d6000fd5b505050506040513d601f19601f820116820180604052508101906120f39190614560565b90508082116121085760009350505050610b8e565b856000198310801561211b575060001981105b1561213c57600061212c8484613904565b90508082111561213a578091505b505b80156121905760006121518930846000612b44565b90508060000361216957600095505050505050610b8e565b612176308a8360006121a9565b9550866121838288613904565b111561218e57600080fd5b505b505050509392505050565b6000610b8e8383600061201c565b6000806121b4611a72565b9050821561226c5760001984146121e2576012546121dd906001600160a01b0316873087613910565b61226c565b6012546040516370a0823160e01b81526001600160a01b03808916600483015261226c9289923092909116906370a0823190602401602060405180830381865afa158015612234573d6000803e3d6000fd5b505050506040513d601f19601f820116820180604052508101906122589190614560565b6012546001600160a01b0316929190613910565b601254604051636eb1769f60e11b81523060048201526001600160a01b0383811660248301528692169063dd62ed3e90604401602060405180830381865afa1580156122bc573d6000803e3d6000fd5b505050506040513d601f19601f820116820180604052508101906122e09190614560565b1015612317576012546122fe906001600160a01b0316826000613981565b601254612317906001600160a01b031682600019613981565b6012546040516370a0823160e01b81523060048201526000916001600160a01b0316906370a0823190602401602060405180830381865afa158015612360573d6000803e3d6000fd5b505050506040513d601f19601f820116820180604052508101906123849190614560565b90506001600160a01b038616301461241057604051636e553f6560e01b8152600481018690526001600160a01b038781166024830152831690636e553f65906044015b6020604051808303816000875af11580156123e6573d6000803e3d6000fd5b505050506040513d601f19601f8201168201806040525081019061240a9190614560565b506124ac565b60001985146124465760405163b6b55f2560e01b8152600481018690526001600160a01b0383169063b6b55f25906024016123c7565b816001600160a01b031663d0e30db06040518163ffffffff1660e01b81526004016020604051808303816000875af1158015612486573d6000803e3d6000fd5b505050506040513d601f19601f820116820180604052508101906124aa9190614560565b505b6012546040516370a0823160e01b81523060048201526000916001600160a01b0316906370a0823190602401602060405180830381865afa1580156124f5573d6000803e3d6000fd5b505050506040513d601f19601f820116820180604052508101906125199190614560565b90506125258282613904565b93506001600160a01b03881630148015906125405750600081115b1561255c5760125461255c906001600160a01b03168983613a9b565b505050949350505050565b806004600082825461257991906147d3565b90915550506001600160a01b038216600081815260056020908152604080832080548601905551848152600080516020614c1c83398151915291015b60405180910390a35050565b6000806125cc6133bd565b90506000816001600160a01b031663220cce976040518163ffffffff1660e01b8152600401602060405180830381865afa15801561260e573d6000803e3d6000fd5b505050506040513d601f19601f8201168201806040525081019061263291906145d4565b90506000600a60009054906101000a90046001600160a01b03166001600160a01b031663bb7b8b806040518163ffffffff1660e01b8152600401602060405180830381865afa158015612689573d6000803e3d6000fd5b505050506040513d601f19601f820116820180604052508101906126ad9190614560565b905060006126ba83613acb565b60405163b3596f0760e01b81526001600160a01b0380831660048301529192506000917f0000000000000000000000000000000000000000000000000000000000000000169063b3596f0790602401602060405180830381865afa158015612726573d6000803e3d6000fd5b505050506040513d601f19601f8201168201806040525081019061274a9190614560565b9050600061275785613b30565b90506000612766828487611e31565b905073d533a949740bb3306d119cc777fa900ba034cd51196001600160a01b038516016128d8576000876001600160a01b0316637fef901a6040518163ffffffff1660e01b8152600401602060405180830381865afa1580156127cd573d6000803e3d6000fd5b505050506040513d601f19601f820116820180604052508101906127f19190614560565b905061280c6128028261271061477d565b8390612710611e31565b60405163b3596f0760e01b8152734e3fbd56cd56c3e72c1403e103b45db9da5b9d2b60048201529092506000906001600160a01b037f0000000000000000000000000000000000000000000000000000000000000000169063b3596f0790602401602060405180830381865afa15801561288a573d6000803e3d6000fd5b505050506040513d601f19601f820116820180604052508101906128ae9190614560565b905060006128bb85613c1e565b90506128c881838a611e31565b6128d290856147d3565b93505050505b6000866001600160a01b031663d55a23f46040518163ffffffff1660e01b8152600401602060405180830381865afa158015612918573d6000803e3d6000fd5b505050506040513d601f19601f8201168201806040525081019061293c9190614560565b90508015612a975760005b81811015612a9557604051632061aa2360e11b8152600481018290526000906001600160a01b038a16906340c3544690602401602060405180830381865afa158015612997573d6000803e3d6000fd5b505050506040513d601f19601f820116820180604052508101906129bb91906145d4565b905060006129c882613acb565b60405163b3596f0760e01b81526001600160a01b0380831660048301529192506000917f0000000000000000000000000000000000000000000000000000000000000000169063b3596f0790602401602060405180830381865afa158015612a34573d6000803e3d6000fd5b505050506040513d601f19601f82011682018060405250810190612a589190614560565b90506000612a6584613b30565b9050612a7281838d611e31565b612a7c90886147d3565b9650505050508080612a8d906145bb565b915050612947565b505b612ac46040518060400160405280600b81526020016a033b937b9b99030b8391d160ad1b81525083613d2e565b50979650505050505050565b6000610bfc8260001961219b565b33600090815260056020526040812080548391908390612aff90849061477d565b90915550506001600160a01b03831660008181526005602052604090819020805485019055513390600080516020614c1c83398151915290610bf09086815260200190565b600080612b4f611a72565b90506000612b5b610871565b9050612b6681613d73565b60005b81518110156130bb5784158015612baa5750826001600160a01b0316828281518110612b9757612b9761458f565b60200260200101516001600160a01b0316145b6130a9576000828281518110612bc257612bc261458f565b60209081029190910101516040516370a0823160e01b81526001600160a01b038b81166004830152909116906370a0823190602401602060405180830381865afa158015612c14573d6000803e3d6000fd5b505050506040513d601f19601f82011682018060405250810190612c389190614560565b90506001600160a01b0389163014612ce457612ce181848481518110612c6057612c6061458f565b6020908102919091010151604051636eb1769f60e11b81526001600160a01b038d811660048301523060248301529091169063dd62ed3e90604401602060405180830381865afa158015612cb8573d6000803e3d6000fd5b505050506040513d601f19601f82011682018060405250810190612cdc9190614560565b613d91565b90505b612d3f81848481518110612cfa57612cfa61458f565b60200260200101516001600160a01b03166375de29026040518163ffffffff1660e01b8152600401602060405180830381865afa158015612cb8573d6000803e3d6000fd5b905080156130a7576001600160a01b0389163014612df057828281518110612d6957612d6961458f565b60209081029190910101516040516323b872dd60e01b81526001600160a01b038b8116600483015230602483015260448201849052909116906323b872dd906064016020604051808303816000875af1158015612dca573d6000803e3d6000fd5b505050506040513d601f19601f82011682018060405250810190612dee919061471b565b505b6000198714613010576000612f0c848481518110612e1057612e1061458f565b60200260200101516001600160a01b03166399530b066040518163ffffffff1660e01b8152600401602060405180830381865afa158015612e55573d6000803e3d6000fd5b505050506040513d601f19601f82011682018060405250810190612e799190614560565b610ee8868681518110612e8e57612e8e61458f565b60200260200101516001600160a01b031663313ce5676040518163ffffffff1660e01b8152600401602060405180830381865afa158015612ed3573d6000803e3d6000fd5b505050506040513d601f19601f82011682018060405250810190612ef79190614560565b612f0290600a61470f565b610ee28c8b613904565b9050600081118015612f1d57508181105b15612fbd57612fb6848481518110612f3757612f3761458f565b60200260200101516001600160a01b0316632e1a7d4d836040518263ffffffff1660e01b8152600401612f6c91815260200190565b6020604051808303816000875af1158015612f8b573d6000803e3d6000fd5b505050506040513d601f19601f82011682018060405250810190612faf9190614560565b8790611f76565b955061300a565b613007848481518110612fd257612fd261458f565b60200260200101516001600160a01b0316632e1a7d4d846040518263ffffffff1660e01b8152600401612f6c91815260200190565b95505b5061309a565b6130978383815181106130255761302561458f565b60200260200101516001600160a01b0316633ccfd60b6040518163ffffffff1660e01b81526004016020604051808303816000875af115801561306c573d6000803e3d6000fd5b505050506040513d601f19601f820116820180604052508101906130909190614560565b8690611f76565b94505b8487116130a757506130bb565b505b806130b3816145bb565b915050612b69565b5084831180156131a45750613198826001600160a01b031663313ce5676040518163ffffffff1660e01b8152600401602060405180830381865afa158015613107573d6000803e3d6000fd5b505050506040513d601f19601f8201168201806040525081019061312b9190614560565b61313690600a61470f565b836001600160a01b03166399530b066040518163ffffffff1660e01b8152600401602060405180830381865afa158015613174573d6000803e3d6000fd5b505050506040513d601f19601f82011682018060405250810190610ee89190614560565b6131a28487613904565b115b156132d5576131b38386613904565b601254604051636eb1769f60e11b81523060048201526001600160a01b0385811660248301529091169063dd62ed3e90604401602060405180830381865afa158015613203573d6000803e3d6000fd5b505050506040513d601f19601f820116820180604052508101906132279190614560565b101561324657601254613246906001600160a01b031683600019613981565b6001600160a01b038216636e553f6561325f8588613904565b6040516001600160e01b031960e084901b16815260048101919091526001600160a01b038a1660248201526044016020604051808303816000875af11580156132ac573d6000803e3d6000fd5b505050506040513d601f19601f820116820180604052508101906132d09190614560565b508492505b6001600160a01b03861630146132fc576012546132fc906001600160a01b03168785613a9b565b5050949350505050565b6001600160a01b0382166000908152600560205260408120805483929061332e90849061477d565b90915550506004805482900390556040518181526000906001600160a01b03841690600080516020614c1c833981519152906020016125b5565b600054610100900460ff1661338f5760405162461bcd60e51b8152600401610c65906148a8565b601280546001600160a01b039384166001600160a01b03199182161790915560148054929093169116179055565b6000806133c8611a72565b90506001600160a01b0381166134095760405162461bcd60e51b8152602060048201526006602482015265085d985d5b1d60d21b6044820152606401610c65565b60405163a5b166fb60e01b81526001600160a01b0382811660048301526000917f00000000000000000000000000000000000000000000000000000000000000009091169063a5b166fb90602401602060405180830381865afa158015613474573d6000803e3d6000fd5b505050506040513d601f19601f820116820180604052508101906134989190614560565b9050600081116134d85760405162461bcd60e51b815260206004820152600b60248201526a217374726174656769657360a81b6044820152606401610c65565b60008167ffffffffffffffff8111156134f3576134f3614579565b60405190808252806020026020018201604052801561351c578160200160208202803683370190505b506040516397a077b960e01b81526001600160a01b0385811660048301529192507f0000000000000000000000000000000000000000000000000000000000000000909116906397a077b990602401600060405180830381865afa158015613588573d6000803e3d6000fd5b505050506040513d6000823e601f3d908101601f191682016040526135b0919081019061494e565b90506000805b8381101561367a5760008382815181106135d2576135d261458f565b60209081029190910101516040516339ebf82360e01b81526001600160a01b0380831660048301529192506000918816906339ebf8239060240161012060405180830381865afa15801561362a573d6000803e3d6000fd5b505050506040513d601f19601f8201168201806040525081019061364e9190614a00565b90508060400151612710036136655750915061367a565b50508080613672906145bb565b9150506135b6565b50949350505050565b600054610100900460ff166136aa5760405162461bcd60e51b8152600401610c65906148a8565b6000846001600160a01b03166395d89b416040518163ffffffff1660e01b8152600401600060405180830381865afa1580156136ea573d6000803e3d6000fd5b505050506040513d6000823e601f3d908101601f191682016040526137129190810190614a7b565b90506000846001600160a01b03166395d89b416040518163ffffffff1660e01b8152600401600060405180830381865afa158015613754573d6000803e3d6000fd5b505050506040513d6000823e601f3d908101601f1916820160405261377c9190810190614a7b565b90506000836001600160a01b03166306fdde036040518163ffffffff1660e01b8152600401600060405180830381865afa1580156137be573d6000803e3d6000fd5b505050506040513d6000823e601f3d908101601f191682016040526137e69190810190614a7b565b83836040516020016137fa93929190614b06565b60405160208183030381529060405290506000846001600160a01b03166395d89b416040518163ffffffff1660e01b8152600401600060405180830381865afa15801561384b573d6000803e3d6000fd5b505050506040513d6000823e601f3d908101601f191682016040526138739190810190614a7b565b848460405160200161388793929190614b66565b60405160208183030381529060405290506138a3888383613da7565b600b80546001600160a01b03808a166001600160a01b031992831617909255600c80548984169083168117909155600e8054831633179055600f80548985169316929092179091556138fa918a1690600019613e65565b5050505050505050565b6000610b8e828461477d565b6040516001600160a01b038085166024830152831660448201526064810182905261397b9085906323b872dd60e01b906084015b60408051601f198184030181529190526020810180516001600160e01b03166001600160e01b031990931692909217909152613edc565b50505050565b8015806139fb5750604051636eb1769f60e11b81523060048201526001600160a01b03838116602483015284169063dd62ed3e90604401602060405180830381865afa1580156139d5573d6000803e3d6000fd5b505050506040513d601f19601f820116820180604052508101906139f99190614560565b155b613a665760405162461bcd60e51b815260206004820152603660248201527f5361666545524332303a20617070726f76652066726f6d206e6f6e2d7a65726f60448201527520746f206e6f6e2d7a65726f20616c6c6f77616e636560501b6064820152608401610c65565b6040516001600160a01b038316602482015260448101829052613a9690849063095ea7b360e01b90606401613944565b505050565b6040516001600160a01b038316602482015260448101829052613a9690849063a9059cbb60e01b90606401613944565b600080826001600160a01b031663f7c618c16040518163ffffffff1660e01b8152600401602060405180830381865afa158015613b0c573d6000803e3d6000fd5b505050506040513d601f19601f82011682018060405250810190610b8e91906145d4565b600080826001600160a01b0316637b0a47ee6040518163ffffffff1660e01b8152600401602060405180830381865afa158015613b71573d6000803e3d6000fd5b505050506040513d601f19601f82011682018060405250810190613b959190614560565b90506000836001600160a01b03166318160ddd6040518163ffffffff1660e01b8152600401602060405180830381865afa158015613bd7573d6000803e3d6000fd5b505050506040513d601f19601f82011682018060405250810190613bfb9190614560565b90506000613c15836a1a1601fc4ea7109e00000084611e31565b95945050505050565b6000806a52b7d2dcc80cd2e4000000905060006103e89050600069152d02c7e14af680000090506000734e3fbd56cd56c3e72c1403e103b45db9da5b9d2b6001600160a01b03166318160ddd6040518163ffffffff1660e01b8152600401602060405180830381865afa158015613c99573d6000803e3d6000fd5b505050506040513d601f19601f82011682018060405250810190613cbd9190614560565b90506000613ccb83836147eb565b905083811015613d21576000613ce1828661477d565b905084613cee828a61475e565b613cf891906147eb565b97506000613d06848861477d565b905080891115613d14578098505b5096979650505050505050565b5060009695505050505050565b61106a8282604051602401613d44929190614bc0565b60408051601f198184030181529190526020810180516001600160e01b03166309710a9d60e41b179052613fae565b601354815111156114ee57805161106a906013906020840190614164565b6000818310613da05781610b8e565b5090919050565b600054610100900460ff16613dce5760405162461bcd60e51b8152600401610c65906148a8565b6000836001600160a01b031663313ce5676040518163ffffffff1660e01b8152600401602060405180830381865afa158015613e0e573d6000803e3d6000fd5b505050506040513d601f19601f82011682018060405250810190613e329190614be2565b9050613e3f838383613fcf565b5050600a80546001600160a01b0319166001600160a01b03939093169290921790915550565b600060405163095ea7b360e01b8152836004820152826024820152602060006044836000895af13d15601f3d116001600051141617169150508061397b5760405162461bcd60e51b815260206004820152600e60248201526d1054141493d59157d1905253115160921b6044820152606401610c65565b6000613f31826040518060400160405280602081526020017f5361666545524332303a206c6f772d6c6576656c2063616c6c206661696c6564815250856001600160a01b03166140419092919063ffffffff16565b805190915015613a965780806020019051810190613f4f919061471b565b613a965760405162461bcd60e51b815260206004820152602a60248201527f5361666545524332303a204552433230206f7065726174696f6e20646964206e6044820152691bdd081cdd58d8d9595960b21b6064820152608401610c65565b80516a636f6e736f6c652e6c6f67602083016000808483855afa5050505050565b600054610100900460ff16613ff65760405162461bcd60e51b8152600401610c65906148a8565b82516140099060019060208601906141c9565b50815161401d9060029060208501906141c9565b506003805460ff191660ff831617905546600755614039611f82565b600855505050565b6060610c9d848460008585600080866001600160a01b031685876040516140689190614bff565b60006040518083038185875af1925050503d80600081146140a5576040519150601f19603f3d011682016040523d82523d6000602084013e6140aa565b606091505b50915091506140bb878383876140c6565b979650505050505050565b6060831561413557825160000361412e576001600160a01b0385163b61412e5760405162461bcd60e51b815260206004820152601d60248201527f416464726573733a2063616c6c20746f206e6f6e2d636f6e74726163740000006044820152606401610c65565b5081610c9d565b610c9d838381511561414a5781518083602001fd5b8060405162461bcd60e51b8152600401610c6591906142f7565b8280548282559060005260206000209081019282156141b9579160200282015b828111156141b957825182546001600160a01b0319166001600160a01b03909116178255602090920191600190910190614184565b506141c592915061423d565b5090565b8280546141d5906145f1565b90600052602060002090601f0160209004810192826141f757600085556141b9565b82601f1061421057805160ff19168380011785556141b9565b828001600101855582156141b9579182015b828111156141b9578251825591602001919060010190614222565b5b808211156141c5576000815560010161423e565b6020808252825182820181905260009190848201906040850190845b818110156142935783516001600160a01b03168352928401929184019160010161426e565b50909695505050505050565b60005b838110156142ba5781810151838201526020016142a2565b8381111561397b5750506000910152565b600081518084526142e381602086016020860161429f565b601f01601f19169290920160200192915050565b602081526000610b8e60208301846142cb565b60006020828403121561431c57600080fd5b5035919050565b6001600160a01b03811681146114ee57600080fd5b6000806040838503121561434b57600080fd5b823561435681614323565b946020939093013593505050565b60006020828403121561437657600080fd5b8135610b8e81614323565b60008060006060848603121561439657600080fd5b83356143a181614323565b925060208401356143b181614323565b929592945050506040919091013590565b600080604083850312156143d557600080fd5b50508035926020909101359150565b600080604083850312156143f757600080fd5b82359150602083013561440981614323565b809150509250929050565b60008060006060848603121561442957600080fd5b83359250602084013561443b81614323565b9150604084013561444b81614323565b809150509250925092565b60ff811681146114ee57600080fd5b600080600080600080600060e0888a03121561448057600080fd5b873561448b81614323565b9650602088013561449b81614323565b9550604088013594506060880135935060808801356144b981614456565b9699959850939692959460a0840135945060c09093013592915050565b600080604083850312156144e957600080fd5b82356144f481614323565b9150602083013561440981614323565b6000806000806080858703121561451a57600080fd5b843561452581614323565b9350602085013561453581614323565b9250604085013561454581614323565b9150606085013561455581614323565b939692955090935050565b60006020828403121561457257600080fd5b5051919050565b634e487b7160e01b600052604160045260246000fd5b634e487b7160e01b600052603260045260246000fd5b634e487b7160e01b600052601160045260246000fd5b6000600182016145cd576145cd6145a5565b5060010190565b6000602082840312156145e657600080fd5b8151610b8e81614323565b600181811c9082168061460557607f821691505b60208210810361462557634e487b7160e01b600052602260045260246000fd5b50919050565b600181815b8085111561466657816000190482111561464c5761464c6145a5565b8085161561465957918102915b93841c9390800290614630565b509250929050565b60008261467d57506001610bfc565b8161468a57506000610bfc565b81600181146146a057600281146146aa576146c6565b6001915050610bfc565b60ff8411156146bb576146bb6145a5565b50506001821b610bfc565b5060208310610133831016604e8410600b84101617156146e9575081810a610bfc565b6146f3838361462b565b8060001904821115614707576147076145a5565b029392505050565b6000610b8e838361466e565b60006020828403121561472d57600080fd5b81518015158114610b8e57600080fd5b60208082526007908201526621736f7572636560c81b604082015260600190565b6000816000190483118215151615614778576147786145a5565b500290565b60008282101561478f5761478f6145a5565b500390565b60008083128015600160ff1b8501841216156147b2576147b26145a5565b6001600160ff1b03840183138116156147cd576147cd6145a5565b50500390565b600082198211156147e6576147e66145a5565b500190565b60008261480857634e487b7160e01b600052601260045260246000fd5b500490565b600080835481600182811c91508083168061482957607f831692505b6020808410820361484857634e487b7160e01b86526022600452602486fd5b81801561485c576001811461486d5761489a565b60ff1986168952848901965061489a565b60008a81526020902060005b868110156148925781548b820152908501908301614879565b505084890196505b509498975050505050505050565b6020808252602b908201527f496e697469616c697a61626c653a20636f6e7472616374206973206e6f74206960408201526a6e697469616c697a696e6760a81b606082015260800190565b604051610120810167ffffffffffffffff8111828210171561491757614917614579565b60405290565b604051601f8201601f1916810167ffffffffffffffff8111828210171561494657614946614579565b604052919050565b6000602080838503121561496157600080fd5b825167ffffffffffffffff8082111561497957600080fd5b818501915085601f83011261498d57600080fd5b81518181111561499f5761499f614579565b8060051b91506149b084830161491d565b81815291830184019184810190888411156149ca57600080fd5b938501935b838510156149f457845192506149e483614323565b82825293850193908501906149cf565b98975050505050505050565b60006101208284031215614a1357600080fd5b614a1b6148f3565b825181526020830151602082015260408301516040820152606083015160608201526080830151608082015260a083015160a082015260c083015160c082015260e083015160e08201526101008084015181830152508091505092915050565b600060208284031215614a8d57600080fd5b815167ffffffffffffffff80821115614aa557600080fd5b818401915084601f830112614ab957600080fd5b815181811115614acb57614acb614579565b614ade601f8201601f191660200161491d565b9150808252856020828501011115614af557600080fd5b61367a81602084016020860161429f565b60008451614b1881846020890161429f565b6101d160f51b9083019081528451614b3781600284016020890161429f565b602d60f81b600292909101918201528351614b5981600384016020880161429f565b0160030195945050505050565b60008451614b7881846020890161429f565b8083019050602d60f81b8082528551614b98816001850160208a0161429f565b60019201918201528351614bb381600284016020880161429f565b0160020195945050505050565b604081526000614bd360408301856142cb565b90508260208301529392505050565b600060208284031215614bf457600080fd5b8151610b8e81614456565b60008251614c1181846020870161429f565b919091019291505056feddf252ad1be2c89b69c2b068fc378daa952ba7f163c4a11628f55a4df523b3efa2646970667358221220c71f711eb46b6e128deaa99a4b4b860dd52ac110824adce2e048ea9a5616c99a64736f6c634300080d0033",
    "sourcePath": "/Users/misha/Library/Mobile Documents/com~apple~CloudDocs/Dev/construct-finance/construct_V0/src/modules/YearnConvexModule.sol",
    "compiler": {
        "name": "solc",
        "version": "0.8.13+commit.abaa5c0e"
    },
    "functionHashes": {
        "DOMAIN_SEPARATOR()": "3644e515",
        "acceptOwner()": "ebbc4965",
        "affiliate()": "45e05f43",
        "allVaults()": "063effeb",
        "allowance(address,address)": "dd62ed3e",
        "approve(address,uint256)": "095ea7b3",
        "asset()": "38d52e0f",
        "balanceOf(address)": "70a08231",
        "bestVault()": "e95b2de8",
        "convertToAssets(uint256)": "07a2d13a",
        "convertToShares(uint256)": "c6e6f592",
        "convexBooster()": "2cdacb50",
        "convexPid()": "86993bef",
        "decimals()": "313ce567",
        "deposit(uint256,address)": "6e553f65",
        "factory()": "c45a0155",
        "getCapitalUtilization()": "bdde8a48",
        "getModuleApr()": "7f240fbf",
        "getProduct()": "4ba20050",
        "getSource()": "afa293d4",
        "getTarget()": "f00e6a2a",
        "implementation()": "5c60da1b",
        "initialize(address,address,address,address)": "f8c8765e",
        "initializeStrategy(address)": "678cbcb5",
        "maxDeposit(address)": "402d267d",
        "maxMint(address)": "c63d75b6",
        "maxRedeem(address)": "d905777e",
        "maxWithdraw(address)": "ce96cb77",
        "migrate()": "8fd3ab80",
        "migrate(uint256)": "454b0608",
        "migrate(uint256,uint256)": "3e54bacb",
        "mint(uint256,address)": "94bf804d",
        "name()": "06fdde03",
        "nonces(address)": "7ecebe00",
        "oracle()": "7dc0d1d0",
        "owner()": "8da5cb5b",
        "pendingAffiliate()": "b38a440e",
        "pendingOwner()": "e30c3978",
        "permit(address,address,uint256,uint256,uint8,bytes32,bytes32)": "d505accf",
        "previewDeposit(uint256)": "ef8b30f7",
        "previewMint(uint256)": "b3d7f6b9",
        "previewRedeem(uint256)": "4cdad506",
        "previewWithdraw(uint256)": "0a28a477",
        "product()": "bf9ce952",
        "redeem(uint256,address,address)": "ba087652",
        "registry()": "7b103999",
        "setOwner(address)": "13af4035",
        "setRegistry(address)": "a91ee0dc",
        "source()": "67e828bf",
        "symbol()": "95d89b41",
        "target()": "d4b83992",
        "token()": "fc0c546a",
        "totalAssets()": "01e1d114",
        "totalSupply()": "18160ddd",
        "totalTargetBalance()": "2bf8eb1d",
        "totalVaultBalance(address)": "30e5065e",
        "transfer(address,uint256)": "a9059cbb",
        "transferFrom(address,address,uint256)": "23b872dd",
        "withdraw(uint256,address,address)": "b460af94",
        "yearnStrategyHelper()": "183b66b1"
    },
    "gasEstimates": {
        "creation": {
            "codeDepositCost": "3913800",
            "executionCost": "infinite",
            "totalCost": "infinite"
        },
        "external": {
            "DOMAIN_SEPARATOR()": "infinite",
            "acceptOwner()": "50879",
            "affiliate()": "2427",
            "allVaults()": "infinite",
            "allowance(address,address)": "infinite",
            "approve(address,uint256)": "24585",
            "asset()": "2406",
            "balanceOf(address)": "2569",
            "bestVault()": "infinite",
            "convertToAssets(uint256)": "infinite",
            "convertToShares(uint256)": "infinite",
            "convexBooster()": "infinite",
            "convexPid()": "2375",
            "decimals()": "2425",
            "deposit(uint256,address)": "infinite",
            "factory()": "2405",
            "getCapitalUtilization()": "292",
            "getModuleApr()": "infinite",
            "getProduct()": "2443",
            "getSource()": "2421",
            "getTarget()": "2419",
            "implementation()": "2405",
            "initialize(address,address,address,address)": "infinite",
            "initializeStrategy(address)": "infinite",
            "maxDeposit(address)": "454",
            "maxMint(address)": "431",
            "maxRedeem(address)": "2653",
            "maxWithdraw(address)": "infinite",
            "migrate()": "infinite",
            "migrate(uint256)": "infinite",
            "migrate(uint256,uint256)": "infinite",
            "mint(uint256,address)": "infinite",
            "name()": "infinite",
            "nonces(address)": "2635",
            "oracle()": "infinite",
            "owner()": "2450",
            "pendingAffiliate()": "2449",
            "pendingOwner()": "2426",
            "permit(address,address,uint256,uint256,uint8,bytes32,bytes32)": "infinite",
            "previewDeposit(uint256)": "infinite",
            "previewMint(uint256)": "infinite",
            "previewRedeem(uint256)": "infinite",
            "previewWithdraw(uint256)": "infinite",
            "product()": "2470",
            "redeem(uint256,address,address)": "infinite",
            "registry()": "2426",
            "setOwner(address)": "26840",
            "setRegistry(address)": "infinite",
            "source()": "2449",
            "symbol()": "infinite",
            "target()": "2426",
            "token()": "2469",
            "totalAssets()": "infinite",
            "totalSupply()": "2353",
            "totalTargetBalance()": "infinite",
            "totalVaultBalance(address)": "infinite",
            "transfer(address,uint256)": "infinite",
            "transferFrom(address,address,uint256)": "infinite",
            "withdraw(uint256,address,address)": "infinite",
            "yearnStrategyHelper()": "infinite"
        },
        "internal": {
            "getActiveStrategy()": "infinite",
            "getConvexPid()": "infinite",
            "getConvexRewardsContract()": "infinite",
            "getCvxMint(uint256)": "infinite",
            "getExtraRewards(address)": "infinite",
            "getGrossApr()": "infinite",
            "getRewardApr(address)": "infinite",
            "getRewardToken(address)": "infinite"
        }
    }
}