{
    "contractName": "YearnConvexModule",
    "abi": [
        {
            "inputs": [
                {
                    "internalType": "address",
                    "name": "_owner",
                    "type": "address"
                },
                {
                    "internalType": "string",
                    "name": "_name",
                    "type": "string"
                },
                {
                    "internalType": "string",
                    "name": "_symbol",
                    "type": "string"
                },
                {
                    "internalType": "address",
                    "name": "_oracle",
                    "type": "address"
                },
                {
                    "internalType": "address",
                    "name": "_registry",
                    "type": "address"
                },
                {
                    "internalType": "address",
                    "name": "_strategyHelper",
                    "type": "address"
                },
                {
                    "internalType": "address",
                    "name": "_booster",
                    "type": "address"
                }
            ],
            "stateMutability": "nonpayable",
            "type": "constructor"
        },
        {
            "anonymous": false,
            "inputs": [
                {
                    "indexed": true,
                    "internalType": "address",
                    "name": "owner",
                    "type": "address"
                },
                {
                    "indexed": true,
                    "internalType": "address",
                    "name": "spender",
                    "type": "address"
                },
                {
                    "indexed": false,
                    "internalType": "uint256",
                    "name": "amount",
                    "type": "uint256"
                }
            ],
            "name": "Approval",
            "type": "event"
        },
        {
            "anonymous": false,
            "inputs": [
                {
                    "indexed": true,
                    "internalType": "address",
                    "name": "caller",
                    "type": "address"
                },
                {
                    "indexed": true,
                    "internalType": "address",
                    "name": "owner",
                    "type": "address"
                },
                {
                    "indexed": false,
                    "internalType": "uint256",
                    "name": "assets",
                    "type": "uint256"
                },
                {
                    "indexed": false,
                    "internalType": "uint256",
                    "name": "shares",
                    "type": "uint256"
                }
            ],
            "name": "Deposit",
            "type": "event"
        },
        {
            "anonymous": false,
            "inputs": [
                {
                    "indexed": false,
                    "internalType": "uint8",
                    "name": "version",
                    "type": "uint8"
                }
            ],
            "name": "Initialized",
            "type": "event"
        },
        {
            "anonymous": false,
            "inputs": [
                {
                    "indexed": true,
                    "internalType": "address",
                    "name": "from",
                    "type": "address"
                },
                {
                    "indexed": true,
                    "internalType": "address",
                    "name": "to",
                    "type": "address"
                },
                {
                    "indexed": false,
                    "internalType": "uint256",
                    "name": "amount",
                    "type": "uint256"
                }
            ],
            "name": "Transfer",
            "type": "event"
        },
        {
            "anonymous": false,
            "inputs": [
                {
                    "indexed": true,
                    "internalType": "address",
                    "name": "caller",
                    "type": "address"
                },
                {
                    "indexed": true,
                    "internalType": "address",
                    "name": "receiver",
                    "type": "address"
                },
                {
                    "indexed": true,
                    "internalType": "address",
                    "name": "owner",
                    "type": "address"
                },
                {
                    "indexed": false,
                    "internalType": "uint256",
                    "name": "assets",
                    "type": "uint256"
                },
                {
                    "indexed": false,
                    "internalType": "uint256",
                    "name": "shares",
                    "type": "uint256"
                }
            ],
            "name": "Withdraw",
            "type": "event"
        },
        {
            "inputs": [],
            "name": "DOMAIN_SEPARATOR",
            "outputs": [
                {
                    "internalType": "bytes32",
                    "name": "",
                    "type": "bytes32"
                }
            ],
            "stateMutability": "view",
            "type": "function"
        },
        {
            "inputs": [],
            "name": "acceptOwner",
            "outputs": [],
            "stateMutability": "nonpayable",
            "type": "function"
        },
        {
            "inputs": [],
            "name": "affiliate",
            "outputs": [
                {
                    "internalType": "address",
                    "name": "",
                    "type": "address"
                }
            ],
            "stateMutability": "view",
            "type": "function"
        },
        {
            "inputs": [],
            "name": "allVaults",
            "outputs": [
                {
                    "internalType": "contract VaultAPI[]",
                    "name": "",
                    "type": "address[]"
                }
            ],
            "stateMutability": "view",
            "type": "function"
        },
        {
            "inputs": [
                {
                    "internalType": "address",
                    "name": "",
                    "type": "address"
                },
                {
                    "internalType": "address",
                    "name": "",
                    "type": "address"
                }
            ],
            "name": "allowance",
            "outputs": [
                {
                    "internalType": "uint256",
                    "name": "",
                    "type": "uint256"
                }
            ],
            "stateMutability": "view",
            "type": "function"
        },
        {
            "inputs": [
                {
                    "internalType": "address",
                    "name": "spender",
                    "type": "address"
                },
                {
                    "internalType": "uint256",
                    "name": "amount",
                    "type": "uint256"
                }
            ],
            "name": "approve",
            "outputs": [
                {
                    "internalType": "bool",
                    "name": "",
                    "type": "bool"
                }
            ],
            "stateMutability": "nonpayable",
            "type": "function"
        },
        {
            "inputs": [],
            "name": "asset",
            "outputs": [
                {
                    "internalType": "contract ERC20",
                    "name": "",
                    "type": "address"
                }
            ],
            "stateMutability": "view",
            "type": "function"
        },
        {
            "inputs": [
                {
                    "internalType": "address",
                    "name": "",
                    "type": "address"
                }
            ],
            "name": "balanceOf",
            "outputs": [
                {
                    "internalType": "uint256",
                    "name": "",
                    "type": "uint256"
                }
            ],
            "stateMutability": "view",
            "type": "function"
        },
        {
            "inputs": [],
            "name": "bestVault",
            "outputs": [
                {
                    "internalType": "contract VaultAPI",
                    "name": "",
                    "type": "address"
                }
            ],
            "stateMutability": "view",
            "type": "function"
        },
        {
            "inputs": [
                {
                    "internalType": "uint256",
                    "name": "shares",
                    "type": "uint256"
                }
            ],
            "name": "convertToAssets",
            "outputs": [
                {
                    "internalType": "uint256",
                    "name": "",
                    "type": "uint256"
                }
            ],
            "stateMutability": "view",
            "type": "function"
        },
        {
            "inputs": [
                {
                    "internalType": "uint256",
                    "name": "assets",
                    "type": "uint256"
                }
            ],
            "name": "convertToShares",
            "outputs": [
                {
                    "internalType": "uint256",
                    "name": "",
                    "type": "uint256"
                }
            ],
            "stateMutability": "view",
            "type": "function"
        },
        {
            "inputs": [],
            "name": "convexBooster",
            "outputs": [
                {
                    "internalType": "address",
                    "name": "",
                    "type": "address"
                }
            ],
            "stateMutability": "view",
            "type": "function"
        },
        {
            "inputs": [],
            "name": "convexPid",
            "outputs": [
                {
                    "internalType": "uint256",
                    "name": "",
                    "type": "uint256"
                }
            ],
            "stateMutability": "view",
            "type": "function"
        },
        {
            "inputs": [],
            "name": "decimals",
            "outputs": [
                {
                    "internalType": "uint8",
                    "name": "",
                    "type": "uint8"
                }
            ],
            "stateMutability": "view",
            "type": "function"
        },
        {
            "inputs": [
                {
                    "internalType": "uint256",
                    "name": "assets",
                    "type": "uint256"
                },
                {
                    "internalType": "address",
                    "name": "receiver",
                    "type": "address"
                }
            ],
            "name": "deposit",
            "outputs": [
                {
                    "internalType": "uint256",
                    "name": "shares",
                    "type": "uint256"
                }
            ],
            "stateMutability": "nonpayable",
            "type": "function"
        },
        {
            "inputs": [],
            "name": "factory",
            "outputs": [
                {
                    "internalType": "address",
                    "name": "",
                    "type": "address"
                }
            ],
            "stateMutability": "view",
            "type": "function"
        },
        {
            "inputs": [],
            "name": "getModuleApr",
            "outputs": [
                {
                    "internalType": "uint256",
                    "name": "",
                    "type": "uint256"
                }
            ],
            "stateMutability": "view",
            "type": "function"
        },
        {
            "inputs": [],
            "name": "implementation",
            "outputs": [
                {
                    "internalType": "address",
                    "name": "",
                    "type": "address"
                }
            ],
            "stateMutability": "view",
            "type": "function"
        },
        {
            "inputs": [
                {
                    "internalType": "address",
                    "name": "_asset",
                    "type": "address"
                },
                {
                    "internalType": "address",
                    "name": "_product",
                    "type": "address"
                },
                {
                    "internalType": "address",
                    "name": "_source",
                    "type": "address"
                },
                {
                    "internalType": "address",
                    "name": "_implementation",
                    "type": "address"
                }
            ],
            "name": "initialize",
            "outputs": [],
            "stateMutability": "nonpayable",
            "type": "function"
        },
        {
            "inputs": [
                {
                    "internalType": "address",
                    "name": "_target",
                    "type": "address"
                }
            ],
            "name": "initializeStrategy",
            "outputs": [],
            "stateMutability": "nonpayable",
            "type": "function"
        },
        {
            "inputs": [
                {
                    "internalType": "address",
                    "name": "",
                    "type": "address"
                }
            ],
            "name": "maxDeposit",
            "outputs": [
                {
                    "internalType": "uint256",
                    "name": "",
                    "type": "uint256"
                }
            ],
            "stateMutability": "view",
            "type": "function"
        },
        {
            "inputs": [
                {
                    "internalType": "address",
                    "name": "",
                    "type": "address"
                }
            ],
            "name": "maxMint",
            "outputs": [
                {
                    "internalType": "uint256",
                    "name": "",
                    "type": "uint256"
                }
            ],
            "stateMutability": "view",
            "type": "function"
        },
        {
            "inputs": [
                {
                    "internalType": "address",
                    "name": "owner",
                    "type": "address"
                }
            ],
            "name": "maxRedeem",
            "outputs": [
                {
                    "internalType": "uint256",
                    "name": "",
                    "type": "uint256"
                }
            ],
            "stateMutability": "view",
            "type": "function"
        },
        {
            "inputs": [
                {
                    "internalType": "address",
                    "name": "owner",
                    "type": "address"
                }
            ],
            "name": "maxWithdraw",
            "outputs": [
                {
                    "internalType": "uint256",
                    "name": "",
                    "type": "uint256"
                }
            ],
            "stateMutability": "view",
            "type": "function"
        },
        {
            "inputs": [
                {
                    "internalType": "uint256",
                    "name": "amount",
                    "type": "uint256"
                },
                {
                    "internalType": "uint256",
                    "name": "maxMigrationLoss",
                    "type": "uint256"
                }
            ],
            "name": "migrate",
            "outputs": [
                {
                    "internalType": "uint256",
                    "name": "",
                    "type": "uint256"
                }
            ],
            "stateMutability": "nonpayable",
            "type": "function"
        },
        {
            "inputs": [
                {
                    "internalType": "uint256",
                    "name": "amount",
                    "type": "uint256"
                }
            ],
            "name": "migrate",
            "outputs": [
                {
                    "internalType": "uint256",
                    "name": "",
                    "type": "uint256"
                }
            ],
            "stateMutability": "nonpayable",
            "type": "function"
        },
        {
            "inputs": [],
            "name": "migrate",
            "outputs": [
                {
                    "internalType": "uint256",
                    "name": "",
                    "type": "uint256"
                }
            ],
            "stateMutability": "nonpayable",
            "type": "function"
        },
        {
            "inputs": [
                {
                    "internalType": "uint256",
                    "name": "shares",
                    "type": "uint256"
                },
                {
                    "internalType": "address",
                    "name": "receiver",
                    "type": "address"
                }
            ],
            "name": "mint",
            "outputs": [
                {
                    "internalType": "uint256",
                    "name": "assets",
                    "type": "uint256"
                }
            ],
            "stateMutability": "nonpayable",
            "type": "function"
        },
        {
            "inputs": [],
            "name": "moduleProfit",
            "outputs": [
                {
                    "internalType": "uint256",
                    "name": "",
                    "type": "uint256"
                }
            ],
            "stateMutability": "view",
            "type": "function"
        },
        {
            "inputs": [],
            "name": "name",
            "outputs": [
                {
                    "internalType": "string",
                    "name": "",
                    "type": "string"
                }
            ],
            "stateMutability": "view",
            "type": "function"
        },
        {
            "inputs": [
                {
                    "internalType": "address",
                    "name": "",
                    "type": "address"
                }
            ],
            "name": "nonces",
            "outputs": [
                {
                    "internalType": "uint256",
                    "name": "",
                    "type": "uint256"
                }
            ],
            "stateMutability": "view",
            "type": "function"
        },
        {
            "inputs": [],
            "name": "oracle",
            "outputs": [
                {
                    "internalType": "contract IPriceOracleGetter",
                    "name": "",
                    "type": "address"
                }
            ],
            "stateMutability": "view",
            "type": "function"
        },
        {
            "inputs": [],
            "name": "owner",
            "outputs": [
                {
                    "internalType": "address",
                    "name": "",
                    "type": "address"
                }
            ],
            "stateMutability": "view",
            "type": "function"
        },
        {
            "inputs": [],
            "name": "pendingAffiliate",
            "outputs": [
                {
                    "internalType": "address",
                    "name": "",
                    "type": "address"
                }
            ],
            "stateMutability": "view",
            "type": "function"
        },
        {
            "inputs": [],
            "name": "pendingOwner",
            "outputs": [
                {
                    "internalType": "address",
                    "name": "",
                    "type": "address"
                }
            ],
            "stateMutability": "view",
            "type": "function"
        },
        {
            "inputs": [
                {
                    "internalType": "address",
                    "name": "owner",
                    "type": "address"
                },
                {
                    "internalType": "address",
                    "name": "spender",
                    "type": "address"
                },
                {
                    "internalType": "uint256",
                    "name": "value",
                    "type": "uint256"
                },
                {
                    "internalType": "uint256",
                    "name": "deadline",
                    "type": "uint256"
                },
                {
                    "internalType": "uint8",
                    "name": "v",
                    "type": "uint8"
                },
                {
                    "internalType": "bytes32",
                    "name": "r",
                    "type": "bytes32"
                },
                {
                    "internalType": "bytes32",
                    "name": "s",
                    "type": "bytes32"
                }
            ],
            "name": "permit",
            "outputs": [],
            "stateMutability": "nonpayable",
            "type": "function"
        },
        {
            "inputs": [
                {
                    "internalType": "uint256",
                    "name": "assets",
                    "type": "uint256"
                }
            ],
            "name": "previewDeposit",
            "outputs": [
                {
                    "internalType": "uint256",
                    "name": "",
                    "type": "uint256"
                }
            ],
            "stateMutability": "view",
            "type": "function"
        },
        {
            "inputs": [
                {
                    "internalType": "uint256",
                    "name": "shares",
                    "type": "uint256"
                }
            ],
            "name": "previewMint",
            "outputs": [
                {
                    "internalType": "uint256",
                    "name": "",
                    "type": "uint256"
                }
            ],
            "stateMutability": "view",
            "type": "function"
        },
        {
            "inputs": [
                {
                    "internalType": "uint256",
                    "name": "shares",
                    "type": "uint256"
                }
            ],
            "name": "previewRedeem",
            "outputs": [
                {
                    "internalType": "uint256",
                    "name": "",
                    "type": "uint256"
                }
            ],
            "stateMutability": "view",
            "type": "function"
        },
        {
            "inputs": [
                {
                    "internalType": "uint256",
                    "name": "assets",
                    "type": "uint256"
                }
            ],
            "name": "previewWithdraw",
            "outputs": [
                {
                    "internalType": "uint256",
                    "name": "",
                    "type": "uint256"
                }
            ],
            "stateMutability": "view",
            "type": "function"
        },
        {
            "inputs": [],
            "name": "product",
            "outputs": [
                {
                    "internalType": "contract ERC20",
                    "name": "",
                    "type": "address"
                }
            ],
            "stateMutability": "view",
            "type": "function"
        },
        {
            "inputs": [
                {
                    "internalType": "uint256",
                    "name": "shares",
                    "type": "uint256"
                },
                {
                    "internalType": "address",
                    "name": "receiver",
                    "type": "address"
                },
                {
                    "internalType": "address",
                    "name": "owner",
                    "type": "address"
                }
            ],
            "name": "redeem",
            "outputs": [
                {
                    "internalType": "uint256",
                    "name": "assets",
                    "type": "uint256"
                }
            ],
            "stateMutability": "nonpayable",
            "type": "function"
        },
        {
            "inputs": [],
            "name": "registry",
            "outputs": [
                {
                    "internalType": "contract RegistryAPI",
                    "name": "",
                    "type": "address"
                }
            ],
            "stateMutability": "view",
            "type": "function"
        },
        {
            "inputs": [
                {
                    "internalType": "address",
                    "name": "_owner",
                    "type": "address"
                }
            ],
            "name": "setOwner",
            "outputs": [],
            "stateMutability": "nonpayable",
            "type": "function"
        },
        {
            "inputs": [
                {
                    "internalType": "address",
                    "name": "_registry",
                    "type": "address"
                }
            ],
            "name": "setRegistry",
            "outputs": [],
            "stateMutability": "nonpayable",
            "type": "function"
        },
        {
            "inputs": [],
            "name": "source",
            "outputs": [
                {
                    "internalType": "contract ERC4626",
                    "name": "",
                    "type": "address"
                }
            ],
            "stateMutability": "view",
            "type": "function"
        },
        {
            "inputs": [],
            "name": "symbol",
            "outputs": [
                {
                    "internalType": "string",
                    "name": "",
                    "type": "string"
                }
            ],
            "stateMutability": "view",
            "type": "function"
        },
        {
            "inputs": [],
            "name": "target",
            "outputs": [
                {
                    "internalType": "contract ERC4626",
                    "name": "",
                    "type": "address"
                }
            ],
            "stateMutability": "view",
            "type": "function"
        },
        {
            "inputs": [],
            "name": "token",
            "outputs": [
                {
                    "internalType": "contract IERC20",
                    "name": "",
                    "type": "address"
                }
            ],
            "stateMutability": "view",
            "type": "function"
        },
        {
            "inputs": [],
            "name": "totalAssets",
            "outputs": [
                {
                    "internalType": "uint256",
                    "name": "",
                    "type": "uint256"
                }
            ],
            "stateMutability": "view",
            "type": "function"
        },
        {
            "inputs": [],
            "name": "totalSupply",
            "outputs": [
                {
                    "internalType": "uint256",
                    "name": "",
                    "type": "uint256"
                }
            ],
            "stateMutability": "view",
            "type": "function"
        },
        {
            "inputs": [],
            "name": "totalTargetBalance",
            "outputs": [
                {
                    "internalType": "uint256",
                    "name": "",
                    "type": "uint256"
                }
            ],
            "stateMutability": "view",
            "type": "function"
        },
        {
            "inputs": [
                {
                    "internalType": "address",
                    "name": "account",
                    "type": "address"
                }
            ],
            "name": "totalVaultBalance",
            "outputs": [
                {
                    "internalType": "uint256",
                    "name": "balance",
                    "type": "uint256"
                }
            ],
            "stateMutability": "view",
            "type": "function"
        },
        {
            "inputs": [
                {
                    "internalType": "address",
                    "name": "to",
                    "type": "address"
                },
                {
                    "internalType": "uint256",
                    "name": "amount",
                    "type": "uint256"
                }
            ],
            "name": "transfer",
            "outputs": [
                {
                    "internalType": "bool",
                    "name": "",
                    "type": "bool"
                }
            ],
            "stateMutability": "nonpayable",
            "type": "function"
        },
        {
            "inputs": [
                {
                    "internalType": "address",
                    "name": "from",
                    "type": "address"
                },
                {
                    "internalType": "address",
                    "name": "to",
                    "type": "address"
                },
                {
                    "internalType": "uint256",
                    "name": "amount",
                    "type": "uint256"
                }
            ],
            "name": "transferFrom",
            "outputs": [
                {
                    "internalType": "bool",
                    "name": "",
                    "type": "bool"
                }
            ],
            "stateMutability": "nonpayable",
            "type": "function"
        },
        {
            "inputs": [
                {
                    "internalType": "uint256",
                    "name": "assets",
                    "type": "uint256"
                },
                {
                    "internalType": "address",
                    "name": "receiver",
                    "type": "address"
                },
                {
                    "internalType": "address",
                    "name": "owner",
                    "type": "address"
                }
            ],
            "name": "withdraw",
            "outputs": [
                {
                    "internalType": "uint256",
                    "name": "shares",
                    "type": "uint256"
                }
            ],
            "stateMutability": "nonpayable",
            "type": "function"
        },
        {
            "inputs": [],
            "name": "yearnStrategyHelper",
            "outputs": [
                {
                    "internalType": "contract IYearnStrategyHelper",
                    "name": "",
                    "type": "address"
                }
            ],
            "stateMutability": "view",
            "type": "function"
        }
    ],
    "bytecode": "60e06040523480156200001157600080fd5b506040516200521c3803806200521c83398101604081905262000034916200024f565b601080546001600160a01b0319166001600160a01b038916179055855183908890889088906200006c906001906020850190620000bf565b50805162000082906002906020840190620000bf565b5050601480546001600160a01b0319166001600160a01b03948516179055505093841660a05290831660805290911660c052506200035392505050565b828054620000cd9062000317565b90600052602060002090601f016020900481019282620000f157600085556200013c565b82601f106200010c57805160ff19168380011785556200013c565b828001600101855582156200013c579182015b828111156200013c5782518255916020019190600101906200011f565b506200014a9291506200014e565b5090565b5b808211156200014a57600081556001016200014f565b80516001600160a01b03811681146200017d57600080fd5b919050565b634e487b7160e01b600052604160045260246000fd5b600082601f830112620001aa57600080fd5b81516001600160401b0380821115620001c757620001c762000182565b604051601f8301601f19908116603f01168101908282118183101715620001f257620001f262000182565b816040528381526020925086838588010111156200020f57600080fd5b600091505b8382101562000233578582018301518183018401529082019062000214565b83821115620002455760008385830101525b9695505050505050565b600080600080600080600060e0888a0312156200026b57600080fd5b620002768862000165565b60208901519097506001600160401b03808211156200029457600080fd5b620002a28b838c0162000198565b975060408a0151915080821115620002b957600080fd5b50620002c88a828b0162000198565b955050620002d96060890162000165565b9350620002e96080890162000165565b9250620002f960a0890162000165565b91506200030960c0890162000165565b905092959891949750929550565b600181811c908216806200032c57607f821691505b6020821081036200034d57634e487b7160e01b600052602260045260246000fd5b50919050565b60805160a05160c051614e76620003a660003960006104930152600081816105e70152818161275e015281816128ef0152612b670152600081816104390152818161364501526137590152614e766000f3fe608060405234801561001057600080fd5b50600436106103835760003560e01c80637ecebe00116101de578063c45a01551161010f578063dd62ed3e116100ad578063ef8b30f71161007c578063ef8b30f7146107cb578063f1d32624146107de578063f8c8765e146107e5578063fc0c546a146107f857600080fd5b8063dd62ed3e1461077d578063e30c3978146107a8578063e95b2de8146107bb578063ebbc4965146107c357600080fd5b8063ce96cb77116100e9578063ce96cb771461071b578063d4b839921461072e578063d505accf14610741578063d905777e1461075457600080fd5b8063c45a0155146106f5578063c63d75b614610515578063c6e6f5921461070857600080fd5b8063a9059cbb1161017c578063b3d7f6b911610156578063b3d7f6b9146106a9578063b460af94146106bc578063ba087652146106cf578063bf9ce952146106e257600080fd5b8063a9059cbb14610670578063a91ee0dc14610683578063b38a440e1461069657600080fd5b80638da5cb5b116101b85780638da5cb5b1461063a5780638fd3ab801461064d57806394bf804d1461065557806395d89b411461066857600080fd5b80637ecebe00146106095780637f240fbf1461062957806386993bef1461063157600080fd5b80633644e515116102b85780635c60da1b116102565780636e553f65116102305780636e553f651461059c57806370a08231146105af5780637b103999146105cf5780637dc0d1d0146105e257600080fd5b80635c60da1b14610563578063678cbcb51461057657806367e828bf1461058957600080fd5b8063402d267d11610292578063402d267d14610515578063454b06081461052a57806345e05f431461053d5780634cdad5061461055057600080fd5b80633644e515146104e757806338d52e0f146104ef5780633e54bacb1461050257600080fd5b806318160ddd116103255780632bf8eb1d116102ff5780632bf8eb1d146104865780632cdacb501461048e57806330e5065e146104b5578063313ce567146104c857600080fd5b806318160ddd1461042b578063183b66b11461043457806323b872dd1461047357600080fd5b806307a2d13a1161036157806307a2d13a146103cd578063095ea7b3146103e05780630a28a4771461040357806313af40351461041657600080fd5b806301e1d11414610388578063063effeb146103a357806306fdde03146103b8575b600080fd5b61039061080b565b6040519081526020015b60405180910390f35b6103ab61081b565b60405161039a919061446c565b6103c0610a84565b60405161039a9190614511565b6103906103db366004614524565b610b12565b6103f36103ee366004614552565b610b3f565b604051901515815260200161039a565b610390610411366004614524565b610bac565b61042961042436600461457e565b610bcc565b005b61039060045481565b61045b7f000000000000000000000000000000000000000000000000000000000000000081565b6040516001600160a01b03909116815260200161039a565b6103f361048136600461459b565b610c3a565b610390610c4f565b61045b7f000000000000000000000000000000000000000000000000000000000000000081565b6103906104c336600461457e565b610ce1565b6003546104d59060ff1681565b60405160ff909116815260200161039a565b610390610eba565b600a5461045b906001600160a01b031681565b6103906105103660046145dc565b610ed4565b61039061052336600461457e565b5060001990565b610390610538366004614524565b610ee1565b60155461045b906001600160a01b031681565b61039061055e366004614524565b610eed565b600f5461045b906001600160a01b031681565b61042961058436600461457e565b610ef8565b600c5461045b906001600160a01b031681565b6103906105aa3660046145fe565b611018565b6103906105bd36600461457e565b60056020526000908152604090205481565b60145461045b906001600160a01b031681565b61045b7f000000000000000000000000000000000000000000000000000000000000000081565b61039061061736600461457e565b60096020526000908152604090205481565b610390611134565b61039060175481565b60105461045b906001600160a01b031681565b610390611301565b6103906106633660046145fe565b61130c565b6103c06113e1565b6103f361067e366004614552565b6113ee565b61042961069136600461457e565b6113fa565b60165461045b906001600160a01b031681565b6103906106b7366004614524565b61152b565b6103906106ca36600461462e565b61154a565b6103906106dd36600461462e565b6116a2565b600b5461045b906001600160a01b031681565b600e5461045b906001600160a01b031681565b610390610716366004614524565b611826565b61039061072936600461457e565b611846565b600d5461045b906001600160a01b031681565b61042961074f36600461467f565b611868565b61039061076236600461457e565b6001600160a01b031660009081526005602052604090205490565b61039061078b3660046146f0565b600660209081526000928352604080842090915290825290205481565b60115461045b906001600160a01b031681565b61045b611aac565b610429611b21565b6103906107d9366004614524565b611b88565b6000610390565b6104296107f336600461471e565b611bc2565b60125461045b906001600160a01b031681565b600061081630610ce1565b905090565b60135460145460125460405163f9c7bba560e01b81526001600160a01b03918216600482015260609392600092169063f9c7bba590602401602060405180830381865afa158015610870573d6000803e3d6000fd5b505050506040513d601f19601f82011682018060405250810190610894919061477a565b90508082036108ff5760138054806020026020016040519081016040528092919081815260200182805480156108f357602002820191906000526020600020905b81546001600160a01b031681526001909101906020018083116108d5575b50505050509250505090565b60008167ffffffffffffffff81111561091a5761091a614793565b604051908082528060200260200182016040528015610943578160200160208202803683370190505b50905060005b838110156109be5760138181548110610964576109646147a9565b9060005260206000200160009054906101000a90046001600160a01b0316828281518110610994576109946147a9565b6001600160a01b0390921660209283029190910190910152806109b6816147d5565b915050610949565b50825b82811015610a7c57601454601254604051633ddfe34f60e11b81526001600160a01b03918216600482015260248101849052911690637bbfc69e90604401602060405180830381865afa158015610a1c573d6000803e3d6000fd5b505050506040513d601f19601f82011682018060405250810190610a4091906147ee565b828281518110610a5257610a526147a9565b6001600160a01b039092166020928302919091019091015280610a74816147d5565b9150506109c1565b509392505050565b60018054610a919061480b565b80601f0160208091040260200160405190810160405280929190818152602001828054610abd9061480b565b8015610b0a5780601f10610adf57610100808354040283529160200191610b0a565b820191906000526020600020905b815481529060010190602001808311610aed57829003601f168201915b505050505081565b6004546000908015610b3657610b31610b2961080b565b849083611e6b565b610b38565b825b9392505050565b3360008181526006602090815260408083206001600160a01b038716808552925280832085905551919290917f8c5be1e5ebec7d5bd14f71427d1e84f3dd0314c0f7b2291e5b200ac8c7c3b92590610b9a9086815260200190565b60405180910390a35060015b92915050565b6004546000908015610b3657610b3181610bc461080b565b859190611e8a565b6010546001600160a01b03163314610c185760405162461bcd60e51b815260206004820152600a60248201526908585d5d1bdc9a5e995960b21b60448201526064015b60405180910390fd5b601180546001600160a01b0319166001600160a01b0392909216919091179055565b6000610c47848484611eb8565b949350505050565b600d546000906001600160a01b0316610c6a5761081661080b565b600d60009054906101000a90046001600160a01b03166001600160a01b03166301e1d1146040518163ffffffff1660e01b8152600401602060405180830381865afa158015610cbd573d6000803e3d6000fd5b505050506040513d601f19601f82011682018060405250810190610816919061477a565b600080610cec61081b565b905060005b8151811015610eb357610e9f610e98838381518110610d1257610d126147a9565b60200260200101516001600160a01b031663313ce5676040518163ffffffff1660e01b8152600401602060405180830381865afa158015610d57573d6000803e3d6000fd5b505050506040513d601f19601f82011682018060405250810190610d7b919061477a565b610d8690600a614929565b610e92858581518110610d9b57610d9b6147a9565b60200260200101516001600160a01b03166399530b066040518163ffffffff1660e01b8152600401602060405180830381865afa158015610de0573d6000803e3d6000fd5b505050506040513d601f19601f82011682018060405250810190610e04919061477a565b868681518110610e1657610e166147a9565b60209081029190910101516040516370a0823160e01b81526001600160a01b038b81166004830152909116906370a0823190602401602060405180830381865afa158015610e68573d6000803e3d6000fd5b505050506040513d601f19601f82011682018060405250810190610e8c919061477a565b90611f98565b90611fa4565b8490611fb0565b925080610eab816147d5565b915050610cf1565b5050919050565b60006007544614610ecd57610816611fbc565b5060085490565b6000610b38308484612056565b6000610ba630836121d5565b6000610ba682610b12565b600d546001600160a01b031615610f405760405162461bcd60e51b815260206004820152600c60248201526b085a5b9a5d1a585b1a5e995960a21b6044820152606401610c0f565b600e546001600160a01b03163314610f855760405162461bcd60e51b815260206004820152600860248201526721666163746f727960c01b6044820152606401610c0f565b600d80546001600160a01b0319166001600160a01b03838116918217909255600b5460405163095ea7b360e01b8152600481019290925260001960248301529091169063095ea7b3906044016020604051808303816000875af1158015610ff0573d6000803e3d6000fd5b505050506040513d601f19601f820116820180604052508101906110149190614935565b5050565b600c5460009082906001600160a01b03163381146110485760405162461bcd60e51b8152600401610c0f90614957565b806001600160a01b0316826001600160a01b0316146110795760405162461bcd60e51b8152600401610c0f90614957565b61108285611b88565b9250826000036110be5760405162461bcd60e51b81526020600482015260076024820152662173686172657360c81b6044820152606401610c0f565b60006110cd33308860016121e3565b90506110d881611826565b93506110e485856125a1565b60408051878152602081018690526001600160a01b0387169133917fdcbc1c05240f31ff3ad067ef1ee35ce4997762752e3a095284754544f4c709d791015b60405180910390a350505092915050565b60008061113f611aac565b90506000816001600160a01b031663a6f7f5d66040518163ffffffff1660e01b8152600401602060405180830381865afa158015611181573d6000803e3d6000fd5b505050506040513d601f19601f820116820180604052508101906111a5919061477a565b90506000826001600160a01b031663877887826040518163ffffffff1660e01b8152600401602060405180830381865afa1580156111e7573d6000803e3d6000fd5b505050506040513d601f19601f8201168201806040525081019061120b919061477a565b905061123e6040518060400160405280600f81526020016e036b0b730b3b2b6b2b73a2332b29d1608d1b815250836125fb565b6112706040518060400160405280601081526020016f03832b93337b936b0b731b2a332b29d160851b815250826125fb565b600061127a612640565b90506112a96040518060400160405280600b81526020016a033b937b9b99030b8391d160ad1b815250826125fb565b6112b983655af3107a4000614978565b6112ee6112cc84655af3107a4000614978565b6112de90670de0b6b3a7640000614997565b8390670de0b6b3a7640000611e6b565b6112f89190614997565b94505050505090565b600061081630612cea565b600c5460009082906001600160a01b031633811461133c5760405162461bcd60e51b8152600401610c0f90614957565b806001600160a01b0316826001600160a01b03161461136d5760405162461bcd60e51b8152600401610c0f90614957565b6113768561152b565b9250600061138733308660016121e3565b905061139281611826565b955061139e85876125a1565b60408051858152602081018890526001600160a01b0387169133917fdcbc1c05240f31ff3ad067ef1ee35ce4997762752e3a095284754544f4c709d79101611123565b60028054610a919061480b565b6000610b388383612cf8565b601460009054906101000a90046001600160a01b03166001600160a01b0316635aa6e6756040518163ffffffff1660e01b8152600401602060405180830381865afa15801561144d573d6000803e3d6000fd5b505050506040513d601f19601f8201168201806040525081019061147191906147ee565b6001600160a01b0316336001600160a01b03161461148e57600080fd5b601480546001600160a01b0319166001600160a01b03831690811790915560408051635aa6e67560e01b81529051635aa6e675916004808201926020929091908290030181865afa1580156114e7573d6000803e3d6000fd5b505050506040513d601f19601f8201168201806040525081019061150b91906147ee565b6001600160a01b0316336001600160a01b03161461152857600080fd5b50565b6004546000908015610b3657610b3161154261080b565b849083611e8a565b600c5460009083906001600160a01b031633811461157a5760405162461bcd60e51b8152600401610c0f90614957565b806001600160a01b0316826001600160a01b0316146115ab5760405162461bcd60e51b8152600401610c0f90614957565b6115b486610bac565b9250336001600160a01b03851614611624576001600160a01b03841660009081526006602090815260408083203384529091529020546000198114611622576115fd8482614997565b6001600160a01b03861660009081526006602090815260408083203384529091529020555b505b60006116333087896001612d5e565b9050611640848289611e8a565b935061164c8585613520565b60408051828152602081018690526001600160a01b03808816929089169133917ffbde797d201c681b91056529119e0b02407c7bb96a4a2c75c01fc9667232c8db91015b60405180910390a45050509392505050565b600c5460009083906001600160a01b03163381146116d25760405162461bcd60e51b8152600401610c0f90614957565b806001600160a01b0316826001600160a01b0316146117035760405162461bcd60e51b8152600401610c0f90614957565b61170c86610eed565b9250826000036117485760405162461bcd60e51b81526020600482015260076024820152662161737365747360c81b6044820152606401610c0f565b336001600160a01b038516146117b6576001600160a01b038416600090815260066020908152604080832033845290915290205460001981146117b45761178f8782614997565b6001600160a01b03861660009081526006602090815260408083203384529091529020555b505b60006117c53087866001612d5e565b90506117d2878286611e8a565b96506117de8588613520565b60408051828152602081018990526001600160a01b03808816929089169133917ffbde797d201c681b91056529119e0b02407c7bb96a4a2c75c01fc9667232c8db9101611690565b6004546000908015610b3657610b318161183e61080b565b859190611e6b565b6001600160a01b038116600090815260056020526040812054610ba690610b12565b428410156118b85760405162461bcd60e51b815260206004820152601760248201527f5045524d49545f444541444c494e455f455850495245440000000000000000006044820152606401610c0f565b600060016118c4610eba565b6001600160a01b038a811660008181526009602090815260409182902080546001810190915582517f6e71edae12b1b97f4d1f60370fef10105fa2faae0126114a169c64845d6126c98184015280840194909452938d166060840152608083018c905260a083019390935260c08083018b90528151808403909101815260e08301909152805192019190912061190160f01b6101008301526101028201929092526101228101919091526101420160408051601f198184030181528282528051602091820120600084529083018083525260ff871690820152606081018590526080810184905260a0016020604051602081039080840390855afa1580156119d0573d6000803e3d6000fd5b5050604051601f1901519150506001600160a01b03811615801590611a065750876001600160a01b0316816001600160a01b0316145b611a435760405162461bcd60e51b815260206004820152600e60248201526d24a72b20a624a22fa9a4a3a722a960911b6044820152606401610c0f565b6001600160a01b0390811660009081526006602090815260408083208a8516808552908352928190208990555188815291928a16917f8c5be1e5ebec7d5bd14f71427d1e84f3dd0314c0f7b2291e5b200ac8c7c3b925910160405180910390a350505050505050565b601454601254604051630e177dc760e41b81526001600160a01b039182166004820152600092919091169063e177dc7090602401602060405180830381865afa158015611afd573d6000803e3d6000fd5b505050506040513d601f19601f8201168201806040525081019061081691906147ee565b6011546001600160a01b03163314611b685760405162461bcd60e51b815260206004820152600a60248201526908585d5d1bdc9a5e995960b21b6044820152606401610c0f565b601080546001600160a01b03199081163317909155601180549091169055565b6004546000908183611b9861080b565b611ba291906149ae565b90508115611bba57611bb5848383611e6b565b610c47565b509192915050565b600054610100900460ff1615808015611be25750600054600160ff909116105b80611bfc5750303b158015611bfc575060005460ff166001145b611c5f5760405162461bcd60e51b815260206004820152602e60248201527f496e697469616c697a61626c653a20636f6e747261637420697320616c72656160448201526d191e481a5b9a5d1a585b1a5e995960921b6064820152608401610c0f565b6000805460ff191660011790558015611c82576000805461ff0019166101001790555b6000826001600160a01b0316637b1039996040518163ffffffff1660e01b8152600401602060405180830381865afa158015611cc2573d6000803e3d6000fd5b505050506040513d601f19601f82011682018060405250810190611ce691906147ee565b9050611cf28682613582565b6000611cfc611aac565b90506001600160a01b038116611d3d5760405162461bcd60e51b8152602060048201526006602482015265085d985d5b1d60d21b6044820152606401610c0f565b6000611d476135d7565b6001600160a01b031603611d895760405162461bcd60e51b815260206004820152600960248201526821737472617465677960b81b6044820152606401610c0f565b611d958787878761389d565b601580546001600160a01b0319163317905560405163095ea7b360e01b81526001600160a01b038281166004830152600019602483015288169063095ea7b3906044016020604051808303816000875af1158015611df7573d6000803e3d6000fd5b505050506040513d601f19601f82011682018060405250810190611e1b9190614935565b5050508015611e64576000805461ff0019169055604051600181527f7f26b83ff96e1f2b6a682f133852f6798a09c465da95921460cefb38474024989060200160405180910390a15b5050505050565b828202811515841585830485141716611e8357600080fd5b0492915050565b828202811515841585830485141716611ea257600080fd5b6001826001830304018115150290509392505050565b6001600160a01b03831660009081526006602090815260408083203384529091528120546000198114611f1457611eef8382614997565b6001600160a01b03861660009081526006602090815260408083203384529091529020555b6001600160a01b03851660009081526005602052604081208054859290611f3c908490614997565b90915550506001600160a01b0380851660008181526005602052604090819020805487019055519091871690600080516020614e2183398151915290611f859087815260200190565b60405180910390a3506001949350505050565b6000610b388284614978565b6000610b3882846149c6565b6000610b3882846149ae565b60007f8b73c3c69bb8fe3d512ecc4cf759cc79239f7b179b0ffacaa9a75d522b39400f6001604051611fee91906149e8565b6040805191829003822060208301939093528101919091527fc89efdaa54c0f20c7adf612882df0950f5a951637e0307cdcb4c672f298b8bc660608201524660808201523060a082015260c00160405160208183030381529060405280519060200120905090565b600080612061611aac565b90506000816001600160a01b031663ecf708586040518163ffffffff1660e01b8152600401602060405180830381865afa1580156120a3573d6000803e3d6000fd5b505050506040513d601f19601f820116820180604052508101906120c7919061477a565b90506000826001600160a01b03166301e1d1146040518163ffffffff1660e01b8152600401602060405180830381865afa158015612109573d6000803e3d6000fd5b505050506040513d601f19601f8201168201806040525081019061212d919061477a565b90508082116121425760009350505050610b38565b8560001983108015612155575060001981105b156121765760006121668484613b1e565b905080821115612174578091505b505b80156121ca57600061218b8930846000612d5e565b9050806000036121a357600095505050505050610b38565b6121b0308a8360006121e3565b9550866121bd8288613b1e565b11156121c857600080fd5b505b505050509392505050565b6000610b3883836000612056565b6000806121ee611aac565b905082156122a657600019841461221c57601254612217906001600160a01b0316873087613b2a565b6122a6565b6012546040516370a0823160e01b81526001600160a01b0380891660048301526122a69289923092909116906370a0823190602401602060405180830381865afa15801561226e573d6000803e3d6000fd5b505050506040513d601f19601f82011682018060405250810190612292919061477a565b6012546001600160a01b0316929190613b2a565b601254604051636eb1769f60e11b81523060048201526001600160a01b0383811660248301528692169063dd62ed3e90604401602060405180830381865afa1580156122f6573d6000803e3d6000fd5b505050506040513d601f19601f8201168201806040525081019061231a919061477a565b101561235157601254612338906001600160a01b0316826000613b9b565b601254612351906001600160a01b031682600019613b9b565b6012546040516370a0823160e01b81523060048201526000916001600160a01b0316906370a0823190602401602060405180830381865afa15801561239a573d6000803e3d6000fd5b505050506040513d601f19601f820116820180604052508101906123be919061477a565b90506001600160a01b038616301461244a57604051636e553f6560e01b8152600481018690526001600160a01b038781166024830152831690636e553f65906044015b6020604051808303816000875af1158015612420573d6000803e3d6000fd5b505050506040513d601f19601f82011682018060405250810190612444919061477a565b506124e6565b60001985146124805760405163b6b55f2560e01b8152600481018690526001600160a01b0383169063b6b55f2590602401612401565b816001600160a01b031663d0e30db06040518163ffffffff1660e01b81526004016020604051808303816000875af11580156124c0573d6000803e3d6000fd5b505050506040513d601f19601f820116820180604052508101906124e4919061477a565b505b6012546040516370a0823160e01b81523060048201526000916001600160a01b0316906370a0823190602401602060405180830381865afa15801561252f573d6000803e3d6000fd5b505050506040513d601f19601f82011682018060405250810190612553919061477a565b905061255f8282613b1e565b93506001600160a01b038816301480159061257a5750600081115b1561259657601254612596906001600160a01b03168983613cb5565b505050949350505050565b80600460008282546125b391906149ae565b90915550506001600160a01b038216600081815260056020908152604080832080548601905551848152600080516020614e2183398151915291015b60405180910390a35050565b6110148282604051602401612611929190614a83565b60408051601f198184030181529190526020810180516001600160e01b03166309710a9d60e41b179052613ce5565b60008061264b6135d7565b90506000816001600160a01b031663220cce976040518163ffffffff1660e01b8152600401602060405180830381865afa15801561268d573d6000803e3d6000fd5b505050506040513d601f19601f820116820180604052508101906126b191906147ee565b90506000600a60009054906101000a90046001600160a01b03166001600160a01b031663bb7b8b806040518163ffffffff1660e01b8152600401602060405180830381865afa158015612708573d6000803e3d6000fd5b505050506040513d601f19601f8201168201806040525081019061272c919061477a565b9050600061273983613d06565b60405163b3596f0760e01b81526001600160a01b0380831660048301529192506000917f0000000000000000000000000000000000000000000000000000000000000000169063b3596f0790602401602060405180830381865afa1580156127a5573d6000803e3d6000fd5b505050506040513d601f19601f820116820180604052508101906127c9919061477a565b905060006127d685613d6b565b905060006127e5828487611e6b565b90506128146040518060400160405280600b81526020016a033b937b9b99030b8391d160ad1b815250826125fb565b73d533a949740bb3306d119cc777fa900ba034cd51196001600160a01b03851601612984576000876001600160a01b0316637fef901a6040518163ffffffff1660e01b8152600401602060405180830381865afa158015612879573d6000803e3d6000fd5b505050506040513d601f19601f8201168201806040525081019061289d919061477a565b90506128b86128ae82612710614997565b8390612710611e6b565b60405163b3596f0760e01b8152734e3fbd56cd56c3e72c1403e103b45db9da5b9d2b60048201529092506000906001600160a01b037f0000000000000000000000000000000000000000000000000000000000000000169063b3596f0790602401602060405180830381865afa158015612936573d6000803e3d6000fd5b505050506040513d601f19601f8201168201806040525081019061295a919061477a565b9050600061296785613e59565b905061297481838a611e6b565b61297e90856149ae565b93505050505b6129b16040518060400160405280600b81526020016a033b937b9b99030b8391d160ad1b815250826125fb565b6000866001600160a01b031663d55a23f46040518163ffffffff1660e01b8152600401602060405180830381865afa1580156129f1573d6000803e3d6000fd5b505050506040513d601f19601f82011682018060405250810190612a15919061477a565b9050612a4d60405180604001604052806014815260200173032bc3a3930a932bbb0b93239a632b733ba341d160651b815250826125fb565b8015612cb15760005b81811015612caf57604051632061aa2360e11b8152600481018290526000906001600160a01b038a16906340c3544690602401602060405180830381865afa158015612aa6573d6000803e3d6000fd5b505050506040513d601f19601f82011682018060405250810190612aca91906147ee565b9050612b0460405180604001604052806016815260200175032bc3a3930a932bbb0b93239a1b7b73a3930b1ba1d160551b81525082613f69565b6000612b0f82613d06565b9050612b4560405180604001604052806012815260200171032bc3a3930a932bbb0b9322a37b5b2b71d160751b81525082613f69565b60405163b3596f0760e01b81526001600160a01b0382811660048301526000917f00000000000000000000000000000000000000000000000000000000000000009091169063b3596f0790602401602060405180830381865afa158015612bb0573d6000803e3d6000fd5b505050506040513d601f19601f82011682018060405250810190612bd4919061477a565b9050612c156040518060400160405280601781526020017f6578747261526577617264546f6b656e50726963653a20000000000000000000815250826125fb565b6000612c2084613d6b565b9050612c546040518060400160405280601081526020016f032bc3a3930a932bbb0b93220b8391d160851b815250826125fb565b612c5f81838d611e6b565b612c6990886149ae565b9650612c986040518060400160405280600b81526020016a033b937b9b99030b8391d160ad1b815250886125fb565b505050508080612ca7906147d5565b915050612a56565b505b612cde6040518060400160405280600b81526020016a033b937b9b99030b8391d160ad1b815250836125fb565b50979650505050505050565b6000610ba6826000196121d5565b33600090815260056020526040812080548391908390612d19908490614997565b90915550506001600160a01b03831660008181526005602052604090819020805485019055513390600080516020614e2183398151915290610b9a9086815260200190565b600080612d69611aac565b90506000612d7561081b565b9050612d8081613fae565b60005b81518110156132d55784158015612dc45750826001600160a01b0316828281518110612db157612db16147a9565b60200260200101516001600160a01b0316145b6132c3576000828281518110612ddc57612ddc6147a9565b60209081029190910101516040516370a0823160e01b81526001600160a01b038b81166004830152909116906370a0823190602401602060405180830381865afa158015612e2e573d6000803e3d6000fd5b505050506040513d601f19601f82011682018060405250810190612e52919061477a565b90506001600160a01b0389163014612efe57612efb81848481518110612e7a57612e7a6147a9565b6020908102919091010151604051636eb1769f60e11b81526001600160a01b038d811660048301523060248301529091169063dd62ed3e90604401602060405180830381865afa158015612ed2573d6000803e3d6000fd5b505050506040513d601f19601f82011682018060405250810190612ef6919061477a565b613fcc565b90505b612f5981848481518110612f1457612f146147a9565b60200260200101516001600160a01b03166375de29026040518163ffffffff1660e01b8152600401602060405180830381865afa158015612ed2573d6000803e3d6000fd5b905080156132c1576001600160a01b038916301461300a57828281518110612f8357612f836147a9565b60209081029190910101516040516323b872dd60e01b81526001600160a01b038b8116600483015230602483015260448201849052909116906323b872dd906064016020604051808303816000875af1158015612fe4573d6000803e3d6000fd5b505050506040513d601f19601f820116820180604052508101906130089190614935565b505b600019871461322a57600061312684848151811061302a5761302a6147a9565b60200260200101516001600160a01b03166399530b066040518163ffffffff1660e01b8152600401602060405180830381865afa15801561306f573d6000803e3d6000fd5b505050506040513d601f19601f82011682018060405250810190613093919061477a565b610e928686815181106130a8576130a86147a9565b60200260200101516001600160a01b031663313ce5676040518163ffffffff1660e01b8152600401602060405180830381865afa1580156130ed573d6000803e3d6000fd5b505050506040513d601f19601f82011682018060405250810190613111919061477a565b61311c90600a614929565b610e8c8c8b613b1e565b905060008111801561313757508181105b156131d7576131d0848481518110613151576131516147a9565b60200260200101516001600160a01b0316632e1a7d4d836040518263ffffffff1660e01b815260040161318691815260200190565b6020604051808303816000875af11580156131a5573d6000803e3d6000fd5b505050506040513d601f19601f820116820180604052508101906131c9919061477a565b8790611fb0565b9550613224565b6132218484815181106131ec576131ec6147a9565b60200260200101516001600160a01b0316632e1a7d4d846040518263ffffffff1660e01b815260040161318691815260200190565b95505b506132b4565b6132b183838151811061323f5761323f6147a9565b60200260200101516001600160a01b0316633ccfd60b6040518163ffffffff1660e01b81526004016020604051808303816000875af1158015613286573d6000803e3d6000fd5b505050506040513d601f19601f820116820180604052508101906132aa919061477a565b8690611fb0565b94505b8487116132c157506132d5565b505b806132cd816147d5565b915050612d83565b5084831180156133be57506133b2826001600160a01b031663313ce5676040518163ffffffff1660e01b8152600401602060405180830381865afa158015613321573d6000803e3d6000fd5b505050506040513d601f19601f82011682018060405250810190613345919061477a565b61335090600a614929565b836001600160a01b03166399530b066040518163ffffffff1660e01b8152600401602060405180830381865afa15801561338e573d6000803e3d6000fd5b505050506040513d601f19601f82011682018060405250810190610e92919061477a565b6133bc8487613b1e565b115b156134ef576133cd8386613b1e565b601254604051636eb1769f60e11b81523060048201526001600160a01b0385811660248301529091169063dd62ed3e90604401602060405180830381865afa15801561341d573d6000803e3d6000fd5b505050506040513d601f19601f82011682018060405250810190613441919061477a565b101561346057601254613460906001600160a01b031683600019613b9b565b6001600160a01b038216636e553f656134798588613b1e565b6040516001600160e01b031960e084901b16815260048101919091526001600160a01b038a1660248201526044016020604051808303816000875af11580156134c6573d6000803e3d6000fd5b505050506040513d601f19601f820116820180604052508101906134ea919061477a565b508492505b6001600160a01b038616301461351657601254613516906001600160a01b03168785613cb5565b5050949350505050565b6001600160a01b03821660009081526005602052604081208054839290613548908490614997565b90915550506004805482900390556040518181526000906001600160a01b03841690600080516020614e21833981519152906020016125ef565b600054610100900460ff166135a95760405162461bcd60e51b8152600401610c0f90614aa5565b601280546001600160a01b039384166001600160a01b03199182161790915560148054929093169116179055565b6000806135e2611aac565b90506001600160a01b0381166136235760405162461bcd60e51b8152602060048201526006602482015265085d985d5b1d60d21b6044820152606401610c0f565b60405163a5b166fb60e01b81526001600160a01b0382811660048301526000917f00000000000000000000000000000000000000000000000000000000000000009091169063a5b166fb90602401602060405180830381865afa15801561368e573d6000803e3d6000fd5b505050506040513d601f19601f820116820180604052508101906136b2919061477a565b9050600081116136f25760405162461bcd60e51b815260206004820152600b60248201526a217374726174656769657360a81b6044820152606401610c0f565b60008167ffffffffffffffff81111561370d5761370d614793565b604051908082528060200260200182016040528015613736578160200160208202803683370190505b506040516397a077b960e01b81526001600160a01b0385811660048301529192507f0000000000000000000000000000000000000000000000000000000000000000909116906397a077b990602401600060405180830381865afa1580156137a2573d6000803e3d6000fd5b505050506040513d6000823e601f3d908101601f191682016040526137ca9190810190614b4b565b90506000805b838110156138945760008382815181106137ec576137ec6147a9565b60209081029190910101516040516339ebf82360e01b81526001600160a01b0380831660048301529192506000918816906339ebf8239060240161012060405180830381865afa158015613844573d6000803e3d6000fd5b505050506040513d601f19601f820116820180604052508101906138689190614bfd565b905080604001516127100361387f57509150613894565b5050808061388c906147d5565b9150506137d0565b50949350505050565b600054610100900460ff166138c45760405162461bcd60e51b8152600401610c0f90614aa5565b6000846001600160a01b03166395d89b416040518163ffffffff1660e01b8152600401600060405180830381865afa158015613904573d6000803e3d6000fd5b505050506040513d6000823e601f3d908101601f1916820160405261392c9190810190614c78565b90506000846001600160a01b03166395d89b416040518163ffffffff1660e01b8152600401600060405180830381865afa15801561396e573d6000803e3d6000fd5b505050506040513d6000823e601f3d908101601f191682016040526139969190810190614c78565b90506000836001600160a01b03166306fdde036040518163ffffffff1660e01b8152600401600060405180830381865afa1580156139d8573d6000803e3d6000fd5b505050506040513d6000823e601f3d908101601f19168201604052613a009190810190614c78565b8383604051602001613a1493929190614d03565b60405160208183030381529060405290506000846001600160a01b03166395d89b416040518163ffffffff1660e01b8152600401600060405180830381865afa158015613a65573d6000803e3d6000fd5b505050506040513d6000823e601f3d908101601f19168201604052613a8d9190810190614c78565b8484604051602001613aa193929190614d63565b6040516020818303038152906040529050613abd888383613fe2565b600b80546001600160a01b03808a166001600160a01b031992831617909255600c80548984169083168117909155600e8054831633179055600f8054898516931692909217909155613b14918a16906000196140a0565b5050505050505050565b6000610b388284614997565b6040516001600160a01b0380851660248301528316604482015260648101829052613b959085906323b872dd60e01b906084015b60408051601f198184030181529190526020810180516001600160e01b03166001600160e01b031990931692909217909152614117565b50505050565b801580613c155750604051636eb1769f60e11b81523060048201526001600160a01b03838116602483015284169063dd62ed3e90604401602060405180830381865afa158015613bef573d6000803e3d6000fd5b505050506040513d601f19601f82011682018060405250810190613c13919061477a565b155b613c805760405162461bcd60e51b815260206004820152603660248201527f5361666545524332303a20617070726f76652066726f6d206e6f6e2d7a65726f60448201527520746f206e6f6e2d7a65726f20616c6c6f77616e636560501b6064820152608401610c0f565b6040516001600160a01b038316602482015260448101829052613cb090849063095ea7b360e01b90606401613b5e565b505050565b6040516001600160a01b038316602482015260448101829052613cb090849063a9059cbb60e01b90606401613b5e565b80516a636f6e736f6c652e6c6f67602083016000808483855afa5050505050565b600080826001600160a01b031663f7c618c16040518163ffffffff1660e01b8152600401602060405180830381865afa158015613d47573d6000803e3d6000fd5b505050506040513d601f19601f82011682018060405250810190610b3891906147ee565b600080826001600160a01b0316637b0a47ee6040518163ffffffff1660e01b8152600401602060405180830381865afa158015613dac573d6000803e3d6000fd5b505050506040513d601f19601f82011682018060405250810190613dd0919061477a565b90506000836001600160a01b03166318160ddd6040518163ffffffff1660e01b8152600401602060405180830381865afa158015613e12573d6000803e3d6000fd5b505050506040513d601f19601f82011682018060405250810190613e36919061477a565b90506000613e50836a1a1601fc4ea7109e00000084611e6b565b95945050505050565b6000806a52b7d2dcc80cd2e4000000905060006103e89050600069152d02c7e14af680000090506000734e3fbd56cd56c3e72c1403e103b45db9da5b9d2b6001600160a01b03166318160ddd6040518163ffffffff1660e01b8152600401602060405180830381865afa158015613ed4573d6000803e3d6000fd5b505050506040513d601f19601f82011682018060405250810190613ef8919061477a565b90506000613f0683836149c6565b905083811015613f5c576000613f1c8286614997565b905084613f29828a614978565b613f3391906149c6565b97506000613f418488614997565b905080891115613f4f578098505b5096979650505050505050565b5060009695505050505050565b6110148282604051602401613f7f929190614dbd565b60408051601f198184030181529190526020810180516001600160e01b031663319af33360e01b179052613ce5565b6013548151111561152857805161101490601390602084019061437e565b6000818310613fdb5781610b38565b5090919050565b600054610100900460ff166140095760405162461bcd60e51b8152600401610c0f90614aa5565b6000836001600160a01b031663313ce5676040518163ffffffff1660e01b8152600401602060405180830381865afa158015614049573d6000803e3d6000fd5b505050506040513d601f19601f8201168201806040525081019061406d9190614de7565b905061407a8383836141e9565b5050600a80546001600160a01b0319166001600160a01b03939093169290921790915550565b600060405163095ea7b360e01b8152836004820152826024820152602060006044836000895af13d15601f3d1160016000511416171691505080613b955760405162461bcd60e51b815260206004820152600e60248201526d1054141493d59157d1905253115160921b6044820152606401610c0f565b600061416c826040518060400160405280602081526020017f5361666545524332303a206c6f772d6c6576656c2063616c6c206661696c6564815250856001600160a01b031661425b9092919063ffffffff16565b805190915015613cb0578080602001905181019061418a9190614935565b613cb05760405162461bcd60e51b815260206004820152602a60248201527f5361666545524332303a204552433230206f7065726174696f6e20646964206e6044820152691bdd081cdd58d8d9595960b21b6064820152608401610c0f565b600054610100900460ff166142105760405162461bcd60e51b8152600401610c0f90614aa5565b82516142239060019060208601906143e3565b5081516142379060029060208501906143e3565b506003805460ff191660ff831617905546600755614253611fbc565b600855505050565b6060610c47848460008585600080866001600160a01b031685876040516142829190614e04565b60006040518083038185875af1925050503d80600081146142bf576040519150601f19603f3d011682016040523d82523d6000602084013e6142c4565b606091505b50915091506142d5878383876142e0565b979650505050505050565b6060831561434f578251600003614348576001600160a01b0385163b6143485760405162461bcd60e51b815260206004820152601d60248201527f416464726573733a2063616c6c20746f206e6f6e2d636f6e74726163740000006044820152606401610c0f565b5081610c47565b610c4783838151156143645781518083602001fd5b8060405162461bcd60e51b8152600401610c0f9190614511565b8280548282559060005260206000209081019282156143d3579160200282015b828111156143d357825182546001600160a01b0319166001600160a01b0390911617825560209092019160019091019061439e565b506143df929150614457565b5090565b8280546143ef9061480b565b90600052602060002090601f01602090048101928261441157600085556143d3565b82601f1061442a57805160ff19168380011785556143d3565b828001600101855582156143d3579182015b828111156143d357825182559160200191906001019061443c565b5b808211156143df5760008155600101614458565b6020808252825182820181905260009190848201906040850190845b818110156144ad5783516001600160a01b031683529284019291840191600101614488565b50909695505050505050565b60005b838110156144d45781810151838201526020016144bc565b83811115613b955750506000910152565b600081518084526144fd8160208601602086016144b9565b601f01601f19169290920160200192915050565b602081526000610b3860208301846144e5565b60006020828403121561453657600080fd5b5035919050565b6001600160a01b038116811461152857600080fd5b6000806040838503121561456557600080fd5b82356145708161453d565b946020939093013593505050565b60006020828403121561459057600080fd5b8135610b388161453d565b6000806000606084860312156145b057600080fd5b83356145bb8161453d565b925060208401356145cb8161453d565b929592945050506040919091013590565b600080604083850312156145ef57600080fd5b50508035926020909101359150565b6000806040838503121561461157600080fd5b8235915060208301356146238161453d565b809150509250929050565b60008060006060848603121561464357600080fd5b8335925060208401356146558161453d565b915060408401356146658161453d565b809150509250925092565b60ff8116811461152857600080fd5b600080600080600080600060e0888a03121561469a57600080fd5b87356146a58161453d565b965060208801356146b58161453d565b9550604088013594506060880135935060808801356146d381614670565b9699959850939692959460a0840135945060c09093013592915050565b6000806040838503121561470357600080fd5b823561470e8161453d565b915060208301356146238161453d565b6000806000806080858703121561473457600080fd5b843561473f8161453d565b9350602085013561474f8161453d565b9250604085013561475f8161453d565b9150606085013561476f8161453d565b939692955090935050565b60006020828403121561478c57600080fd5b5051919050565b634e487b7160e01b600052604160045260246000fd5b634e487b7160e01b600052603260045260246000fd5b634e487b7160e01b600052601160045260246000fd5b6000600182016147e7576147e76147bf565b5060010190565b60006020828403121561480057600080fd5b8151610b388161453d565b600181811c9082168061481f57607f821691505b60208210810361483f57634e487b7160e01b600052602260045260246000fd5b50919050565b600181815b80851115614880578160001904821115614866576148666147bf565b8085161561487357918102915b93841c939080029061484a565b509250929050565b60008261489757506001610ba6565b816148a457506000610ba6565b81600181146148ba57600281146148c4576148e0565b6001915050610ba6565b60ff8411156148d5576148d56147bf565b50506001821b610ba6565b5060208310610133831016604e8410600b8410161715614903575081810a610ba6565b61490d8383614845565b8060001904821115614921576149216147bf565b029392505050565b6000610b388383614888565b60006020828403121561494757600080fd5b81518015158114610b3857600080fd5b60208082526007908201526621736f7572636560c81b604082015260600190565b6000816000190483118215151615614992576149926147bf565b500290565b6000828210156149a9576149a96147bf565b500390565b600082198211156149c1576149c16147bf565b500190565b6000826149e357634e487b7160e01b600052601260045260246000fd5b500490565b600080835481600182811c915080831680614a0457607f831692505b60208084108203614a2357634e487b7160e01b86526022600452602486fd5b818015614a375760018114614a4857614a75565b60ff19861689528489019650614a75565b60008a81526020902060005b86811015614a6d5781548b820152908501908301614a54565b505084890196505b509498975050505050505050565b604081526000614a9660408301856144e5565b90508260208301529392505050565b6020808252602b908201527f496e697469616c697a61626c653a20636f6e7472616374206973206e6f74206960408201526a6e697469616c697a696e6760a81b606082015260800190565b604051610120810167ffffffffffffffff81118282101715614b1457614b14614793565b60405290565b604051601f8201601f1916810167ffffffffffffffff81118282101715614b4357614b43614793565b604052919050565b60006020808385031215614b5e57600080fd5b825167ffffffffffffffff80821115614b7657600080fd5b818501915085601f830112614b8a57600080fd5b815181811115614b9c57614b9c614793565b8060051b9150614bad848301614b1a565b8181529183018401918481019088841115614bc757600080fd5b938501935b83851015614bf15784519250614be18361453d565b8282529385019390850190614bcc565b98975050505050505050565b60006101208284031215614c1057600080fd5b614c18614af0565b825181526020830151602082015260408301516040820152606083015160608201526080830151608082015260a083015160a082015260c083015160c082015260e083015160e08201526101008084015181830152508091505092915050565b600060208284031215614c8a57600080fd5b815167ffffffffffffffff80821115614ca257600080fd5b818401915084601f830112614cb657600080fd5b815181811115614cc857614cc8614793565b614cdb601f8201601f1916602001614b1a565b9150808252856020828501011115614cf257600080fd5b6138948160208401602086016144b9565b60008451614d158184602089016144b9565b6101d160f51b9083019081528451614d348160028401602089016144b9565b602d60f81b600292909101918201528351614d568160038401602088016144b9565b0160030195945050505050565b60008451614d758184602089016144b9565b8083019050602d60f81b8082528551614d95816001850160208a016144b9565b60019201918201528351614db08160028401602088016144b9565b0160020195945050505050565b604081526000614dd060408301856144e5565b905060018060a01b03831660208301529392505050565b600060208284031215614df957600080fd5b8151610b3881614670565b60008251614e168184602087016144b9565b919091019291505056feddf252ad1be2c89b69c2b068fc378daa952ba7f163c4a11628f55a4df523b3efa2646970667358221220678d9823d0dca8e80d89c33a67120bdb40e3088d93d350397ce7f6e4e228d5a764736f6c634300080d0033",
    "sourcePath": "/Users/misha/Library/Mobile Documents/com~apple~CloudDocs/Dev/construct-finance/construct_V0/src/modules/YearnConvexModule.sol",
    "compiler": {
        "name": "solc",
        "version": "0.8.13+commit.abaa5c0e"
    },
    "functionHashes": {
        "DOMAIN_SEPARATOR()": "3644e515",
        "acceptOwner()": "ebbc4965",
        "affiliate()": "45e05f43",
        "allVaults()": "063effeb",
        "allowance(address,address)": "dd62ed3e",
        "approve(address,uint256)": "095ea7b3",
        "asset()": "38d52e0f",
        "balanceOf(address)": "70a08231",
        "bestVault()": "e95b2de8",
        "convertToAssets(uint256)": "07a2d13a",
        "convertToShares(uint256)": "c6e6f592",
        "convexBooster()": "2cdacb50",
        "convexPid()": "86993bef",
        "decimals()": "313ce567",
        "deposit(uint256,address)": "6e553f65",
        "factory()": "c45a0155",
        "getModuleApr()": "7f240fbf",
        "implementation()": "5c60da1b",
        "initialize(address,address,address,address)": "f8c8765e",
        "initializeStrategy(address)": "678cbcb5",
        "maxDeposit(address)": "402d267d",
        "maxMint(address)": "c63d75b6",
        "maxRedeem(address)": "d905777e",
        "maxWithdraw(address)": "ce96cb77",
        "migrate()": "8fd3ab80",
        "migrate(uint256)": "454b0608",
        "migrate(uint256,uint256)": "3e54bacb",
        "mint(uint256,address)": "94bf804d",
        "moduleProfit()": "f1d32624",
        "name()": "06fdde03",
        "nonces(address)": "7ecebe00",
        "oracle()": "7dc0d1d0",
        "owner()": "8da5cb5b",
        "pendingAffiliate()": "b38a440e",
        "pendingOwner()": "e30c3978",
        "permit(address,address,uint256,uint256,uint8,bytes32,bytes32)": "d505accf",
        "previewDeposit(uint256)": "ef8b30f7",
        "previewMint(uint256)": "b3d7f6b9",
        "previewRedeem(uint256)": "4cdad506",
        "previewWithdraw(uint256)": "0a28a477",
        "product()": "bf9ce952",
        "redeem(uint256,address,address)": "ba087652",
        "registry()": "7b103999",
        "setOwner(address)": "13af4035",
        "setRegistry(address)": "a91ee0dc",
        "source()": "67e828bf",
        "symbol()": "95d89b41",
        "target()": "d4b83992",
        "token()": "fc0c546a",
        "totalAssets()": "01e1d114",
        "totalSupply()": "18160ddd",
        "totalTargetBalance()": "2bf8eb1d",
        "totalVaultBalance(address)": "30e5065e",
        "transfer(address,uint256)": "a9059cbb",
        "transferFrom(address,address,uint256)": "23b872dd",
        "withdraw(uint256,address,address)": "b460af94",
        "yearnStrategyHelper()": "183b66b1"
    },
    "gasEstimates": {
        "creation": {
            "codeDepositCost": "4017200",
            "executionCost": "infinite",
            "totalCost": "infinite"
        },
        "external": {
            "DOMAIN_SEPARATOR()": "infinite",
            "acceptOwner()": "50879",
            "affiliate()": "2449",
            "allVaults()": "infinite",
            "allowance(address,address)": "infinite",
            "approve(address,uint256)": "24585",
            "asset()": "2428",
            "balanceOf(address)": "2591",
            "bestVault()": "infinite",
            "convertToAssets(uint256)": "infinite",
            "convertToShares(uint256)": "infinite",
            "convexBooster()": "infinite",
            "convexPid()": "2397",
            "decimals()": "2447",
            "deposit(uint256,address)": "infinite",
            "factory()": "2405",
            "getModuleApr()": "infinite",
            "implementation()": "2405",
            "initialize(address,address,address,address)": "infinite",
            "initializeStrategy(address)": "infinite",
            "maxDeposit(address)": "409",
            "maxMint(address)": "431",
            "maxRedeem(address)": "2653",
            "maxWithdraw(address)": "infinite",
            "migrate()": "infinite",
            "migrate(uint256)": "infinite",
            "migrate(uint256,uint256)": "infinite",
            "mint(uint256,address)": "infinite",
            "moduleProfit()": "269",
            "name()": "infinite",
            "nonces(address)": "2571",
            "oracle()": "infinite",
            "owner()": "2405",
            "pendingAffiliate()": "2449",
            "pendingOwner()": "2426",
            "permit(address,address,uint256,uint256,uint8,bytes32,bytes32)": "infinite",
            "previewDeposit(uint256)": "infinite",
            "previewMint(uint256)": "infinite",
            "previewRedeem(uint256)": "infinite",
            "previewWithdraw(uint256)": "infinite",
            "product()": "2470",
            "redeem(uint256,address,address)": "infinite",
            "registry()": "2448",
            "setOwner(address)": "26840",
            "setRegistry(address)": "infinite",
            "source()": "2449",
            "symbol()": "infinite",
            "target()": "2426",
            "token()": "2469",
            "totalAssets()": "infinite",
            "totalSupply()": "2353",
            "totalTargetBalance()": "infinite",
            "totalVaultBalance(address)": "infinite",
            "transfer(address,uint256)": "infinite",
            "transferFrom(address,address,uint256)": "infinite",
            "withdraw(uint256,address,address)": "infinite",
            "yearnStrategyHelper()": "infinite"
        },
        "internal": {
            "getActiveStrategy()": "infinite",
            "getConvexPid()": "infinite",
            "getConvexRewardsContract()": "infinite",
            "getCvxMint(uint256)": "infinite",
            "getExtraRewards(address)": "infinite",
            "getGrossApr()": "infinite",
            "getRewardApr(address)": "infinite",
            "getRewardToken(address)": "infinite"
        }
    }
}